{"abi":[{"type":"function","name":"FEE_PROVIDER_REVISION","inputs":[],"outputs":[{"name":"","type":"uint256","internalType":"uint256"}],"stateMutability":"view"},{"type":"function","name":"calculateLoanOriginationFee","inputs":[{"name":"_user","type":"address","internalType":"address"},{"name":"_amount","type":"uint256","internalType":"uint256"}],"outputs":[{"name":"","type":"uint256","internalType":"uint256"}],"stateMutability":"view"},{"type":"function","name":"getLoanOriginationFeePercentage","inputs":[],"outputs":[{"name":"","type":"uint256","internalType":"uint256"}],"stateMutability":"view"},{"type":"function","name":"initialize","inputs":[{"name":"_addressesProvider","type":"address","internalType":"address"}],"outputs":[],"stateMutability":"nonpayable"},{"type":"function","name":"originationFeePercentage","inputs":[],"outputs":[{"name":"","type":"uint256","internalType":"uint256"}],"stateMutability":"view"}],"bytecode":{"object":"0x6080806040523461001a576000805561025990816100208239f35b600080fdfe6080604052600436101561001257600080fd5b6000803560e01c9081639403ed3a14610083578163b0d73d4e1461006557508063c211f9a414610060578063c4d66de81461005b5763e563a7d01461005657600080fd5b6101cb565b6100d8565b61009f565b34610080578060031936011261008057602060405160018152f35b80fd5b3461008057806003193601126100805760345460805260206080f35b346100bd5760003660031901126100bd576020603454604051908152f35b600080fd5b600435906001600160a01b03821682036100bd57565b346100bd5760203660031901126100bd576100f16100c2565b5060ff60015416801590816101c2575b80156101b6575b1561015a578061013a575b6101236608e1bc9bf04000603455565b61012957005b61013860ff1960015416600155565b005b61014b600160ff1981541617600155565b6101556001600055565b610113565b60405162461bcd60e51b815260206004820152602e60248201527f436f6e747261637420696e7374616e63652068617320616c726561647920626560448201526d195b881a5b9a5d1a585b1a5e995960921b6064820152608490fd5b50600054600111610108565b50303b15610101565b346100bd5760403660031901126100bd576101e46100c2565b5060345460243581156706f05b59d3b200001983900482111517156100bd57670de0b6b3a76400006706f05b59d3b20000602093604051930201048152f3fea26469706673582212206237e1db146cac6344925762b75f403308e89ef848f7c653f611371b1012fd7364736f6c63430008180033","linkReferences":{}},"methodIdentifiers":{"FEE_PROVIDER_REVISION()":"b0d73d4e","calculateLoanOriginationFee(address,uint256)":"e563a7d0","getLoanOriginationFeePercentage()":"c211f9a4","initialize(address)":"c4d66de8","originationFeePercentage()":"9403ed3a"},"id":4}