{"abi":[{"type":"fallback","stateMutability":"payable"},{"type":"function","name":"admin","inputs":[],"outputs":[{"name":"","type":"address","internalType":"address"}],"stateMutability":"nonpayable"},{"type":"function","name":"changeAdmin","inputs":[{"name":"newAdmin","type":"address","internalType":"address"}],"outputs":[],"stateMutability":"nonpayable"},{"type":"function","name":"implementation","inputs":[],"outputs":[{"name":"","type":"address","internalType":"address"}],"stateMutability":"nonpayable"},{"type":"function","name":"initialize","inputs":[{"name":"_logic","type":"address","internalType":"address"},{"name":"_admin","type":"address","internalType":"address"},{"name":"_data","type":"bytes","internalType":"bytes"}],"outputs":[],"stateMutability":"payable"},{"type":"function","name":"initialize","inputs":[{"name":"_logic","type":"address","internalType":"address"},{"name":"_data","type":"bytes","internalType":"bytes"}],"outputs":[],"stateMutability":"payable"},{"type":"function","name":"upgradeTo","inputs":[{"name":"newImplementation","type":"address","internalType":"address"}],"outputs":[],"stateMutability":"nonpayable"},{"type":"function","name":"upgradeToAndCall","inputs":[{"name":"newImplementation","type":"address","internalType":"address"},{"name":"data","type":"bytes","internalType":"bytes"}],"outputs":[],"stateMutability":"payable"},{"type":"event","name":"AdminChanged","inputs":[{"name":"previousAdmin","type":"address","indexed":false,"internalType":"address"},{"name":"newAdmin","type":"address","indexed":false,"internalType":"address"}],"anonymous":false},{"type":"event","name":"Upgraded","inputs":[{"name":"implementation","type":"address","indexed":true,"internalType":"address"}],"anonymous":false}],"bytecode":{"object":"0x608080604052346100165761063f908161001c8239f35b600080fdfe6080604052600436106104dd576000803560e01c9081633659cfe61461007f575080634f1ef2861461007a5780635c60da1b146100755780638f28397014610070578063cf7a1d771461006b578063d1f57894146100665763f851a440036104dd57610425565b6103e7565b61036d565b6101d7565b610188565b6100e8565b346100ca5760203660031901126100ca576100986100cd565b6000805160206105ca83398151915254336001600160a01b03909116036100c5576100c29061050c565b80f35b6104dd565b80fd5b600435906001600160a01b03821682036100e357565b600080fd5b60403660031901126100e3576100fc6100cd565b60243567ffffffffffffffff918282116100e357366023830112156100e35781600401359283116100e35736602484840101116100e3576000805160206105ca83398151915254336001600160a01b03909116036100c55760246000939284936101658461050c565b80604051938493018337810184815203915af4610180610467565b50156100e357005b346100e35760003660031901126100e3576000805160206105ca833981519152546001600160a01b039033908216036100c5576000805160206105ea8339815191525460405191168152602090f35b346100e35760203660031901126100e3576101f06100cd565b6000805160206105ca83398151915280546001600160a01b0392919033908416036100c55782821690811561026a57610268937f7e644d79422f17c01e4894b5f4f588d331ebfa28653d42ae832dc59e38c9798f9260409254918351921682526020820152a16000805160206105ca83398151915255565b005b60405162461bcd60e51b815260206004820152603660248201527f43616e6e6f74206368616e6765207468652061646d696e206f6620612070726f604482015275787920746f20746865207a65726f206164647265737360501b6064820152608490fd5b634e487b7160e01b600052604160045260246000fd5b6040519190601f01601f1916820167ffffffffffffffff81118382101761030a57604052565b6102ce565b67ffffffffffffffff811161030a57601f01601f191660200190565b81601f820112156100e35780359061034a6103458361030f565b6102e4565b92828452602083830101116100e357816000926020809301838601378301015290565b60603660031901126100e3576103816100cd565b602435906001600160a01b0380831683036100e35760443567ffffffffffffffff81116100e3576103b690369060040161032b565b906000805160206105ea83398151915254166100e3576103d59161048d565b6000805160206105ca83398151915255005b60403660031901126100e3576103fb6100cd565b6024359067ffffffffffffffff82116100e35761041f61026892369060040161032b565b9061048d565b346100e35760003660031901126100e3576000805160206105ca83398151915280546001600160a01b039033908216036100c557602091549060405191168152f35b3d15610488573d9061047b6103458361030f565b9182523d6000602084013e565b606090565b6000805160206105ea833981519152549091906001600160a01b03166100e3576104b682610545565b8051806104c257505050565b6000926020849301905af46104d5610467565b50156100e357565b6000805160206105ea833981519152546000808092368280378136915af43d82803e15610508573d90f35b3d90fd5b61051581610545565b6001600160a01b03167fbc7cd75a20ee27fd9adebab32041f755214dbc6bffa90cc0225b39da2e5c2d3b600080a2565b803b1561055e576000805160206105ea83398151915255565b60405162461bcd60e51b815260206004820152603b60248201527f43616e6e6f742073657420612070726f787920696d706c656d656e746174696f60448201527f6e20746f2061206e6f6e2d636f6e7472616374206164647265737300000000006064820152608490fdfeb53127684a568b3173ae13b9f8a6016e243e63b6e8ee1178d6a717850b5d6103360894a13ba1a3210667c828492db98dca3e2076cc3735a920a3ca505d382bbca26469706673582212208025324d8645ef8177bc7533d931d671336657531f3a300d772a0b2782ca1e8464736f6c63430008180033","linkReferences":{}},"methodIdentifiers":{"admin()":"f851a440","changeAdmin(address)":"8f283970","implementation()":"5c60da1b","initialize(address,address,bytes)":"cf7a1d77","initialize(address,bytes)":"d1f57894","upgradeTo(address)":"3659cfe6","upgradeToAndCall(address,bytes)":"4f1ef286"},"id":29}