{"abi":[{"type":"constructor","inputs":[{"name":"_reserve","type":"address","internalType":"address"},{"name":"_provider","type":"address","internalType":"contract LendingPoolAddressesProvider"},{"name":"_baseVariableBorrowRate","type":"uint256","internalType":"uint256"},{"name":"_variableRateSlope1","type":"uint256","internalType":"uint256"},{"name":"_variableRateSlope2","type":"uint256","internalType":"uint256"},{"name":"_stableRateSlope1","type":"uint256","internalType":"uint256"},{"name":"_stableRateSlope2","type":"uint256","internalType":"uint256"}],"stateMutability":"nonpayable"},{"type":"function","name":"EXCESS_UTILIZATION_RATE","inputs":[],"outputs":[{"name":"","type":"uint256","internalType":"uint256"}],"stateMutability":"view"},{"type":"function","name":"OPTIMAL_UTILIZATION_RATE","inputs":[],"outputs":[{"name":"","type":"uint256","internalType":"uint256"}],"stateMutability":"view"},{"type":"function","name":"addressesProvider","inputs":[],"outputs":[{"name":"","type":"address","internalType":"contract LendingPoolAddressesProvider"}],"stateMutability":"view"},{"type":"function","name":"baseVariableBorrowRate","inputs":[],"outputs":[{"name":"","type":"uint256","internalType":"uint256"}],"stateMutability":"view"},{"type":"function","name":"calculateInterestRates","inputs":[{"name":"_reserve","type":"address","internalType":"address"},{"name":"_availableLiquidity","type":"uint256","internalType":"uint256"},{"name":"_totalBorrowsStable","type":"uint256","internalType":"uint256"},{"name":"_totalBorrowsVariable","type":"uint256","internalType":"uint256"},{"name":"_averageStableBorrowRate","type":"uint256","internalType":"uint256"}],"outputs":[{"name":"currentLiquidityRate","type":"uint256","internalType":"uint256"},{"name":"currentStableBorrowRate","type":"uint256","internalType":"uint256"},{"name":"currentVariableBorrowRate","type":"uint256","internalType":"uint256"}],"stateMutability":"view"},{"type":"function","name":"getBaseVariableBorrowRate","inputs":[],"outputs":[{"name":"","type":"uint256","internalType":"uint256"}],"stateMutability":"view"},{"type":"function","name":"getStableRateSlope1","inputs":[],"outputs":[{"name":"","type":"uint256","internalType":"uint256"}],"stateMutability":"view"},{"type":"function","name":"getStableRateSlope2","inputs":[],"outputs":[{"name":"","type":"uint256","internalType":"uint256"}],"stateMutability":"view"},{"type":"function","name":"getVariableRateSlope1","inputs":[],"outputs":[{"name":"","type":"uint256","internalType":"uint256"}],"stateMutability":"view"},{"type":"function","name":"getVariableRateSlope2","inputs":[],"outputs":[{"name":"","type":"uint256","internalType":"uint256"}],"stateMutability":"view"},{"type":"function","name":"reserve","inputs":[],"outputs":[{"name":"","type":"address","internalType":"address"}],"stateMutability":"view"},{"type":"function","name":"stableRateSlope1","inputs":[],"outputs":[{"name":"","type":"uint256","internalType":"uint256"}],"stateMutability":"view"},{"type":"function","name":"stableRateSlope2","inputs":[],"outputs":[{"name":"","type":"uint256","internalType":"uint256"}],"stateMutability":"view"},{"type":"function","name":"variableRateSlope1","inputs":[],"outputs":[{"name":"","type":"uint256","internalType":"uint256"}],"stateMutability":"view"},{"type":"function","name":"variableRateSlope2","inputs":[],"outputs":[{"name":"","type":"uint256","internalType":"uint256"}],"stateMutability":"view"}],"bytecode":{"object":"0x6080346100b857601f61077d38819003918201601f19168301916001600160401b038311848410176100bd5780849260e0946040528339810103126100b85780516001600160a01b038082169290918390036100b85760208101519182168092036100b857604081015190606081015160808201519060c060a08401519301519360018060a01b03199586600054161760005560015560025560035560045560055560065416176006556040516106a990816100d48239f35b600080fd5b634e487b7160e01b600052604160045260246000fdfe6080604052600436101561001257600080fd5b60003560e01c80630b3429a2146100f35780630bdf953f146100c657806314e32da4146100d057806317319873146100ee57806334762ca5146100da57806357e37af0146100e957806365614f81146100c15780637b832f58146100e4578063a15f30ac146100df578063b2589544146100da578063c72c4d10146100d5578063ccab01a3146100d0578063cd3293de146100cb578063d5cd7391146100c65763f4202409146100c157600080fd5b6103dc565b610116565b61044a565b610134565b610421565b610178565b6103fa565b6100f3565b6101a7565b610152565b34610111576000366003190112610111576020600254604051908152f35b600080fd5b34610111576000366003190112610111576020600454604051908152f35b34610111576000366003190112610111576020600554604051908152f35b346101115760003660031901126101115760206040516aa56fa5b99019a5c80000008152f35b34610111576000366003190112610111576020600154604051908152f35b6001600160a01b0381160361011157565b346101115760a0366003190112610111576004356101c481610196565b604435906064359060006024356101db8486610489565b8015806103d4575b156103bb57505080915b81546001600160a01b03166040518091631b0c55dd60e11b825281600460209485935afa92831561038957610253938392869161038e575b5060405163bb85c0bb60e01b81526001600160a01b0390921660048301529093849190829081906024820190565b03916001600160a01b03165afa928315610389579261035c575b5050806b0295be96e64066972000000083116000146103145750816102c56102bc956102e66102ca6102f2956102c56102b06102ab6103109a610506565b61056a565b9a8b9260045490610489565b60055490610489565b6105d8565b976102c56102dd60015460025490610489565b60035490610489565b80965b60843592610614565b91604051938493846040919493926060820195825260208201520152565b0390f35b6102f29150916102c561033f6103109461033960045461033386610520565b906105d8565b90610489565b9561035561034c84610520565b600254906105d8565b80966102e9565b61037b9250803d10610382575b610373818361049b565b8101906104f7565b388061026d565b503d610369565b6104eb565b6103ae9150833d85116103b4575b6103a6818361049b565b8101906104d3565b38610225565b503d61039c565b6103c8816103ce93610489565b906105b2565b916101ed565b5081156101e3565b34610111576000366003190112610111576020600354604051908152f35b346101115760003660031901126101115760206040516b0295be96e6406697200000008152f35b34610111576000366003190112610111576000546040516001600160a01b039091168152602090f35b34610111576000366003190112610111576006546040516001600160a01b039091168152602090f35b634e487b7160e01b600052601160045260246000fd5b9190820180921161049657565b610473565b90601f8019910116810190811067ffffffffffffffff8211176104bd57604052565b634e487b7160e01b600052604160045260246000fd5b9081602091031261011157516104e881610196565b90565b6040513d6000823e3d90fd5b90816020910312610111575190565b6b0295be96e64066971fffffff1981019190821161049657565b744f3a68dbc8f03f243baf513267aa9a3ee524f8e0288111610111576b014adf4b7320334b900000006b033b2e3c9fd0803ce80000006b0295be96e6406697200000009202010490565b744f3a68dbc8f03f243baf513267aa9a3ee524f8e0288111610111576a52b7d2dcc80cd2e40000006b033b2e3c9fd0803ce80000006aa56fa5b99019a5c80000009202010490565b8160011c906b033b2e3c9fd0803ce8000000908183190481118415176101115702010490565b816b019d971e4fe8401e74000000190481111582151715610111576b033b2e3c9fd0803ce800000091026b019d971e4fe8401e74000000010490565b9192818301938484116104965784156106555761063a6102c5916102c56106409561065f565b9361065f565b8101809111610496576103c86104e89261065f565b5050505050600090565b90633b9aca0091828102928304036101115756fea26469706673582212202c64280fb35943b3a767549544e744b9b37b5726fc8dff70d9c66161496dad7b64736f6c63430008180033","linkReferences":{}},"methodIdentifiers":{"EXCESS_UTILIZATION_RATE()":"17319873","OPTIMAL_UTILIZATION_RATE()":"a15f30ac","addressesProvider()":"c72c4d10","baseVariableBorrowRate()":"b2589544","calculateInterestRates(address,uint256,uint256,uint256,uint256)":"57e37af0","getBaseVariableBorrowRate()":"34762ca5","getStableRateSlope1()":"d5cd7391","getStableRateSlope2()":"14e32da4","getVariableRateSlope1()":"0b3429a2","getVariableRateSlope2()":"f4202409","reserve()":"cd3293de","stableRateSlope1()":"0bdf953f","stableRateSlope2()":"ccab01a3","variableRateSlope1()":"7b832f58","variableRateSlope2()":"65614f81"},"id":16}