{"abi":[{"type":"constructor","inputs":[{"name":"_provider","type":"address","internalType":"contract LendingPoolAddressesProvider"}],"stateMutability":"nonpayable"},{"type":"fallback","stateMutability":"payable"},{"type":"function","name":"balanceOf","inputs":[{"name":"_user","type":"address","internalType":"address"},{"name":"_token","type":"address","internalType":"address"}],"outputs":[{"name":"","type":"uint256","internalType":"uint256"}],"stateMutability":"view"},{"type":"function","name":"getUserWalletBalances","inputs":[{"name":"_user","type":"address","internalType":"address"}],"outputs":[{"name":"","type":"address[]","internalType":"address[]"},{"name":"","type":"uint256[]","internalType":"uint256[]"}],"stateMutability":"view"}],"bytecode":{"object":"0x60803461007457601f6105d938819003918201601f19168301916001600160401b038311848410176100795780849260209460405283398101031261007457516001600160a01b0381169081900361007457600080546001600160a01b03191691909117905560405161054990816100908239f35b600080fd5b634e487b7160e01b600052604160045260246000fdfe60806040818152600491600436101561006e575b815162461bcd60e51b815260206004820152602e60248201527f57616c6c657442616c616e636550726f766964657220646f6573206e6f74206160448201526d6363657074207061796d656e747360901b6064820152608490fd5b600092833560e01c9182639e3c9309146100db57505063f7888aec146100945781610013565b346100d757806003193601126100d7576100ac6103f8565b602435926001600160a01b03841684036100d457506020926100cd9161048d565b9051908152f35b80fd5b5080fd5b915091346103f457602091826003193601126103f0576100f96103f8565b9160018060a01b03918481600481868b541663076b7fbb60e51b82525afa9081156103e65790839188916103a8575b508251630240bc6b60e21b81529291168783600481845afa92831561039e5788936102fb575b5082519561017361015e8861044b565b9761016b8551998a610413565b80895261044b565b8782019890601f1901368a37895b855181101561027a57866101958288610463565b518651630283aeb760e11b8152911683820152908382602481885afa8015610270578c90610233575b60019250156102285773eeeeeeeeeeeeeeeeeeeeeeeeeeeeeeeeeeeeeeee886101e7838a610463565b51161461021657610204886101fc838a610463565b51168a61048d565b61020e828c610463565b525b01610181565b8831610222828c610463565b52610210565b8b610222828c610463565b50908381813d8311610269575b61024a8183610413565b810103126102655751908115158203610265576001916101be565b8b80fd5b503d610240565b86513d8e823e3d90fd5b86858b8d89878e85519686889788019088528451809152836060890195019186905b8282106102de5750505050858303868301525180835291810193925b8281106102c757505050500390f35b8351855286955093810193928101926001016102b8565b8351811687528a995095850195928501926001919091019061029c565b9092503d8089833e61030d8183610413565b81019086818303126103965780519067ffffffffffffffff821161039a57019080601f830112156103965781516103438161044b565b9261035085519485610413565b818452888085019260051b820101928311610392578801905b82821061037a57505050913861014e565b81518781168103610265578152908801908801610369565b8a80fd5b8880fd5b8980fd5b82513d8a823e3d90fd5b809250868092503d83116103df575b6103c18183610413565b810103126103db575182811681036103db57829038610128565b8680fd5b503d6103b7565b82513d89823e3d90fd5b8480fd5b8380fd5b600435906001600160a01b038216820361040e57565b600080fd5b90601f8019910116810190811067ffffffffffffffff82111761043557604052565b634e487b7160e01b600052604160045260246000fd5b67ffffffffffffffff81116104355760051b60200190565b80518210156104775760209160051b010190565b634e487b7160e01b600052603260045260246000fd5b813b1561050c576040516370a0823160e01b81526001600160a01b0391821660048201529160209183916024918391165afa908115610500576000916104d1575090565b90506020813d6020116104f8575b816104ec60209383610413565b8101031261040e575190565b3d91506104df565b6040513d6000823e3d90fd5b505060009056fea2646970667358221220e42b3b9608ae86970ab40859e184cc97924fdce797434365767c2d4db5eb7ed164736f6c63430008180033","linkReferences":{}},"methodIdentifiers":{"balanceOf(address,address)":"f7888aec","getUserWalletBalances(address)":"9e3c9309"},"id":28}