{"abi":[{"type":"function","name":"LENDINGPOOL_REVISION","inputs":[],"outputs":[{"name":"","type":"uint256","internalType":"uint256"}],"stateMutability":"view"},{"type":"function","name":"addressesProvider","inputs":[],"outputs":[{"name":"","type":"address","internalType":"contract LendingPoolAddressesProvider"}],"stateMutability":"view"},{"type":"function","name":"borrow","inputs":[{"name":"_reserve","type":"address","internalType":"address"},{"name":"_amount","type":"uint256","internalType":"uint256"},{"name":"_interestRateMode","type":"uint256","internalType":"uint256"},{"name":"_referralCode","type":"uint16","internalType":"uint16"}],"outputs":[],"stateMutability":"nonpayable"},{"type":"function","name":"core","inputs":[],"outputs":[{"name":"","type":"address","internalType":"contract LendingPoolCore"}],"stateMutability":"view"},{"type":"function","name":"dataProvider","inputs":[],"outputs":[{"name":"","type":"address","internalType":"contract LendingPoolDataProvider"}],"stateMutability":"view"},{"type":"function","name":"deposit","inputs":[{"name":"_reserve","type":"address","internalType":"address"},{"name":"_amount","type":"uint256","internalType":"uint256"},{"name":"_referralCode","type":"uint16","internalType":"uint16"}],"outputs":[],"stateMutability":"payable"},{"type":"function","name":"flashLoan","inputs":[{"name":"_receiver","type":"address","internalType":"address"},{"name":"_reserve","type":"address","internalType":"address"},{"name":"_amount","type":"uint256","internalType":"uint256"},{"name":"_params","type":"bytes","internalType":"bytes"}],"outputs":[],"stateMutability":"nonpayable"},{"type":"function","name":"getReserveConfigurationData","inputs":[{"name":"_reserve","type":"address","internalType":"address"}],"outputs":[{"name":"ltv","type":"uint256","internalType":"uint256"},{"name":"liquidationThreshold","type":"uint256","internalType":"uint256"},{"name":"liquidationBonus","type":"uint256","internalType":"uint256"},{"name":"interestRateStrategyAddress","type":"address","internalType":"address"},{"name":"usageAsCollateralEnabled","type":"bool","internalType":"bool"},{"name":"borrowingEnabled","type":"bool","internalType":"bool"},{"name":"stableBorrowRateEnabled","type":"bool","internalType":"bool"},{"name":"isActive","type":"bool","internalType":"bool"}],"stateMutability":"view"},{"type":"function","name":"getReserveData","inputs":[{"name":"_reserve","type":"address","internalType":"address"}],"outputs":[{"name":"totalLiquidity","type":"uint256","internalType":"uint256"},{"name":"availableLiquidity","type":"uint256","internalType":"uint256"},{"name":"totalBorrowsStable","type":"uint256","internalType":"uint256"},{"name":"totalBorrowsVariable","type":"uint256","internalType":"uint256"},{"name":"liquidityRate","type":"uint256","internalType":"uint256"},{"name":"variableBorrowRate","type":"uint256","internalType":"uint256"},{"name":"stableBorrowRate","type":"uint256","internalType":"uint256"},{"name":"averageStableBorrowRate","type":"uint256","internalType":"uint256"},{"name":"utilizationRate","type":"uint256","internalType":"uint256"},{"name":"liquidityIndex","type":"uint256","internalType":"uint256"},{"name":"variableBorrowIndex","type":"uint256","internalType":"uint256"},{"name":"aTokenAddress","type":"address","internalType":"address"},{"name":"lastUpdateTimestamp","type":"uint40","internalType":"uint40"}],"stateMutability":"view"},{"type":"function","name":"getReserves","inputs":[],"outputs":[{"name":"","type":"address[]","internalType":"address[]"}],"stateMutability":"view"},{"type":"function","name":"getUserAccountData","inputs":[{"name":"_user","type":"address","internalType":"address"}],"outputs":[{"name":"totalLiquidityETH","type":"uint256","internalType":"uint256"},{"name":"totalCollateralETH","type":"uint256","internalType":"uint256"},{"name":"totalBorrowsETH","type":"uint256","internalType":"uint256"},{"name":"totalFeesETH","type":"uint256","internalType":"uint256"},{"name":"availableBorrowsETH","type":"uint256","internalType":"uint256"},{"name":"currentLiquidationThreshold","type":"uint256","internalType":"uint256"},{"name":"ltv","type":"uint256","internalType":"uint256"},{"name":"healthFactor","type":"uint256","internalType":"uint256"}],"stateMutability":"view"},{"type":"function","name":"getUserReserveData","inputs":[{"name":"_reserve","type":"address","internalType":"address"},{"name":"_user","type":"address","internalType":"address"}],"outputs":[{"name":"currentATokenBalance","type":"uint256","internalType":"uint256"},{"name":"currentBorrowBalance","type":"uint256","internalType":"uint256"},{"name":"principalBorrowBalance","type":"uint256","internalType":"uint256"},{"name":"borrowRateMode","type":"uint256","internalType":"uint256"},{"name":"borrowRate","type":"uint256","internalType":"uint256"},{"name":"liquidityRate","type":"uint256","internalType":"uint256"},{"name":"originationFee","type":"uint256","internalType":"uint256"},{"name":"variableBorrowIndex","type":"uint256","internalType":"uint256"},{"name":"lastUpdateTimestamp","type":"uint256","internalType":"uint256"},{"name":"usageAsCollateralEnabled","type":"bool","internalType":"bool"}],"stateMutability":"view"},{"type":"function","name":"initialize","inputs":[{"name":"_addressesProvider","type":"address","internalType":"contract LendingPoolAddressesProvider"}],"outputs":[],"stateMutability":"nonpayable"},{"type":"function","name":"liquidationCall","inputs":[{"name":"_collateral","type":"address","internalType":"address"},{"name":"_reserve","type":"address","internalType":"address"},{"name":"_user","type":"address","internalType":"address"},{"name":"_purchaseAmount","type":"uint256","internalType":"uint256"},{"name":"_receiveAToken","type":"bool","internalType":"bool"}],"outputs":[],"stateMutability":"payable"},{"type":"function","name":"parametersProvider","inputs":[],"outputs":[{"name":"","type":"address","internalType":"contract LendingPoolParametersProvider"}],"stateMutability":"view"},{"type":"function","name":"rebalanceStableBorrowRate","inputs":[{"name":"_reserve","type":"address","internalType":"address"},{"name":"_user","type":"address","internalType":"address"}],"outputs":[],"stateMutability":"nonpayable"},{"type":"function","name":"redeemUnderlying","inputs":[{"name":"_reserve","type":"address","internalType":"address"},{"name":"_user","type":"address","internalType":"address payable"},{"name":"_amount","type":"uint256","internalType":"uint256"},{"name":"_aTokenBalanceAfterRedeem","type":"uint256","internalType":"uint256"}],"outputs":[],"stateMutability":"nonpayable"},{"type":"function","name":"repay","inputs":[{"name":"_reserve","type":"address","internalType":"address"},{"name":"_amount","type":"uint256","internalType":"uint256"},{"name":"_onBehalfOf","type":"address","internalType":"address payable"}],"outputs":[],"stateMutability":"payable"},{"type":"function","name":"setUserUseReserveAsCollateral","inputs":[{"name":"_reserve","type":"address","internalType":"address"},{"name":"_useAsCollateral","type":"bool","internalType":"bool"}],"outputs":[],"stateMutability":"nonpayable"},{"type":"function","name":"swapBorrowRateMode","inputs":[{"name":"_reserve","type":"address","internalType":"address"}],"outputs":[],"stateMutability":"nonpayable"},{"type":"event","name":"Borrow","inputs":[{"name":"_reserve","type":"address","indexed":true,"internalType":"address"},{"name":"_user","type":"address","indexed":true,"internalType":"address"},{"name":"_amount","type":"uint256","indexed":false,"internalType":"uint256"},{"name":"_borrowRateMode","type":"uint256","indexed":false,"internalType":"uint256"},{"name":"_borrowRate","type":"uint256","indexed":false,"internalType":"uint256"},{"name":"_originationFee","type":"uint256","indexed":false,"internalType":"uint256"},{"name":"_borrowBalanceIncrease","type":"uint256","indexed":false,"internalType":"uint256"},{"name":"_referral","type":"uint16","indexed":true,"internalType":"uint16"},{"name":"_timestamp","type":"uint256","indexed":false,"internalType":"uint256"}],"anonymous":false},{"type":"event","name":"Deposit","inputs":[{"name":"_reserve","type":"address","indexed":true,"internalType":"address"},{"name":"_user","type":"address","indexed":true,"internalType":"address"},{"name":"_amount","type":"uint256","indexed":false,"internalType":"uint256"},{"name":"_referral","type":"uint16","indexed":true,"internalType":"uint16"},{"name":"_timestamp","type":"uint256","indexed":false,"internalType":"uint256"}],"anonymous":false},{"type":"event","name":"FlashLoan","inputs":[{"name":"_target","type":"address","indexed":true,"internalType":"address"},{"name":"_reserve","type":"address","indexed":true,"internalType":"address"},{"name":"_amount","type":"uint256","indexed":false,"internalType":"uint256"},{"name":"_totalFee","type":"uint256","indexed":false,"internalType":"uint256"},{"name":"_protocolFee","type":"uint256","indexed":false,"internalType":"uint256"},{"name":"_timestamp","type":"uint256","indexed":false,"internalType":"uint256"}],"anonymous":false},{"type":"event","name":"LiquidationCall","inputs":[{"name":"_collateral","type":"address","indexed":true,"internalType":"address"},{"name":"_reserve","type":"address","indexed":true,"internalType":"address"},{"name":"_user","type":"address","indexed":true,"internalType":"address"},{"name":"_purchaseAmount","type":"uint256","indexed":false,"internalType":"uint256"},{"name":"_liquidatedCollateralAmount","type":"uint256","indexed":false,"internalType":"uint256"},{"name":"_accruedBorrowInterest","type":"uint256","indexed":false,"internalType":"uint256"},{"name":"_liquidator","type":"address","indexed":false,"internalType":"address"},{"name":"_receiveAToken","type":"bool","indexed":false,"internalType":"bool"},{"name":"_timestamp","type":"uint256","indexed":false,"internalType":"uint256"}],"anonymous":false},{"type":"event","name":"OriginationFeeLiquidated","inputs":[{"name":"_collateral","type":"address","indexed":true,"internalType":"address"},{"name":"_reserve","type":"address","indexed":true,"internalType":"address"},{"name":"_user","type":"address","indexed":true,"internalType":"address"},{"name":"_feeLiquidated","type":"uint256","indexed":false,"internalType":"uint256"},{"name":"_liquidatedCollateralForFee","type":"uint256","indexed":false,"internalType":"uint256"},{"name":"_timestamp","type":"uint256","indexed":false,"internalType":"uint256"}],"anonymous":false},{"type":"event","name":"RebalanceStableBorrowRate","inputs":[{"name":"_reserve","type":"address","indexed":true,"internalType":"address"},{"name":"_user","type":"address","indexed":true,"internalType":"address"},{"name":"_newStableRate","type":"uint256","indexed":false,"internalType":"uint256"},{"name":"_borrowBalanceIncrease","type":"uint256","indexed":false,"internalType":"uint256"},{"name":"_timestamp","type":"uint256","indexed":false,"internalType":"uint256"}],"anonymous":false},{"type":"event","name":"RedeemUnderlying","inputs":[{"name":"_reserve","type":"address","indexed":true,"internalType":"address"},{"name":"_user","type":"address","indexed":true,"internalType":"address"},{"name":"_amount","type":"uint256","indexed":false,"internalType":"uint256"},{"name":"_timestamp","type":"uint256","indexed":false,"internalType":"uint256"}],"anonymous":false},{"type":"event","name":"Repay","inputs":[{"name":"_reserve","type":"address","indexed":true,"internalType":"address"},{"name":"_user","type":"address","indexed":true,"internalType":"address"},{"name":"_repayer","type":"address","indexed":true,"internalType":"address"},{"name":"_amountMinusFees","type":"uint256","indexed":false,"internalType":"uint256"},{"name":"_fees","type":"uint256","indexed":false,"internalType":"uint256"},{"name":"_borrowBalanceIncrease","type":"uint256","indexed":false,"internalType":"uint256"},{"name":"_timestamp","type":"uint256","indexed":false,"internalType":"uint256"}],"anonymous":false},{"type":"event","name":"ReserveUsedAsCollateralDisabled","inputs":[{"name":"_reserve","type":"address","indexed":true,"internalType":"address"},{"name":"_user","type":"address","indexed":true,"internalType":"address"}],"anonymous":false},{"type":"event","name":"ReserveUsedAsCollateralEnabled","inputs":[{"name":"_reserve","type":"address","indexed":true,"internalType":"address"},{"name":"_user","type":"address","indexed":true,"internalType":"address"}],"anonymous":false},{"type":"event","name":"Swap","inputs":[{"name":"_reserve","type":"address","indexed":true,"internalType":"address"},{"name":"_user","type":"address","indexed":true,"internalType":"address"},{"name":"_newRateMode","type":"uint256","indexed":false,"internalType":"uint256"},{"name":"_newRate","type":"uint256","indexed":false,"internalType":"uint256"},{"name":"_borrowBalanceIncrease","type":"uint256","indexed":false,"internalType":"uint256"},{"name":"_timestamp","type":"uint256","indexed":false,"internalType":"uint256"}],"anonymous":false},{"type":"error","name":"ReentrancyGuardReentrantCall","inputs":[]}],"bytecode":{"object":"0x608080604052346100205760016000556000600155613d7d90816100268239f35b600080fdfe6080604052600436101561001257600080fd5b60003560e01c8062a718a9146101565780630902f1ac1461015157806328dd2d011461014c57806335ea6a75146101475780633e1501411461014257806348ca13001461013d57806358707e06146101385780635a3b74b9146101335780635ceae9c41461012e5780635cffe9de146101295780638afaff02146101245780639895e3d81461011f578063b334ed861461011a578063bf92857c14610115578063c4d66de814610110578063c72c4d101461010b578063c858f5f914610106578063cd11238214610101578063d2d0e066146100fc5763f2f4eb26146100f757600080fd5b611bce565b611935565b61190d565b6112e3565b611298565b6111aa565b611095565b61106c565b610fbf565b610fa3565b610f12565b610e38565b610c02565b610bd9565b6108f8565b6107aa565b61060d565b6104cd565b61039e565b61017b565b6001600160a01b0381160361016c57565b600080fd5b8015150361016c57565b60a036600319011261016c576004356101938161015b565b60243561019f8161015b565b6044356101ab8161015b565b6084356101b781610171565b6101bf613b35565b6101c883613b58565b6101d184613b58565b6035546101ee906001600160a01b03165b6001600160a01b031690565b604051938491632c1a75cd60e11b835282600460209788935afa9081156103495761029f9460009485948594610316575b5060405162a718a960e01b8982019081526001600160a01b039a8b166024830152938a166044820152989091166064808a0191909152356084890152151560a48801528660c481015b039661027c601f1998898101835282610eb3565b51915af461029161028b611c18565b91611c48565b828082518301019101611cb7565b906102b0576102ae6001600055565b005b610312926102e8926102ee6102fa9360405195869384016014907302634b8bab4b230ba34b7b7103330b4b632b21d160651b81520190565b90611d1e565b03908101835282610eb3565b60405162461bcd60e51b815291829160048301611d5a565b0390fd5b61026891945061033b90893d8b11610342575b6103338183610eb3565b810190611bf7565b939061021f565b503d610329565b611c0c565b600091031261016c57565b602090602060408183019282815285518094520193019160005b828110610381575050505090565b83516001600160a01b031685529381019392810192600101610373565b3461016c5760008060031936011261049557603654604051630240bc6b60e21b8152908290829060049082906001600160a01b03165afa9081156103495782916103f5575b604051806103f18482610359565b0390f35b90503d8083833e6104068183610eb3565b8101602092838383031261049557825167ffffffffffffffff938482116104a1570182601f8201121561049d578051938411610498578360051b916040519461045187850187610eb3565b8552858086019383010193841161049557508401905b82821061047c575050506103f19150386103e3565b848091835161048a8161015b565b815201910190610467565b80fd5b610e89565b5080fd5b8280fd5b604090600319011261016c576004356104bd8161015b565b906024356104ca8161015b565b90565b3461016c576104db366104a5565b6037546040516328dd2d0160e01b81526001600160a01b0393841660048201529183166024830152909161014091829184916044918391165afa801561034957600090819282838485908692879488968998610588575b506103f198999a506040519a8b9a8b9895926101209895929b9a9794919b6101408b019c8b5260208b015260408a01526060890152608088015260a087015260c086015260e08501526101008401521515910152565b989950505050505050505082813d8311610606575b6105a78183610eb3565b8101031261049557508051906103f1602082015191604081015193606082015191608081015160a082015160c08301519060e084015192610120610100860151950151956105f487610171565b989996909192939495968a9998610532565b503d61059d565b3461016c57602036600319011261016c5760043561062a8161015b565b6037546040516335ea6a7560e01b81526001600160a01b0392831660048201526101a0929091839183916024918391165afa801561034957600090819282838485868791889389958a978b998c9b6106f7575b506103f19b9c9d506040519d8e9d8e9b99979593919d9c9a98969492909d6101a08d019e8d5260208d015260408c015260608b015260808a015260a089015260c088015260e0870152610100860152610120850152610140840152600160a01b600190031661016083015264ffffffffff16906101800152565b9c5050505050505050505050509181813d83116107a3575b6107198183610eb3565b8101031261049d57805190602081015190604081015192606082015191608081015160a082015160c083015160e0840151610100850151916101208601519361014087015195610180610160890151986107728a61015b565b01519864ffffffffff8a168a0361079f576103f19b9c9d509b9c99909192939495969798998d9c9b61067d565b8d80fd5b503d61070f565b3461016c57602036600319011261016c576004356107c78161015b565b603754604051633e15014160e01b81526001600160a01b0392831660048201529161010091829184916024918391165afa801561034957600090819282838490859286948796610860575b50604080519788526020880198909852968601969096526001600160a01b039095166060850152931515608084015292151560a083015291151560c082015290151560e08201526101009150f35b96975050505050505082813d83116108f1575b61087d8183610eb3565b8101031261049557508051906103f16020820151916040810151936060820151916108a78361015b565b60808101516108b581610171565b60a0820151906108c482610171565b60e060c0840151936108d585610171565b0151936108e185610171565b9697949091929394889796610812565b503d610873565b3461016c5760208060031936011261016c57600435906109178261015b565b61091f613b35565b61092882613b58565b61093182613c0b565b603654610946906001600160a01b03166101e2565b60408051639fb8afcd60e01b81526001600160a01b03851660048201523360248201529092909190606083604481855afa92831561034957600092600091600095610ba1575b50610998821515611d86565b8551631ca19f1960e01b81526001600160a01b0388166004820152336024820152938385604481855afa94851561034957869588958a92600092610b72575b506109e182611e19565b60028214610ae5575b5090610a1060009287519889978896879563f614831160e01b8752339060048801611edd565b03925af191821561034957600091600093610a8f575b50610a827fb3e2773606abfd36b5bd91394b3a54d1398336c65005baf7bf7a05efeffaf75b9394610a5684611e19565b519283526020830194909452604082015242606082015233936001600160a01b03169281906080820190565b0390a36102ae6001600055565b7fb3e2773606abfd36b5bd91394b3a54d1398336c65005baf7bf7a05efeffaf75b9350610a829250610ad690853d8711610ade575b610ace8183610eb3565b810190611eb3565b935091610a26565b503d610ac4565b955163710ba6c360e11b81526001600160a01b038b1660048201523360248201526044810186905296509490508086606481865afa801561034957610a108996610b3d8c938b9a6000968792610b45575b5050611e4e565b9192506109ea565b610b649250803d10610b6b575b610b5c8183610eb3565b810190611e39565b3880610b36565b503d610b52565b81610b939293503d8411610b9a575b610b8b8183610eb3565b810190611e05565b90386109d7565b503d610b81565b91509350610bc891925060603d606011610bd2575b610bc08183610eb3565b810190611d6b565b939192913861098c565b503d610bb6565b3461016c57600036600319011261016c576038546040516001600160a01b039091168152602090f35b3461016c57604036600319011261016c57600435610c1f8161015b565b602435610c2b81610171565b610c33613b35565b610c3c82613b58565b610c4582613c0b565b603654610c5a906001600160a01b03166101e2565b604051630c526de560e11b81526001600160a01b03841660048201523360248201526020908181604481865afa90811561034957610cf7918391600091610e0b575b50610ca8811515611f26565b603754610cbd906001600160a01b03166101e2565b6040516376e9d61560e01b81526001600160a01b038916600482015233602482015260448101929092529092839190829081906064820190565b03915afa90811561034957610d1592600092610dee575b5050611f85565b803b1561016c57604051633e94615360e21b81526001600160a01b03841660048201523360248201528215156044820152906000908290606490829084905af1801561034957610dd5575b5015610da05733906001600160a01b03167e058a56ea94653cdf4f152d227ace22d4c00ad99e2a43f58cb7d9e3feb295f2600080a35b6102ae6001600055565b33906001600160a01b03167f44c58d81365b66dd4b1a7f36c25aa97b8c71c361ee4937adc1a00000227db5dd600080a3610d96565b80610de2610de892610e9f565b8061034e565b38610d60565b610e049250803d10610b6b57610b5c8183610eb3565b3880610d0e565b610e2b9150823d8411610e31575b610e238183610eb3565b810190611f17565b38610c9c565b503d610e19565b606036600319011261016c57610e82600435610e538161015b565b60243560443591610e638361015b565b610e6b613b35565b610e7481613b58565b610e7d82613cbf565b6121c2565b6001600055005b634e487b7160e01b600052604160045260246000fd5b67ffffffffffffffff811161049857604052565b90601f8019910116810190811067ffffffffffffffff82111761049857604052565b60405190610200820182811067ffffffffffffffff82111761049857604052565b67ffffffffffffffff811161049857601f01601f191660200190565b3461016c57608036600319011261016c57600435610f2f8161015b565b602435610f3b8161015b565b6064359167ffffffffffffffff831161016c573660238401121561016c57826004013591610f6883610ef6565b92610f766040519485610eb3565b808452366024828701011161016c5760208160009260246102ae980183880137850101526044359161280e565b3461016c57600036600319011261016c57602060405160038152f35b3461016c57608036600319011261016c57600435610fdc8161015b565b602435610fe88161015b565b610ff0613b35565b603654604051631a59df7760e11b81526001600160a01b03848116600483015293916020908290602490829088165afa93841561034957610d96946110409260009161104d575b50163314612d8b565b6064359160443591612e11565b611066915060203d602011610342576103338183610eb3565b38611037565b3461016c57600036600319011261016c576037546040516001600160a01b039091168152602090f35b3461016c57602036600319011261016c576004356110b28161015b565b603754604051632fe4a15f60e21b81526001600160a01b0392831660048201529161010091829184916024918391165afa801561034957600090819282838490859286948796611143575b506103f1969798506040519889988994919260e0969399989794919961010087019a8752602087015260408601526060850152608084015260a083015260c08201520152565b96975050505050505082813d83116111a3575b6111608183610eb3565b8101031261049557508051602082015160408301516060840151608085015160a086015160c087015160e0909701519496879695949093919291906103f16110fd565b503d611156565b3461016c57602036600319011261016c576004356111c78161015b565b60ff60025416908115918261128f575b8015611283575b15611227576111f1908261120657613027565b6111f757005b6102ae60ff1960025416600255565b611218600160ff196002541617600255565b6112226003600155565b613027565b60405162461bcd60e51b815260206004820152602e60248201527f436f6e747261637420696e7374616e63652068617320616c726561647920626560448201526d195b881a5b9a5d1a585b1a5e995960921b6064820152608490fd5b506001546003116111de565b50303b156111d7565b3461016c57600036600319011261016c576035546040516001600160a01b039091168152602090f35b6064359061ffff8216820361016c57565b6044359061ffff8216820361016c57565b3461016c57608036600319011261016c576112ff60043561015b565b6113076112c1565b61130f613b35565b61131a600435613b58565b611325600435613c0b565b611330602435613cbf565b61133861322d565b603654909190611350906001600160a01b03166101e2565b604051632e79732b60e11b8152600480356001600160a01b031690820152602081602481855afa80156103495761138f916000916118ee575b5061329e565b60443560021480156118e2575b6113a5906132f6565b6113b0604435611e19565b6113c06044356101c0850161334e565b60405163e240301960e01b8152600480356001600160a01b031690820152602081602481855afa80156103495761140b916000916118c3575b5080610160860152602435111561335a565b603754611420906001600160a01b03166101e2565b604051632c6d0e9b60e01b8152336004820152610100908181602481865afa9081156103495761149761149b916114a09360008081828d84859661187b575b9515156101e082019081529650611491956020919060408201520152888d015260e08c01528060c08c01521515613406565b51151590565b1590565b613452565b6039546114b5906001600160a01b03166101e2565b604051630e563a7d60e41b815233600482015260248035908201529190602090839060449082905afa918215610349576020926115029160009161185e575b5080606089015215156134c4565b606086015160e087015191870151838801516040516312737c3360e01b8152600480356001600160a01b031690820152602480359082015260448101939093526064830193909352608482015260a4810191909152918290818060c4810103915afa8015610349576115899160009161183f575b508060a086015260c0850151101561351a565b60016101c084015161159a81611e19565b6115a381611e19565b1461173d575b60608301516101c08401516115e8926040926115c483611e19565b60008451809681958294630deb1bf960e21b84526024353360043560048701613667565b03925af19081156103495760009060009261170b575b5061012084019182526101a08401908152603654611624906001600160a01b03166101e2565b803b1561016c5760405163fa93b2a560e01b8152600480356001600160a01b031690820152336024808301919091523560448201529060009082908183816064810103925af18015610349577f1e77446728e5558aa1b7e81e0cdab9cc1b075ba893b740600c76a315c2caa5539261ffff926060926116f8575b50519501519251604080516024358152604435602082015290810196909652606086019390935260808501929092524260a085015291169133916004356001600160a01b0316918060c081015b0390a46102ae6001600055565b80610de261170592610e9f565b3861169e565b905061172f915060403d604011611736575b6117278183610eb3565b810190612c69565b90386115fe565b503d61171d565b60405163710ba6c360e11b8152600480356001600160a01b0316908201523360248083019190915235604482015290602082606481845afa9182156103495760049261179191600091611820575b50613583565b6038546020906117a9906001600160a01b03166101e2565b6040516335adc96b60e21b815293849182905afa908115610349576117f96117ef6117e86040946115e896600091611801575b50610160890151612c7f565b6064900490565b60243511156135f5565b9150506115a9565b61181a915060203d602011610e3157610e238183610eb3565b386117dc565b611839915060203d602011610b6b57610b5c8183610eb3565b3861178b565b611858915060203d602011610e3157610e238183610eb3565b38611576565b6118759150843d8611610e3157610e238183610eb3565b386114f4565b50935050505061149191506118a7602093883d8a116118bc575b61189f8183610eb3565b8101906133c5565b9199509097509395929450909250908661145f565b503d611895565b6118dc915060203d602011610e3157610e238183610eb3565b386113f9565b5060016044351461139c565b611907915060203d602011610b6b57610b5c8183610eb3565b38611389565b3461016c57610e8261191e366104a5565b90611927613b35565b61193081613b58565b61376a565b606036600319011261016c576004803561194e8161015b565b6024356119596112d2565b611961613b35565b61196a83613b58565b61197383613c0b565b61197c82613cbf565b603654611991906001600160a01b03166101e2565b60408051631a59df7760e11b81526001600160a01b0386168188019081529096919391929060209081908990819083010381855afa97881561034957600098611baf575b5084516370a0823160e01b8152338582019081526001600160a01b03998a169391908390829081906020010381875afa92831561034957600093611b90575b5050803b1561016c578551632f35bfe960e21b81526001600160a01b038916818701908152336020820152604081018990529215606084015291600091839182908490829060800103925af1801561034957611b7d575b50803b1561016c5783516394362e8b60e01b81523384820190815260208101879052909160009183919082908490829060400103925af1801561034957611b6a575b50603654611ac3906001600160a01b03166101e2565b803b1561016c5783516328fcf4d360e01b81526001600160a01b0387169381019384523360208501526040840186905292600091849182908190606001039134905af18015610349577fc12c57b1c73a2c3a2ea4613e9476abb3d8d146857aab7329e24243fb59710c829361ffff936116eb92611b57575b5051948552426020860152911694339416929081906040820190565b80610de2611b6492610e9f565b38611b3b565b80610de2611b7792610e9f565b38611aad565b80610de2611b8a92610e9f565b38611a6b565b611ba7929350803d10610e3157610e238183610eb3565b903880611a14565b81611bc79299503d8a11610342576103338183610eb3565b96386119d5565b3461016c57600036600319011261016c576036546040516001600160a01b039091168152602090f35b9081602091031261016c57516104ca8161015b565b6040513d6000823e3d90fd5b3d15611c43573d90611c2982610ef6565b91611c376040519384610eb3565b82523d6000602084013e565b606090565b15611c4f57565b60405162461bcd60e51b815260206004820152601760248201527f4c69717569646174696f6e2063616c6c206661696c65640000000000000000006044820152606490fd5b60005b838110611ca75750506000910152565b8181015183820152602001611c97565b919060408382031261016c5782519260208101519067ffffffffffffffff821161016c570181601f8201121561016c578051611cf281610ef6565b92611d006040519485610eb3565b8184526020828401011161016c576104ca9160208085019101611c94565b90611d3160209282815194859201611c94565b0190565b90602091611d4e81518092818552858086019101611c94565b601f01601f1916010190565b9060206104ca928181520190611d35565b9081606091031261016c578051916040602083015192015190565b15611d8d57565b60405162461bcd60e51b815260206004820152603760248201527f5573657220646f6573206e6f742068617665206120626f72726f7720696e207060448201527f726f6772657373206f6e207468697320726573657276650000000000000000006064820152608490fd5b5190600382101561016c57565b9081602091031261016c576104ca90611df8565b60031115611e2357565b634e487b7160e01b600052602160045260246000fd5b9081602091031261016c57516104ca81610171565b15611e5557565b60405162461bcd60e51b815260206004820152603060248201527f557365722063616e6e6f7420626f72726f77207468652073656c65637465642060448201526f616d6f756e7420617420737461626c6560801b6064820152608490fd5b919082604091031261016c576020611eca83611df8565b92015190565b906003821015611e235752565b9196959360a093611f15969260c0850199600180881b0380921686521660208501526040840152606083015260808201520190611ed0565b565b9081602091031261016c575190565b15611f2d57565b60405162461bcd60e51b815260206004820152602a60248201527f5573657220646f6573206e6f74206861766520616e79206c69717569646974796044820152690819195c1bdcda5d195960b21b6064820152608490fd5b15611f8c57565b60405162461bcd60e51b815260206004820152603060248201527f55736572206465706f73697420697320616c7265616479206265696e6720757360448201526f195908185cc818dbdb1b185d195c985b60821b6064820152608490fd5b60405190610100820182811067ffffffffffffffff821117610498576040528160e06000918281528260208201528260408201528260608201528260808201528260a08201528260c08201520152565b1561204157565b60405162461bcd60e51b815260206004820152602960248201527f546865207573657220646f6573206e6f74206861766520616e7920626f72726f604482015268772070656e64696e6760b81b6064820152608490fd5b1561209f57565b60a460405162461bcd60e51b815260206004820152604460248201527f546f207265706179206f6e20626568616c66206f6620616e207573657220616e60448201527f206578706c6963697420616d6f756e7420746f207265706179206973206e65656064820152633232b21760e11b6084820152fd5b634e487b7160e01b600052601160045260246000fd5b906b033b2e3c9fd0803ce800000091820180921161214657565b612116565b9190820180921161214657565b1561215f57565b60405162461bcd60e51b815260206004820152602860248201527f496e76616c6964206d73672e76616c75652073656e7420666f72207468652072604482015267195c185e5b595b9d60c21b6064820152608490fd5b9190820391821161214657565b6121ca611fea565b6036549091906121e2906001600160a01b03166101e2565b60408051639fb8afcd60e01b81526001600160a01b0384811660048301528716602482015291939091606081604481885afa958615610349576000906000926000986127e7575b5083850197885260208085019384529184528451633faacc6b60e21b81526001600160a01b0387811660048301528a1660248201529180836044818b5afa928315610349576000936127c8575b5060e0850192835273eeeeeeeeeeeeeeeeeeeeeeeeeeeeeeeeeeeeeeee6001600160a01b03888116918214606088019081529199909691938c91906122bd8851151561203a565b6122d86000198214938a85159182966127ba575b5050612098565b6122e5885188519061214b565b926080850193808552816127b0575b506127a8575b506123086114978651151590565b801561279d575b61231890612158565b815186518111156125d257505061233460a091518651906121b5565b9101818152603654909590612351906001600160a01b03166101e2565b91855192818d51935114813b1561016c5760008f916123b98e9183978f51998a988997889663da12d96f60e01b885260048801949196959260a0949160c0870198600180881b0380921688521660208701526040860152606085015260808401521515910152565b03925af18015610349576125bf575b50825190816124c7575b50506036546123f4906123ed906001600160a01b03166101e2565b9151151590565b156124bf576124048251346121b5565b905b835190803b1561016c5786516328fcf4d360e01b81526001600160a01b039890981660048901523360248901526044880191909152600091879160649183915af1918215610349577fb718f0b14f03d8c3adf35b15e3da52421b042ac879e5a689011a8b1e0036773d956124a7936124ac575b5051905196519351938493339916974292859094939260609260808301968352602083015260408201520152565b0390a4565b80610de26124b992610e9f565b38612479565b600090612406565b6036546124dc906001600160a01b03166101e2565b906124e78451151590565b156125b75782915b6035546004908390612509906001600160a01b03166101e2565b8b51637744894b60e11b815292839182905afa92831561034957600093612598575b5050803b1561016c57885163c7d1423760e01b81526001600160a01b038b81166004830152336024830152604482019590955291909316606482015291600091839160849183915af1801561034957612585575b806123d2565b80610de261259292610e9f565b3861257f565b6125af929350803d10610342576103338183610eb3565b90388061252b565b6000916124ef565b80610de26125cc92610e9f565b386123c8565b92509298939450945089969951823b1561016c578a5163da12d96f60e01b81526001600160a01b0385811660048301528d1660248201526000604482018190526064820193909352608481019190915260a4810182905291829060c490829084905af180156103495761278a575b506036546126619061265a906001600160a01b03166101e2565b9251151590565b15612782578251915b8351916004886126846101e260355460018060a01b031690565b8c51637744894b60e11b815292839182905afa98891561034957600099612763575b5050813b1561016c57895163c7d1423760e01b81526001600160a01b0391821660048201528b82166024820152604481019390935296909616606482015294600091869160849183915af1908115610349577fb718f0b14f03d8c3adf35b15e3da52421b042ac879e5a689011a8b1e0036773d946124a792612750575b50519251955192839233981696429184606091949392608082019560008352602083015260408201520152565b80610de261275d92610e9f565b38612723565b61277a929950803d10610342576103338183610eb3565b9638806126a6565b60009161266a565b80610de261279792610e9f565b38612640565b50815134101561230f565b8252386122fa565b90508110386122f4565b9091501633148f8b906122d1565b816127e09294503d8511610e3157610e238183610eb3565b9138612276565b91509650612804915060603d606011610bd257610bc08183610eb3565b9190919638612229565b909291612819613b35565b61282284613b58565b61282b81613cbf565b6001600160a01b038481169473eeeeeeeeeeeeeeeeeeeeeeeeeeeeeeeeeeeeeeee861492600092918415612b835760365460049450612872906001600160a01b03166101e2565b31945b61288183871015612c03565b603854612896906001600160a01b03166101e2565b9360408095815197888092630161bfad60e61b82525afa95861561034957600090600097612b52575b506128d36128db6128d36128e29388612c7f565b612710900490565b9788612c7f565b9786151580612b49575b6128f590612c92565b6036549116989061290e906001600160a01b03166101e2565b803b1561016c57855163fa93b2a560e01b81526001600160a01b0385811660048301528b16602482015260448101869052906000908290606490829084905af1801561034957612b36575b50883b1561016c57600061298391865180938192631dd0e4ab60e31b83528a898960048601612cf9565b0381838d5af1801561034957612b23575b5015612aa3576036546129c5906129b3906001600160a01b03166101e2565b315b6129bf868861214b565b14612d24565b6036546129da906001600160a01b03166101e2565b6129e487866121b5565b90803b1561016c5784516309ac295360e01b81526001600160a01b03939093166004840152602483019690965260448201526064810186905294936000908690608490829084905af1918215610349577f5b8f46461c1dd69fb968f1a003acee221ea3e19540e350233b612ddb43433b5595612a8393612a90575b50519384934292859094939260609260808301968352602083015260408201520152565b0390a3611f156001600055565b80610de2612a9d92610e9f565b38612a5f565b603654612ae790602090612abf906001600160a01b03166101e2565b85516370a0823160e01b81526001600160a01b03909116600482015291829081906024820190565b03818c5afa8015610349576129c591600091612b04575b506129b5565b612b1d915060203d602011610e3157610e238183610eb3565b38612afe565b80610de2612b3092610e9f565b38612994565b80610de2612b4392610e9f565b38612959565b508815156128ec565b6128d397506128e291506128db612b786128d392893d8b11611736576117278183610eb3565b9990935050506128bf565b603654612bc890602090612b9f906001600160a01b03166101e2565b6040516370a0823160e01b81526001600160a01b03909116600482015291829081906024820190565b03818c5afa9081156103495760049591612be4575b5094612875565b612bfd915060203d602011610e3157610e238183610eb3565b38612bdd565b15612c0a57565b60405162461bcd60e51b815260206004820152603160248201527f5468657265206973206e6f7420656e6f756768206c697175696469747920617660448201527061696c61626c6520746f20626f72726f7760781b6064820152608490fd5b919082604091031261016c576020825192015190565b8181029291811591840414171561214657565b15612c9957565b60405162461bcd60e51b815260206004820152603260248201527f5468652072657175657374656420616d6f756e7420697320746f6f20736d616c60448201527136103337b9103090333630b9b42637b0b71760711b6064820152608490fd5b90926080926104ca959460018060a01b03168352602083015260408201528160608201520190611d35565b15612d2b57565b60405162461bcd60e51b815260206004820152603260248201527f5468652061637475616c2062616c616e6365206f66207468652070726f746f636044820152711bdb081a5cc81a5b98dbdb9cda5cdd195b9d60721b6064820152608490fd5b15612d9257565b60405162461bcd60e51b815260206004820152604b60248201527f5468652063616c6c6572206f6620746869732066756e6374696f6e2063616e2060448201527f6f6e6c79206265207468652061546f6b656e20636f6e7472616374206f66207460648201526a686973207265736572766560a81b608482015260a490fd5b92612e1b84613b58565b612e2483613cbf565b603654612e39906001600160a01b03166101e2565b60405163e240301960e01b81526001600160a01b0386166004820152602081602481855afa90811561034957612e7b918691600091612fa2575b501015612fc1565b803b1561016c5760405163afcdbea360e01b81526001600160a01b0386811660048301528416602482015260448101859052911560648301526000908290608490829084905af1801561034957612f8f575b50603654612ee3906001600160a01b03166101e2565b90813b1561016c5760405163fa93b2a560e01b81526001600160a01b0385811660048301528216602482015260448101849052916000908390606490829084905af1918215610349577f9c4ed599cd8555b9c1e8cd7643240d7d71eb76b792948c49fcb4d411f7b6b3c692612f7c575b50604080519384524260208501526001600160a01b03918216949091169290819081015b0390a3565b80610de2612f8992610e9f565b38612f53565b80610de2612f9c92610e9f565b38612ecd565b612fbb915060203d602011610e3157610e238183610eb3565b38612e73565b15612fc857565b60405162461bcd60e51b815260206004820152603160248201527f5468657265206973206e6f7420656e6f756768206c697175696469747920617660448201527061696c61626c6520746f2072656465656d60781b6064820152608490fd5b603580546001600160a01b0319166001600160a01b0392909216918217905561304f906101e2565b604051809163076b7fbb60e51b825281600460209485935afa90811561034957600091613210575b50603680546001600160a01b0319166001600160a01b0392831617905560355460049083906130ae906001600160a01b03166101e2565b604051632f58b80d60e01b815292839182905afa908115610349576130f69183916000916131f3575b501660018060a01b03166001600160601b0360a01b6037541617603755565b6035546004908390613110906001600160a01b03166101e2565b6040516302030ec760e11b815292839182905afa908115610349576131589183916000916131d6575b501660018060a01b03166001600160601b0360a01b6038541617603855565b6035546004908390613172906001600160a01b03166101e2565b604051633efbbf0f60e21b815292839182905afa90811561034957611f15936000926131b9575b50501660018060a01b03166001600160601b0360a01b6039541617603955565b6131cf9250803d10610342576103338183610eb3565b3880613199565b6131ed9150853d8711610342576103338183610eb3565b38613139565b61320a9150853d8711610342576103338183610eb3565b386130d7565b6132279150823d8411610342576103338183610eb3565b38613077565b613235610ed5565b9060008083528060208401528060408401528060608401528060808401528060a08401528060c08401528060e08401528061010084015280610120840152806101408401528061016084015280610180840152806101a0840152806101c08401526101e0830152565b156132a557565b60405162461bcd60e51b8152602060048201526024808201527f52657365727665206973206e6f7420656e61626c656420666f7220626f72726f60448201526377696e6760e01b6064820152608490fd5b156132fd57565b60405162461bcd60e51b815260206004820152602360248201527f496e76616c696420696e7465726573742072617465206d6f64652073656c65636044820152621d195960ea1b6064820152608490fd5b6003821015611e235752565b1561336157565b60405162461bcd60e51b815260206004820152603660248201527f5468657265206973206e6f7420656e6f756768206c697175696469747920617660448201527561696c61626c6520696e20746865207265736572766560501b6064820152608490fd5b91908261010091031261016c5781519160208101519160408201519160608101519160808201519160a08101519160e060c08301519201516104ca81610171565b1561340d57565b60405162461bcd60e51b815260206004820152601b60248201527f54686520636f6c6c61746572616c2062616c616e6365206973203000000000006044820152606490fd5b1561345957565b60405162461bcd60e51b815260206004820152603f60248201527f54686520626f72726f7765722063616e20616c7265616479206265206c69717560448201527f69646174656420736f2068652063616e6e6f7420626f72726f77206d6f7265006064820152608490fd5b156134cb57565b60405162461bcd60e51b815260206004820152602160248201527f54686520616d6f756e7420746f20626f72726f7720697320746f6f20736d616c6044820152601b60fa1b6064820152608490fd5b1561352157565b60405162461bcd60e51b815260206004820152603460248201527f5468657265206973206e6f7420656e6f75676820636f6c6c61746572616c20746044820152736f20636f7665722061206e657720626f72726f7760601b6064820152608490fd5b1561358a57565b60405162461bcd60e51b815260206004820152603960248201527f557365722063616e6e6f7420626f72726f77207468652073656c65637465642060448201527f616d6f756e742077697468206120737461626c652072617465000000000000006064820152608490fd5b156135fc57565b60405162461bcd60e51b815260206004820152603c60248201527f5573657220697320747279696e6720746f20626f72726f7720746f6f206d756360448201527f68206c6971756964697479206174206120737461626c652072617465000000006064820152608490fd5b6001600160a01b039182168152911660208201526040810191909152606081019190915260a081019291611f159160800190611ed0565b156136a557565b60405162461bcd60e51b815260206004820152602e60248201527f5573657220646f6573206e6f74206861766520616e7920626f72726f7720666f60448201526d722074686973207265736572766560901b6064820152608490fd5b1561370857565b60405162461bcd60e51b815260206004820152603460248201527f546865207573657220626f72726f77206973207661726961626c6520616e642060448201527318d85b9b9bdd081899481c9958985b185b98d95960621b6064820152608490fd5b603654909190613782906001600160a01b03166101e2565b60408051639fb8afcd60e01b81526001600160a01b0385811660048084019190915290851660248301529491939192909190606083604481845afa92831561034957600090600094613b0e575b506137db90151561369e565b8451631ca19f1960e01b81526001600160a01b038086168883019081529084166020828101919091529291908390829081906040010381855afa9081156103495761383b91600191600091613af1575b5061383581611e19565b14613701565b8551631bffeac360e21b81526001600160a01b0380871689830190815290851660208201528390829081906040010381855afa90811561034957600091613ad4575b5086516362a00a4760e11b81526001600160a01b0387168982019081528490829081906020010381865afa90811561034957600091613ab7575b508751631100f3b160e31b81526001600160a01b038816818b019081528590829081906020010381875afa8015610349578a91600091613a9a575b50603854869061390a906001600160a01b03166101e2565b8b516346f4f8d160e01b815293849182905afa918215610349576139409261393a91600091613a7d575b5061212c565b90613d0b565b908210918215613a73575b50506139b457855162461bcd60e51b81526020818901818152602f918101919091527f496e746572657374207261746520726562616c616e636520636f6e646974696f60408201526e1b9cc81dd95c99481b9bdd081b595d608a1b606082015281906080010390fd5b855163af825b0760e01b81526001600160a01b0380871698820198895284166020890152604088018590529496939593829186918290600090829060600103925af18015610349577f5050ad184862424ee0852d1838d355ad65bed1e5e6da67ac9a2dac1922677f6094612f7792600092613a56575b5050925192835260208301949094524260408301526001600160a01b0390811694169281906060820190565b613a6c9250803d10610e3157610e238183610eb3565b3880613a2a565b119050388061394b565b613a949150883d8a11610e3157610e238183610eb3565b38613934565b613ab19150863d8811610e3157610e238183610eb3565b386138f2565b613ace9150843d8611610e3157610e238183610eb3565b386138b7565b613aeb9150833d8511610e3157610e238183610eb3565b3861387d565b613b089150853d8711610b9a57610b8b8183610eb3565b3861382b565b6137db9450613b2c915060603d606011610bd257610bc08183610eb3565b949150906137cf565b600260005414613b46576002600055565b604051633ee5aeb560e01b8152600490fd5b603654604051630283aeb760e11b81526001600160a01b0392831660048201529160209183916024918391165afa90811561034957600091613bec575b5015613b9d57565b60405162461bcd60e51b815260206004820152602160248201527f416374696f6e20726571756972657320616e20616374697665207265736572766044820152606560f81b6064820152608490fd5b613c05915060203d602011610b6b57610b5c8183610eb3565b38613b95565b603654604051634a08accb60e01b81526001600160a01b0392831660048201529160209183916024918391165afa90811561034957600091613ca0575b50613c4f57565b60405162461bcd60e51b8152602060048201526024808201527f416374696f6e20726571756972657320616e20756e667265657a6564207265736044820152636572766560e01b6064820152608490fd5b613cb9915060203d602011610b6b57610b5c8183610eb3565b38613c48565b15613cc657565b60405162461bcd60e51b815260206004820152601d60248201527f416d6f756e74206d7573742062652067726561746572207468616e20300000006044820152606490fd5b816b019d971e4fe8401e7400000019048111158215171561016c576b033b2e3c9fd0803ce800000091026b019d971e4fe8401e7400000001049056fea2646970667358221220334f7de7fe05227a2485d6bc895ef715052543ac454742a40a14578f05bf66b164736f6c63430008180033","linkReferences":{}},"methodIdentifiers":{"LENDINGPOOL_REVISION()":"8afaff02","addressesProvider()":"c72c4d10","borrow(address,uint256,uint256,uint16)":"c858f5f9","core()":"f2f4eb26","dataProvider()":"b334ed86","deposit(address,uint256,uint16)":"d2d0e066","flashLoan(address,address,uint256,bytes)":"5cffe9de","getReserveConfigurationData(address)":"3e150141","getReserveData(address)":"35ea6a75","getReserves()":"0902f1ac","getUserAccountData(address)":"bf92857c","getUserReserveData(address,address)":"28dd2d01","initialize(address)":"c4d66de8","liquidationCall(address,address,address,uint256,bool)":"00a718a9","parametersProvider()":"58707e06","rebalanceStableBorrowRate(address,address)":"cd112382","redeemUnderlying(address,address,uint256,uint256)":"9895e3d8","repay(address,uint256,address)":"5ceae9c4","setUserUseReserveAsCollateral(address,bool)":"5a3b74b9","swapBorrowRateMode(address)":"48ca1300"},"id":17}