{"abi":[{"type":"function","name":"getFlashLoanFeesInBips","inputs":[],"outputs":[{"name":"","type":"uint256","internalType":"uint256"},{"name":"","type":"uint256","internalType":"uint256"}],"stateMutability":"pure"},{"type":"function","name":"getMaxStableRateBorrowSizePercent","inputs":[],"outputs":[{"name":"","type":"uint256","internalType":"uint256"}],"stateMutability":"pure"},{"type":"function","name":"getRebalanceDownRateDelta","inputs":[],"outputs":[{"name":"","type":"uint256","internalType":"uint256"}],"stateMutability":"pure"},{"type":"function","name":"initialize","inputs":[{"name":"_addressesProvider","type":"address","internalType":"address"}],"outputs":[],"stateMutability":"nonpayable"}],"bytecode":{"object":"0x6080806040523461001a57600080556101cc90816100208239f35b600080fdfe608080604052600436101561001357600080fd5b600090813560e01c90816346f4f8d11461016d57508063586feb401461014a578063c4d66de81461006b5763d6b725ac1461004d57600080fd5b34610068578060031936011261006857602060405160198152f35b80fd5b5034610068576020366003190112610068576004356001600160a01b03811603610068576001805460ff81169081159182610141575b8015610137575b156100db578290826100ca575b50506100bf575080f35b805460ff1916905580f35b60ff191617825581835581386100b5565b60405162461bcd60e51b815260206004820152602e60248201527f436f6e747261637420696e7374616e63652068617320616c726561647920626560448201526d195b881a5b9a5d1a585b1a5e995960921b6064820152608490fd5b50835483116100a8565b50303b156100a1565b50346100685780600319360112610068576040805160238152610bb86020820152f35b905034610192578160031936011261019257806aa56fa5b99019a5c800000060209252f35b5080fdfea26469706673582212209eb44d6214c2a450d29814ef553ef1e77007364e6a977385c3b6cce9a5adfef064736f6c63430008180033","linkReferences":{}},"methodIdentifiers":{"getFlashLoanFeesInBips()":"586feb40","getMaxStableRateBorrowSizePercent()":"d6b725ac","getRebalanceDownRateDelta()":"46f4f8d1","initialize(address)":"c4d66de8"},"id":2}