{"abi":[{"type":"constructor","inputs":[{"name":"_addressesProvider","type":"address","internalType":"contract LendingPoolAddressesProvider"},{"name":"_underlyingAsset","type":"address","internalType":"address"},{"name":"_underlyingAssetDecimals","type":"uint8","internalType":"uint8"},{"name":"_name","type":"string","internalType":"string"},{"name":"_symbol","type":"string","internalType":"string"}],"stateMutability":"nonpayable"},{"type":"function","name":"allowInterestRedirectionTo","inputs":[{"name":"_to","type":"address","internalType":"address"}],"outputs":[],"stateMutability":"nonpayable"},{"type":"function","name":"allowance","inputs":[{"name":"owner","type":"address","internalType":"address"},{"name":"spender","type":"address","internalType":"address"}],"outputs":[{"name":"","type":"uint256","internalType":"uint256"}],"stateMutability":"view"},{"type":"function","name":"approve","inputs":[{"name":"spender","type":"address","internalType":"address"},{"name":"value","type":"uint256","internalType":"uint256"}],"outputs":[{"name":"","type":"bool","internalType":"bool"}],"stateMutability":"nonpayable"},{"type":"function","name":"balanceOf","inputs":[{"name":"_user","type":"address","internalType":"address"}],"outputs":[{"name":"","type":"uint256","internalType":"uint256"}],"stateMutability":"view"},{"type":"function","name":"burnOnLiquidation","inputs":[{"name":"_account","type":"address","internalType":"address"},{"name":"_value","type":"uint256","internalType":"uint256"}],"outputs":[],"stateMutability":"nonpayable"},{"type":"function","name":"decimals","inputs":[],"outputs":[{"name":"","type":"uint8","internalType":"uint8"}],"stateMutability":"view"},{"type":"function","name":"getInterestRedirectionAddress","inputs":[{"name":"_user","type":"address","internalType":"address"}],"outputs":[{"name":"","type":"address","internalType":"address"}],"stateMutability":"view"},{"type":"function","name":"getRedirectedBalance","inputs":[{"name":"_user","type":"address","internalType":"address"}],"outputs":[{"name":"","type":"uint256","internalType":"uint256"}],"stateMutability":"view"},{"type":"function","name":"getUserIndex","inputs":[{"name":"_user","type":"address","internalType":"address"}],"outputs":[{"name":"","type":"uint256","internalType":"uint256"}],"stateMutability":"view"},{"type":"function","name":"isTransferAllowed","inputs":[{"name":"_user","type":"address","internalType":"address"},{"name":"_amount","type":"uint256","internalType":"uint256"}],"outputs":[{"name":"","type":"bool","internalType":"bool"}],"stateMutability":"view"},{"type":"function","name":"mintOnDeposit","inputs":[{"name":"_account","type":"address","internalType":"address"},{"name":"_amount","type":"uint256","internalType":"uint256"}],"outputs":[],"stateMutability":"nonpayable"},{"type":"function","name":"name","inputs":[],"outputs":[{"name":"","type":"string","internalType":"string"}],"stateMutability":"view"},{"type":"function","name":"principalBalanceOf","inputs":[{"name":"_user","type":"address","internalType":"address"}],"outputs":[{"name":"","type":"uint256","internalType":"uint256"}],"stateMutability":"view"},{"type":"function","name":"redeem","inputs":[{"name":"_amount","type":"uint256","internalType":"uint256"}],"outputs":[],"stateMutability":"nonpayable"},{"type":"function","name":"redirectInterestStream","inputs":[{"name":"_to","type":"address","internalType":"address"}],"outputs":[],"stateMutability":"nonpayable"},{"type":"function","name":"redirectInterestStreamOf","inputs":[{"name":"_from","type":"address","internalType":"address"},{"name":"_to","type":"address","internalType":"address"}],"outputs":[],"stateMutability":"nonpayable"},{"type":"function","name":"symbol","inputs":[],"outputs":[{"name":"","type":"string","internalType":"string"}],"stateMutability":"view"},{"type":"function","name":"totalSupply","inputs":[],"outputs":[{"name":"","type":"uint256","internalType":"uint256"}],"stateMutability":"view"},{"type":"function","name":"transfer","inputs":[{"name":"to","type":"address","internalType":"address"},{"name":"value","type":"uint256","internalType":"uint256"}],"outputs":[{"name":"","type":"bool","internalType":"bool"}],"stateMutability":"nonpayable"},{"type":"function","name":"transferFrom","inputs":[{"name":"from","type":"address","internalType":"address"},{"name":"to","type":"address","internalType":"address"},{"name":"value","type":"uint256","internalType":"uint256"}],"outputs":[{"name":"","type":"bool","internalType":"bool"}],"stateMutability":"nonpayable"},{"type":"function","name":"transferOnLiquidation","inputs":[{"name":"_from","type":"address","internalType":"address"},{"name":"_to","type":"address","internalType":"address"},{"name":"_value","type":"uint256","internalType":"uint256"}],"outputs":[],"stateMutability":"nonpayable"},{"type":"function","name":"underlyingAssetAddress","inputs":[],"outputs":[{"name":"","type":"address","internalType":"address"}],"stateMutability":"view"},{"type":"event","name":"Approval","inputs":[{"name":"owner","type":"address","indexed":true,"internalType":"address"},{"name":"spender","type":"address","indexed":true,"internalType":"address"},{"name":"value","type":"uint256","indexed":false,"internalType":"uint256"}],"anonymous":false},{"type":"event","name":"BalanceTransfer","inputs":[{"name":"_from","type":"address","indexed":true,"internalType":"address"},{"name":"_to","type":"address","indexed":true,"internalType":"address"},{"name":"_value","type":"uint256","indexed":false,"internalType":"uint256"},{"name":"_fromBalanceIncrease","type":"uint256","indexed":false,"internalType":"uint256"},{"name":"_toBalanceIncrease","type":"uint256","indexed":false,"internalType":"uint256"},{"name":"_fromIndex","type":"uint256","indexed":false,"internalType":"uint256"},{"name":"_toIndex","type":"uint256","indexed":false,"internalType":"uint256"}],"anonymous":false},{"type":"event","name":"BurnOnLiquidation","inputs":[{"name":"_from","type":"address","indexed":true,"internalType":"address"},{"name":"_value","type":"uint256","indexed":false,"internalType":"uint256"},{"name":"_fromBalanceIncrease","type":"uint256","indexed":false,"internalType":"uint256"},{"name":"_fromIndex","type":"uint256","indexed":false,"internalType":"uint256"}],"anonymous":false},{"type":"event","name":"InterestRedirectionAllowanceChanged","inputs":[{"name":"_from","type":"address","indexed":true,"internalType":"address"},{"name":"_to","type":"address","indexed":true,"internalType":"address"}],"anonymous":false},{"type":"event","name":"InterestStreamRedirected","inputs":[{"name":"_from","type":"address","indexed":true,"internalType":"address"},{"name":"_to","type":"address","indexed":true,"internalType":"address"},{"name":"_redirectedBalance","type":"uint256","indexed":false,"internalType":"uint256"},{"name":"_fromBalanceIncrease","type":"uint256","indexed":false,"internalType":"uint256"},{"name":"_fromIndex","type":"uint256","indexed":false,"internalType":"uint256"}],"anonymous":false},{"type":"event","name":"MintOnDeposit","inputs":[{"name":"_from","type":"address","indexed":true,"internalType":"address"},{"name":"_value","type":"uint256","indexed":false,"internalType":"uint256"},{"name":"_fromBalanceIncrease","type":"uint256","indexed":false,"internalType":"uint256"},{"name":"_fromIndex","type":"uint256","indexed":false,"internalType":"uint256"}],"anonymous":false},{"type":"event","name":"Redeem","inputs":[{"name":"_from","type":"address","indexed":true,"internalType":"address"},{"name":"_value","type":"uint256","indexed":false,"internalType":"uint256"},{"name":"_fromBalanceIncrease","type":"uint256","indexed":false,"internalType":"uint256"},{"name":"_fromIndex","type":"uint256","indexed":false,"internalType":"uint256"}],"anonymous":false},{"type":"event","name":"RedirectedBalanceUpdated","inputs":[{"name":"_targetAddress","type":"address","indexed":true,"internalType":"address"},{"name":"_targetBalanceIncrease","type":"uint256","indexed":false,"internalType":"uint256"},{"name":"_targetIndex","type":"uint256","indexed":false,"internalType":"uint256"},{"name":"_redirectedBalanceAdded","type":"uint256","indexed":false,"internalType":"uint256"},{"name":"_redirectedBalanceRemoved","type":"uint256","indexed":false,"internalType":"uint256"}],"anonymous":false},{"type":"event","name":"Transfer","inputs":[{"name":"from","type":"address","indexed":true,"internalType":"address"},{"name":"to","type":"address","indexed":true,"internalType":"address"},{"name":"value","type":"uint256","indexed":false,"internalType":"uint256"}],"anonymous":false},{"type":"error","name":"ERC20InsufficientAllowance","inputs":[{"name":"spender","type":"address","internalType":"address"},{"name":"allowance","type":"uint256","internalType":"uint256"},{"name":"needed","type":"uint256","internalType":"uint256"}]},{"type":"error","name":"ERC20InsufficientBalance","inputs":[{"name":"sender","type":"address","internalType":"address"},{"name":"balance","type":"uint256","internalType":"uint256"},{"name":"needed","type":"uint256","internalType":"uint256"}]},{"type":"error","name":"ERC20InvalidApprover","inputs":[{"name":"approver","type":"address","internalType":"address"}]},{"type":"error","name":"ERC20InvalidReceiver","inputs":[{"name":"receiver","type":"address","internalType":"address"}]},{"type":"error","name":"ERC20InvalidSender","inputs":[{"name":"sender","type":"address","internalType":"address"}]},{"type":"error","name":"ERC20InvalidSpender","inputs":[{"name":"spender","type":"address","internalType":"address"}]}],"bytecode":{"object":"0x6080604090808252346200027d576200233880380380916200002282856200051f565b833981019060a0818303126200027d5780516001600160a01b038082169390918490036200027d576020936200005a85850162000543565b93868101519260ff841684036200027d5760608201516001600160401b0392908381116200027d57826200009091830162000558565b9160808201518481116200027d57620000aa920162000558565b91815181811162000410576003908154906001948583811c9316801562000514575b8c841014620004fe5781908c601f94858111620004a5575b50508c90848311600114620004325760009262000426575b505060001982851b1c191690851b1782555b8451928311620004105760049485548581811c9116801562000405575b8c821014620003f05780838d9211620003a3575b50508a91841160011462000336579383949184926000956200032a575b50501b92600019911b1c19161781555b600a80546001600160a01b03199081168417909155875163076b7fbb60e51b815290929087818481855afa8015620002d6578691600091620002e1575b501683600b541617600b55875190630261bf8b60e01b825287828481845afa918215620002d6578892879160009162000295575b501684600c541617600c55885192838092632f58b80d60e01b82525afa9586156200028a5760009662000245575b505082600d54941690600554161760055560ff60a01b9060a01b1692169060018060a81b0319161717600d5551611d699081620005cf8239f35b9080929650813d831162000282575b6200026081836200051f565b810103126200027d57620002749062000543565b9338806200020b565b600080fd5b503d62000254565b87513d6000823e3d90fd5b938092508491503d8311620002ce575b620002b181836200051f565b810103126200027d5785620002c7899362000543565b38620001dd565b503d620002a5565b89513d6000823e3d90fd5b9091508881813d831162000322575b620002fc81836200051f565b810103126200031e57519086821682036200031b5750859038620001a9565b80fd5b5080fd5b503d620002f0565b0151935038806200015c565b9190601f1984169286600052848c600020948d6000905b898383106200038a57505050106200036f575b50505050811b0181556200016c565b01519060f884600019921b161c191690553880808062000360565b8686015189559097019694850194889350018e6200034d565b8760005283826000209181880160051c8301938810620003e6575b0160051c019086905b828110620003d957508c91506200013f565b60008155018690620003c7565b92508192620003be565b602287634e487b7160e01b6000525260246000fd5b90607f16906200012b565b634e487b7160e01b600052604160045260246000fd5b015190503880620000fc565b879350908d91601f1984168760005283600020936000905b8282106200048357505084116200046a575b505050811b0182556200010e565b015160001983871b60f8161c191690553880806200045c565b91929395968291958786015181550195019301908f918a96959493926200044a565b909192508560005284826000209181860160051c8301938610620004f4575b918991869594930160051c01915b828110620004e457508e9150620000e4565b60008155859450899101620004d2565b92508192620004c4565b634e487b7160e01b600052602260045260246000fd5b92607f1692620000cc565b601f909101601f19168101906001600160401b038211908210176200041057604052565b51906001600160a01b03821682036200027d57565b919080601f840112156200027d5782516001600160401b0381116200041057602090604051926200059383601f19601f85011601856200051f565b8184528282870101116200027d5760005b818110620005ba57508260009394955001015290565b8581018301518482018401528201620005a456fe6080604052600436101561001257600080fd5b60003560e01c806306fdde0314610177578063095ea7b3146101725780630e49072d1461016d57806312c87c2d1461016857806318160ddd146101635780631d51e7cf1461015e57806323b872dd14610159578063313ce56714610154578063325a9b131461014f5780633edb7cb81461014a578063445e8010146101455780635eae177c1461014057806370a082311461013b57806389d1a0fc1461013657806394362e8b1461013157806395d89b411461012c578063a9059cbb14610127578063c634dfaa14610122578063db006a751461011d578063dd62ed3e14610118578063ee9907a4146101135763f866c3191461010e57600080fd5b610e3c565b610e02565b610daa565b610c23565b610be9565b610ae9565b610a23565b61099e565b610975565b610952565b610921565b6108e6565b610811565b61075b565b610737565b610562565b6104f3565b6104d0565b6103fe565b6103da565b610310565b6101d5565b600091031261018757565b600080fd5b6020808252825181830181905290939260005b8281106101c157505060409293506000838284010152601f8019910116010190565b81810186015184820160400152850161019f565b34610187576000806003193601126102e1576040519080600354906001918060011c92600182169283156102d7575b6020926020861085146102c35785885260208801949081156102a25750600114610249575b6102458761023981890382610f5e565b6040519182918261018c565b0390f35b600360005294509192917fc2575a0e9e593c00f959f8c92f12db2869c3395a3b0502d05e2516446f71f85b5b8386106102915750505091019050610239826102453880610229565b805485870152948201948101610275565b60ff191685525050505090151560051b019050610239826102453880610229565b634e487b7160e01b82526022600452602482fd5b93607f1693610204565b80fd5b600435906001600160a01b038216820361018757565b602435906001600160a01b038216820361018757565b34610187576040366003190112610187576103296102e4565b60243533156103c1576001600160a01b0382169182156103a8573360009081526001602052604090208291610370915b9060018060a01b0316600052602052604060002090565b556040519081527f8c5be1e5ebec7d5bd14f71427d1e84f3dd0314c0f7b2291e5b200ac8c7c3b92560203392a3602060405160018152f35b604051634a1406b160e11b815260006004820152602490fd5b60405163e602df0560e01b815260006004820152602490fd5b34610187576020366003190112610187576103fc6103f66102e4565b33611377565b005b34610187576020366003190112610187576104176102e4565b6001600160a01b03811633811461047d5733600090815260096020526040812080546001600160a01b0319166001600160a01b0390941693909317909255337fc2d6a42a9d5273283f73009a07aacfb043f2f91173a8d9d33b504afe898db08b8380a380f35b60405162461bcd60e51b815260206004820152602560248201527f557365722063616e6e6f74206769766520616c6c6f77616e636520746f20686960448201526436b9b2b63360d91b6064820152608490fd5b346101875760003660031901126101875760206104eb610f9b565b604051908152f35b34610187576020366003190112610187576001600160a01b036105146102e4565b1660005260086020526020604060002054604051908152f35b6060906003190112610187576001600160a01b0390600435828116810361018757916024359081168103610187579060443590565b34610187576105703661052d565b6001600160a01b0380841660008181526001602090815260408083203384529091529020929490939092859054600181016106f4575b506105b46105b991856110c3565b6112ae565b841561069657610671836105ed7f89a178eaa27e0cd201bd795ca8ff716ac0df9618494510ca79771cfc66ffcde89561158b565b9092506105fc8694929461158b565b96925093905061060d8c8683611871565b61062061061a8d86611153565b89611670565b61062b8c8983611c4d565b6106378c6000936110b6565b15610686575b501561068057506000915b604080519a8b5260208b01919091528901526060880152608087015291169390819060a0820190565b0390a360405160018152602090f35b91610648565b6106909150611a4a565b3861063d565b60405162461bcd60e51b815260206004820152603060248201527f5472616e7366657272656420616d6f756e74206e6565647320746f206265206760448201526f726561746572207468616e207a65726f60801b6064820152608490fd5b81811061070f579061070891033385611c13565b84386105a6565b604051637dc7a0d960e11b815233600482015260248101919091526044810191909152606490fd5b3461018757600036600319011261018757602060ff600d5460a01c16604051908152f35b34610187576040366003190112610187576107746102e4565b61077c6102fa565b6001600160a01b038281166000908152600960205260409020541633036107a6576103fc91611377565b60405162461bcd60e51b815260206004820152603a60248201527f43616c6c6572206973206e6f7420616c6c6f77656420746f207265646972656360448201527f742074686520696e746572657374206f662074686520757365720000000000006064820152608490fd5b346101875760403660031901126101875761082a6102e4565b6024359060018060a01b0361084481600c54163314611039565b61084d8261158b565b94925061085b868285611871565b6108658684611972565b60009482878103116108e1577f90e5d3d68ec162d9c7de393037a3ede04dd44f68e051bf2ace4a73c299dbc4db95876108c794146108d2575b156108cc57506000905b6040519485941696846040919493926060820195825260208201520152565b0390a2005b906108a8565b506108dc84611a4a565b61089e565b6110a0565b346101875760203660031901126101875760206001600160a01b038061090a6102e4565b166000526007825260406000205416604051908152f35b3461018757604036600319011261018757602061094861093f6102e4565b602435906110c3565b6040519015158152f35b346101875760203660031901126101875760206104eb6109706102e4565b611160565b34610187576000366003190112610187576005546040516001600160a01b039091168152602090f35b34610187576040366003190112610187576109b76102e4565b6024359060018060a01b036109d181600c54163314611039565b6109da8261158b565b9150939150848401908185116108e1577fbe7799898ca2d813ff902b487c1b434ab45b47edd8f38b77ad5e99aae8341b7a94610a196108c79385611670565b6108a88785611b8a565b34610187576000806003193601126102e1576040519080600454906001918060011c9260018216928315610adf575b6020926020861085146102c35785885260208801949081156102a25750600114610a86576102458761023981890382610f5e565b600460005294509192917f8a35acfbc15ff81a39ae7d344fd709f28e8600b4aa8c65c6b64bfe7fe36bd19b5b838610610ace5750505091019050610239826102453880610229565b805485870152948201948101610ab2565b93607f1693610a52565b3461018757604036600319011261018757610b026102e4565b602435610b126105b482336110c3565b8015610696577f89a178eaa27e0cd201bd795ca8ff716ac0df9618494510ca79771cfc66ffcde8610671610b453361158b565b90969250610b558394929461158b565b939250959050610b66888a33611871565b610b79610b738988611153565b86611670565b610b84888633611c4d565b610b90886000926110b6565b15610bda575b15610bd5575060005b60405194859460018060a01b0316983398869192608093969594919660a084019784526020840152604083015260608201520152565b610b9f565b50610be433611a4a565b610b96565b34610187576020366003190112610187576001600160a01b03610c0a6102e4565b1660005260006020526020604060002054604051908152f35b3461018757602036600319011261018757600435610c428115156111fc565b610c4b3361158b565b919250906000198414610da1575b610c6583851115611247565b610c726105b485336110c3565b610c7d848333611871565b610c878433611972565b6000610c9385856110b6565b15610d92575b600c54610cb6906001600160a01b03165b6001600160a01b031690565b600554909490610cd19087906001600160a01b0316926110b6565b853b1561018757604051631312bc7b60e31b81526001600160a01b03929092166004830152336024830152604482018790526064820152936000908590608490829084905af1938415610d8d577fbd5034ffbd47e4e72a94baa2cdb74c6fad73cb3bcdc13036b72ec8306f5a764694610d74575b5015610d6e57506000905b604080519485526020850191909152830152339180606081016108c7565b90610d50565b80610d81610d8792610f34565b8061017c565b38610d45565b610f8f565b50610d9c33611a4a565b610c99565b92508192610c59565b34610187576040366003190112610187576020610df9610dc86102e4565b610dd06102fa565b6001600160a01b0391821660009081526001855260408082209290931681526020919091522090565b54604051908152f35b34610187576020366003190112610187576001600160a01b03610e236102e4565b1660005260066020526020604060002054604051908152f35b3461018757610e4a3661052d565b9060018060a01b03610e6181600c54163314611039565b8215610696577f89a178eaa27e0cd201bd795ca8ff716ac0df9618494510ca79771cfc66ffcde891610f1a610e958661158b565b925090610ea18561158b565b959250929050610eb28a858d611871565b610ec5610ebf8b85611153565b88611670565b610ed08a888d611c4d565b610edc8a6000926110b6565b15610f25575b15610f1f57506000915b60408051998a5260208a019190915288015260608701526080860152908216949091169290819060a0820190565b0390a3005b91610eec565b50610f2f8a611a4a565b610ee2565b67ffffffffffffffff8111610f4857604052565b634e487b7160e01b600052604160045260246000fd5b90601f8019910116810190811067ffffffffffffffff821117610f4857604052565b90816020910312610187575190565b6040513d6000823e3d90fd5b600254801561103357610fad9061151c565b600b5460055460405163d15e005360e01b81526001600160a01b0391821660048201529160209183916024918391165afa8015610d8d57610fff92610ffa92600092611002575b50611530565b61156c565b90565b61102591925060203d60201161102c575b61101d8183610f5e565b810190610f80565b9038610ff4565b503d611013565b50600090565b1561104057565b60405162461bcd60e51b815260206004820152603260248201527f5468652063616c6c6572206f6620746869732066756e6374696f6e206d7573746044820152710818994818481b195b991a5b99c81c1bdbdb60721b6064820152608490fd5b634e487b7160e01b600052601160045260246000fd5b919082039182116108e157565b600d546005546040516376e9d61560e01b81526001600160a01b03918216600482015292811660248401526044830193909352909160209183916064918391165afa908115610d8d57600091611117575090565b6020813d60201161114b575b8161113060209383610f5e565b8101031261114757519081151582036102e1575090565b5080fd5b3d9150611123565b919082018092116108e157565b60018060a01b038082166000526000602052604060002054916008602052604060002054918315806111f4575b6111eb576001600160a01b038216600090815260076020526040902054166111cb576111c6906111c083610fff95611153565b90611aed565b6110b6565b816111d591611aed565b9081039081116108e15781018091116108e15790565b50505050600090565b50821561118d565b1561120357565b606460405162461bcd60e51b815260206004820152602060248201527f416d6f756e7420746f2072656465656d206e6565647320746f206265203e20306044820152fd5b1561124e57565b60405162461bcd60e51b815260206004820152603260248201527f557365722063616e6e6f742072656465656d206d6f7265207468616e2074686560448201527120617661696c61626c652062616c616e636560701b6064820152608490fd5b156112b557565b60405162461bcd60e51b815260206004820152601b60248201527f5472616e736665722063616e6e6f7420626520616c6c6f7765642e00000000006044820152606490fd5b1561130157565b60405162461bcd60e51b815260206004820152604260248201527f496e7465726573742073747265616d2063616e206f6e6c79206265207265646960448201527f72656374656420696620746865726520697320612076616c69642062616c616e606482015261636560f01b608482015260a490fd5b6001600160a01b0381811660009081526007602052604090205491928082169290919081168381146114c4576113ac8561158b565b9792909491936113bd8515156112fa565b6114b4575b5081169384861461145f579561143d83836114387f5e3cad45b1fe24159d1cb39788d82d0f69cc15770aa96fba1d3d1a734873559498999a61141961145a9760018060a01b03166000526007602052604060002090565b80546001600160a01b0319166001600160a01b03909216919091179055565b611670565b604051938493846040919493926060820195825260208201520152565b0390a3565b506001600160a01b0316600090815260076020526040812080546001600160a01b0319169055949293507f5e3cad45b1fe24159d1cb39788d82d0f69cc15770aa96fba1d3d1a73487355949261145a9061143d565b6114be9083611763565b386113c2565b60405162461bcd60e51b815260206004820152602a60248201527f496e74657265737420697320616c72656164792072656469726563746564207460448201526937903a3432903ab9b2b960b11b6064820152608490fd5b90633b9aca00918281029283040361018757565b816b019d971e4fe8401e74000000190481111582151715610187576b033b2e3c9fd0803ce800000091026b019d971e4fe8401e74000000010490565b90631dcd6500633b9aca008084049306101561158457565b9060010190565b6001600160a01b03811660009081526020819052604090205491906115af81611160565b918383039283116108e157816115c88461160f94611b8a565b600b546020906115e0906001600160a01b0316610caa565b60055460405163d15e005360e01b81526001600160a01b03909116600482015294859190829081906024820190565b03915afa928315610d8d5760009361164d575b506001600160a01b0316600090815260066020526040902082905b556116488385611153565b929190565b61163d935061166a9060203d60201161102c5761101d8183610f5e565b92611622565b6001600160a01b03908116600090815260076020526040902054811691821561175e5761169c8361158b565b6001600160a01b0387166000908152600860205260409020919590935091508054908482018092116108e157556001600160a01b038516600090815260076020526040902054168061172a575b50916080917f70ff8cf632603e2bfd1afb7e4061acce53d95356b1be9726b99fa22ba733b01f936040519283526020830152604082015260006060820152a2565b6001600160a01b03166000908152600860205260409020909290918254938285018095116108e157939092559160806116e9565b505050565b6001600160a01b03908116600090815260076020526040902054811691821561175e5761178f8361158b565b9391509150806108e1576001600160a01b0385166000908152600860205260409020908154948160000386018096116108e1577f70ff8cf632603e2bfd1afb7e4061acce53d95356b1be9726b99fa22ba733b01f9561184293556118156118088860018060a01b03166000526007602052604060002090565b546001600160a01b031690565b908116611847575b5060405193849384606091949392608082019582526020820152600060408201520152565b0390a2565b6001600160a01b03166000908152600860205260409020611869848254611153565b90553861181d565b6001600160a01b0390811660009081526007602052604090205481169290831561196c5761189e8461158b565b9492509290508185038581116108e1576001600160a01b038716600090815260086020526040902080549182018092116108e157556001600160a01b038616600090815260076020526040902054168061193b575b506040805192835260208301939093529181019290925260608201527f70ff8cf632603e2bfd1afb7e4061acce53d95356b1be9726b99fa22ba733b01f908060808101611842565b6001600160a01b03166000908152600860205260409020908154948386018096116108e157949091556118426118f3565b50505050565b91906001600160a01b038316908115611a31576001600160a01b038416600090815260208190526040902054938185106119ff57816020916119ed7fddf252ad1be2c89b69c2b068fc378daa952ba7f163c4a11628f55a4df523b3ef9460009798039160018060a01b03166000526000602052604060002090565b558060025403600255604051908152a3565b60405163391434e360e21b81526001600160a01b03919091166004820152602481018590526044810191909152606490fd5b604051634b637e8f60e11b815260006004820152602490fd5b60018060a01b03811690600082819382526007602052604082206bffffffffffffffffffffffff60a01b81541690557f5e3cad45b1fe24159d1cb39788d82d0f69cc15770aa96fba1d3d1a73487355946060604051848152846020820152846040820152a36001600160a01b038116600090815260086020526040902054611ae9576001600160a01b0316600090815260066020526040902055600190565b5090565b90611af79061151c565b600b5460055460405163d15e005360e01b81526001600160a01b0391821660048201529160209183916024918391165afa8015610d8d57611b5f92611b43926000926110025750611530565b6001600160a01b03909216600090815260066020526040902090565b548060011c6b033b2e3c9fd0803ce800000080821904841183151761018757610fff9302010461156c565b6001600160a01b03811691908215611bfa57600254908282018092116108e1576002919091556001600160a01b0316600090815260208181526040822091927fddf252ad1be2c89b69c2b068fc378daa952ba7f163c4a11628f55a4df523b3ef92818154019055604051908152a3565b60405163ec442f0560e01b815260006004820152602490fd5b906001600160a01b03808316156103c1578116156103a857610359611c4a9260018060a01b03166000526001602052604060002090565b55565b916001600160a01b0380841692908315611a31578116938415611bfa576001600160a01b038116600090815260208190526040902054838110611d045761145a928492611cd37fddf252ad1be2c89b69c2b068fc378daa952ba7f163c4a11628f55a4df523b3ef96611cee94039160018060a01b03166000526000602052604060002090565b556001600160a01b0316600090815260208190526040902090565b8054820190556040519081529081906020820190565b60405163391434e360e21b81526001600160a01b03929092166004830152602482015260448101839052606490fdfea264697066735822122005f633534643e28e9f9530505d51d18982a9a3b450dfa81193099f8cb2396e0864736f6c63430008180033","linkReferences":{}},"methodIdentifiers":{"allowInterestRedirectionTo(address)":"12c87c2d","allowance(address,address)":"dd62ed3e","approve(address,uint256)":"095ea7b3","balanceOf(address)":"70a08231","burnOnLiquidation(address,uint256)":"3edb7cb8","decimals()":"313ce567","getInterestRedirectionAddress(address)":"445e8010","getRedirectedBalance(address)":"1d51e7cf","getUserIndex(address)":"ee9907a4","isTransferAllowed(address,uint256)":"5eae177c","mintOnDeposit(address,uint256)":"94362e8b","name()":"06fdde03","principalBalanceOf(address)":"c634dfaa","redeem(uint256)":"db006a75","redirectInterestStream(address)":"0e49072d","redirectInterestStreamOf(address,address)":"325a9b13","symbol()":"95d89b41","totalSupply()":"18160ddd","transfer(address,uint256)":"a9059cbb","transferFrom(address,address,uint256)":"23b872dd","transferOnLiquidation(address,address,uint256)":"f866c319","underlyingAssetAddress()":"89d1a0fc"},"id":72}