{"abi":[{"type":"constructor","inputs":[{"name":"_initialAnswer","type":"int256","internalType":"int256"}],"stateMutability":"nonpayable"},{"type":"function","name":"latestAnswer","inputs":[],"outputs":[{"name":"","type":"int256","internalType":"int256"}],"stateMutability":"view"},{"type":"event","name":"AnswerUpdated","inputs":[{"name":"current","type":"int256","indexed":true,"internalType":"int256"},{"name":"roundId","type":"uint256","indexed":true,"internalType":"uint256"},{"name":"timestamp","type":"uint256","indexed":false,"internalType":"uint256"}],"anonymous":false}],"bytecode":{"object":"0x60803461007d57601f61011138819003918201601f19168301916001600160401b038311848410176100825780849260209460405283398101031261007d57600090518082557f0559884fd3a460db3073b7fc896cc77986f16e378210ded43186175bf646fc5f6020604051428152a3604051607890816100998239f35b600080fd5b634e487b7160e01b600052604160045260246000fdfe6080806040526004361015601257600080fd5b600090813560e01c6350d25bcd14602857600080fd5b34603e5781600319360112603e57602091548152f35b5080fdfea2646970667358221220c250a5f63ef04f07f8d301f334038cce78ba0f04166d19223926403a0bc8e31064736f6c63430008180033","linkReferences":{}},"methodIdentifiers":{"latestAnswer()":"50d25bcd"},"id":42}