{"abi":[{"type":"function","name":"decimals","inputs":[],"outputs":[{"name":"","type":"uint256","internalType":"uint256"}],"stateMutability":"view"},{"type":"function","name":"name","inputs":[],"outputs":[{"name":"","type":"bytes32","internalType":"bytes32"}],"stateMutability":"view"},{"type":"function","name":"symbol","inputs":[],"outputs":[{"name":"","type":"bytes32","internalType":"bytes32"}],"stateMutability":"view"}],"bytecode":{"object":"0x608080604052346100155760ca908161001b8239f35b600080fdfe6080806040526004361015601257600080fd5b600090813560e01c90816306fdde0314607857508063313ce56714605c576395d89b4114603e57600080fd5b34605957806003193601126059576020600154604051908152f35b80fd5b5034605957806003193601126059576020600254604051908152f35b90503460905781600319360112609057602091548152f35b5080fdfea26469706673582212204dc1b059eb0b58a8265383c7ef1bd02a7e9994b2987cb39a0702a200d8d4096d64736f6c63430008180033","linkReferences":{}},"methodIdentifiers":{"decimals()":"313ce567","name()":"06fdde03","symbol()":"95d89b41"},"id":35}