{"abi":[{"type":"function","name":"getAddress","inputs":[{"name":"_key","type":"bytes32","internalType":"bytes32"}],"outputs":[{"name":"","type":"address","internalType":"address"}],"stateMutability":"view"}],"bytecode":{"object":"0x60808060405234601457608e908161001a8239f35b600080fdfe6080806040526004361015601257600080fd5b600090813560e01c6321f8a72114602857600080fd5b346054576020366003190112605457600435825260208281526040909220546001600160a01b03168152f35b5080fdfea26469706673582212203837867dc1bd3faced39da496f35e2b0cfd601ccce2ff5f0a62174c3d8283be264736f6c63430008180033","linkReferences":{}},"methodIdentifiers":{"getAddress(bytes32)":"21f8a721"},"id":0}