{"abi":[{"type":"constructor","inputs":[{"name":"_provider","type":"address","internalType":"contract ILendingPoolAddressesProvider"}],"stateMutability":"nonpayable"},{"type":"fallback","stateMutability":"payable"},{"type":"function","name":"addressesProvider","inputs":[],"outputs":[{"name":"","type":"address","internalType":"contract ILendingPoolAddressesProvider"}],"stateMutability":"view"},{"type":"function","name":"executeOperation","inputs":[{"name":"_reserve","type":"address","internalType":"address"},{"name":"_amount","type":"uint256","internalType":"uint256"},{"name":"_fee","type":"uint256","internalType":"uint256"},{"name":"","type":"bytes","internalType":"bytes"}],"outputs":[],"stateMutability":"nonpayable"},{"type":"function","name":"setFailExecutionTransfer","inputs":[{"name":"_fail","type":"bool","internalType":"bool"}],"outputs":[],"stateMutability":"nonpayable"},{"type":"event","name":"ExecutedWithFail","inputs":[{"name":"_reserve","type":"address","indexed":false,"internalType":"address"},{"name":"_amount","type":"uint256","indexed":false,"internalType":"uint256"},{"name":"_fee","type":"uint256","indexed":false,"internalType":"uint256"}],"anonymous":false},{"type":"event","name":"ExecutedWithSuccess","inputs":[{"name":"_reserve","type":"address","indexed":false,"internalType":"address"},{"name":"_amount","type":"uint256","indexed":false,"internalType":"uint256"},{"name":"_fee","type":"uint256","indexed":false,"internalType":"uint256"}],"anonymous":false},{"type":"error","name":"AddressEmptyCode","inputs":[{"name":"target","type":"address","internalType":"address"}]},{"type":"error","name":"AddressInsufficientBalance","inputs":[{"name":"account","type":"address","internalType":"address"}]},{"type":"error","name":"FailedInnerCall","inputs":[]},{"type":"error","name":"SafeERC20FailedOperation","inputs":[{"name":"token","type":"address","internalType":"address"}]}],"bytecode":{"object":"0x60803461007457601f6106c438819003918201601f19168301916001600160401b038311848410176100795780849260209460405283398101031261007457516001600160a01b0381169081900361007457600080546001600160a81b03191691909117905560405161063490816100908239f35b600080fd5b634e487b7160e01b600052604160045260246000fdfe608080604052600436101561001057005b600090813560e01c908163388f70f1146100fc578163c72c4d10146100d8575063ee8725581461003c57005b346100d55760803660031901126100d5576004356001600160a01b03811681036100d1576064359067ffffffffffffffff82116100cd57366023830112156100cd578282600401359261008e8461016e565b9361009c6040519586610136565b80855236602482840101116100cd576100ca94816024602094018483013701015260443590602435906101a7565b80f35b8280fd5b5080fd5b80fd5b9050346100d157816003193601126100d15790546001600160a01b03168152602090f35b82346100d55760203660031901126100d5576004358015158091036100d157815460ff60a01b191660a09190911b60ff60a01b1617815580f35b90601f8019910116810190811067ffffffffffffffff82111761015857604052565b634e487b7160e01b600052604160045260246000fd5b67ffffffffffffffff811161015857601f01601f191660200190565b908160209103126101a2575180151581036101a25790565b600080fd5b9192916001600160a01b03808216906101c083306103ea565b84116103a65760009160ff835460a01c16610356578073eeeeeeeeeeeeeeeeeeeeeeeeeeeeeeeeeeeeeeee8492036102ec575b5050858401918285116102d857908160208260049454166040519485809263076b7fbb60e51b82525afa9283156102cb578193610289575b5050509461025f61028492847f7d94e9d0c906b8d7b2b52a581b9e9ba728aa6f8cd8532bd87243d193f47401be97986104b5565b60405193849384604091949392606082019560018060a01b0316825260208201520152565b0390a1565b909192506020813d6020116102c3575b816102a660209383610136565b810103126100d1575191821682036100d5575061025f828461022b565b3d9150610299565b50604051903d90823e3d90fd5b634e487b7160e01b81526011600452602490fd5b60209060246040518094819363140e25ad60e31b83528c60048401525af1801561034b5761031c575b82906101f3565b61033d9060203d602011610344575b6103358183610136565b81019061018a565b5038610315565b503d61032b565b6040513d85823e3d90fd5b5050604080516001600160a01b03909316835260208301939093525090810192909252907f816f6a6bc084e1996be1a831afa1af30763d0501b6b43b9e1922a11f347366d7908060608101610284565b606460405162461bcd60e51b815260206004820152602060248201527f496e76616c69642062616c616e636520666f722074686520636f6e74726163746044820152fd5b906001600160a01b039081169073eeeeeeeeeeeeeeeeeeeeeeeeeeeeeeeeeeeeeeee821461047f576040516370a0823160e01b815292166004830152602090829060249082905afa90811561047357600091610444575090565b90506020813d60201161046b575b8161045f60209383610136565b810103126101a2575190565b3d9150610452565b6040513d6000823e3d90fd5b50503190565b3d156104b0573d906104968261016e565b916104a46040519384610136565b82523d6000602084013e565b606090565b6001600160a01b039182169290919073eeeeeeeeeeeeeeeeeeeeeeeeeeeeeeeeeeeeeeee84146105815760405191602083019363a9059cbb60e01b85521660248301526044820152604481526080810181811067ffffffffffffffff821117610158576040525161053891600091829182865af1610531610485565b908361059b565b8051908115159182610566575b505061054e5750565b60249060405190635274afe760e01b82526004820152fd5b610579925060208091830101910161018a565b153880610545565b6000935083929083928392165af150610598610485565b50565b906105c257508051156105b057805190602001fd5b604051630a12f52160e11b8152600490fd5b815115806105f5575b6105d3575090565b604051639996b31560e01b81526001600160a01b039091166004820152602490fd5b50803b156105cb56fea26469706673582212208cc4a8ed47c1f38ea50fd2d9c7aedd49b8ffd50047a8962371ba4d2ee109bfa464736f6c63430008180033","linkReferences":{}},"methodIdentifiers":{"addressesProvider()":"c72c4d10","executeOperation(address,uint256,uint256,bytes)":"ee872558","setFailExecutionTransfer(bool)":"388f70f1"},"id":29}