{"abi":[{"type":"fallback","stateMutability":"payable"},{"type":"function","name":"CORE_REVISION","inputs":[],"outputs":[{"name":"","type":"uint256","internalType":"uint256"}],"stateMutability":"view"},{"type":"function","name":"activateReserve","inputs":[{"name":"_reserve","type":"address","internalType":"address"}],"outputs":[],"stateMutability":"nonpayable"},{"type":"function","name":"addressesProvider","inputs":[],"outputs":[{"name":"","type":"address","internalType":"contract LendingPoolAddressesProvider"}],"stateMutability":"view"},{"type":"function","name":"deactivateReserve","inputs":[{"name":"_reserve","type":"address","internalType":"address"}],"outputs":[],"stateMutability":"nonpayable"},{"type":"function","name":"disableBorrowingOnReserve","inputs":[{"name":"_reserve","type":"address","internalType":"address"}],"outputs":[],"stateMutability":"nonpayable"},{"type":"function","name":"disableReserveAsCollateral","inputs":[{"name":"_reserve","type":"address","internalType":"address"}],"outputs":[],"stateMutability":"nonpayable"},{"type":"function","name":"disableReserveStableBorrowRate","inputs":[{"name":"_reserve","type":"address","internalType":"address"}],"outputs":[],"stateMutability":"nonpayable"},{"type":"function","name":"enableBorrowingOnReserve","inputs":[{"name":"_reserve","type":"address","internalType":"address"},{"name":"_stableBorrowRateEnabled","type":"bool","internalType":"bool"}],"outputs":[],"stateMutability":"nonpayable"},{"type":"function","name":"enableReserveAsCollateral","inputs":[{"name":"_reserve","type":"address","internalType":"address"},{"name":"_baseLTVasCollateral","type":"uint256","internalType":"uint256"},{"name":"_liquidationThreshold","type":"uint256","internalType":"uint256"},{"name":"_liquidationBonus","type":"uint256","internalType":"uint256"}],"outputs":[],"stateMutability":"nonpayable"},{"type":"function","name":"enableReserveStableBorrowRate","inputs":[{"name":"_reserve","type":"address","internalType":"address"}],"outputs":[],"stateMutability":"nonpayable"},{"type":"function","name":"freezeReserve","inputs":[{"name":"_reserve","type":"address","internalType":"address"}],"outputs":[],"stateMutability":"nonpayable"},{"type":"function","name":"getReserveATokenAddress","inputs":[{"name":"_reserve","type":"address","internalType":"address"}],"outputs":[{"name":"","type":"address","internalType":"address"}],"stateMutability":"view"},{"type":"function","name":"getReserveAvailableLiquidity","inputs":[{"name":"_reserve","type":"address","internalType":"address"}],"outputs":[{"name":"","type":"uint256","internalType":"uint256"}],"stateMutability":"view"},{"type":"function","name":"getReserveConfiguration","inputs":[{"name":"_reserve","type":"address","internalType":"address"}],"outputs":[{"name":"","type":"uint256","internalType":"uint256"},{"name":"","type":"uint256","internalType":"uint256"},{"name":"","type":"uint256","internalType":"uint256"},{"name":"","type":"bool","internalType":"bool"}],"stateMutability":"view"},{"type":"function","name":"getReserveCurrentAverageStableBorrowRate","inputs":[{"name":"_reserve","type":"address","internalType":"address"}],"outputs":[{"name":"","type":"uint256","internalType":"uint256"}],"stateMutability":"view"},{"type":"function","name":"getReserveCurrentLiquidityRate","inputs":[{"name":"_reserve","type":"address","internalType":"address"}],"outputs":[{"name":"","type":"uint256","internalType":"uint256"}],"stateMutability":"view"},{"type":"function","name":"getReserveCurrentStableBorrowRate","inputs":[{"name":"_reserve","type":"address","internalType":"address"}],"outputs":[{"name":"","type":"uint256","internalType":"uint256"}],"stateMutability":"view"},{"type":"function","name":"getReserveCurrentVariableBorrowRate","inputs":[{"name":"_reserve","type":"address","internalType":"address"}],"outputs":[{"name":"","type":"uint256","internalType":"uint256"}],"stateMutability":"view"},{"type":"function","name":"getReserveDecimals","inputs":[{"name":"_reserve","type":"address","internalType":"address"}],"outputs":[{"name":"","type":"uint256","internalType":"uint256"}],"stateMutability":"view"},{"type":"function","name":"getReserveInterestRateStrategyAddress","inputs":[{"name":"_reserve","type":"address","internalType":"address"}],"outputs":[{"name":"","type":"address","internalType":"address"}],"stateMutability":"view"},{"type":"function","name":"getReserveIsActive","inputs":[{"name":"_reserve","type":"address","internalType":"address"}],"outputs":[{"name":"","type":"bool","internalType":"bool"}],"stateMutability":"view"},{"type":"function","name":"getReserveIsFreezed","inputs":[{"name":"_reserve","type":"address","internalType":"address"}],"outputs":[{"name":"","type":"bool","internalType":"bool"}],"stateMutability":"view"},{"type":"function","name":"getReserveIsStableBorrowRateEnabled","inputs":[{"name":"_reserve","type":"address","internalType":"address"}],"outputs":[{"name":"","type":"bool","internalType":"bool"}],"stateMutability":"view"},{"type":"function","name":"getReserveLastUpdate","inputs":[{"name":"_reserve","type":"address","internalType":"address"}],"outputs":[{"name":"timestamp","type":"uint40","internalType":"uint40"}],"stateMutability":"view"},{"type":"function","name":"getReserveLiquidationBonus","inputs":[{"name":"_reserve","type":"address","internalType":"address"}],"outputs":[{"name":"","type":"uint256","internalType":"uint256"}],"stateMutability":"view"},{"type":"function","name":"getReserveLiquidationThreshold","inputs":[{"name":"_reserve","type":"address","internalType":"address"}],"outputs":[{"name":"","type":"uint256","internalType":"uint256"}],"stateMutability":"view"},{"type":"function","name":"getReserveLiquidityCumulativeIndex","inputs":[{"name":"_reserve","type":"address","internalType":"address"}],"outputs":[{"name":"","type":"uint256","internalType":"uint256"}],"stateMutability":"view"},{"type":"function","name":"getReserveNormalizedIncome","inputs":[{"name":"_reserve","type":"address","internalType":"address"}],"outputs":[{"name":"","type":"uint256","internalType":"uint256"}],"stateMutability":"view"},{"type":"function","name":"getReserveTotalBorrows","inputs":[{"name":"_reserve","type":"address","internalType":"address"}],"outputs":[{"name":"","type":"uint256","internalType":"uint256"}],"stateMutability":"view"},{"type":"function","name":"getReserveTotalBorrowsStable","inputs":[{"name":"_reserve","type":"address","internalType":"address"}],"outputs":[{"name":"","type":"uint256","internalType":"uint256"}],"stateMutability":"view"},{"type":"function","name":"getReserveTotalBorrowsVariable","inputs":[{"name":"_reserve","type":"address","internalType":"address"}],"outputs":[{"name":"","type":"uint256","internalType":"uint256"}],"stateMutability":"view"},{"type":"function","name":"getReserveTotalLiquidity","inputs":[{"name":"_reserve","type":"address","internalType":"address"}],"outputs":[{"name":"","type":"uint256","internalType":"uint256"}],"stateMutability":"view"},{"type":"function","name":"getReserveUtilizationRate","inputs":[{"name":"_reserve","type":"address","internalType":"address"}],"outputs":[{"name":"","type":"uint256","internalType":"uint256"}],"stateMutability":"view"},{"type":"function","name":"getReserveVariableBorrowsCumulativeIndex","inputs":[{"name":"_reserve","type":"address","internalType":"address"}],"outputs":[{"name":"","type":"uint256","internalType":"uint256"}],"stateMutability":"view"},{"type":"function","name":"getReserves","inputs":[],"outputs":[{"name":"","type":"address[]","internalType":"address[]"}],"stateMutability":"view"},{"type":"function","name":"getUserBasicReserveData","inputs":[{"name":"_reserve","type":"address","internalType":"address"},{"name":"_user","type":"address","internalType":"address"}],"outputs":[{"name":"","type":"uint256","internalType":"uint256"},{"name":"","type":"uint256","internalType":"uint256"},{"name":"","type":"uint256","internalType":"uint256"},{"name":"","type":"bool","internalType":"bool"}],"stateMutability":"view"},{"type":"function","name":"getUserBorrowBalances","inputs":[{"name":"_reserve","type":"address","internalType":"address"},{"name":"_user","type":"address","internalType":"address"}],"outputs":[{"name":"","type":"uint256","internalType":"uint256"},{"name":"","type":"uint256","internalType":"uint256"},{"name":"","type":"uint256","internalType":"uint256"}],"stateMutability":"view"},{"type":"function","name":"getUserCurrentBorrowRateMode","inputs":[{"name":"_reserve","type":"address","internalType":"address"},{"name":"_user","type":"address","internalType":"address"}],"outputs":[{"name":"","type":"uint8","internalType":"enum CoreLibrary.InterestRateMode"}],"stateMutability":"view"},{"type":"function","name":"getUserCurrentStableBorrowRate","inputs":[{"name":"_reserve","type":"address","internalType":"address"},{"name":"_user","type":"address","internalType":"address"}],"outputs":[{"name":"","type":"uint256","internalType":"uint256"}],"stateMutability":"view"},{"type":"function","name":"getUserLastUpdate","inputs":[{"name":"_reserve","type":"address","internalType":"address"},{"name":"_user","type":"address","internalType":"address"}],"outputs":[{"name":"timestamp","type":"uint256","internalType":"uint256"}],"stateMutability":"view"},{"type":"function","name":"getUserOriginationFee","inputs":[{"name":"_reserve","type":"address","internalType":"address"},{"name":"_user","type":"address","internalType":"address"}],"outputs":[{"name":"","type":"uint256","internalType":"uint256"}],"stateMutability":"view"},{"type":"function","name":"getUserUnderlyingAssetBalance","inputs":[{"name":"_reserve","type":"address","internalType":"address"},{"name":"_user","type":"address","internalType":"address"}],"outputs":[{"name":"","type":"uint256","internalType":"uint256"}],"stateMutability":"view"},{"type":"function","name":"getUserVariableBorrowCumulativeIndex","inputs":[{"name":"_reserve","type":"address","internalType":"address"},{"name":"_user","type":"address","internalType":"address"}],"outputs":[{"name":"","type":"uint256","internalType":"uint256"}],"stateMutability":"view"},{"type":"function","name":"initReserve","inputs":[{"name":"_reserve","type":"address","internalType":"address"},{"name":"_aTokenAddress","type":"address","internalType":"address"},{"name":"_decimals","type":"uint256","internalType":"uint256"},{"name":"_interestRateStrategyAddress","type":"address","internalType":"address"}],"outputs":[],"stateMutability":"nonpayable"},{"type":"function","name":"initialize","inputs":[{"name":"_addressesProvider","type":"address","internalType":"contract LendingPoolAddressesProvider"}],"outputs":[],"stateMutability":"nonpayable"},{"type":"function","name":"isReserveBorrowingEnabled","inputs":[{"name":"_reserve","type":"address","internalType":"address"}],"outputs":[{"name":"","type":"bool","internalType":"bool"}],"stateMutability":"view"},{"type":"function","name":"isReserveUsageAsCollateralEnabled","inputs":[{"name":"_reserve","type":"address","internalType":"address"}],"outputs":[{"name":"","type":"bool","internalType":"bool"}],"stateMutability":"view"},{"type":"function","name":"isUserAllowedToBorrowAtStable","inputs":[{"name":"_reserve","type":"address","internalType":"address"},{"name":"_user","type":"address","internalType":"address"},{"name":"_amount","type":"uint256","internalType":"uint256"}],"outputs":[{"name":"","type":"bool","internalType":"bool"}],"stateMutability":"view"},{"type":"function","name":"isUserUseReserveAsCollateralEnabled","inputs":[{"name":"_reserve","type":"address","internalType":"address"},{"name":"_user","type":"address","internalType":"address"}],"outputs":[{"name":"","type":"bool","internalType":"bool"}],"stateMutability":"view"},{"type":"function","name":"lendingPoolAddress","inputs":[],"outputs":[{"name":"","type":"address","internalType":"address"}],"stateMutability":"view"},{"type":"function","name":"liquidateFee","inputs":[{"name":"_token","type":"address","internalType":"address"},{"name":"_amount","type":"uint256","internalType":"uint256"},{"name":"_destination","type":"address","internalType":"address"}],"outputs":[],"stateMutability":"payable"},{"type":"function","name":"refreshConfiguration","inputs":[],"outputs":[],"stateMutability":"nonpayable"},{"type":"function","name":"removeLastAddedReserve","inputs":[{"name":"_reserveToRemove","type":"address","internalType":"address"}],"outputs":[],"stateMutability":"nonpayable"},{"type":"function","name":"reservesList","inputs":[{"name":"","type":"uint256","internalType":"uint256"}],"outputs":[{"name":"","type":"address","internalType":"address"}],"stateMutability":"view"},{"type":"function","name":"setReserveBaseLTVasCollateral","inputs":[{"name":"_reserve","type":"address","internalType":"address"},{"name":"_ltv","type":"uint256","internalType":"uint256"}],"outputs":[],"stateMutability":"nonpayable"},{"type":"function","name":"setReserveDecimals","inputs":[{"name":"_reserve","type":"address","internalType":"address"},{"name":"_decimals","type":"uint256","internalType":"uint256"}],"outputs":[],"stateMutability":"nonpayable"},{"type":"function","name":"setReserveInterestRateStrategyAddress","inputs":[{"name":"_reserve","type":"address","internalType":"address"},{"name":"_rateStrategyAddress","type":"address","internalType":"address"}],"outputs":[],"stateMutability":"nonpayable"},{"type":"function","name":"setReserveLiquidationBonus","inputs":[{"name":"_reserve","type":"address","internalType":"address"},{"name":"_bonus","type":"uint256","internalType":"uint256"}],"outputs":[],"stateMutability":"nonpayable"},{"type":"function","name":"setReserveLiquidationThreshold","inputs":[{"name":"_reserve","type":"address","internalType":"address"},{"name":"_threshold","type":"uint256","internalType":"uint256"}],"outputs":[],"stateMutability":"nonpayable"},{"type":"function","name":"setUserUseReserveAsCollateral","inputs":[{"name":"_reserve","type":"address","internalType":"address"},{"name":"_user","type":"address","internalType":"address"},{"name":"_useAsCollateral","type":"bool","internalType":"bool"}],"outputs":[],"stateMutability":"nonpayable"},{"type":"function","name":"transferToFeeCollectionAddress","inputs":[{"name":"_token","type":"address","internalType":"address"},{"name":"_user","type":"address","internalType":"address"},{"name":"_amount","type":"uint256","internalType":"uint256"},{"name":"_destination","type":"address","internalType":"address"}],"outputs":[],"stateMutability":"payable"},{"type":"function","name":"transferToReserve","inputs":[{"name":"_reserve","type":"address","internalType":"address"},{"name":"_user","type":"address","internalType":"address payable"},{"name":"_amount","type":"uint256","internalType":"uint256"}],"outputs":[],"stateMutability":"payable"},{"type":"function","name":"transferToUser","inputs":[{"name":"_reserve","type":"address","internalType":"address"},{"name":"_user","type":"address","internalType":"address payable"},{"name":"_amount","type":"uint256","internalType":"uint256"}],"outputs":[],"stateMutability":"nonpayable"},{"type":"function","name":"unfreezeReserve","inputs":[{"name":"_reserve","type":"address","internalType":"address"}],"outputs":[],"stateMutability":"nonpayable"},{"type":"function","name":"updateStateOnBorrow","inputs":[{"name":"_reserve","type":"address","internalType":"address"},{"name":"_user","type":"address","internalType":"address"},{"name":"_amountBorrowed","type":"uint256","internalType":"uint256"},{"name":"_borrowFee","type":"uint256","internalType":"uint256"},{"name":"_rateMode","type":"uint8","internalType":"enum CoreLibrary.InterestRateMode"}],"outputs":[{"name":"","type":"uint256","internalType":"uint256"},{"name":"","type":"uint256","internalType":"uint256"}],"stateMutability":"nonpayable"},{"type":"function","name":"updateStateOnDeposit","inputs":[{"name":"_reserve","type":"address","internalType":"address"},{"name":"_user","type":"address","internalType":"address"},{"name":"_amount","type":"uint256","internalType":"uint256"},{"name":"_isFirstDeposit","type":"bool","internalType":"bool"}],"outputs":[],"stateMutability":"nonpayable"},{"type":"function","name":"updateStateOnFlashLoan","inputs":[{"name":"_reserve","type":"address","internalType":"address"},{"name":"_availableLiquidityBefore","type":"uint256","internalType":"uint256"},{"name":"_income","type":"uint256","internalType":"uint256"},{"name":"_protocolFee","type":"uint256","internalType":"uint256"}],"outputs":[],"stateMutability":"nonpayable"},{"type":"function","name":"updateStateOnLiquidation","inputs":[{"name":"_principalReserve","type":"address","internalType":"address"},{"name":"_collateralReserve","type":"address","internalType":"address"},{"name":"_user","type":"address","internalType":"address"},{"name":"_amountToLiquidate","type":"uint256","internalType":"uint256"},{"name":"_collateralToLiquidate","type":"uint256","internalType":"uint256"},{"name":"_feeLiquidated","type":"uint256","internalType":"uint256"},{"name":"_liquidatedCollateralForFee","type":"uint256","internalType":"uint256"},{"name":"_balanceIncrease","type":"uint256","internalType":"uint256"},{"name":"_liquidatorReceivesAToken","type":"bool","internalType":"bool"}],"outputs":[],"stateMutability":"nonpayable"},{"type":"function","name":"updateStateOnRebalance","inputs":[{"name":"_reserve","type":"address","internalType":"address"},{"name":"_user","type":"address","internalType":"address"},{"name":"_balanceIncrease","type":"uint256","internalType":"uint256"}],"outputs":[{"name":"","type":"uint256","internalType":"uint256"}],"stateMutability":"nonpayable"},{"type":"function","name":"updateStateOnRedeem","inputs":[{"name":"_reserve","type":"address","internalType":"address"},{"name":"_user","type":"address","internalType":"address"},{"name":"_amountRedeemed","type":"uint256","internalType":"uint256"},{"name":"_userRedeemedEverything","type":"bool","internalType":"bool"}],"outputs":[],"stateMutability":"nonpayable"},{"type":"function","name":"updateStateOnRepay","inputs":[{"name":"_reserve","type":"address","internalType":"address"},{"name":"_user","type":"address","internalType":"address"},{"name":"_paybackAmountMinusFees","type":"uint256","internalType":"uint256"},{"name":"_originationFeeRepaid","type":"uint256","internalType":"uint256"},{"name":"_balanceIncrease","type":"uint256","internalType":"uint256"},{"name":"_repaidWholeLoan","type":"bool","internalType":"bool"}],"outputs":[],"stateMutability":"nonpayable"},{"type":"function","name":"updateStateOnSwapRate","inputs":[{"name":"_reserve","type":"address","internalType":"address"},{"name":"_user","type":"address","internalType":"address"},{"name":"_principalBorrowBalance","type":"uint256","internalType":"uint256"},{"name":"_compoundedBorrowBalance","type":"uint256","internalType":"uint256"},{"name":"_balanceIncrease","type":"uint256","internalType":"uint256"},{"name":"_currentRateMode","type":"uint8","internalType":"enum CoreLibrary.InterestRateMode"}],"outputs":[{"name":"","type":"uint8","internalType":"enum CoreLibrary.InterestRateMode"},{"name":"","type":"uint256","internalType":"uint256"}],"stateMutability":"nonpayable"},{"type":"event","name":"ReserveUpdated","inputs":[{"name":"reserve","type":"address","indexed":true,"internalType":"address"},{"name":"liquidityRate","type":"uint256","indexed":false,"internalType":"uint256"},{"name":"stableBorrowRate","type":"uint256","indexed":false,"internalType":"uint256"},{"name":"variableBorrowRate","type":"uint256","indexed":false,"internalType":"uint256"},{"name":"liquidityIndex","type":"uint256","indexed":false,"internalType":"uint256"},{"name":"variableBorrowIndex","type":"uint256","indexed":false,"internalType":"uint256"}],"anonymous":false},{"type":"error","name":"AddressEmptyCode","inputs":[{"name":"target","type":"address","internalType":"address"}]},{"type":"error","name":"AddressInsufficientBalance","inputs":[{"name":"account","type":"address","internalType":"address"}]},{"type":"error","name":"FailedInnerCall","inputs":[]},{"type":"error","name":"SafeERC20FailedOperation","inputs":[{"name":"token","type":"address","internalType":"address"}]}],"bytecode":{"object":"0x6080806040523461001a576000805561412590816100208239f35b600080fdfe60806040526004361015610018575b610016613245565b005b60003560e01c806305075d6e146104985780630902f1ac1461049357806309ac29531461048e5780630c7de4e91461048957806318a4dbca1461048457806318f9bbae1461047f5780631ca19f191461047a5780631d2118f91461047557806328fcf4d3146104705780633443a14b1461046b57806334b3beee1461046657806337ac6fe4146104615780633e72a4541461045c57806345330a401461045757806346bc0f28146104525780634a08accb1461044d5780634f144609146104485780634fe7a6e5146104435780635cf2e6561461043e5780635fc526ff14610439578063646810831461043457806366bbd9281461042f57806366d103f31461042a57806368beb4d6146104255780636ae14416146104205780636fffab0c1461041b57806370fb84f4146104165780637aca76eb146104115780637f90fec51461040c57806388079d88146104075780638f385c2214610402578063906c0a41146103fd57806398bd4737146103f85780639e3c4f3b146103f35780639e674848146103ee5780639fb8afcd146103e9578063a2353fdc146103e4578063a5bc826c146103df578063a8dc0f45146103da578063af825b07146103d5578063afcdbea3146103d0578063b701d093146103cb578063b75d6f34146103c6578063b8c0f745146103c1578063bcd6ffa4146103bc578063bd7fd79a146103b7578063bfacad84146103b2578063c33cfd90146103ad578063c4d66de8146103a8578063c540148e146103a3578063c72c4d101461039e578063c76a6c9c14610399578063c7d1423714610394578063d06e2ec11461038f578063d15e00531461038a578063d3ae26b314610385578063d466016f14610380578063da12d96f1461037b578063dae4c4e714610376578063e10076ad14610371578063e2174d861461036c578063e240301914610367578063e6d1819014610362578063e8ae2f5b1461035d578063eede87c114610358578063ef1f937314610353578063f054ab461461034e578063f614831114610349578063f6ea8d7614610344578063fa51854c1461033f578063fa93b2a51461033a5763feab31ac0361000e57612a1f565b6129b5565b612918565b6128d9565b61277d565b612724565b6126a5565b6125dc565b612529565b6124ed565b6124c6565b6124a3565b612465565b6123e0565b6122ea565b612270565b612247565b6121eb565b612065565b611f55565b611f15565b611eec565b611eac565b611dbf565b611d66565b611d3f565b611d02565b611c7d565b611bfe565b611af6565b611ab6565b611a16565b6118b9565b6117f9565b611730565b6116f0565b6116c4565b61167c565b611655565b611615565b6115ee565b611504565b6114dd565b61149d565b611418565b61139e565b611354565b611312565b6111de565b611183565b611109565b611088565b61101c565b610fd4565b610f8b565b610f01565b610eb9565b610e79565b610d7a565b610cc5565b610ae6565b610a86565b610a0c565b610918565b61084d565b610825565b6107b0565b61078f565b61074b565b6105e5565b610506565b6104b3565b6001600160a01b038116036104ae57565b600080fd5b346104ae5760203660031901126104ae576004356104d08161049d565b60018060a01b03166000526036602052602060ff600d6040600020015460e01c166040519015158152f35b60009103126104ae57565b346104ae576000806003193601126105bb5760405180916038549081835260208093018092603883526000805160206140d083398151915290835b81811061059e5750505084610557910385612a63565b60405193838594850191818652518092526040850193925b82811061057e57505050500390f35b83516001600160a01b03168552869550938101939281019260010161056f565b82546001600160a01b031684529286019260019283019201610541565b80fd5b60809060031901126104ae576004356105d68161049d565b90602435906044359060643590565b346104ae576105f3366105be565b6034546001600160a01b039492936004916106119087163314612a85565b603554602090610631906001600160a01b03165b6001600160a01b031690565b604051637744894b60e11b815293849182905afa90811561074657866106f294610016986106d5948996600091610717575b501691871673eeeeeeeeeeeeeeeeeeeeeeeeeeeeeeeeeeeeeeee81146106f7579161068d926139ab565b6001600160a01b03851660009081526036602052604090206106ae9061330a565b6001600160a01b03851660009081526036602052604090206106cf90613ab0565b90612b08565b6001600160a01b0384166000908152603660205260409020613366565b6133bf565b50600080808093610712955af161070c612cff565b506132b2565b61068d565b610739915060203d60201161073f575b6107318183612a63565b810190612bf2565b38610663565b503d610727565b612b24565b346104ae5760003660031901126104ae57602060405160068152f35b60409060031901126104ae5760043561077f8161049d565b9060243561078c8161049d565b90565b346104ae5760206107a86107a236610767565b90612b30565b604051908152f35b346104ae5760203660031901126104ae576004356107cd8161049d565b60018060a01b03166000526036602052602060ff600d6040600020015460d01c166040519015158152f35b6003111561080257565b634e487b7160e01b600052602160045260246000fd5b9060038210156108025752565b346104ae57602061083e61083836610767565b90612bab565b61084b6040518092610818565bf35b346104ae5761085b36610767565b6035546040516385c858b160e01b815291926001600160a01b0392916020908390600490829087165afa9182156107465783926108a4916000916108cd575b5083163314612c07565b166000526036602052600d60406000200191166001600160601b0360a01b825416179055600080f35b6108e6915060203d60201161073f576107318183612a63565b3861089a565b60609060031901126104ae576004356109048161049d565b906024356109118161049d565b9060443590565b610921366108ec565b9060018060a01b03809361093a82603454163314612a85565b1673eeeeeeeeeeeeeeeeeeeeeeeeeeeeeeeeeeeeeeee81146109c857346109685761001693309216906135f1565b60405162461bcd60e51b815260206004820152603260248201527f557365722069732073656e64696e672045544820616c6f6e672077697468207460448201527134329022a9219918103a3930b739b332b91760711b6064820152608490fd5b50906109d681341015612c79565b8034116109df57005b3403348111610a07576000808093926100169582941661c350f1610a01612cff565b50612d3f565b612ae4565b346104ae5760403660031901126104ae57600435610a298161049d565b6035546040516385c858b160e01b81526001600160a01b0392916020908290600490829087165afa801561074657610a6c916000916108cd575083163314612c07565b166000526036602052602435600960406000200155600080f35b346104ae5760203660031901126104ae576020600435610aa58161049d565b60018060a01b0380911660005260368252600c6040600020015416604051908152f35b6084359060038210156104ae57565b60a4359060038210156104ae57565b346104ae5760a03660031901126104ae57600435610b038161049d565b60243590610b108261049d565b60443591610b1c610ac8565b9160018060a01b0393610b3485603454163314612a85565b610b3e8383612ec6565b96905083166000526036602052610b58604060002061330a565b610be082610bdb88610b6a8888612bab565b6001600160a01b03881660009081526036602052604090209590610b8d816107f8565b60018103610caa5750610bdb6003610bd28a610bbb8d60018060a01b03166000526037602052604060002090565b9060018060a01b0316600052602052604060002090565b01548288613fa0565b612b08565b610be9866107f8565b60018603610c3857610c2395610c0c83610c18936005610c1e9796015491613ef1565b6064358884888861364a565b82613567565b61375e565b604080519182526020820192909252f35b0390f35b610c44869392936107f8565b60028603610c6557610c2395610c60610c1892610c1e95613e42565b610c0c565b60405162461bcd60e51b815260206004820152601c60248201527f496e76616c6964206e657720626f72726f772072617465206d6f6465000000006044820152606490fd5b80610cb66002926107f8565b03612b0857610bdb8187613e54565b346104ae5760203660031901126104ae57600435610ce28161049d565b6035546040516385c858b160e01b81526001600160a01b0392916020908290600490829087165afa801561074657610d25916000916108cd575083163314612c07565b166000908152603660205260409020600d01805460ff60e01b19169055005b60809060031901126104ae57600435610d5c8161049d565b90602435610d698161049d565b906044359060643561078c8161049d565b346104ae57610d8836610d44565b6035546040516385c858b160e01b81526001600160a01b0395949291602090829060049082908a165afa801561074657610dce91600091610e5a575b5086163314612c07565b8484166000526036602052604060002073__$2ec35834968386f54fa313129cf94664e4$__803b156104ae5786608493600096604051998a9788966304dda73560e21b8852600488015216602486015260448501521660648301525af49182156107465761001692610e41575b506137d8565b80610e4e610e5492612a4a565b806104fb565b38610e3b565b610e73915060203d60201161073f576107318183612a63565b38610dc4565b346104ae5760203660031901126104ae57600435610e968161049d565b60018060a01b031660005260366020526020600660406000200154604051908152f35b346104ae5760203660031901126104ae57600435610ed68161049d565b60018060a01b03166000526036602052602060ff600d6040600020015460e81c166040519015158152f35b346104ae5760203660031901126104ae57600435610f1e8161049d565b60018060a01b03166000526036602052602064ffffffffff600d6040600020015460a01c16604051908152f35b634e487b7160e01b600052603260045260246000fd5b603854811015610f865760386000526000805160206140d08339815191520190600090565b610f4b565b346104ae5760203660031901126104ae576004356038548110156104ae5760386000526000805160206140d083398151915201546040516001600160a01b039091168152602090f35b346104ae5760203660031901126104ae57600435610ff18161049d565b60018060a01b03166000526036602052602060ff600d6040600020015460c81c166040519015158152f35b346104ae5760203660031901126104ae576004356110398161049d565b6001600160a01b0316600090815260366020908152604091829020600b81015460088201546009830154600d909301548551928352938201529283015260d01c60ff1615156060820152608090f35b346104ae576000806003193601126105bb576035546040516385c858b160e01b8152906001600160a01b03906020908390600490829085165afa908115610746576110dd9284926110e8575b50163314612c07565b6110e561386f565b80f35b61110291925060203d60201161073f576107318183612a63565b90386110d4565b346104ae5760403660031901126104ae576004356111268161049d565b6035546040516385c858b160e01b81526001600160a01b0392916020908290600490829087165afa801561074657611169916000916108cd575083163314612c07565b166000526036602052602435600b60406000200155600080f35b346104ae57602064ffffffffff60046111c961119e36610767565b60018060a01b03166000526037855260406000209060018060a01b0316600052602052604060002090565b015416604051908152f35b801515036104ae57565b346104ae576101203660031901126104ae576004356111fc8161049d565b6024356112088161049d565b604435916112158361049d565b6112d760643560e435926106f26101043594611230866111d4565b6034546001600160a01b03989061124a908a163314612a85565b6000988085168a52603660205260408a209082168a5260376020526112848560408c209060018060a01b0316600052602052604060002090565b9061128e8161330a565b86600161129b8589612bab565b6112a4816107f8565b036112f85760036112c393016112bc81548785613ef1565b5491613fa0565b6112cc886138db565b8460a43591856138fb565b156112e0575080f35b6110e5906112f260c435608435612b08565b90613567565b9061130d92506113088582613e42565b613e54565b6112c3565b346104ae5760203660031901126104ae5760206004356113318161049d565b60018060a01b0380911660005260368252600d6040600020015416604051908152f35b346104ae576020600361139461136936610767565b60018060a01b03166000526037845260406000209060018060a01b0316600052602052604060002090565b0154604051908152f35b346104ae5760403660031901126104ae576004356113bb8161049d565b6035546040516385c858b160e01b81526001600160a01b0392916020908290600490829087165afa8015610746576113fe916000916108cd575083163314612c07565b166000526036602052602435600a60406000200155600080f35b346104ae5760203660031901126104ae576004356114358161049d565b6035546040516385c858b160e01b81526001600160a01b0392916020908290600490829087165afa801561074657611478916000916108cd575083163314612c07565b166000908152603660205260409020600d01805460ff60e81b1916600160e81b179055005b346104ae5760203660031901126104ae576004356114ba8161049d565b60018060a01b031660005260366020526020600260406000200154604051908152f35b346104ae5760203660031901126104ae5760206107a86004356114ff8161049d565b612d84565b60603660031901126104ae5760043561151c8161049d565b60243560443561152b8161049d565b6034546001600160a01b039182916115469083163314612a85565b16923461158a571673eeeeeeeeeeeeeeeeeeeeeeeeeeeeeeeeeeeeeeee81146115735791610016926139ab565b506000808080936100169561c350f1610a01612cff565b60405162461bcd60e51b815260206004820152603660248201527f466565206c69717569646174696f6e20646f6573206e6f74207265717569726560448201527520616e79207472616e73666572206f662076616c756560501b6064820152608490fd5b346104ae5760203660031901126104ae5760206107a86004356116108161049d565b612e69565b346104ae5760203660031901126104ae576004356116328161049d565b60018060a01b031660005260366020526020600360406000200154604051908152f35b346104ae57602060ff600461166c61119e36610767565b015460281c166040519015158152f35b346104ae5760203660031901126104ae576004356116998161049d565b60018060a01b03166000526036602052602060ff600d6040600020015460d81c166040519015158152f35b346104ae5760606116dd6116d736610767565b90612ec6565b9060405192835260208301526040820152f35b346104ae5760203660031901126104ae5760043561170d8161049d565b60018060a01b031660005260366020526020600b60406000200154604051908152f35b346104ae5761173e366105be565b6035546040516385c858b160e01b815292949193926001600160a01b0392916020908290600490829087165afa801561074657611786916000916108cd575083163314612c07565b16600052603660205260406000209173__$2ec35834968386f54fa313129cf94664e4$__92833b156104ae57600093608492604051968795869463126ee27360e11b865260048601526024850152604484015260648301525af48015610746576117ec57005b80610e4e61001692612a4a565b346104ae57600060203660031901126105bb576004356118188161049d565b6035546040516385c858b160e01b81526001600160a01b0392916020908290600490829087165afa80156107465761185a9185916108cd575083163314612c07565b1681526036602052604081208173__$2ec35834968386f54fa313129cf94664e4$__91823b156118b5576024604051809481936372efab5360e11b835260048301525af48015610746576118ac575080f35b6110e590612a4a565b5080fd5b346104ae576118c7366108ec565b909160018060a01b03906118e082603454163314612a85565b6040828216926000908482526036602052611935838320918816918284526037602052876003611924888888209060018060a01b0316600052602052604060002090565b61192d8461330a565b015491613ef1565b8152603760209081528282206001600160a01b0385166000908152915260409020938152603660205220928254908101809111610a0757610c34946119ab846005600397610bbb956119ce9855015487820155600464ffffffffff421691019064ffffffffff1664ffffffffff19825416179055565b6119b4836135af565b6001600160a01b0316600090815260376020526040902090565b01546040519081529081906020820190565b60809060031901126104ae576004356119f88161049d565b90602435611a058161049d565b906044359060643561078c816111d4565b346104ae57611a24366119e0565b91909260018060a01b0392611a3e84603454163314612a85565b611a6060009585841687526036602052611a5a6040882061330a565b83613567565b611a68578380f35b600492611aa192611a7e33836034541614612a85565b1684526037602052604084209060018060a01b0316600052602052604060002090565b01805465ff0000000000191690553880808380f35b346104ae5760203660031901126104ae57600435611ad38161049d565b60018060a01b031660005260366020526020600760406000200154604051908152f35b346104ae576020806003193601126104ae57600435611b148161049d565b6035546040516385c858b160e01b81526001600160a01b03929184908290600490829087165afa801561074657611b5691600091611be7575083163314612c07565b16600052603681526040600020908154151580611bda575b15611b8a57600d8201805460ff60e01b1916600160e01b179055005b6084906040519062461bcd60e51b825260048201526024808201527f5265736572766520686173206e6f74206265656e20696e697469616c697a6564604482015263081e595d60e21b6064820152fd5b5060078201541515611b6e565b6108e69150853d871161073f576107318183612a63565b346104ae5760203660031901126104ae57600435611c1b8161049d565b6035546040516385c858b160e01b81526001600160a01b0392916020908290600490829087165afa801561074657611c5e916000916108cd575083163314612c07565b166000908152603660205260409020600d01805460ff60d81b19169055005b346104ae57611c8b366119e0565b91909260018060a01b0392611ca584603454163314612a85565b611cc760009585841687526036602052611cc16040882061330a565b836133bf565b611ccf578380f35b600492611ce592611a7e33836034541614612a85565b01805465ff00000000001916650100000000001790553880808380f35b346104ae5760203660031901126104ae57600435611d1f8161049d565b60018060a01b031660005260366020526020604060002054604051908152f35b346104ae5760203660031901126104ae5760206107a8600435611d618161049d565b612f2a565b346104ae5760203660031901126104ae57600435611d838161049d565b60018060a01b0381166000526036602052611dab611da56040600020926131ec565b91613ab0565b8101809111610a0757602090604051908152f35b346104ae5760203660031901126104ae57600435611ddc8161049d565b60ff600154169081159182611ea3575b8015611e97575b15611e3b57611e069082611e1b57612f75565b611e0c57005b61001660ff1960015416600155565b611e2c600160ff1981541617600155565b611e366006600055565b612f75565b60405162461bcd60e51b815260206004820152602e60248201527f436f6e747261637420696e7374616e63652068617320616c726561647920626560448201526d195b881a5b9a5d1a585b1a5e995960921b6064820152608490fd5b50600054600611611df3565b50303b15611dec565b346104ae5760203660031901126104ae57600435611ec98161049d565b60018060a01b031660005260366020526020600160406000200154604051908152f35b346104ae5760003660031901126104ae576035546040516001600160a01b039091168152602090f35b346104ae5760203660031901126104ae57600435611f328161049d565b60018060a01b031660005260366020526020600a60406000200154604051908152f35b611f5e36610d44565b603454929391926001600160a01b03918291611f7d9083163314612a85565b1691169273eeeeeeeeeeeeeeeeeeeeeeeeeeeeeeeeeeeeeeee84141560001461203f5734611fae57610016936135f1565b60405162461bcd60e51b815260206004820152605f60248201527f557365722069732073656e64696e672045544820616c6f6e672077697468207460448201527f6865204552433230207472616e736665722e20436865636b207468652076616c60648201527f756520617474726962757465206f6620746865207472616e73616374696f6e00608482015260a490fd5b506100169250600080838194936120598395341015612c79565b61c350f1610a01612cff565b346104ae5760203660031901126104ae576004356120828161049d565b6035546040516385c858b160e01b81526001600160a01b03916020908290600490829086165afa9283156107465761210a600d936120d36121c496612163956000916121cc575b5082163314612c07565b806120ff6120ea6120e5603854612ce3565b610f61565b905460039190911b1c6001600160a01b031690565b931690831614612f9a565b6001600160a01b03811660009081526036602052604090206121359061212f90613ab0565b1561300c565b6001600160a01b0381166000908152603660205260409020838101805460ff60e01b1916905561217490600c905b0180546001600160a01b0319169055565b6001600160a01b03166000908152603660205260408120600b810182905581815560078101829055838101805461ffff60c81b191690556008810182905560098101829055600a81019190915590565b610016613071565b6121e5915060203d60201161073f576107318183612a63565b386120c9565b346104ae5760203660031901126104ae576004356122088161049d565b60018060a01b0316600052603660205260206107a8604060002061223f600182015464ffffffffff600d84015460a01c1690613c83565b905490613cf3565b346104ae5760003660031901126104ae576034546040516001600160a01b039091168152602090f35b346104ae5760403660031901126104ae5760043561228d8161049d565b6035546040516385c858b160e01b81526001600160a01b0392916020908290600490829087165afa8015610746576122d0916000916108cd575083163314612c07565b166000526036602052602435600860406000200155600080f35b346104ae5760c03660031901126104ae5760406110e560043561230c8161049d565b602435906123198261049d565b6106f26044359260843560a43591612330836111d4565b8460018060a01b0361234781603454163314612a85565b87600182841661239f60009d8e8381526036602052818120968916815260376020526123918961238b8a8585209060018060a01b0316600052602052604060002090565b99612bab565b93815260366020522061330a565b6123a8816107f8565b036123cb5760036123c093016112bc81548785613ef1565b856064359186613aec565b906123db92506113088582613e42565b6123c0565b346104ae5760203660031901126104ae576004356123fd8161049d565b6035546040516385c858b160e01b81526001600160a01b0392916020908290600490829087165afa801561074657612440916000916108cd575083163314612c07565b166000908152603660205260409020600d01805460ff60d81b1916600160d81b179055005b346104ae57610c3461247f61247936610767565b906130db565b60408051948552602085019390935291830152151560608201529081906080820190565b346104ae5760206124bc6124b6366108ec565b91613158565b6040519015158152f35b346104ae5760203660031901126104ae5760206107a86004356124e88161049d565b6131ec565b346104ae5760203660031901126104ae5760043561250a8161049d565b60018060a01b0316600052603660205260206107a86040600020613ab0565b346104ae57600060203660031901126105bb576004356125488161049d565b6035546040516385c858b160e01b81526001600160a01b0392916020908290600490829087165afa80156107465761258a9185916108cd575083163314612c07565b1681526036602052604081208173__$2ec35834968386f54fa313129cf94664e4$__91823b156118b55760246040518094819363041e0b2d60e51b835260048301525af48015610746576118ac575080f35b346104ae5760403660031901126104ae576004356125f98161049d565b60243590612606826111d4565b6035546040516385c858b160e01b81526001600160a01b0392916020908290600490829087165afa801561074657612649916000916108cd575083163314612c07565b166000526036602052604060002073__$2ec35834968386f54fa313129cf94664e4$__91823b156104ae5760446000926040519485938492637b1dd5df60e11b84526004840152151560248301525af48015610746576117ec57005b346104ae5760203660031901126104ae576004356126c28161049d565b6035546040516385c858b160e01b81526001600160a01b0392916020908290600490829087165afa801561074657612705916000916108cd575083163314612c07565b166000908152603660205260409020600d01805460ff60e81b19169055005b346104ae5760203660031901126104ae576004356127418161049d565b60018060a01b031660005260366020526020600960406000200154604051908152f35b60209093929193612779816040810196610818565b0152565b346104ae5760c03660031901126104ae5760043561279a8161049d565b6024356127a68161049d565b604435906064356127b5610ad7565b9260018060a01b036127cc81603454163314612a85565b851660005260366020526040600020906127fc86610bbb8660018060a01b03166000526037602052604060002090565b6128058361330a565b61280e866107f8565b6001860361285b579261284b95926128326128379360036128419701549083613fa0565b613e42565b6084358386613b71565b92610c1e816135af565b90610c3460405192839283612764565b509390612867826107f8565b600282036128945761284b94612841938261288a600561288f9501549382613e54565b613ef1565b612837565b60405162461bcd60e51b815260206004820152601a60248201527f496e76616c69642072617465206d6f64652072656365697665640000000000006044820152606490fd5b346104ae57602060016113946128ee36610767565b838060a01b03166000526037845260406000209060018060a01b0316600052602052604060002090565b346104ae5760603660031901126104ae576004356129358161049d565b6004612993602435926129478461049d565b60443593612954856111d4565b6034546001600160a01b03919061296e9083163314612a85565b16600052603760205260406000209060018060a01b0316600052602052604060002090565b01805465ff0000000000191691151560281b65ff000000000016919091179055005b346104ae576129c3366108ec565b909160018060a01b0380916129dd82603454163314612a85565b169073eeeeeeeeeeeeeeeeeeeeeeeeeeeeeeeeeeeeeeee8214612a05576100169316906139ab565b600080938193508192610016961661c350f1610a01612cff565b346104ae576020600261139461136936610767565b634e487b7160e01b600052604160045260246000fd5b67ffffffffffffffff8111612a5e57604052565b612a34565b90601f8019910116810190811067ffffffffffffffff821117612a5e57604052565b15612a8c57565b60405162461bcd60e51b815260206004820152602a60248201527f5468652063616c6c6572206d7573742062652061206c656e64696e6720706f6f6044820152691b0818dbdb9d1c9858dd60b21b6064820152608490fd5b634e487b7160e01b600052601160045260246000fd5b9060018201809211610a0757565b91908201809211610a0757565b908160209103126104ae575190565b6040513d6000823e3d90fd5b6001600160a01b03908116600090815260366020908152604091829020600c015491516370a0823160e01b815293831660048501529183916024918391165afa90811561074657600091612b82575090565b61078c915060203d602011612ba4575b612b9c8183612a63565b810190612b15565b503d612b92565b6001600160a01b0391821660009081526037602090815260408083209390941682529190915220805415612bec576003015415612be757600190565b600290565b50600090565b908160209103126104ae575161078c8161049d565b15612c0e57565b60405162461bcd60e51b815260206004820152603760248201527f5468652063616c6c6572206d7573742062652061206c656e64696e6720706f6f60448201527f6c20636f6e666967757261746f7220636f6e74726163740000000000000000006064820152608490fd5b15612c8057565b60405162461bcd60e51b815260206004820152603560248201527f54686520616d6f756e7420616e64207468652076616c75652073656e7420746f604482015274040c8cae0dee6d2e840c8de40dcdee840dac2e8c6d605b1b6064820152608490fd5b600019810191908211610a0757565b91908203918211610a0757565b3d15612d3a573d9067ffffffffffffffff8211612a5e5760405191612d2e601f8201601f191660200184612a63565b82523d6000602084013e565b606090565b15612d4657565b60405162461bcd60e51b8152602060048201526016602482015275151c985b9cd9995c881bd9881155120819985a5b195960521b6044820152606490fd5b6001600160a01b0381166000908152603660205260409020603554909190612db4906001600160a01b0316610625565b604051928391631b0c55dd60e11b835282600460209485935afa93841561074657600094612e47575b5060050154918215612df0575050905090565b60405163bb85c0bb60e01b81526001600160a01b0391821660048201529193919250839183916024918391165afa91821561074657600092612e3157505090565b61078c9250803d10612ba457612b9c8183612a63565b6005919450612e6290833d851161073f576107318183612a63565b9390612ddd565b6001600160a01b039081166000908152603660205260409020600481015491908215612e9457505090565b600d01546040516334762ca560e01b8152925060209183916004918391165afa90811561074657600091612b82575090565b6001600160a01b0391821660009081526037602090815260408083208486168452909152812090928154928315612f205793604091612f0f9495168152603660205220906139fb565b9181830391838311610a0757929190565b5050505080918190565b6001600160a01b0381166000908152603660205260409020612f4b90613ab0565b908115612f6e57612f5b906131ec565b818101809111610a075761078c91613ac6565b5050600090565b60018060a01b03166001600160601b0360a01b6035541617603555612f9861386f565b565b15612fa157565b60405162461bcd60e51b815260206004820152603d60248201527f52657365727665206265696e672072656d6f766564206973206469666665726560448201527f6e74207468616e207468652072657365727665207265717565737465640000006064820152608490fd5b1561301357565b60405162461bcd60e51b815260206004820152603060248201527f43616e6e6f742072656d6f7665206120726573657276652077697468206c697160448201526f1d5a591a5d1e4819195c1bdcda5d195960821b6064820152608490fd5b60385480156130c55760001981019080821015610f86577f38395c5dceade9603479b177b68959049485df8aa97b39f3533039af5f456198906038600052016001600160601b0360a01b8154169055603855565b634e487b7160e01b600052603160045260246000fd5b6001600160a01b0381811660008181526036602090815260408083209487168352603782528083209383529290529081209390926131199190612b30565b91835415613144575061312c90836139fb565b9260ff6004600285015494015460281c169193929190565b9260ff91506004015460281c169092829190565b6001600160a01b03818116600081815260366020908152604080832094871683526037825280832093835292905220600d909101549392919060d885901c60ff16156131e2576004015460281c60ff16159384156131d3575b5083156131bf575b50505090565b6131ca929350612b30565b103880806131b9565b60d01c60ff16159350386131b1565b5050505050600090565b6001600160a01b031673eeeeeeeeeeeeeeeeeeeeeeeeeeeeeeeeeeeeeeee810361321557504790565b6020602491604051928380926370a0823160e01b82523060048301525afa90811561074657600091612b82575090565b333b1561324e57565b60405162461bcd60e51b815260206004820152603660248201527f4f6e6c7920636f6e7472616374732063616e2073656e6420657468657220746f60448201527520746865204c656e64696e6720706f6f6c20636f726560501b6064820152608490fd5b156132b957565b60405162461bcd60e51b8152602060048201526024808201527f5472616e7366657220746f20746f6b656e206469737472696275746f722066616044820152631a5b195960e21b6064820152608490fd5b61331381613ab0565b61331a5750565b6133626007613357600184015461334b61334364ffffffffff600d88015460a01c168093613c83565b865490613cf3565b85556004850154613d2f565b920191825490613cf3565b9055565b919061337d61337761338393613db3565b91613db3565b90613ac6565b6b033b2e3c9fd0803ce80000008101809111610a0757815461336291613cf3565b908160609103126104ae578051916040602083015192015190565b6001600160a01b038116600090815260366020526040902091600d83019160606134026133f8610625610625875460018060a01b031690565b93610bdb846131ec565b60028601546003870154600688015460405163057e37af60e41b81526001600160a01b0387166004820152602481019490945260448401929092526064830152608482015292839060a49082905afa93841561074657600093600093600096613505575b50600182018590556005820184905560048201869055805464ffffffffff60a01b19164260a01b64ffffffffff60a01b1617905592937f04e4f521f16fcfd987978b05504262c2a2db223844977aab000e5accedb2d7259361350091905b600781549101549160405195869560018060a01b031698869192608093969594919660a084019784526020840152604083015260608201520152565b0390a2565b6134c496507f04e4f521f16fcfd987978b05504262c2a2db223844977aab000e5accedb2d72595506135009294506135549060603d606011613560575b61354c8183612a63565b8101906133a4565b97509095509391613466565b503d613542565b6001600160a01b038116600090815260366020526040902091600d83019160606134026135a0610625610625875460018060a01b031690565b936135aa846131ec565b612cf2565b6001600160a01b0381166000908152603660205260409020600d81018054919290916135e590610625906001600160a01b031681565b906060613402826131ec565b6040516323b872dd60e01b60208201526001600160a01b03928316602482015292909116604483015260648083019390935291815260a081019181831067ffffffffffffffff841117612a5e57612f9892604052613dc7565b6001600160a01b03818116600090815260366020908152604080832095909316825260379052209395949361367f9190610bbb565b93613689816107f8565b600181036136e75750612f98946136ba9260056136b3930154600387015560006001870155612b08565b8354612b08565b82556136cb60028301918254612b08565b9055600401805464ffffffffff19164264ffffffffff16179055565b806136f36002926107f8565b0361371957612f98946136ba9260076136b3936000600389015501546001870155612b08565b60405162461bcd60e51b815260206004820152601860248201527f496e76616c696420626f72726f772072617465206d6f646500000000000000006044820152606490fd5b906137698183612bab565b60038110156108025780156137d057806137846001926107f8565b036137b1576001600160a01b031660009081526037602052604090206003916137ac91610bbb565b015490565b506001600160a01b031660009081526036602052604090206004015490565b505050600090565b60008060009160388054935b84811061383657505050156137f7575050565b68010000000000000000811015612a5e578060016138189201603855610f61565b60018060a09493941b038084549260031b9316831b921b1916179055565b8183526000805160206140d08339815191528101546001600160a01b03878116911614613866575b6001016137e4565b6001935061385e565b603554604051630261bf8b60e01b81526001600160a01b03916020908290600490829086165afa908115610746576000916138bc575b50166001600160601b0360a01b6034541617603455565b6138d5915060203d60201161073f576107318183612a63565b386138a5565b6001600160a01b03166000908152603660205260409020612f989061330a565b6001600160a01b0382811660009081526037602090815260408083209385168352928152828220603690915291902092959094938103908111610a0757612f989560029261394d613954938854612b08565b8755612bab565b61395d816107f8565b1461399c575b5080613985575b50600401805464ffffffffff19164264ffffffffff16179055565b61399460028301918254612cf2565b90553861396a565b60070154600183015538613963565b60405163a9059cbb60e01b60208201526001600160a01b039092166024830152604480830193909352918152608081019167ffffffffffffffff831182841017612a5e57612f9892604052613dc7565b9081549081156137d057613a41613a4691613a1584613db3565b60038601549091908015613a74576004870154613a3b925064ffffffffff165b90613d2f565b90613cf3565b61404d565b91818314613a5357505090565b600401544264ffffffffff90911603613a6a575090565b61078c9150612afa565b50613aa5816007613a9c6004613a3b950154613a35600d85015464ffffffffff9060a01c1690565b91015490613cf3565b600187015490613ac6565b600360028201549101548101809111610a075790565b8160011c906b033b2e3c9fd0803ce8000000908183190481118415176104ae5702010490565b6001600160a01b03908116600081815260366020908152604080832095909416825260378152838220928252919091529081209195919490928103908111610a07578454908101809111610a0757612f9895600791865501549060018501918255613b63575b50506136cb60028301918254612cf2565b816003850155553880613b52565b90613b9582610bbb613bb19360018060a01b03166000526037602052604060002090565b6001600160a01b03909216600090815260366020526040902090565b92613bbb816107f8565b60028103613c025750613be661078c92600560019501546003840155600060018401555b8254612b08565b8155600401805464ffffffffff19164264ffffffffff16179055565b80613c0e6001926107f8565b03613c3257613be661078c9260076002956000600386015501546001840155613bdf565b60405162461bcd60e51b815260206004820152602360248201527f496e76616c696420696e7465726573742072617465206d6f64652072656365696044820152621d995960ea1b6064820152608490fd5b9064ffffffffff164203428111610a0757613c9d90613db3565b90744f3a68dbc8f03f243baf513267aa9a3ee524f8e02882116104ae57613ce690667009d32da30000663804e996d180006b033b2e3c9fd0803ce8000000809502010490613cf3565b908101809111610a075790565b816b019d971e4fe8401e740000001904811115821517156104ae576b033b2e3c9fd0803ce800000091026b019d971e4fe8401e74000000010490565b9064ffffffffff16420390428211610a07576301e1338090046b033b2e3c9fd0803ce8000000808201809211610a0757600190829084831615613dac57505b9260011c91825b613d7f5750505090565b80613d8991613cf3565b91818116613d9b575b811c9182613d75565b9282613da691613cf3565b92613d92565b9050613d6e565b90633b9aca0091828102928304036104ae57565b600080613df09260018060a01b03169360208151910182865af1613de9612cff565b908361406c565b8051908115159182613e1e575b5050613e065750565b60249060405190635274afe760e01b82526004820152fd5b81925090602091810103126104ae5760200151613e3a816111d4565b153880613dfd565b6003018054918201809211610a075755565b600301805491808310613e6d578203918211610a075755565b60405162461bcd60e51b815260206004820152605060248201527f54686520616d6f756e742074686174206973206265696e67207375627472616360448201527f7465642066726f6d20746865207661726961626c6520746f74616c20626f727260648201526f1bdddcc81a5cc81a5b98dbdc9c9958dd60821b608482015260a490fd5b91600283019182549181830193848411610a0757613f22600692613f1d613f339588613f289555613db3565b613cf3565b93613db3565b940193845490613cf3565b8101809111610a075761337d61336292613db3565b15613f4f57565b60405162461bcd60e51b815260206004820152602360248201527f54686520616d6f756e747320746f20737562747261637420646f6e2774206d616044820152620e8c6d60eb1b6064820152608490fd5b9190600283019182549180831061400857613fbb8184612cf2565b8094558315613ffb576133629392613fef6006613fe4613f2261337d96613f1d61337797613db3565b970196875490613cf3565b6135aa82821015613f48565b5050505060066000910155565b60405162461bcd60e51b815260206004820152601a60248201527f496e76616c696420616d6f756e7420746f2064656372656173650000000000006044820152606490fd5b90631dcd6500633b9aca008084049306101561406557565b9060010190565b90614093575080511561408157805190602001fd5b604051630a12f52160e11b8152600490fd5b815115806140c6575b6140a4575090565b604051639996b31560e01b81526001600160a01b039091166004820152602490fd5b50803b1561409c56fe38395c5dceade9603479b177b68959049485df8aa97b39f3533039af5f456199a2646970667358221220593df9a8a8c13ef7537dc361107b915a25065ede037c7272bc4f54e03250bd1d64736f6c63430008180033","linkReferences":{"contracts/libraries/CoreLibrary.sol":{"CoreLibrary":[{"start":3584,"length":20},{"start":6071,"length":20},{"start":6281,"length":20},{"start":9657,"length":20},{"start":9849,"length":20}]}}},"methodIdentifiers":{"CORE_REVISION()":"0c7de4e9","activateReserve(address)":"b75d6f34","addressesProvider()":"c72c4d10","deactivateReserve(address)":"3e72a454","disableBorrowingOnReserve(address)":"a8dc0f45","disableReserveAsCollateral(address)":"e8ae2f5b","disableReserveStableBorrowRate(address)":"b8c0f745","enableBorrowingOnReserve(address,bool)":"eede87c1","enableReserveAsCollateral(address,uint256,uint256,uint256)":"a5bc826c","enableReserveStableBorrowRate(address)":"dae4c4e7","freezeReserve(address)":"7aca76eb","getReserveATokenAddress(address)":"34b3beee","getReserveAvailableLiquidity(address)":"e2403019","getReserveConfiguration(address)":"5fc526ff","getReserveCurrentAverageStableBorrowRate(address)":"46bc0f28","getReserveCurrentLiquidityRate(address)":"c540148e","getReserveCurrentStableBorrowRate(address)":"88079d88","getReserveCurrentVariableBorrowRate(address)":"906c0a41","getReserveDecimals(address)":"a2353fdc","getReserveInterestRateStrategyAddress(address)":"6ae14416","getReserveIsActive(address)":"05075d6e","getReserveIsFreezed(address)":"4a08accb","getReserveIsStableBorrowRateEnabled(address)":"9e674848","getReserveLastUpdate(address)":"4f144609","getReserveLiquidationBonus(address)":"c76a6c9c","getReserveLiquidationThreshold(address)":"f054ab46","getReserveLiquidityCumulativeIndex(address)":"bd7fd79a","getReserveNormalizedIncome(address)":"d15e0053","getReserveTotalBorrows(address)":"e6d18190","getReserveTotalBorrowsStable(address)":"7f90fec5","getReserveTotalBorrowsVariable(address)":"98bd4737","getReserveTotalLiquidity(address)":"c33cfd90","getReserveUtilizationRate(address)":"bfacad84","getReserveVariableBorrowsCumulativeIndex(address)":"b701d093","getReserves()":"0902f1ac","getUserBasicReserveData(address,address)":"e10076ad","getUserBorrowBalances(address,address)":"9fb8afcd","getUserCurrentBorrowRateMode(address,address)":"1ca19f19","getUserCurrentStableBorrowRate(address,address)":"6fffab0c","getUserLastUpdate(address,address)":"66d103f3","getUserOriginationFee(address,address)":"feab31ac","getUserUnderlyingAssetBalance(address,address)":"18a4dbca","getUserVariableBorrowCumulativeIndex(address,address)":"f6ea8d76","initReserve(address,address,uint256,address)":"45330a40","initialize(address)":"c4d66de8","isReserveBorrowingEnabled(address)":"5cf2e656","isReserveUsageAsCollateralEnabled(address)":"18f9bbae","isUserAllowedToBorrowAtStable(address,address,uint256)":"e2174d86","isUserUseReserveAsCollateralEnabled(address,address)":"9e3c4f3b","lendingPoolAddress()":"d3ae26b3","liquidateFee(address,uint256,address)":"8f385c22","refreshConfiguration()":"64681083","removeLastAddedReserve(address)":"d06e2ec1","reservesList(uint256)":"4fe7a6e5","setReserveBaseLTVasCollateral(address,uint256)":"d466016f","setReserveDecimals(address,uint256)":"66bbd928","setReserveInterestRateStrategyAddress(address,address)":"1d2118f9","setReserveLiquidationBonus(address,uint256)":"70fb84f4","setReserveLiquidationThreshold(address,uint256)":"3443a14b","setUserUseReserveAsCollateral(address,address,bool)":"fa51854c","transferToFeeCollectionAddress(address,address,uint256,address)":"c7d14237","transferToReserve(address,address,uint256)":"28fcf4d3","transferToUser(address,address,uint256)":"fa93b2a5","unfreezeReserve(address)":"ef1f9373","updateStateOnBorrow(address,address,uint256,uint256,uint8)":"37ac6fe4","updateStateOnDeposit(address,address,uint256,bool)":"bcd6ffa4","updateStateOnFlashLoan(address,uint256,uint256,uint256)":"09ac2953","updateStateOnLiquidation(address,address,address,uint256,uint256,uint256,uint256,uint256,bool)":"68beb4d6","updateStateOnRebalance(address,address,uint256)":"af825b07","updateStateOnRedeem(address,address,uint256,bool)":"afcdbea3","updateStateOnRepay(address,address,uint256,uint256,uint256,bool)":"da12d96f","updateStateOnSwapRate(address,address,uint256,uint256,uint256,uint8)":"f6148311"},"id":19}