{"abi":[{"type":"function","name":"getUint","inputs":[{"name":"_key","type":"bytes32","internalType":"bytes32"}],"outputs":[{"name":"","type":"uint256","internalType":"uint256"}],"stateMutability":"view"}],"bytecode":{"object":"0x608080604052346014576084908161001a8239f35b600080fdfe6080806040526004361015601257600080fd5b600090813560e01c63bd02d0f514602857600080fd5b34604a576020366003190112604a576040602092600435815280845220548152f35b5080fdfea2646970667358221220e46a8c69bd7eceac64ca0117c5386c9a2509128d4af6f7118996949ad4c1eaa964736f6c63430008180033","linkReferences":{}},"methodIdentifiers":{"getUint(bytes32)":"bd02d0f5"},"id":3}