{"abi":[{"type":"fallback","stateMutability":"payable"},{"type":"function","name":"initialize","inputs":[{"name":"_logic","type":"address","internalType":"address"},{"name":"_data","type":"bytes","internalType":"bytes"}],"outputs":[],"stateMutability":"payable"},{"type":"event","name":"Upgraded","inputs":[{"name":"implementation","type":"address","indexed":true,"internalType":"address"}],"anonymous":false}],"bytecode":{"object":"0x6080806040523461001657610284908161001c8239f35b600080fdfe60806040526004361061020d576000803560e01c63d1f5789414610023575061020d565b60403660031901126100aa576004356001600160a01b03811681036100a25760243567ffffffffffffffff81116100a657366023820112156100a65780600401359183610077610072856100ee565b6100c3565b9284845236602486830101116100a2578461009f95602460209301838701378401015261013c565b80f35b5080fd5b8280fd5b80fd5b634e487b7160e01b600052604160045260246000fd5b6040519190601f01601f1916820167ffffffffffffffff8111838210176100e957604052565b6100ad565b67ffffffffffffffff81116100e957601f01601f191660200190565b1561011157565b600080fd5b3d15610137573d9061012a610072836100ee565b9182523d6000602084013e565b606090565b7f360894a13ba1a3210667c828492db98dca3e2076cc3735a920a3ca505d382bbc80546001600160a01b031661011157813b156101a2578190558151918261018357505050565b6101a0926000926020849301905af461019a610116565b5061010a565b565b60405162461bcd60e51b815260206004820152603b60248201527f43616e6e6f742073657420612070726f787920696d706c656d656e746174696f60448201527f6e20746f2061206e6f6e2d636f6e7472616374206164647265737300000000006064820152608490fd5b7f360894a13ba1a3210667c828492db98dca3e2076cc3735a920a3ca505d382bbc546000808092368280378136915af43d82803e1561024a573d90f35b3d90fdfea2646970667358221220630aed71a9d4a9d766a004a8f8721bd15d4d24ac5159aa3f6d51fc28e0693ea164736f6c63430008180033","linkReferences":{}},"methodIdentifiers":{"initialize(address,bytes)":"d1f57894"},"id":30}