{"abi":[{"type":"function","name":"getMarketBorrowRate","inputs":[{"name":"_asset","type":"address","internalType":"address"}],"outputs":[{"name":"","type":"uint256","internalType":"uint256"}],"stateMutability":"view"},{"type":"function","name":"getMarketLiquidityRate","inputs":[{"name":"_asset","type":"address","internalType":"address"}],"outputs":[{"name":"","type":"uint256","internalType":"uint256"}],"stateMutability":"view"},{"type":"function","name":"setMarketBorrowRate","inputs":[{"name":"_asset","type":"address","internalType":"address"},{"name":"_rate","type":"uint256","internalType":"uint256"}],"outputs":[],"stateMutability":"nonpayable"},{"type":"function","name":"setMarketLiquidityRate","inputs":[{"name":"_asset","type":"address","internalType":"address"},{"name":"_rate","type":"uint256","internalType":"uint256"}],"outputs":[],"stateMutability":"nonpayable"}],"bytecode":{"object":"0x6080806040523461001657610171908161001c8239f35b600080fdfe604060808152600436101561001357600080fd5b600090813560e01c806372eb293d146100ee5780639f86a0ee146100bb578063bb85c0bb146100855763fbe5ba1e1461004b57600080fd5b346100815760203660031901126100815760209181906001600160a01b03610071610120565b1681526001845220549051908152f35b5080fd5b50346100815760203660031901126100815760209181906001600160a01b036100ac610120565b16815280845220549051908152f35b50346100815780600319360112610081576001600160a01b036100dc610120565b16825260016020526024359082205580f35b50346100815780600319360112610081576001600160a01b0361010f610120565b168252816020526024359082205580f35b600435906001600160a01b038216820361013657565b600080fdfea2646970667358221220ddccee52109ae54cb19a4dd09e92a1d097b27c479d14bab16157e0e813fe6b0864736f6c63430008180033","linkReferences":{}},"methodIdentifiers":{"getMarketBorrowRate(address)":"bb85c0bb","getMarketLiquidityRate(address)":"fbe5ba1e","setMarketBorrowRate(address,uint256)":"72eb293d","setMarketLiquidityRate(address,uint256)":"9f86a0ee"},"id":54}