{"abi":[{"type":"constructor","inputs":[],"stateMutability":"nonpayable"},{"type":"function","name":"getAddress","inputs":[{"name":"_key","type":"bytes32","internalType":"bytes32"}],"outputs":[{"name":"","type":"address","internalType":"address"}],"stateMutability":"view"},{"type":"function","name":"getFeeProvider","inputs":[],"outputs":[{"name":"","type":"address","internalType":"address"}],"stateMutability":"view"},{"type":"function","name":"getLendingPool","inputs":[],"outputs":[{"name":"","type":"address","internalType":"address"}],"stateMutability":"view"},{"type":"function","name":"getLendingPoolConfigurator","inputs":[],"outputs":[{"name":"","type":"address","internalType":"address"}],"stateMutability":"view"},{"type":"function","name":"getLendingPoolCore","inputs":[],"outputs":[{"name":"","type":"address","internalType":"address payable"}],"stateMutability":"view"},{"type":"function","name":"getLendingPoolDataProvider","inputs":[],"outputs":[{"name":"","type":"address","internalType":"address"}],"stateMutability":"view"},{"type":"function","name":"getLendingPoolLiquidationManager","inputs":[],"outputs":[{"name":"","type":"address","internalType":"address"}],"stateMutability":"view"},{"type":"function","name":"getLendingPoolManager","inputs":[],"outputs":[{"name":"","type":"address","internalType":"address"}],"stateMutability":"view"},{"type":"function","name":"getLendingPoolParametersProvider","inputs":[],"outputs":[{"name":"","type":"address","internalType":"address"}],"stateMutability":"view"},{"type":"function","name":"getLendingRateOracle","inputs":[],"outputs":[{"name":"","type":"address","internalType":"address"}],"stateMutability":"view"},{"type":"function","name":"getPriceOracle","inputs":[],"outputs":[{"name":"","type":"address","internalType":"address"}],"stateMutability":"view"},{"type":"function","name":"getTokenDistributor","inputs":[],"outputs":[{"name":"","type":"address","internalType":"address"}],"stateMutability":"view"},{"type":"function","name":"owner","inputs":[],"outputs":[{"name":"","type":"address","internalType":"address"}],"stateMutability":"view"},{"type":"function","name":"renounceOwnership","inputs":[],"outputs":[],"stateMutability":"nonpayable"},{"type":"function","name":"setFeeProviderImpl","inputs":[{"name":"_feeProvider","type":"address","internalType":"address"}],"outputs":[],"stateMutability":"nonpayable"},{"type":"function","name":"setLendingPoolConfiguratorImpl","inputs":[{"name":"_configurator","type":"address","internalType":"address"}],"outputs":[],"stateMutability":"nonpayable"},{"type":"function","name":"setLendingPoolCoreImpl","inputs":[{"name":"_lendingPoolCore","type":"address","internalType":"address"}],"outputs":[],"stateMutability":"nonpayable"},{"type":"function","name":"setLendingPoolDataProviderImpl","inputs":[{"name":"_provider","type":"address","internalType":"address"}],"outputs":[],"stateMutability":"nonpayable"},{"type":"function","name":"setLendingPoolImpl","inputs":[{"name":"_pool","type":"address","internalType":"address"}],"outputs":[],"stateMutability":"nonpayable"},{"type":"function","name":"setLendingPoolLiquidationManager","inputs":[{"name":"_manager","type":"address","internalType":"address"}],"outputs":[],"stateMutability":"nonpayable"},{"type":"function","name":"setLendingPoolManager","inputs":[{"name":"_lendingPoolManager","type":"address","internalType":"address"}],"outputs":[],"stateMutability":"nonpayable"},{"type":"function","name":"setLendingPoolParametersProviderImpl","inputs":[{"name":"_parametersProvider","type":"address","internalType":"address"}],"outputs":[],"stateMutability":"nonpayable"},{"type":"function","name":"setLendingRateOracle","inputs":[{"name":"_lendingRateOracle","type":"address","internalType":"address"}],"outputs":[],"stateMutability":"nonpayable"},{"type":"function","name":"setPriceOracle","inputs":[{"name":"_priceOracle","type":"address","internalType":"address"}],"outputs":[],"stateMutability":"nonpayable"},{"type":"function","name":"setTokenDistributor","inputs":[{"name":"_tokenDistributor","type":"address","internalType":"address"}],"outputs":[],"stateMutability":"nonpayable"},{"type":"function","name":"transferOwnership","inputs":[{"name":"newOwner","type":"address","internalType":"address"}],"outputs":[],"stateMutability":"nonpayable"},{"type":"event","name":"EthereumAddressUpdated","inputs":[{"name":"newAddress","type":"address","indexed":true,"internalType":"address"}],"anonymous":false},{"type":"event","name":"FeeProviderUpdated","inputs":[{"name":"newAddress","type":"address","indexed":true,"internalType":"address"}],"anonymous":false},{"type":"event","name":"LendingPoolConfiguratorUpdated","inputs":[{"name":"newAddress","type":"address","indexed":true,"internalType":"address"}],"anonymous":false},{"type":"event","name":"LendingPoolCoreUpdated","inputs":[{"name":"newAddress","type":"address","indexed":true,"internalType":"address"}],"anonymous":false},{"type":"event","name":"LendingPoolDataProviderUpdated","inputs":[{"name":"newAddress","type":"address","indexed":true,"internalType":"address"}],"anonymous":false},{"type":"event","name":"LendingPoolLiquidationManagerUpdated","inputs":[{"name":"newAddress","type":"address","indexed":true,"internalType":"address"}],"anonymous":false},{"type":"event","name":"LendingPoolManagerUpdated","inputs":[{"name":"newAddress","type":"address","indexed":true,"internalType":"address"}],"anonymous":false},{"type":"event","name":"LendingPoolParametersProviderUpdated","inputs":[{"name":"newAddress","type":"address","indexed":true,"internalType":"address"}],"anonymous":false},{"type":"event","name":"LendingPoolUpdated","inputs":[{"name":"newAddress","type":"address","indexed":true,"internalType":"address"}],"anonymous":false},{"type":"event","name":"LendingRateOracleUpdated","inputs":[{"name":"newAddress","type":"address","indexed":true,"internalType":"address"}],"anonymous":false},{"type":"event","name":"OwnershipTransferred","inputs":[{"name":"previousOwner","type":"address","indexed":true,"internalType":"address"},{"name":"newOwner","type":"address","indexed":true,"internalType":"address"}],"anonymous":false},{"type":"event","name":"PriceOracleUpdated","inputs":[{"name":"newAddress","type":"address","indexed":true,"internalType":"address"}],"anonymous":false},{"type":"event","name":"ProxyCreated","inputs":[{"name":"id","type":"bytes32","indexed":false,"internalType":"bytes32"},{"name":"newAddress","type":"address","indexed":true,"internalType":"address"}],"anonymous":false},{"type":"event","name":"TokenDistributorUpdated","inputs":[{"name":"newAddress","type":"address","indexed":true,"internalType":"address"}],"anonymous":false},{"type":"error","name":"OwnableInvalidOwner","inputs":[{"name":"owner","type":"address","internalType":"address"}]},{"type":"error","name":"OwnableUnauthorizedAccount","inputs":[{"name":"account","type":"address","internalType":"address"}]}],"bytecode":{"object":"0x6080806040523461007a5733156100645760008054336001600160a01b03198216811783556040519290916001600160a01b0316907f8be0079c531659141344cd1fd0a4f28419497f9722a3daafe3b4186f6b6457e09080a3611a8390816100808239f35b631e4fbdf760e01b815260006004820152602490fd5b600080fdfe608060408181526004918236101561001657600080fd5b600092833560e01c9182630261bf8b146112e45750816304061d8e1461129c5781631c827204146110ce57816321f8a7211461109b5781632a62c63614610ed25781632f58b80d14610e9057816333128d5914610e475781633618abba14610dff57816338280e6b14610d7b57816340fdcadc14610cf457816344ce375b14610c6e578163530e784f14610bef5781635834eb9a14610ba75781635aef021f146109de578163715018a614610981578163820d1274146108fb57816385c858b1146108ad5781638da5cb5b14610885578163a5eface2146106b5578163bfedc103146104eb578163c12542df146102e5578163ed6ff7601461029f578163ee89129614610259578163f2fde38b146101c657508063fbeefc3c146101865763fca513a81461014357600080fd5b346101825781600319360112610182576b50524943455f4f5241434c4560a01b825260016020908152918190205490516001600160a01b039091168152f35b5080fd5b50346101825781600319360112610182576b2322a2afa82927ab24a222a960a11b825260016020908152918190205490516001600160a01b039091168152f35b91905034610255576020366003190112610255576001600160a01b03823581811693919290849003610251576101fa611320565b831561023b57505082546001600160a01b0319811683178455167f8be0079c531659141344cd1fd0a4f28419497f9722a3daafe3b4186f6b6457e08380a380f35b51631e4fbdf760e01b8152908101849052602490fd5b8480fd5b8280fd5b505034610182578160031936011261018257702a27a5a2a72fa224a9aa2924a12aaa27a960791b825260016020908152918190205490516001600160a01b039091168152f35b505034610182578160031936011261018257704c454e44494e475f504f4f4c5f434f524560781b825260016020908152918190205490516001600160a01b039091168152f35b905034610255576020366003190112610255576001600160a01b038135818116939084900361025157610316611320565b84782622a72224a723afa827a7a62fa1a7a72324a3aaa920aa27a960391b928387526001602052808388205416908784519263189acdbd60e31b60208501523060248501526024845261036884611376565b80610482575050835161065b8082019082821067ffffffffffffffff83111761046f579180918b94936113d38339039083f08015610465571695863b156101825787906103d98651948593849363cf7a1d7760e01b8552840152306024840152606060448401526064830190611392565b038183895af1801561045b5792600080516020611a2e83398151915294928192602095610447575b50838152600185522080546001600160a01b0319168617905551908152a25b7fdfabe479bad36782fb1e77fbfddd4e382671713527e4786cfc93a022ae7637298280a280f35b9050610453915061134c565b808738610401565b83513d89823e3d90fd5b85513d84823e3d90fd5b634e487b7160e01b8b526041895260248bfd5b92935093945050803b156102555785836104bc9686519788958694859363278f794360e11b85528401528860248401526044830190611392565b03925af19081156104e257506104d3575b50610420565b6104dc9061134c565b386104cd565b513d85823e3d90fd5b905034610255576020366003190112610255576001600160a01b03813581811693908490036102515761051c611320565b846c2220aa20afa82927ab24a222a960991b928387526001602052808388205416908784519263189acdbd60e31b60208501523060248501526024845261056284611376565b80610655575050835161065b8082019082821067ffffffffffffffff83111761046f579180918b94936113d38339039083f08015610465571695863b156101825787906105d38651948593849363cf7a1d7760e01b8552840152306024840152606060448401526064830190611392565b038183895af1801561045b5792600080516020611a2e83398151915294928192602095610641575b50838152600185522080546001600160a01b0319168617905551908152a25b7f07890d7d10db37434d76ee4f2928fb2dc66227c3b3391206aced4f7bcb59cdb08280a280f35b905061064d915061134c565b8087386105fb565b92935093945050803b1561025557858361068f9686519788958694859363278f794360e11b85528401528860248401526044830190611392565b03925af19081156104e257506106a6575b5061061a565b6106af9061134c565b386106a0565b905034610255576020366003190112610255576001600160a01b0381358181169390849003610251576106e6611320565b84722820a920a6a2aa22a929afa82927ab24a222a960691b928387526001602052808388205416908784519263189acdbd60e31b60208501523060248501526024845261073284611376565b80610825575050835161065b8082019082821067ffffffffffffffff83111761046f579180918b94936113d38339039083f08015610465571695863b156101825787906107a38651948593849363cf7a1d7760e01b8552840152306024840152606060448401526064830190611392565b038183895af1801561045b5792600080516020611a2e83398151915294928192602095610811575b50838152600185522080546001600160a01b0319168617905551908152a25b7fce16ea9b2fd7cadddd0f7359971028f50b5ddba33dfae1a9bdea956fabb1e2808280a280f35b905061081d915061134c565b8087386107cb565b92935093945050803b1561025557858361085f9686519788958694859363278f794360e11b85528401528860248401526044830190611392565b03925af19081156104e25750610876575b506107ea565b61087f9061134c565b38610870565b505034610182578160031936011261018257905490516001600160a01b039091168152602090f35b505034610182578160031936011261018257782622a72224a723afa827a7a62fa1a7a72324a3aaa920aa27a960391b825260016020908152918190205490516001600160a01b039091168152f35b90503461025557602036600319011261025557356001600160a01b03811691908290036102555761092a611320565b724c454e44494e475f524154455f4f5241434c4560681b83526001602052822080546001600160a01b031916821790557f5c29179aba6942020a8a2d38f65de02fb6b7f784e7f049ed3a3cab97621859b58280a280f35b83346109db57806003193601126109db5761099a611320565b80546001600160a01b03198116825581906001600160a01b03167f8be0079c531659141344cd1fd0a4f28419497f9722a3daafe3b4186f6b6457e08280a380f35b80fd5b905034610255576020366003190112610255576001600160a01b038135818116939084900361025157610a0f611320565b846b13115391125391d7d413d3d360a21b928387526001602052808388205416908784519263189acdbd60e31b602085015230602485015260248452610a5484611376565b80610b47575050835161065b8082019082821067ffffffffffffffff83111761046f579180918b94936113d38339039083f08015610465571695863b15610182578790610ac58651948593849363cf7a1d7760e01b8552840152306024840152606060448401526064830190611392565b038183895af1801561045b5792600080516020611a2e83398151915294928192602095610b33575b50838152600185522080546001600160a01b0319168617905551908152a25b7fc4e6c6cdf28d0edbd8bcf071d724d33cc2e7a30be7d06443925656e9cb492aa48280a280f35b9050610b3f915061134c565b808738610aed565b92935093945050803b15610255578583610b819686519788958694859363278f794360e11b85528401528860248401526044830190611392565b03925af19081156104e25750610b98575b50610b0c565b610ba19061134c565b38610b92565b505034610182578160031936011261018257722624a8aaa4a220aa24a7a72fa6a0a720a3a2a960691b825260016020908152918190205490516001600160a01b039091168152f35b90503461025557602036600319011261025557356001600160a01b038116919082900361025557610c1e611320565b6b50524943455f4f5241434c4560a01b83526001602052822080546001600160a01b031916821790557fefe8ab924ca486283a79dc604baa67add51afb82af1db8ac386ebbba643cdffd8280a280f35b90503461025557602036600319011261025557356001600160a01b038116919082900361025557610c9d611320565b722624a8aaa4a220aa24a7a72fa6a0a720a3a2a960691b83526001602052822080546001600160a01b031916821790557f1a76cb769b814bc038223da86932b099b20aae03473683e6d98f5c3554e260648280a280f35b90503461025557602036600319011261025557356001600160a01b038116919082900361025557610d23611320565b732622a72224a723afa827a7a62fa6a0a720a3a2a960611b83526001602052822080546001600160a01b031916821790557fd5280c51185a38d36f7a0f5e56cac6248312bb70d0974782fa5a595127e0e08e8280a280f35b90503461025557602036600319011261025557356001600160a01b038116919082900361025557610daa611320565b702a27a5a2a72fa224a9aa2924a12aaa27a960791b83526001602052822080546001600160a01b031916821790557fa8b48a56ec01f81c3615a21ec43e16b925c26293e0801cf6330427f2a687f0538280a280f35b505034610182578160031936011261018257724c454e44494e475f524154455f4f5241434c4560681b825260016020908152918190205490516001600160a01b039091168152f35b505034610182578160031936011261018257732622a72224a723afa827a7a62fa6a0a720a3a2a960611b825260016020908152918190205490516001600160a01b039091168152f35b5050346101825781600319360112610182576c2220aa20afa82927ab24a222a960991b825260016020908152918190205490516001600160a01b039091168152f35b905034610255576020366003190112610255576001600160a01b038135818116939084900361025157610f03611320565b846b2322a2afa82927ab24a222a960a11b928387526001602052808388205416908784519263189acdbd60e31b602085015230602485015260248452610f4884611376565b8061103b575050835161065b8082019082821067ffffffffffffffff83111761046f579180918b94936113d38339039083f08015610465571695863b15610182578790610fb98651948593849363cf7a1d7760e01b8552840152306024840152606060448401526064830190611392565b038183895af1801561045b5792600080516020611a2e83398151915294928192602095611027575b50838152600185522080546001600160a01b0319168617905551908152a25b7f18e1a55b8eff9c93921eecfa1462d6a8cbb80b3988db3eb14c039e43fdb226618280a280f35b9050611033915061134c565b808738610fe1565b92935093945050803b156102555785836110759686519788958694859363278f794360e11b85528401528860248401526044830190611392565b03925af19081156104e2575061108c575b50611000565b6110959061134c565b38611086565b9050346102555760203660031901126102555735825260016020908152918190205490516001600160a01b039091168152f35b905034610255576020366003190112610255576001600160a01b0381358181169390849003610251576110ff611320565b84704c454e44494e475f504f4f4c5f434f524560781b928387526001602052808388205416908784519263189acdbd60e31b60208501523060248501526024845261114984611376565b8061123c575050835161065b8082019082821067ffffffffffffffff83111761046f579180918b94936113d38339039083f08015610465571695863b156101825787906111ba8651948593849363cf7a1d7760e01b8552840152306024840152606060448401526064830190611392565b038183895af1801561045b5792600080516020611a2e83398151915294928192602095611228575b50838152600185522080546001600160a01b0319168617905551908152a25b7f71c226bb2879778ca1298196bf7cc1256baee9d05b496c31ee627d35a471b5b78280a280f35b9050611234915061134c565b8087386111e2565b92935093945050803b156102555785836112769686519788958694859363278f794360e11b85528401528860248401526044830190611392565b03925af19081156104e2575061128d575b50611201565b6112969061134c565b38611287565b505034610182578160031936011261018257722820a920a6a2aa22a929afa82927ab24a222a960691b825260016020908152918190205490516001600160a01b039091168152f35b849084346102555782600319360112610255576b13115391125391d7d413d3d360a21b8352600160209081529220546001600160a01b03168152f35b6000546001600160a01b0316330361133457565b60405163118cdaa760e01b8152336004820152602490fd5b67ffffffffffffffff811161136057604052565b634e487b7160e01b600052604160045260246000fd5b6060810190811067ffffffffffffffff82111761136057604052565b919082519283825260005b8481106113be575050826000602080949584010152601f8019910116010190565b60208183018101518483018201520161139d56fe608080604052346100165761063f908161001c8239f35b600080fdfe6080604052600436106104dd576000803560e01c9081633659cfe61461007f575080634f1ef2861461007a5780635c60da1b146100755780638f28397014610070578063cf7a1d771461006b578063d1f57894146100665763f851a440036104dd57610425565b6103e7565b61036d565b6101d7565b610188565b6100e8565b346100ca5760203660031901126100ca576100986100cd565b6000805160206105ca83398151915254336001600160a01b03909116036100c5576100c29061050c565b80f35b6104dd565b80fd5b600435906001600160a01b03821682036100e357565b600080fd5b60403660031901126100e3576100fc6100cd565b60243567ffffffffffffffff918282116100e357366023830112156100e35781600401359283116100e35736602484840101116100e3576000805160206105ca83398151915254336001600160a01b03909116036100c55760246000939284936101658461050c565b80604051938493018337810184815203915af4610180610467565b50156100e357005b346100e35760003660031901126100e3576000805160206105ca833981519152546001600160a01b039033908216036100c5576000805160206105ea8339815191525460405191168152602090f35b346100e35760203660031901126100e3576101f06100cd565b6000805160206105ca83398151915280546001600160a01b0392919033908416036100c55782821690811561026a57610268937f7e644d79422f17c01e4894b5f4f588d331ebfa28653d42ae832dc59e38c9798f9260409254918351921682526020820152a16000805160206105ca83398151915255565b005b60405162461bcd60e51b815260206004820152603660248201527f43616e6e6f74206368616e6765207468652061646d696e206f6620612070726f604482015275787920746f20746865207a65726f206164647265737360501b6064820152608490fd5b634e487b7160e01b600052604160045260246000fd5b6040519190601f01601f1916820167ffffffffffffffff81118382101761030a57604052565b6102ce565b67ffffffffffffffff811161030a57601f01601f191660200190565b81601f820112156100e35780359061034a6103458361030f565b6102e4565b92828452602083830101116100e357816000926020809301838601378301015290565b60603660031901126100e3576103816100cd565b602435906001600160a01b0380831683036100e35760443567ffffffffffffffff81116100e3576103b690369060040161032b565b906000805160206105ea83398151915254166100e3576103d59161048d565b6000805160206105ca83398151915255005b60403660031901126100e3576103fb6100cd565b6024359067ffffffffffffffff82116100e35761041f61026892369060040161032b565b9061048d565b346100e35760003660031901126100e3576000805160206105ca83398151915280546001600160a01b039033908216036100c557602091549060405191168152f35b3d15610488573d9061047b6103458361030f565b9182523d6000602084013e565b606090565b6000805160206105ea833981519152549091906001600160a01b03166100e3576104b682610545565b8051806104c257505050565b6000926020849301905af46104d5610467565b50156100e357565b6000805160206105ea833981519152546000808092368280378136915af43d82803e15610508573d90f35b3d90fd5b61051581610545565b6001600160a01b03167fbc7cd75a20ee27fd9adebab32041f755214dbc6bffa90cc0225b39da2e5c2d3b600080a2565b803b1561055e576000805160206105ea83398151915255565b60405162461bcd60e51b815260206004820152603b60248201527f43616e6e6f742073657420612070726f787920696d706c656d656e746174696f60448201527f6e20746f2061206e6f6e2d636f6e7472616374206164647265737300000000006064820152608490fdfeb53127684a568b3173ae13b9f8a6016e243e63b6e8ee1178d6a717850b5d6103360894a13ba1a3210667c828492db98dca3e2076cc3735a920a3ca505d382bbca2646970667358221220568a2b81a7c0072f19db09de0c959d779e3fc17ecd63e21b415a70064dc831e264736f6c634300081800331eb35cb4b5bbb23d152f3b4016a5a46c37a07ae930ed0956aba951e231142438a26469706673582212207031f17ecbcefd39d9817ce38c01eec7d22403d93bd3833e69c48d8dc202b35164736f6c63430008180033","linkReferences":{}},"methodIdentifiers":{"getAddress(bytes32)":"21f8a721","getFeeProvider()":"fbeefc3c","getLendingPool()":"0261bf8b","getLendingPoolConfigurator()":"85c858b1","getLendingPoolCore()":"ed6ff760","getLendingPoolDataProvider()":"2f58b80d","getLendingPoolLiquidationManager()":"5834eb9a","getLendingPoolManager()":"33128d59","getLendingPoolParametersProvider()":"04061d8e","getLendingRateOracle()":"3618abba","getPriceOracle()":"fca513a8","getTokenDistributor()":"ee891296","owner()":"8da5cb5b","renounceOwnership()":"715018a6","setFeeProviderImpl(address)":"2a62c636","setLendingPoolConfiguratorImpl(address)":"c12542df","setLendingPoolCoreImpl(address)":"1c827204","setLendingPoolDataProviderImpl(address)":"bfedc103","setLendingPoolImpl(address)":"5aef021f","setLendingPoolLiquidationManager(address)":"44ce375b","setLendingPoolManager(address)":"40fdcadc","setLendingPoolParametersProviderImpl(address)":"a5eface2","setLendingRateOracle(address)":"820d1274","setPriceOracle(address)":"530e784f","setTokenDistributor(address)":"38280e6b","transferOwnership(address)":"f2fde38b"},"id":1}