{"abi":[{"type":"function","name":"DATA_PROVIDER_REVISION","inputs":[],"outputs":[{"name":"","type":"uint256","internalType":"uint256"}],"stateMutability":"view"},{"type":"function","name":"HEALTH_FACTOR_LIQUIDATION_THRESHOLD","inputs":[],"outputs":[{"name":"","type":"uint256","internalType":"uint256"}],"stateMutability":"view"},{"type":"function","name":"addressesProvider","inputs":[],"outputs":[{"name":"","type":"address","internalType":"contract LendingPoolAddressesProvider"}],"stateMutability":"view"},{"type":"function","name":"balanceDecreaseAllowed","inputs":[{"name":"_reserve","type":"address","internalType":"address"},{"name":"_user","type":"address","internalType":"address"},{"name":"_amount","type":"uint256","internalType":"uint256"}],"outputs":[{"name":"","type":"bool","internalType":"bool"}],"stateMutability":"view"},{"type":"function","name":"calculateCollateralNeededInETH","inputs":[{"name":"_reserve","type":"address","internalType":"address"},{"name":"_amount","type":"uint256","internalType":"uint256"},{"name":"_fee","type":"uint256","internalType":"uint256"},{"name":"_userCurrentBorrowBalanceTH","type":"uint256","internalType":"uint256"},{"name":"_userCurrentFeesETH","type":"uint256","internalType":"uint256"},{"name":"_userCurrentLtv","type":"uint256","internalType":"uint256"}],"outputs":[{"name":"","type":"uint256","internalType":"uint256"}],"stateMutability":"view"},{"type":"function","name":"calculateUserGlobalData","inputs":[{"name":"_user","type":"address","internalType":"address"}],"outputs":[{"name":"totalLiquidityBalanceETH","type":"uint256","internalType":"uint256"},{"name":"totalCollateralBalanceETH","type":"uint256","internalType":"uint256"},{"name":"totalBorrowBalanceETH","type":"uint256","internalType":"uint256"},{"name":"totalFeesETH","type":"uint256","internalType":"uint256"},{"name":"currentLtv","type":"uint256","internalType":"uint256"},{"name":"currentLiquidationThreshold","type":"uint256","internalType":"uint256"},{"name":"healthFactor","type":"uint256","internalType":"uint256"},{"name":"healthFactorBelowThreshold","type":"bool","internalType":"bool"}],"stateMutability":"view"},{"type":"function","name":"core","inputs":[],"outputs":[{"name":"","type":"address","internalType":"contract LendingPoolCore"}],"stateMutability":"view"},{"type":"function","name":"getHealthFactorLiquidationThreshold","inputs":[],"outputs":[{"name":"","type":"uint256","internalType":"uint256"}],"stateMutability":"pure"},{"type":"function","name":"getReserveConfigurationData","inputs":[{"name":"_reserve","type":"address","internalType":"address"}],"outputs":[{"name":"ltv","type":"uint256","internalType":"uint256"},{"name":"liquidationThreshold","type":"uint256","internalType":"uint256"},{"name":"liquidationBonus","type":"uint256","internalType":"uint256"},{"name":"rateStrategyAddress","type":"address","internalType":"address"},{"name":"usageAsCollateralEnabled","type":"bool","internalType":"bool"},{"name":"borrowingEnabled","type":"bool","internalType":"bool"},{"name":"stableBorrowRateEnabled","type":"bool","internalType":"bool"},{"name":"isActive","type":"bool","internalType":"bool"}],"stateMutability":"view"},{"type":"function","name":"getReserveData","inputs":[{"name":"_reserve","type":"address","internalType":"address"}],"outputs":[{"name":"totalLiquidity","type":"uint256","internalType":"uint256"},{"name":"availableLiquidity","type":"uint256","internalType":"uint256"},{"name":"totalBorrowsStable","type":"uint256","internalType":"uint256"},{"name":"totalBorrowsVariable","type":"uint256","internalType":"uint256"},{"name":"liquidityRate","type":"uint256","internalType":"uint256"},{"name":"variableBorrowRate","type":"uint256","internalType":"uint256"},{"name":"stableBorrowRate","type":"uint256","internalType":"uint256"},{"name":"averageStableBorrowRate","type":"uint256","internalType":"uint256"},{"name":"utilizationRate","type":"uint256","internalType":"uint256"},{"name":"liquidityIndex","type":"uint256","internalType":"uint256"},{"name":"variableBorrowIndex","type":"uint256","internalType":"uint256"},{"name":"aTokenAddress","type":"address","internalType":"address"},{"name":"lastUpdateTimestamp","type":"uint40","internalType":"uint40"}],"stateMutability":"view"},{"type":"function","name":"getUserAccountData","inputs":[{"name":"_user","type":"address","internalType":"address"}],"outputs":[{"name":"totalLiquidityETH","type":"uint256","internalType":"uint256"},{"name":"totalCollateralETH","type":"uint256","internalType":"uint256"},{"name":"totalBorrowsETH","type":"uint256","internalType":"uint256"},{"name":"totalFeesETH","type":"uint256","internalType":"uint256"},{"name":"availableBorrowsETH","type":"uint256","internalType":"uint256"},{"name":"currentLiquidationThreshold","type":"uint256","internalType":"uint256"},{"name":"ltv","type":"uint256","internalType":"uint256"},{"name":"healthFactor","type":"uint256","internalType":"uint256"}],"stateMutability":"view"},{"type":"function","name":"getUserReserveData","inputs":[{"name":"_reserve","type":"address","internalType":"address"},{"name":"_user","type":"address","internalType":"address"}],"outputs":[{"name":"currentATokenBalance","type":"uint256","internalType":"uint256"},{"name":"currentBorrowBalance","type":"uint256","internalType":"uint256"},{"name":"principalBorrowBalance","type":"uint256","internalType":"uint256"},{"name":"borrowRateMode","type":"uint256","internalType":"uint256"},{"name":"borrowRate","type":"uint256","internalType":"uint256"},{"name":"liquidityRate","type":"uint256","internalType":"uint256"},{"name":"originationFee","type":"uint256","internalType":"uint256"},{"name":"variableBorrowIndex","type":"uint256","internalType":"uint256"},{"name":"lastUpdateTimestamp","type":"uint256","internalType":"uint256"},{"name":"usageAsCollateralEnabled","type":"bool","internalType":"bool"}],"stateMutability":"view"},{"type":"function","name":"initialize","inputs":[{"name":"_addressesProvider","type":"address","internalType":"contract LendingPoolAddressesProvider"}],"outputs":[],"stateMutability":"nonpayable"}],"bytecode":{"object":"0x6080806040523461001a5760008055611f1b90816100208239f35b600080fdfe6080604052600436101561001257600080fd5b60003560e01c806312737c33146100e257806328dd2d01146100dd5780632c6d0e9b146100d857806335ea6a75146100d35780633e150141146100ce5780633e44bee8146100ba57806376e9d615146100c95780638daf609f146100c4578063bf92857c146100bf578063c3525c28146100ba578063c4d66de8146100b5578063c72c4d10146100b05763f2f4eb26146100ab57600080fd5b6112ec565b6112c3565b6111d4565b6110f2565b611172565b611156565b611115565b610e12565b610882565b610826565b6102e9565b6100fd565b6001600160a01b038116036100f857565b600080fd5b346100f85760c03660031901126100f85760043561011a816100e7565b603454610137906001600160a01b03165b6001600160a01b031690565b60405163288d4ff760e21b81526001600160a01b0383166004820152602092918390829060249082905afa90811561029a576000916102cc575b50603554600490849061018c906001600160a01b031661012b565b604051631f94a27560e31b815292839182905afa92831561029a576101e393859260009161029f575b5060405163b3596f0760e01b81526001600160a01b0390921660048301529093849190829081906024820190565b03916001600160a01b03165afa92831561029a5761024f61023c61022a61026996610259966102549560009261026d575b505061022460443560243561139b565b906113c3565b61023660a435956113d6565b906113e4565b61024a60843560643561139b565b61139b565b6113ad565b6113e4565b6040519081529081906020820190565b0390f35b61028c9250803d10610293575b610284818361132b565b810190611352565b3880610214565b503d61027a565b611361565b6102bf9150833d85116102c5575b6102b7818361132b565b81019061136d565b386101b5565b503d6102ad565b6102e39150833d851161029357610284818361132b565b38610171565b346100f8576040806003193601126100f8576004803591610309836100e7565b60243591610316836100e7565b6034546000949061032f906001600160a01b031661012b565b8351631a59df7760e11b81526001600160a01b038316848201908152909560209590929186908890819083010381855afa96871561029a578897610807575b5080516370a0823160e01b81526001600160a01b038416868201908152909787918991908290819060200103916001600160a01b03165afa96871561029a5788976107e8575b508051631ca19f1960e01b81526001600160a01b0380861687830190815290851660208201528790829081906040010381865afa90811561029a5789916107bb575b508151639fb8afcd60e01b81526001600160a01b038087168883019081529086166020820152909190606090839081906040010381875afa998a1561029a578092819b610783575b5061044882611437565b6001820361071357508251631bffeac360e21b81526001600160a01b0380881689830190815290871660208201528990829081906040010381885afa90811561029a576000916106f6575b50915b61049f82611437565b83516362a00a4760e11b81526001600160a01b0388168982019081529094908a90869081906020010381895afa94851561029a576000956106d7575b508051633faacc6b60e21b81526001600160a01b03808a16828c0190815290891660208201528b908290819060400103818a5afa96871561029a5788916000986106b8575b508251637b7546bb60e11b81526001600160a01b03808c16828e019081529a1660208b0152988c908a9081906040010381845afa98891561029a57600099610697575b5082516366d103f360e01b81526001600160a01b03808c16828e019081529084166020820152909291908d90849081906040010381845afa9a8b1561029a576105e49c8e9460009d610678575b508551639e3c4f3b60e01b81526001600160a01b039283169181019182529190931660208401529b8c928391829160400190565b03915afa98891561029a576102699a60009a610649575b5050519a8b9a8b9895926101209895929b9a9794919b6101408b019c8b5260208b015260408a01526060890152608088015260a087015260c086015260e08501526101008401521515910152565b610669929a50803d10610671575b610661818361132b565b810190611464565b9738806105fb565b503d610657565b610690919d50853d871161029357610284818361132b565b9b386105b0565b829199506106b1908d803d1061029357610284818361132b565b9890610563565b6106d09198508c8d3d1061029357610284818361132b565b9638610520565b6106ef9195508a3d8c1161029357610284818361132b565b93386104db565b61070d9150893d8b1161029357610284818361132b565b38610493565b9161071d82611437565b6002820361049657835163906c0a4160e01b81526001600160a01b0388168982019081529193918a90829081906020010381895afa91821561029a5791610766575b5091610496565b61077d9150893d8b1161029357610284818361132b565b3861075f565b909a506107a991925060603d6060116107b4575b6107a1818361132b565b81019061141c565b50919091993861043e565b503d610797565b6107db9150873d89116107e1575b6107d3818361132b565b810190611404565b386103f6565b503d6107c9565b610800919750863d881161029357610284818361132b565b95386103b4565b61081f919750863d88116102c5576102b7818361132b565b953861036e565b346100f85760203660031901126100f85761010061084e600435610849816100e7565b6115b3565b95604095919594929451978852602088015260408701526060860152608085015260a084015260c0830152151560e0820152f35b346100f8576020806003193601126100f85760048035916108a2836100e7565b6034546108b7906001600160a01b031661012b565b60408051630c33cfd960e41b81526001600160a01b03861681860190815290949291908490869081906020010381855afa94851561029a57600095610df3575b50805163e240301960e01b81526001600160a01b0387168482019081529096908590889081906020010381865afa96871561029a57600097610dd4575b508151637f90fec560e01b81526001600160a01b0382168582019081529092908690849081906020010381875afa92831561029a57600093610db5575b5080516398bd473760e01b81526001600160a01b0383168682019081529093908790859081906020010381885afa93841561029a57600094610d96575b5081516362a00a4760e11b81526001600160a01b0384168782019081529094908890869081906020010381895afa94851561029a57600095610d77575b50825163906c0a4160e01b81526001600160a01b03851688820190815289908290819060200103818a5afa90811561029a57600091610d5a575b508351631100f3b160e31b81526001600160a01b0386168982019081529096908a908890819060200103818b5afa92831561029a57610a9197600094610d3b575b5085516308d781e560e31b81526001600160a01b038816818c0190815290988c918a91829160200190565b03818c5afa94851561029a57610ad498600096610d1c575b508651632feb2b6160e21b81526001600160a01b038916818d0190815290998d918b91829160200190565b03818d5afa96871561029a578c898c8e610b1c9d60009c610cfd575b508451635ebfebcd60e11b81526001600160a01b03909316908301908152919c8d928391829160200190565b03915afa98891561029a578c9a8e60009b610cde575b835163b701d09360e01b81526001600160a01b0384169d81019d8e529c9091508c90819003602001818f5afa9a8b1561029a578c8f918f9060009e610cb2575b508451631a59df7760e11b81526001600160a01b0385169181019182529392918491829081906020015b03915afa9c8d1561029a578f9260009e610c93575b508351634f14460960e01b81526001600160a01b039092169e82019e8f52909d8e91908290819060200103915afa9b8c1561029a576102699d60009d610c64575b5050519d8e9d8e9b99979593919d9c9a98969492909d6101a08d019e8d5260208d015260408c015260608b015260808a015260a089015260c088015260e0870152610100860152610120850152610140840152600160a01b600190031661016083015264ffffffffff16906101800152565b610c84929d50803d10610c8c575b610c7c818361132b565b810190611a07565b9a3880610bf2565b503d610c72565b610cab919e50833d85116102c5576102b7818361132b565b9c38610bb1565b84939290610b9c95929f50610cd390843d861161029357610284818361132b565b9e9150919293610b72565b610cf5929b50803d1061029357610284818361132b565b98388e610b32565b610d15919c50843d861161029357610284818361132b565b9a38610af0565b610d349196508c8d3d1061029357610284818361132b565b9438610aa9565b610d539194508b3d8d1161029357610284818361132b565b9238610a66565b610d719150893d8b1161029357610284818361132b565b38610a25565b610d8f919550883d8a1161029357610284818361132b565b93386109eb565b610dae919450873d891161029357610284818361132b565b92386109ae565b610dcd919350863d881161029357610284818361132b565b9138610971565b610dec919750853d871161029357610284818361132b565b9538610934565b610e0b919550843d861161029357610284818361132b565b93386108f7565b346100f8576020806003193601126100f8576004803591610e32836100e7565b603454610e47906001600160a01b031661012b565b60408051635fc526ff60e01b81526001600160a01b0386168582019081529095929190608090879081906020010381855afa801561029a576000956000976000926110b6575b5082516313cce90960e31b81526001600160a01b0386168282019081529094908790869081906020010381845afa94851561029a57600095611097575b508351632e79732b60e11b81526001600160a01b0387168382019081529094908890869081906020010381855afa94851561029a57600095611078575b508051630283aeb760e11b81526001600160a01b0388168482019081529097908990899081906020010381865afa97881561029a57600098611059575b5081516331da9b2760e21b81526001600160a01b0382168582019081529091908a90839081906020010381875afa93841561029a57610fb3958b9360009661103a575b508451633570a20b60e11b81526001600160a01b03909316908301908152919586928391829160200190565b03915afa92831561029a576102699860009461101b575b505051978852602088019890985260408701979097526001600160a01b039096166060860152941515608085015293151560a084015292151560c083015291151560e0820152908190610100820190565b611032929450803d106102c5576102b7818361132b565b913880610fca565b611052919650843d861161029357610284818361132b565b9438610f87565b611071919850893d8b1161067157610661818361132b565b9638610f44565b611090919550883d8a1161067157610661818361132b565b9338610f07565b6110af919550873d891161067157610661818361132b565b9338610eca565b915095506110dd91965060803d6080116110eb575b6110d5818361132b565b81019061158d565b979250959095969038610e8d565b503d6110cb565b346100f85760003660031901126100f8576020604051670de0b6b3a76400008152f35b346100f85760603660031901126100f857602061114c600435611137816100e7565b602435611143816100e7565b60443591611a31565b6040519015158152f35b346100f85760003660031901126100f857602060405160018152f35b346100f85760203660031901126100f857610100611195600435610849816100e7565b509491936111a885858386979597611dec565b92604051978852602088015260408701526060860152608085015260a084015260c083015260e0820152f35b346100f85760203660031901126100f8576004356111f1816100e7565b60ff6001541690811591826112ba575b80156112ae575b156112525761121b908261123257611d0d565b61122157005b61123060ff1960015416600155565b005b611243600160ff1981541617600155565b61124d6001600055565b611d0d565b60405162461bcd60e51b815260206004820152602e60248201527f436f6e747261637420696e7374616e63652068617320616c726561647920626560448201526d195b881a5b9a5d1a585b1a5e995960921b6064820152608490fd5b50600054600111611208565b50303b15611201565b346100f85760003660031901126100f8576035546040516001600160a01b039091168152602090f35b346100f85760003660031901126100f8576034546040516001600160a01b039091168152602090f35b634e487b7160e01b600052604160045260246000fd5b90601f8019910116810190811067ffffffffffffffff82111761134d57604052565b611315565b908160209103126100f8575190565b6040513d6000823e3d90fd5b908160209103126100f85751611382816100e7565b90565b634e487b7160e01b600052601160045260246000fd5b919082018092116113a857565b611385565b906064820291808304606414901517156113a857565b818102929181159184041417156113a857565b604d81116113a857600a0a90565b81156113ee570490565b634e487b7160e01b600052601260045260246000fd5b908160209103126100f8575160038110156100f85790565b908160609103126100f8578051916040602083015192015190565b6003111561144157565b634e487b7160e01b600052602160045260246000fd5b519081151582036100f857565b908160209103126100f85761138290611457565b60405190610160820182811067ffffffffffffffff82111761134d57604052816101406000918281528260208201528260408201528260608201528260808201528260a08201528260c08201528260e082015282610100820152826101208201520152565b9060209081838203126100f857825167ffffffffffffffff938482116100f8570181601f820112156100f857805193841161134d578360051b90604051946115278584018761132b565b855283808601928201019283116100f8578301905b82821061154a575050505090565b8380918351611558816100e7565b81520191019061153c565b80518210156115775760209160051b010190565b634e487b7160e01b600052603260045260246000fd5b91908260809103126100f857815191602081015191611382606060408401519301611457565b906004916000806000906000926000809160206115da61012b60355460018060a01b031690565b604051631f94a27560e31b81529a8b9182905afa98891561029a576000996119e6575b50611606611478565b60345490979061161e906001600160a01b031661012b565b90604051630240bc6b60e21b8152600081600481865afa90811561029a576000916119c3575b5060005b8151811015611962576116c86080846116986101408f61168a61167b61166e898b611563565b516001600160a01b031690565b6001600160a01b031682840152565b01516001600160a01b031690565b60405163e10076ad60e01b81526001600160a01b0391821660048201529116602482015291829081906044820190565b0381885afa801561029a578c91600090600092600091600091611937575b5015156101208501525b60e084015281606084015280604084015215908161192e575b50611925576101400151604051635fc526ff60e01b81526001600160a01b039091166004820152608081602481885afa801561029a578e6117936101408f6117816117bf966020966000916000916000916000916118f9575b5015156101008601525b60c085015260a08401528060808401526113d6565b8186015201516001600160a01b031690565b60405163b3596f0760e01b81526001600160a01b03909116600482015292839190829081906024820190565b03916001600160a01b03165afa801561029a578c916000916118da575b50808252604082015180611850575b5050606081015180611804575b50506001905b01611648565b6001929b9a61182983602061182061182f9561184697516113c3565b910151906113e4565b9061139b565b996118298d602061182060e08301518351906113c3565b9990508a386117f8565b61186061186b91611872936113c3565b6020840151906113e4565b809761139b565b95611881610100830151151590565b806118cc575b611892575b806117eb565b8060c06118bb6118ac611829946118c4979d969c9e61139b565b9c61182960a08d0151856113c3565b990151906113c3565b958a3861188c565b506101208201511515611887565b6118f3915060203d60201161029357610284818361132b565b386117dc565b91505061176c925061191a915060803d6080116110eb576110d5818361132b565b929391929091611762565b506001906117fe565b90501538611709565b9150506116f09250611958915060803d6080116110eb576110d5818361132b565b91939091906116e6565b5050505097509294509490948580151593846000146119bb5781611985916113e4565b93156119b157611994916113e4565b905b6119a282858789611da0565b90670de0b6b3a7640000821090565b5050600090611996565b506000611985565b6119e091503d806000833e6119d8818361132b565b8101906114dd565b38611644565b611a0091995060203d6020116102c5576102b7818361132b565b97386115fd565b908160209103126100f8575164ffffffffff811681036100f85790565b919082039182116113a857565b90611a3a611478565b603454909290611a52906001600160a01b031661012b565b604051635fc526ff60e01b81526001600160a01b03831660048201529290608084602481845afa801561029a5760008095600092611cde575b50611ab891611ab49160a0890197611aaa6101408b0193849015159052565b8852885251151590565b1590565b908115611c76575b50611c6c57611ace906115b3565b505096939592989194505060209081880198604089019660608a019660808b01998a5287528188528a5215611c5e576035546004908390611b17906001600160a01b031661012b565b604051631f94a27560e31b815292839182905afa93841561029a57611b6e948492600091611c41575b5060405163b3596f0760e01b81526001600160a01b0390921660048301529094859190829081906024820190565b03916001600160a01b03165afa801561029a57611ba293611b9893600092611c24575b50506113c3565b61023687516113d6565b94611bb560c08201968088528851611a24565b9160e082019280845215611c1757611bfb611c1397611bf5611c0393611beb6101009a670de0b6b3a76400009d519051906113c3565b92519051906113c3565b90611a24565b8351906113e4565b9485910152519151905191611da0565b1190565b5050505050505050600090565b611c3a9250803d1061029357610284818361132b565b3880611b91565b611c589150833d85116102c5576102b7818361132b565b38611b40565b505050505050505050600190565b5050505050600190565b604051639e3c4f3b60e01b81526001600160a01b038581166004830152841660248201529150602090829060449082905afa90811561029a57600091611cbf575b501538611ac0565b611cd8915060203d60201161067157610661818361132b565b38611cb7565b611ab49650611ab89250611d01915060803d6080116110eb576110d5818361132b565b90979093509050611a8b565b603580546001600160a01b039283166001600160a01b0319918216811790925560405163076b7fbb60e51b8152909291602090829060049082905afa90811561029a57600091611d65575b5016906034541617603455565b90506020813d602011611d98575b81611d806020938361132b565b810103126100f85751611d92816100e7565b38611d58565b3d9150611d73565b9290928315611de257606491611db5916113c3565b049082018092116113a8578160011c90670de0b6b3a7640000908183190481118415176100f85702010490565b5050505060001990565b611e02919293611dfb916113c3565b6064900490565b90808210611edd57611e1792611bf59161139b565b603554611e2c906001600160a01b031661012b565b604051918291633efbbf0f60e21b835282600460209586935afa91821561029a57600092611ebe575b50604051630e563a7d60e41b815233600482015260248101829052918390839060449082906001600160a01b03165afa91821561029a5761138293600093611e9f575b5050611a24565b611eb6929350803d1061029357610284818361132b565b903880611e98565b611ed6919250833d85116102c5576102b7818361132b565b9038611e55565b50505060009056fea264697066735822122078d8a51b43b2a5395e4f98c4e97d0a659aa37a4a10317031c60b1b97df91039364736f6c63430008180033","linkReferences":{}},"methodIdentifiers":{"DATA_PROVIDER_REVISION()":"8daf609f","HEALTH_FACTOR_LIQUIDATION_THRESHOLD()":"c3525c28","addressesProvider()":"c72c4d10","balanceDecreaseAllowed(address,address,uint256)":"76e9d615","calculateCollateralNeededInETH(address,uint256,uint256,uint256,uint256,uint256)":"12737c33","calculateUserGlobalData(address)":"2c6d0e9b","core()":"f2f4eb26","getHealthFactorLiquidationThreshold()":"3e44bee8","getReserveConfigurationData(address)":"3e150141","getReserveData(address)":"35ea6a75","getUserAccountData(address)":"bf92857c","getUserReserveData(address,address)":"28dd2d01","initialize(address)":"c4d66de8"},"id":20}