{"abi":[{"type":"function","name":"addressesProvider","inputs":[],"outputs":[{"name":"","type":"address","internalType":"contract LendingPoolAddressesProvider"}],"stateMutability":"view"},{"type":"function","name":"liquidationCall","inputs":[{"name":"_collateral","type":"address","internalType":"address"},{"name":"_reserve","type":"address","internalType":"address"},{"name":"_user","type":"address","internalType":"address"},{"name":"_purchaseAmount","type":"uint256","internalType":"uint256"},{"name":"_receiveAToken","type":"bool","internalType":"bool"}],"outputs":[{"name":"","type":"uint256","internalType":"uint256"},{"name":"","type":"string","internalType":"string"}],"stateMutability":"payable"},{"type":"event","name":"LiquidationCall","inputs":[{"name":"_collateral","type":"address","indexed":true,"internalType":"address"},{"name":"_reserve","type":"address","indexed":true,"internalType":"address"},{"name":"_user","type":"address","indexed":true,"internalType":"address"},{"name":"_purchaseAmount","type":"uint256","indexed":false,"internalType":"uint256"},{"name":"_liquidatedCollateralAmount","type":"uint256","indexed":false,"internalType":"uint256"},{"name":"_accruedBorrowInterest","type":"uint256","indexed":false,"internalType":"uint256"},{"name":"_liquidator","type":"address","indexed":false,"internalType":"address"},{"name":"_receiveAToken","type":"bool","indexed":false,"internalType":"bool"},{"name":"_timestamp","type":"uint256","indexed":false,"internalType":"uint256"}],"anonymous":false},{"type":"event","name":"OriginationFeeLiquidated","inputs":[{"name":"_collateral","type":"address","indexed":true,"internalType":"address"},{"name":"_reserve","type":"address","indexed":true,"internalType":"address"},{"name":"_user","type":"address","indexed":true,"internalType":"address"},{"name":"_feeLiquidated","type":"uint256","indexed":false,"internalType":"uint256"},{"name":"_liquidatedCollateralForFee","type":"uint256","indexed":false,"internalType":"uint256"},{"name":"_timestamp","type":"uint256","indexed":false,"internalType":"uint256"}],"anonymous":false},{"type":"error","name":"ReentrancyGuardReentrantCall","inputs":[]}],"bytecode":{"object":"0x6080806040523461002057600160005560006001556110a390816100268239f35b600080fdfe6080604052600436101561001257600080fd5b6000803560e01c8062a718a91461005d5763c72c4d101461003257600080fd5b3461005a578060031936011261005a576035546040516001600160a01b039091168152602090f35b80fd5b5060a036600319011261005a576004356001600160a01b03808216820361010f5760243591818316830361010b57604435918216820361010b57608435918215158303610107576100b19360643592610211565b90604051928391825260209060406020840152835191826040850152815b8381106100f057505060608094508284010152601f80199101168101030190f35b8086018201518782016060015286945081016100cf565b8480fd5b8380fd5b8280fd5b67ffffffffffffffff811161012757604052565b634e487b7160e01b600052604160045260246000fd5b6060810190811067ffffffffffffffff82111761012757604052565b6040810190811067ffffffffffffffff82111761012757604052565b90601f8019910116810190811067ffffffffffffffff82111761012757604052565b519081151582036101a457565b600080fd5b818102929181159184041417156101bc57565b634e487b7160e01b600052601160045260246000fd5b81156101dc570490565b634e487b7160e01b600052601260045260246000fd5b908160209103126101a457516001600160a01b03811681036101a45790565b9192909260009460405192610200840184811067ffffffffffffffff821117610deb576040528684528660208501528660408501528660608501528660808501528660a08501528660c08501528660e08501528661010085015286610120850152866101408501528661016085015286610180850152866101a0850152866101c0850152866101e0850152602461010060018060a01b036037541660405192838092632c6d0e9b60e01b825260018060a01b03891660048301525afa908115610827578891610dab575b501580156101e0860152610d5757603654604051630c526de560e11b81526001600160a01b03878116600483015285811660248301529091169190602081604481865afa9081156108a2578991610d25575b5080865215610ce157604051630c7cddd760e11b81526001600160a01b0387166004820152602081602481865afa9081156108a2578991610ca7575b5080610c2b575b1580156101c0870152610bd457604051639fb8afcd60e01b81526001600160a01b03888116600483015285166024820152606081604481865afa80156108a25789918a91610b98575b50604087015280602087015215610b4157602085015180603281020460321481151715610b2d57906064603261040e93020490816060880152818111600014610b2657505b8060808701528551908888610dff565b604051633faacc6b60e21b81526001600160a01b03898116600483015286166024820152919291602081604481865afa908115610867578a91610af4575b508061012088015280610ab4575b5060808601518110610aa9575b5082156109d7575b608085015190610140860151610160870151604088015191833b156109d35760405163345f5a6b60e11b81526001600160a01b03808d166004830152808c1660248301528916604482015260648101959095526084850186905260a485015260c484015260e48301528315156101048301528890829061012490829084905af18015610827576109c0575b50603654604051631a59df7760e11b81526001600160a01b038781166004830152909160209183916024918391165afa9081156108275788916109a1575b5082156108c1576001600160a01b0381163b1561089e5760405163f866c31960e01b81526001600160a01b03858116600483015233602483015260448201849052899082906064908290849087165af180156108a2579089916108ad575b50505b6036546080860151906001600160a01b0316803b15610832576040516328fcf4d360e01b81526001600160a01b038a166004820152336024820152604481019290925289908290606490829034905af180156108a25790899161088a575b5050610140850151610695575b506080848101516040958601518651918252602082019390935294850191909152336060850152901515908301524260a08301526001600160a01b039081169381169216907f56864757fd5b1fc9f38f5f3a981cd8ae512ce41b902cf73fc506ee369c6bc2379060c090a49060405161067c81610159565b60098152684e6f206572726f727360b81b602082015290565b6101608501516001600160a01b0382163b15610886576040516307db6f9760e31b81526001600160a01b0386811660048301526024820192909252918991839160449183918591165af1801561082757908891610872575b5050603654610160850151603554604051637744894b60e11b81526001600160a01b039384169390929160209184916004918391165afa918215610867578a92610836575b50823b156108325760405163479c2e1160e11b81526001600160a01b03808a1660048301526024820192909252911660448201529088908290606490829084905af180156108275790889161080f575b505061014084015161016085015160408051928352602083019190915242908201527f56864757fd5b1fc9f38f5f3a981cd8ae512ce41b902cf73fc506ee369c6bc2379360c093909290916001600160a01b03808516918a8216918a16907f36ca8b16d61dc13b1062adff83e3778ab92d14f9e35bfe9fd1283e02b13fb0a190606090a491935091610604565b61081890610113565b610823578638610782565b8680fd5b6040513d8a823e3d90fd5b8980fd5b61085991925060203d602011610860575b6108518183610175565b8101906101f2565b9038610732565b503d610847565b6040513d8c823e3d90fd5b61087b90610113565b6108235786386106ed565b8880fd5b61089390610113565b61089e5787386105f7565b8780fd5b6040513d8b823e3d90fd5b6108b690610113565b61089e578738610596565b6001600160a01b0381163b1561089e576040516307db6f9760e31b81526001600160a01b038516600482015260248101839052888180604481010381836001600160a01b0387165af180156108a25790899161098d575b50506036546001600160a01b0316803b156108865760405163fa93b2a560e01b81526001600160a01b0388166004820152336024820152604481018490529089908290606490829084905af180156108a257908991610979575b5050610599565b61098290610113565b61089e578738610972565b61099690610113565b61089e578738610918565b6109ba915060203d602011610860576108518183610175565b38610538565b6109cc90979197610113565b95386104fa565b8b80fd5b60405163e240301960e01b81526001600160a01b0387166004820152602081602481855afa9081156108a2579083918a91610a74575b50101561046f575050505050505050600590604051610a2b8161013d565b603381527f54686572652069736e277420656e6f756768206c697175696469747920617661602082015272696c61626c6520746f206c697175696461746560681b604082015290565b9150506020813d602011610aa1575b81610a9060209383610175565b810103126108865782905138610a0d565b3d9150610a83565b608086015238610467565b86518085810311610ae0579084610ace9203908a8a610dff565b6101408801526101608701523861045a565b634e487b7160e01b8b52601160045260248bfd5b90506020813d602011610b1e575b81610b0f60209383610175565b8101031261083257513861044c565b3d9150610b02565b90506103fe565b634e487b7160e01b89526011600452602489fd5b5050505050505050600390604051610b588161013d565b602a81527f5573657220646964206e6f7420626f72726f7720746865207370656369666965602082015269642063757272656e637960b01b604082015290565b9150506060813d606011610bcc575b81610bb460609383610175565b810103126108865760406020820151910151386103b9565b3d9150610ba7565b5050505050505050600290604051610beb8161013d565b602a81527f54686520636f6c6c61746572616c2063686f73656e2063616e6e6f74206265206020820152691b1a5c5d5a59185d195960b21b604082015290565b50604051639e3c4f3b60e01b81526001600160a01b03878116600483015285166024820152602081604481865afa9081156108a2578991610c6d575b50610370565b90506020813d602011610c9f575b81610c8860209383610175565b8101031261088657610c9990610197565b38610c67565b3d9150610c7b565b90506020813d602011610cd9575b81610cc260209383610175565b8101031261088657610cd390610197565b38610369565b3d9150610cb5565b5050505050505050600190604051610cf881610159565b601f81527f496e76616c696420636f6c6c61746572616c20746f206c697175696461746500602082015290565b90506020813d602011610d4f575b81610d4060209383610175565b8101031261088657513861032d565b3d9150610d33565b50505050505050600490604051610d6d8161013d565b602881527f4865616c746820666163746f72206973206e6f742062656c6f772074686520746020820152671a1c995cda1bdb1960c21b604082015290565b9050610100813d61010011610de3575b81610dc96101009383610175565b8101031261089e5760e0610ddd9101610197565b386102db565b3d9150610dbb565b634e487b7160e01b88526041600452602488fd5b90939260018060a01b0392836035541692604080518095631f94a27560e31b825281600460209889935afa90811561106257908791600091611045575b501681519560a0870187811067ffffffffffffffff8211176101275783526000875280870197600089528388019a60008c52608060608a019960008b520195600087528551948363b3596f0760e01b9283885216958660048201528581602481855afa90811561103a57918f91879492879694600092610fff575b50906024939291528951958694859384521660048301525afa908115610ff45790839291600091610fc5575b508952603654169260248551809581936331da9b2760e21b835260048301525afa928315610fbb5750600092610f8d575b505085526064610f3b610f33610f2b8588516101a9565b8a51906101d2565b8751906101a9565b04809152828111600014610f8457505090610f5b82610f639396516101a9565b9051906101d2565b6064810290808204606414901517156101bc57610f819151906101d2565b90565b95509392505050565b90809250813d8311610fb4575b610fa48183610175565b810103126101a457513880610f14565b503d610f9a565b513d6000823e3d90fd5b83819492503d8311610fed575b610fdc8183610175565b810103126101a45782915138610ee3565b503d610fd2565b85513d6000823e3d90fd5b93965050509281813d8311611033575b6110198183610175565b810103126101a45784938f93879460249351919293610eb7565b503d61100f565b88513d6000823e3d90fd5b61105c9150873d8911610860576108518183610175565b38610e3c565b82513d6000823e3d90fdfea2646970667358221220fb35d60dc164b6d73c70cf0d55b46bd1ec82dcc1def842c1f5d4c83ebb5b00be64736f6c63430008180033","linkReferences":{}},"methodIdentifiers":{"addressesProvider()":"c72c4d10","liquidationCall(address,address,address,uint256,bool)":"00a718a9"},"id":21}