{"abi":[{"type":"fallback","stateMutability":"payable"},{"type":"function","name":"DISTRIBUTION_BASE","inputs":[],"outputs":[{"name":"","type":"uint256","internalType":"uint256"}],"stateMutability":"view"},{"type":"function","name":"IMPLEMENTATION_REVISION","inputs":[],"outputs":[{"name":"","type":"uint256","internalType":"uint256"}],"stateMutability":"view"},{"type":"function","name":"KYBER_ETH_MOCK_ADDRESS","inputs":[],"outputs":[{"name":"","type":"address","internalType":"address"}],"stateMutability":"view"},{"type":"function","name":"MAX_UINT","inputs":[],"outputs":[{"name":"","type":"uint256","internalType":"uint256"}],"stateMutability":"view"},{"type":"function","name":"MAX_UINT_MINUS_ONE","inputs":[],"outputs":[{"name":"","type":"uint256","internalType":"uint256"}],"stateMutability":"view"},{"type":"function","name":"MIN_CONVERSION_RATE","inputs":[],"outputs":[{"name":"","type":"uint256","internalType":"uint256"}],"stateMutability":"view"},{"type":"function","name":"distribute","inputs":[{"name":"_tokens","type":"address[]","internalType":"contract IERC20[]"}],"outputs":[],"stateMutability":"nonpayable"},{"type":"function","name":"distributeWithAmounts","inputs":[{"name":"_tokens","type":"address[]","internalType":"contract IERC20[]"},{"name":"_amounts","type":"uint256[]","internalType":"uint256[]"}],"outputs":[],"stateMutability":"nonpayable"},{"type":"function","name":"distributeWithPercentages","inputs":[{"name":"_tokens","type":"address[]","internalType":"contract IERC20[]"},{"name":"_percentages","type":"uint256[]","internalType":"uint256[]"}],"outputs":[],"stateMutability":"nonpayable"},{"type":"function","name":"getDistribution","inputs":[],"outputs":[{"name":"receivers","type":"address[]","internalType":"address[]"},{"name":"percentages","type":"uint256[]","internalType":"uint256[]"}],"stateMutability":"view"},{"type":"function","name":"initialize","inputs":[{"name":"_receivers","type":"address[]","internalType":"address[]"},{"name":"_percentages","type":"uint256[]","internalType":"uint256[]"}],"outputs":[],"stateMutability":"nonpayable"},{"type":"function","name":"kyberProxy","inputs":[],"outputs":[{"name":"","type":"address","internalType":"contract IKyberNetworkProxyInterface"}],"stateMutability":"view"},{"type":"function","name":"recipientBurn","inputs":[],"outputs":[{"name":"","type":"address","internalType":"address"}],"stateMutability":"view"},{"type":"function","name":"tokenToBurn","inputs":[],"outputs":[{"name":"","type":"address","internalType":"address"}],"stateMutability":"view"},{"type":"event","name":"Distributed","inputs":[{"name":"receiver","type":"address","indexed":false,"internalType":"address"},{"name":"percentage","type":"uint256","indexed":false,"internalType":"uint256"},{"name":"amount","type":"uint256","indexed":false,"internalType":"uint256"}],"anonymous":false},{"type":"event","name":"DistributionUpdated","inputs":[{"name":"receivers","type":"address[]","indexed":false,"internalType":"address[]"},{"name":"percentages","type":"uint256[]","indexed":false,"internalType":"uint256[]"}],"anonymous":false},{"type":"error","name":"AddressEmptyCode","inputs":[{"name":"target","type":"address","internalType":"address"}]},{"type":"error","name":"AddressInsufficientBalance","inputs":[{"name":"account","type":"address","internalType":"address"}]},{"type":"error","name":"FailedInnerCall","inputs":[]},{"type":"error","name":"ReentrancyGuardReentrantCall","inputs":[]},{"type":"error","name":"SafeERC20FailedOperation","inputs":[{"name":"token","type":"address","internalType":"address"}]}],"bytecode":{"object":"0x608080604052346100205760016000556000600155610f0c90816100268239f35b600080fdfe608060408181526004918236101561001357005b600092833560e01c918263043c41d41461088957508163135206581461086c5781631cced51b146107df578163217ab806146107b657816323879bb11461079957816340d58a4a1461077d5781634f1b86eb146107545781636138889b146106385781637fbbe46f146102ae5781638c0c9a251461027f578163cc8cc9d81461022e578163e5b5019a14610211578163eed64c30146100e4575063f0eeed81146100b957005b346100e057816003193601126100e05760375490516001600160a01b039091168152602090f35b5080fd5b9050823461020e576100f536610a61565b829491945b855181101561020a576001600160a01b0373eeeeeeeeeeeeeeeeeeeeeeeeeeeeeeeeeeeeeeee8161012b848a610b18565b5116146101f0578061013d8389610b18565b5116845180916370a0823160e01b8252308983015281602460209485935afa9182156101e65787926101b1575b5050906064610187849361018060019688610b18565b5190610b42565b045b80156101aa576101a49161019d848b610b18565b5116610bab565b016100fa565b50506101a4565b90809250813d83116101df575b6101c88183610952565b810103126101db5751606461018761016a565b8580fd5b503d6101be565b86513d89823e3d90fd5b906001916064610204476101808588610b18565b04610189565b8380f35b80fd5b5050346100e057816003193601126100e057516000198152602090f35b833461020e5761023d36610a61565b9190815b815181101561027b576001906102756001600160a01b036102628386610b18565b511661026e8388610b18565b5190610bab565b01610241565b8280f35b5050346100e057816003193601126100e0576020905173eeeeeeeeeeeeeeeeeeeeeeeeeeeeeeeeeeeeeeee8152f35b91905034610634578060031936011261063457813567ffffffffffffffff80821161063057366023830112156106305781840135906024926102ef83610974565b926102fc86519485610952565b80845260209182850186819360051b8301019136831161062c578701905b8282106106095750505084358381116106055761033a9036908901610a01565b946002549760ff8916988915998a6105fc575b80156105f1575b156105995789610584575b5085518751036105445783885161037581610920565b87815201878152865186811161053257680100000000000000009485821161052057603554826035558083106104fc575b5060358d528c5b8281106104d357505050519283519586116104c15785116104b057505081906036548460365580851061047a575b50019060368852875b83811061044857505050506104318351937fdc9f439f707945ade720b0154668dd64af0689fb88b40abdb0f0289156d23e9d85806104248787859a6108a5565b0390a151928392836108a5565b0390a161043b5780f35b60ff196002541660025580f35b82517f4a11f94e20a93c79f6ec743a1954ec4fc2c08429ae2122118bf234b2185c81b8820155918101916001016103e4565b6104aa90857f4a11f94e20a93c79f6ec743a1954ec4fc2c08429ae2122118bf234b2185c81b89182019101610e3c565b386103db565b634e487b7160e01b8a526041905288fd5b50634e487b7160e01b8a526041905288fd5b81516001600160a01b0316600080516020610eb7833981519152820155908701906001016103ad565b61051a9083600080516020610eb78339815191529182019101610e3c565b386103a6565b634e487b7160e01b8d5260418452848dfd5b634e487b7160e01b8c5260418352838cfd5b601d606492858a519362461bcd60e51b85528401528201527f4172726179206c656e677468732073686f756c6420626520657175616c0000006044820152fd5b60019060ff191617600255806001553861035f565b50602e608492858a519362461bcd60e51b85528401528201527f436f6e747261637420696e7374616e63652068617320616c726561647920626560448201526d195b881a5b9a5d1a585b1a5e995960921b6064820152fd5b506001548211610354565b50303b1561034d565b8880fd5b81356001600160a01b038116810361062857815290840190840161031a565b8b80fd5b8a80fd5b8480fd5b8280fd5b8383346100e057602090602060031936011261063457833567ffffffffffffffff81116107505761066c903690860161098c565b93835b855181101561074c576001600160a01b039073eeeeeeeeeeeeeeeeeeeeeeeeeeeeeeeeeeeeeeee826106a1838a610b18565b5116146107435781856024936106b7848b610b18565b51168651948580926370a0823160e01b825230898301525afa8015610739578790610703575b600193505b80156106fc576106f69161019d848b610b18565b0161066f565b50506106f6565b5090918581813d8311610732575b61071b8183610952565b8101031261072e579060019291516106dd565b8680fd5b503d610711565b85513d89823e3d90fd5b600191476106e2565b8480f35b8380fd5b5050346100e057816003193601126100e05760385490516001600160a01b039091168152602090f35b5050346100e057816003193601126100e0576020905160018152f35b919050346106345782600319360112610634576020925051908152f35b5050346100e057816003193601126100e05760395490516001600160a01b039091168152602090f35b82843461020e578060031936011261020e5781519081809260355480825260208092019160358552600080516020610eb783398151915294905b8282106108495750505061082f92500382610952565b61084561083a610aa8565b9251928392836108a5565b0390f35b85546001600160a01b031684526001958601958795509381019390910190610819565b5050346100e057816003193601126100e057602090516127108152f35b8490346100e057816003193601126100e0576001198152602090f35b6040810190604081528251809252606081019160208094019060005b818110610903575050508281830391015281808451928381520193019160005b8281106108ef575050505090565b8351855293810193928101926001016108e1565b82516001600160a01b0316855293850193918501916001016108c1565b6040810190811067ffffffffffffffff82111761093c57604052565b634e487b7160e01b600052604160045260246000fd5b90601f8019910116810190811067ffffffffffffffff82111761093c57604052565b67ffffffffffffffff811161093c5760051b60200190565b9080601f830112156109fc5760209082356109a681610974565b936109b46040519586610952565b81855260208086019260051b8201019283116109fc57602001905b8282106109dd575050505090565b81356001600160a01b03811681036109fc5781529083019083016109cf565b600080fd5b9080601f830112156109fc576020908235610a1b81610974565b93610a296040519586610952565b81855260208086019260051b8201019283116109fc57602001905b828210610a52575050505090565b81358152908301908301610a44565b9060406003198301126109fc5767ffffffffffffffff6004358181116109fc5783610a8e9160040161098c565b926024359182116109fc57610aa591600401610a01565b90565b6040519060365480835282602091602082019060366000527f4a11f94e20a93c79f6ec743a1954ec4fc2c08429ae2122118bf234b2185c81b8936000905b828210610afe57505050610afc92500383610952565b565b855484526001958601958895509381019390910190610ae6565b8051821015610b2c5760209160051b010190565b634e487b7160e01b600052603260045260246000fd5b81810292918115918404141715610b5557565b634e487b7160e01b600052601160045260246000fd5b3d15610ba6573d9067ffffffffffffffff821161093c5760405191610b9a601f8201601f191660200184610952565b82523d6000602084013e565b606090565b604080516001600160a01b03928316949392610bc682610920565b8251918260355490818552602080950160009260358452600080516020610eb783398151915290845b818110610e265750505081610c05910382610952565b8252610c0f610aa8565b8285019081529773eeeeeeeeeeeeeeeeeeeeeeeeeeeeeeeeeeeeeeee81141596825b845151811015610e1957612710610c53610c4c838e51610b18565b5184610b42565b048015610e10578915610d7a5786610c6c838851610b18565b511689518981019063a9059cbb60e01b8252602492838201526044848183015281526080810181811067ffffffffffffffff821117610d67578c5251610cc39188918291828a5af1610cbc610b6b565b9087610e53565b80518a8115159182610d46575b50509050610d315750907f60ce3cc2d133631eac66a476f14997a9fa682bd05a60dd993cf02285822d78d860608d600194610d1b858c610d12828e5b51610b18565b51169351610b18565b518d519283528c8301528c820152a15b01610c31565b8951635274afe760e01b815260048101869052fd5b838092935001031261072e5789015180159081150361072e57808a38610cd0565b634e487b7160e01b895260416004528389fd5b84808080848b610d8b888d51610b18565b51165af1610d97610b6b565b5015610dd457907f60ce3cc2d133631eac66a476f14997a9fa682bd05a60dd993cf02285822d78d860608d600194610d1b858c610d12828e610d0c565b885162461bcd60e51b81526004810189905260156024820152742932bb32b93a32b21022aa24103a3930b739b332b960591b6044820152606490fd5b50600190610d2b565b5050505050505050509050565b8254881684529288019260019283019201610bef565b818110610e47575050565b60008155600101610e3c565b90610e7a5750805115610e6857805190602001fd5b604051630a12f52160e11b8152600490fd5b81511580610ead575b610e8b575090565b604051639996b31560e01b81526001600160a01b039091166004820152602490fd5b50803b15610e8356fecfa4bec1d3298408bb5afcfcd9c430549c5b31f8aa5c5848151c0a55f473c34da264697066735822122083940e389e36f3fdd35b3f85a749191fc62e755ac1c0ac1bbe28c4915d11048b64736f6c63430008180033","linkReferences":{}},"methodIdentifiers":{"DISTRIBUTION_BASE()":"13520658","IMPLEMENTATION_REVISION()":"23879bb1","KYBER_ETH_MOCK_ADDRESS()":"8c0c9a25","MAX_UINT()":"e5b5019a","MAX_UINT_MINUS_ONE()":"043c41d4","MIN_CONVERSION_RATE()":"40d58a4a","distribute(address[])":"6138889b","distributeWithAmounts(address[],uint256[])":"cc8cc9d8","distributeWithPercentages(address[],uint256[])":"eed64c30","getDistribution()":"1cced51b","initialize(address[],uint256[])":"7fbbe46f","kyberProxy()":"f0eeed81","recipientBurn()":"217ab806","tokenToBurn()":"4f1b86eb"},"id":5}