{"abi":[{"type":"function","name":"getAssetPrice","inputs":[{"name":"_asset","type":"address","internalType":"address"}],"outputs":[{"name":"","type":"uint256","internalType":"uint256"}],"stateMutability":"view"},{"type":"function","name":"getEthUsdPrice","inputs":[],"outputs":[{"name":"","type":"uint256","internalType":"uint256"}],"stateMutability":"view"},{"type":"function","name":"setAssetPrice","inputs":[{"name":"_asset","type":"address","internalType":"address"},{"name":"_price","type":"uint256","internalType":"uint256"}],"outputs":[],"stateMutability":"nonpayable"},{"type":"function","name":"setEthUsdPrice","inputs":[{"name":"_price","type":"uint256","internalType":"uint256"}],"outputs":[],"stateMutability":"nonpayable"},{"type":"event","name":"AssetPriceUpdated","inputs":[{"name":"_asset","type":"address","indexed":false,"internalType":"address"},{"name":"_price","type":"uint256","indexed":false,"internalType":"uint256"},{"name":"timestamp","type":"uint256","indexed":false,"internalType":"uint256"}],"anonymous":false},{"type":"event","name":"EthPriceUpdated","inputs":[{"name":"_price","type":"uint256","indexed":false,"internalType":"uint256"},{"name":"timestamp","type":"uint256","indexed":false,"internalType":"uint256"}],"anonymous":false}],"bytecode":{"object":"0x60808060405234610016576101ae908161001c8239f35b600080fdfe60806040818152600436101561001457600080fd5b600091823560e01c90816351323f72146100ef57508063a0a8045e146100d1578063b3596f071461009b5763b951883a1461004e57600080fd5b34610097576020366003190112610097577fb4f35977939fa8b5ffe552d517a8ff5223046b1fdd3ee0068ae38d1e2b8d001690600435806001558151908152426020820152a180f35b5080fd5b50346100975760203660031901126100975760209181906001600160a01b036100c261015d565b16815280845220549051908152f35b50346100975781600319360112610097576020906001549051908152f35b919050346101595780600319360112610159577fce6e0b57367bae95ca7198e1172f653ea64a645c16ab586b4cefa9237bfc2d929160609161012f61015d565b6001600160a01b03168086526020868152828720602435908190559184528301524290820152a180f35b8280fd5b600435906001600160a01b038216820361017357565b600080fdfea2646970667358221220a133c4786c272d6636a6419c303e76b2101a1426032bbcd66690304fe60cb5f064736f6c63430008180033","linkReferences":{}},"methodIdentifiers":{"getAssetPrice(address)":"b3596f07","getEthUsdPrice()":"a0a8045e","setAssetPrice(address,uint256)":"51323f72","setEthUsdPrice(uint256)":"b951883a"},"id":55}