{"abi":[{"type":"constructor","inputs":[{"name":"_assets","type":"address[]","internalType":"address[]"},{"name":"_sources","type":"address[]","internalType":"address[]"},{"name":"_fallbackOracle","type":"address","internalType":"address"}],"stateMutability":"nonpayable"},{"type":"function","name":"getAssetPrice","inputs":[{"name":"_asset","type":"address","internalType":"address"}],"outputs":[{"name":"","type":"uint256","internalType":"uint256"}],"stateMutability":"view"},{"type":"function","name":"getAssetsPrices","inputs":[{"name":"_assets","type":"address[]","internalType":"address[]"}],"outputs":[{"name":"","type":"uint256[]","internalType":"uint256[]"}],"stateMutability":"view"},{"type":"function","name":"getFallbackOracle","inputs":[],"outputs":[{"name":"","type":"address","internalType":"address"}],"stateMutability":"view"},{"type":"function","name":"getSourceOfAsset","inputs":[{"name":"_asset","type":"address","internalType":"address"}],"outputs":[{"name":"","type":"address","internalType":"address"}],"stateMutability":"view"},{"type":"function","name":"owner","inputs":[],"outputs":[{"name":"","type":"address","internalType":"address"}],"stateMutability":"view"},{"type":"function","name":"renounceOwnership","inputs":[],"outputs":[],"stateMutability":"nonpayable"},{"type":"function","name":"setAssetSources","inputs":[{"name":"_assets","type":"address[]","internalType":"address[]"},{"name":"_sources","type":"address[]","internalType":"address[]"}],"outputs":[],"stateMutability":"nonpayable"},{"type":"function","name":"setFallbackOracle","inputs":[{"name":"_fallbackOracle","type":"address","internalType":"address"}],"outputs":[],"stateMutability":"nonpayable"},{"type":"function","name":"transferOwnership","inputs":[{"name":"newOwner","type":"address","internalType":"address"}],"outputs":[],"stateMutability":"nonpayable"},{"type":"event","name":"AssetSourceUpdated","inputs":[{"name":"asset","type":"address","indexed":true,"internalType":"address"},{"name":"source","type":"address","indexed":true,"internalType":"address"}],"anonymous":false},{"type":"event","name":"FallbackOracleUpdated","inputs":[{"name":"fallbackOracle","type":"address","indexed":true,"internalType":"address"}],"anonymous":false},{"type":"event","name":"OwnershipTransferred","inputs":[{"name":"previousOwner","type":"address","indexed":true,"internalType":"address"},{"name":"newOwner","type":"address","indexed":true,"internalType":"address"}],"anonymous":false},{"type":"error","name":"OwnableInvalidOwner","inputs":[{"name":"owner","type":"address","internalType":"address"}]},{"type":"error","name":"OwnableUnauthorizedAccount","inputs":[{"name":"account","type":"address","internalType":"address"}]}],"bytecode":{"object":"0x60406080815234620001fe5762000ac6803803806200001e8162000203565b928339810190606081830312620001fe5780516001600160401b039190828111620001fe57836200005191830162000254565b916020936020830151918211620001fe576200007586916200007d93850162000254565b92016200023f565b3315620001e657600080546001600160a01b0319808216339081178455885193966001600160a01b03959094929386929083167f8be0079c531659141344cd1fd0a4f28419497f9722a3daafe3b4186f6b6457e08a80a316808360025416176002557fce7a780d33665b1ea097af5f155e3821b809ecbaa839d3b33aa83ba28168cefb8780a28251855103620001a45750845b8251811015620001955780846200012a60019388620002c7565b511685620001398387620002c7565b51168852828952898820908482541617905584620001588286620002c7565b511685620001678389620002c7565b5116907f22c5b7b2d8561d39f7f210b6b326a1aa69f15311163082308ac4877db6339dc18980a30162000110565b87516107d39081620002f38239f35b62461bcd60e51b815260206004820152601a60248201527f494e434f4e53495354454e545f504152414d535f4c454e4754480000000000006044820152606490fd5b8451631e4fbdf760e01b815260006004820152602490fd5b600080fd5b6040519190601f01601f191682016001600160401b038111838210176200022957604052565b634e487b7160e01b600052604160045260246000fd5b51906001600160a01b0382168203620001fe57565b81601f82011215620001fe578051916020916001600160401b03841162000229578360051b9083806200028981850162000203565b809781520192820101928311620001fe578301905b828210620002ad575050505090565b838091620002bb846200023f565b8152019101906200029e565b8051821015620002dc5760209160051b010190565b634e487b7160e01b600052603260045260246000fdfe6040608081526004908136101561001557600080fd5b600091823560e01c8063170aee73146104735780636210308c1461044a578063715018a6146103f05780638da5cb5b146103c857806392bf2be01461038d5780639d23d9f214610298578063abfd53101461013e578063b3596f071461010d5763f2fde38b1461008457600080fd5b346101095760203660031901126101095761009d6104db565b906100a6610771565b6001600160a01b039182169283156100f357505082546001600160a01b0319811683178455167f8be0079c531659141344cd1fd0a4f28419497f9722a3daafe3b4186f6b6457e08380a380f35b51631e4fbdf760e01b8152908101849052602490fd5b8280fd5b50503461013a57602036600319011261013a5760209061013361012e6104db565b6105ff565b9051908152f35b5080fd5b50913461029557816003193601126102955767ffffffffffffffff9280358481116101095761017090369083016104f6565b909460243590811161029157906101a26101906101aa93369086016104f6565b97909261019b610771565b36916105a1565b9536916105a1565b90845182510361024e5750815b845181101561024a576001906001600160a01b03806101d68386610577565b5116816101e3848a610577565b5116865283602052868620906bffffffffffffffffffffffff60a01b825416179055806102108389610577565b51169061021d8386610577565b5116907f22c5b7b2d8561d39f7f210b6b326a1aa69f15311163082308ac4877db6339dc18680a3016101b7565b8280f35b606490602085519162461bcd60e51b8352820152601a60248201527f494e434f4e53495354454e545f504152414d535f4c454e4754480000000000006044820152fd5b8380fd5b80fd5b5082903461013a576020908160031936011261010957803567ffffffffffffffff8111610291576102ce859285923691016104f6565b6102da8193929361055f565b906102e785519283610527565b8082526102f38161055f565b8287019490601f1901368637835b8281106103465750505083519485948186019282875251809352850193925b82811061032f57505050500390f35b835185528695509381019392810192600101610320565b9596949592949392600581901b8201356001600160a01b038116810361038957906103726001926105ff565b61037c8289610577565b5201969594929396610301565b8480fd5b50503461013a57602036600319011261013a576020916001600160a01b03908290826103b76104db565b168152600185522054169051908152f35b50503461013a578160031936011261013a57905490516001600160a01b039091168152602090f35b8334610295578060031936011261029557610409610771565b80546001600160a01b03198116825581906001600160a01b03167f8be0079c531659141344cd1fd0a4f28419497f9722a3daafe3b4186f6b6457e08280a380f35b50503461013a578160031936011261013a5760025490516001600160a01b039091168152602090f35b83346102955760203660031901126102955761048d6104db565b610495610771565b600280546001600160a01b0319166001600160a01b039290921691821790557fce7a780d33665b1ea097af5f155e3821b809ecbaa839d3b33aa83ba28168cefb8280a280f35b600435906001600160a01b03821682036104f157565b600080fd5b9181601f840112156104f15782359167ffffffffffffffff83116104f1576020808501948460051b0101116104f157565b90601f8019910116810190811067ffffffffffffffff82111761054957604052565b634e487b7160e01b600052604160045260246000fd5b67ffffffffffffffff81116105495760051b60200190565b805182101561058b5760209160051b010190565b634e487b7160e01b600052603260045260246000fd5b92916105ac8261055f565b916105ba6040519384610527565b829481845260208094019160051b81019283116104f157905b8282106105e05750505050565b81356001600160a01b03811681036104f15781529083019083016105d3565b6001600160a01b03908116600081815260016020908152604080832054851694909392919073eeeeeeeeeeeeeeeeeeeeeeeeeeeeeeeeeeeeeeee840361065157505050505050670de0b6b3a764000090565b856106cb578192939495506002541693602486518096819363b3596f0760e01b835260048301525afa9384156106c05750819361068f575b50505090565b9091809350813d83116106b9575b6106a78183610527565b81010312610295575051388080610689565b503d61069d565b51913d9150823e3d90fd5b816004968651978880926350d25bcd60e01b82525afa958615610767578396610738575b508286131561070057505050505090565b8192939495506002541693602486518096819363b3596f0760e01b835260048301525afa9384156106c05750819361068f5750505090565b9095508181813d8311610760575b6107508183610527565b81010312610109575194386106ef565b503d610746565b85513d85823e3d90fd5b6000546001600160a01b0316330361078557565b60405163118cdaa760e01b8152336004820152602490fdfea2646970667358221220d9a10141148a111eab86246ab41a29417491a42091fccd9675d6d429b514d62c64736f6c63430008180033","linkReferences":{}},"methodIdentifiers":{"getAssetPrice(address)":"b3596f07","getAssetsPrices(address[])":"9d23d9f2","getFallbackOracle()":"6210308c","getSourceOfAsset(address)":"92bf2be0","owner()":"8da5cb5b","renounceOwnership()":"715018a6","setAssetSources(address[],address[])":"abfd5310","setFallbackOracle(address)":"170aee73","transferOwnership(address)":"f2fde38b"},"id":34}