{"abi":[{"type":"function","name":"CONFIGURATOR_REVISION","inputs":[],"outputs":[{"name":"","type":"uint256","internalType":"uint256"}],"stateMutability":"view"},{"type":"function","name":"activateReserve","inputs":[{"name":"_reserve","type":"address","internalType":"address"}],"outputs":[],"stateMutability":"nonpayable"},{"type":"function","name":"deactivateReserve","inputs":[{"name":"_reserve","type":"address","internalType":"address"}],"outputs":[],"stateMutability":"nonpayable"},{"type":"function","name":"disableBorrowingOnReserve","inputs":[{"name":"_reserve","type":"address","internalType":"address"}],"outputs":[],"stateMutability":"nonpayable"},{"type":"function","name":"disableReserveAsCollateral","inputs":[{"name":"_reserve","type":"address","internalType":"address"}],"outputs":[],"stateMutability":"nonpayable"},{"type":"function","name":"disableReserveStableBorrowRate","inputs":[{"name":"_reserve","type":"address","internalType":"address"}],"outputs":[],"stateMutability":"nonpayable"},{"type":"function","name":"enableBorrowingOnReserve","inputs":[{"name":"_reserve","type":"address","internalType":"address"},{"name":"_stableBorrowRateEnabled","type":"bool","internalType":"bool"}],"outputs":[],"stateMutability":"nonpayable"},{"type":"function","name":"enableReserveAsCollateral","inputs":[{"name":"_reserve","type":"address","internalType":"address"},{"name":"_baseLTVasCollateral","type":"uint256","internalType":"uint256"},{"name":"_liquidationThreshold","type":"uint256","internalType":"uint256"},{"name":"_liquidationBonus","type":"uint256","internalType":"uint256"}],"outputs":[],"stateMutability":"nonpayable"},{"type":"function","name":"enableReserveStableBorrowRate","inputs":[{"name":"_reserve","type":"address","internalType":"address"}],"outputs":[],"stateMutability":"nonpayable"},{"type":"function","name":"freezeReserve","inputs":[{"name":"_reserve","type":"address","internalType":"address"}],"outputs":[],"stateMutability":"nonpayable"},{"type":"function","name":"initReserve","inputs":[{"name":"_reserve","type":"address","internalType":"address"},{"name":"_underlyingAssetDecimals","type":"uint8","internalType":"uint8"},{"name":"_interestRateStrategyAddress","type":"address","internalType":"address"}],"outputs":[],"stateMutability":"nonpayable"},{"type":"function","name":"initReserveWithData","inputs":[{"name":"_reserve","type":"address","internalType":"address"},{"name":"_aTokenName","type":"string","internalType":"string"},{"name":"_aTokenSymbol","type":"string","internalType":"string"},{"name":"_underlyingAssetDecimals","type":"uint8","internalType":"uint8"},{"name":"_interestRateStrategyAddress","type":"address","internalType":"address"}],"outputs":[],"stateMutability":"nonpayable"},{"type":"function","name":"initialize","inputs":[{"name":"_poolAddressesProvider","type":"address","internalType":"contract LendingPoolAddressesProvider"}],"outputs":[],"stateMutability":"nonpayable"},{"type":"function","name":"poolAddressesProvider","inputs":[],"outputs":[{"name":"","type":"address","internalType":"contract LendingPoolAddressesProvider"}],"stateMutability":"view"},{"type":"function","name":"refreshLendingPoolCoreConfiguration","inputs":[],"outputs":[],"stateMutability":"nonpayable"},{"type":"function","name":"removeLastAddedReserve","inputs":[{"name":"_reserveToRemove","type":"address","internalType":"address"}],"outputs":[],"stateMutability":"nonpayable"},{"type":"function","name":"setReserveBaseLTVasCollateral","inputs":[{"name":"_reserve","type":"address","internalType":"address"},{"name":"_ltv","type":"uint256","internalType":"uint256"}],"outputs":[],"stateMutability":"nonpayable"},{"type":"function","name":"setReserveDecimals","inputs":[{"name":"_reserve","type":"address","internalType":"address"},{"name":"_decimals","type":"uint256","internalType":"uint256"}],"outputs":[],"stateMutability":"nonpayable"},{"type":"function","name":"setReserveInterestRateStrategyAddress","inputs":[{"name":"_reserve","type":"address","internalType":"address"},{"name":"_rateStrategyAddress","type":"address","internalType":"address"}],"outputs":[],"stateMutability":"nonpayable"},{"type":"function","name":"setReserveLiquidationBonus","inputs":[{"name":"_reserve","type":"address","internalType":"address"},{"name":"_bonus","type":"uint256","internalType":"uint256"}],"outputs":[],"stateMutability":"nonpayable"},{"type":"function","name":"setReserveLiquidationThreshold","inputs":[{"name":"_reserve","type":"address","internalType":"address"},{"name":"_threshold","type":"uint256","internalType":"uint256"}],"outputs":[],"stateMutability":"nonpayable"},{"type":"function","name":"unfreezeReserve","inputs":[{"name":"_reserve","type":"address","internalType":"address"}],"outputs":[],"stateMutability":"nonpayable"},{"type":"event","name":"BorrowingDisabledOnReserve","inputs":[{"name":"_reserve","type":"address","indexed":true,"internalType":"address"}],"anonymous":false},{"type":"event","name":"BorrowingEnabledOnReserve","inputs":[{"name":"_reserve","type":"address","indexed":false,"internalType":"address"},{"name":"_stableRateEnabled","type":"bool","indexed":false,"internalType":"bool"}],"anonymous":false},{"type":"event","name":"ReserveActivated","inputs":[{"name":"_reserve","type":"address","indexed":true,"internalType":"address"}],"anonymous":false},{"type":"event","name":"ReserveBaseLtvChanged","inputs":[{"name":"_reserve","type":"address","indexed":false,"internalType":"address"},{"name":"_ltv","type":"uint256","indexed":false,"internalType":"uint256"}],"anonymous":false},{"type":"event","name":"ReserveDeactivated","inputs":[{"name":"_reserve","type":"address","indexed":true,"internalType":"address"}],"anonymous":false},{"type":"event","name":"ReserveDecimalsChanged","inputs":[{"name":"_reserve","type":"address","indexed":false,"internalType":"address"},{"name":"_decimals","type":"uint256","indexed":false,"internalType":"uint256"}],"anonymous":false},{"type":"event","name":"ReserveDisabledAsCollateral","inputs":[{"name":"_reserve","type":"address","indexed":true,"internalType":"address"}],"anonymous":false},{"type":"event","name":"ReserveEnabledAsCollateral","inputs":[{"name":"_reserve","type":"address","indexed":true,"internalType":"address"},{"name":"_ltv","type":"uint256","indexed":false,"internalType":"uint256"},{"name":"_liquidationThreshold","type":"uint256","indexed":false,"internalType":"uint256"},{"name":"_liquidationBonus","type":"uint256","indexed":false,"internalType":"uint256"}],"anonymous":false},{"type":"event","name":"ReserveFreezed","inputs":[{"name":"_reserve","type":"address","indexed":true,"internalType":"address"}],"anonymous":false},{"type":"event","name":"ReserveInitialized","inputs":[{"name":"_reserve","type":"address","indexed":true,"internalType":"address"},{"name":"_aToken","type":"address","indexed":true,"internalType":"address"},{"name":"_interestRateStrategyAddress","type":"address","indexed":false,"internalType":"address"}],"anonymous":false},{"type":"event","name":"ReserveInterestRateStrategyChanged","inputs":[{"name":"_reserve","type":"address","indexed":false,"internalType":"address"},{"name":"_strategy","type":"address","indexed":false,"internalType":"address"}],"anonymous":false},{"type":"event","name":"ReserveLiquidationBonusChanged","inputs":[{"name":"_reserve","type":"address","indexed":false,"internalType":"address"},{"name":"_bonus","type":"uint256","indexed":false,"internalType":"uint256"}],"anonymous":false},{"type":"event","name":"ReserveLiquidationThresholdChanged","inputs":[{"name":"_reserve","type":"address","indexed":false,"internalType":"address"},{"name":"_threshold","type":"uint256","indexed":false,"internalType":"uint256"}],"anonymous":false},{"type":"event","name":"ReserveRemoved","inputs":[{"name":"_reserve","type":"address","indexed":true,"internalType":"address"}],"anonymous":false},{"type":"event","name":"ReserveUnfreezed","inputs":[{"name":"_reserve","type":"address","indexed":true,"internalType":"address"}],"anonymous":false},{"type":"event","name":"StableRateDisabledOnReserve","inputs":[{"name":"_reserve","type":"address","indexed":true,"internalType":"address"}],"anonymous":false},{"type":"event","name":"StableRateEnabledOnReserve","inputs":[{"name":"_reserve","type":"address","indexed":true,"internalType":"address"}],"anonymous":false}],"bytecode":{"object":"0x6080806040523461001a57600080556144c290816100208239f35b600080fdfe60806040818152600490813610156200001757600080fd5b600092833560e01c908163071033e41462001b8f575080631d2118f91462001a2b5780633443a14b14620018d157806336805a62146200167a5780633e72a454146200148757806366bbd928146200132d57806370fb84f414620011d3578381637aca76eb14620010a9575080637af635a6146200108b57806380e17d871462001060578063a5bc826c1462000edd57838163a8dc0f451462000db3578163b75d6f341462000c89578163b8c0f7451462000b5f57508063c4d66de81462000a5657838163d06e2ec1146200092c57508063d466016f14620007d257838163dae4c4e714620006a8578163e12dcc6c1462000590578163e8ae2f5b146200046657508063eede87c114620002bc5763ef1f9373146200013557600080fd5b8290346200023d5760209081600319360112620002b8576200015662001f4d565b60345482516333128d5960e01b81526001600160a01b03949185169082818981855afa908115620002ae57916200019d84928a948a916200028c575b50881633146200203d565b855163076b7fbb60e51b815292839182905afa91821562000282579085929187926200024e575b50501692833b156200024a5760248592838551968794859363ef1f937360e01b855216809a8401525af190811562000241575062000225575b50807f995959c2ceab6ce20e8cd89c904e449fd3e21918a0f420c9ec9340595585526b91a280f35b620002309062001f64565b6200023d578138620001fd565b5080fd5b513d84823e3d90fd5b8480fd5b620002729250803d106200027a575b62000269818362001f8f565b8101906200201c565b3880620001c4565b503d6200025d565b84513d88823e3d90fd5b620002a79150843d86116200027a5762000269818362001f8f565b3862000192565b85513d89823e3d90fd5b8280fd5b509034620002b85781600319360112620002b857620002da62001f4d565b836024359283151584036200023d5760345485516333128d5960e01b81526001600160a01b039160209190831682828681845afa9081156200045c57620003318492879489916200043a575b50861633146200203d565b895163076b7fbb60e51b815292839182905afa918215620004305785926200040e575b505016803b15620002b857855163eede87c160e01b81526001600160a01b0385169281019283528515156020840152918391839182908490829060400103925af180156200040457620003e8575b505091516001600160a01b039092168252151560208201527fab2f7f9e5ca2772fafa94f355c1842a80ae6b9e41f83083098d81f67d7a0b5089080604081015b0390a180f35b620003f39062001f64565b62000400578338620003a2565b8380fd5b85513d84823e3d90fd5b620004289250803d106200027a5762000269818362001f8f565b388062000354565b88513d87823e3d90fd5b620004559150843d86116200027a5762000269818362001f8f565b3862000326565b89513d88823e3d90fd5b919050346200023d5760209081600319360112620002b8576200048862001f4d565b60345482516333128d5960e01b81526001600160a01b03949185169082818981855afa908115620002ae5791620004ce84928a948a916200028c5750881633146200203d565b855163076b7fbb60e51b815292839182905afa91821562000282579085929187926200056e575b50501692833b156200024a5760248592838551968794859363e8ae2f5b60e01b855216809a8401525af190811562000241575062000556575b50807f9cc75e4cafc9a556a369bc53468649075680eb554d225d5918f199453824796d91a280f35b620005619062001f64565b6200023d5781386200052e565b620005889250803d106200027a5762000269818362001f8f565b3880620004f5565b80848434620006a45782600319360112620006a45760345481516333128d5960e01b81526001600160a01b03916020919083169082818781855afa908115620002ae5791620005ee849288948a91620006825750861633146200203d565b855163076b7fbb60e51b815292839182905afa9182156200028257869262000660575b50501691823b156200065b578151636468108360e01b81529284918491829084905af1908115620002415750620006455750f35b620006509062001f64565b620006585780f35b80fd5b505050fd5b6200067a9250803d106200027a5762000269818362001f8f565b868062000611565b6200069d9150843d86116200027a5762000269818362001f8f565b8b62000326565b5050fd5b919050346200023d5760209081600319360112620002b857620006ca62001f4d565b60345482516333128d5960e01b81526001600160a01b03949185169082818981855afa908115620002ae57916200071084928a948a916200028c5750881633146200203d565b855163076b7fbb60e51b815292839182905afa9182156200028257908592918792620007b0575b50501692833b156200024a5760248592838551968794859363dae4c4e760e01b855216809a8401525af190811562000241575062000798575b50807f8dee2b2f3e98319ae6347eda521788f73f4086c9be9a594942b370b137fb8cb191a280f35b620007a39062001f64565b6200023d57813862000770565b620007ca9250803d106200027a5762000269818362001f8f565b388062000737565b509034620002b85781600319360112620002b857620007f062001f4d565b60345483516333128d5960e01b815260243593869290916001600160a01b039160209190831682828681845afa9081156200045c576200083f8492879489916200043a5750861633146200203d565b895163076b7fbb60e51b815292839182905afa918215620004305785926200090a575b505016803b15620002b857855163d466016f60e01b81526001600160a01b03851692810192835260208301869052918391839182908490829060400103925af180156200040457620008f2575b505091516001600160a01b03909216825260208201527fda47540c7f7fd5a68c3285f3bb708f322424f948f41df6f51622fa24b3968664908060408101620003e2565b620008fd9062001f64565b62000400578338620008af565b620009249250803d106200027a5762000269818362001f8f565b388062000862565b919050346200023d5760209081600319360112620002b8576200094e62001f4d565b60345482516333128d5960e01b81526001600160a01b03949185169082818981855afa908115620002ae57916200099484928a948a916200028c5750881633146200203d565b855163076b7fbb60e51b815292839182905afa918215620002825790859291879262000a34575b50501692833b156200024a5760248592838551968794859363d06e2ec160e01b855216809a8401525af190811562000241575062000a1c575b50807f19dbf059e4d3a0cb998d4328b7b991bbe312827eeb053d8ff63edf33158e01db91a280f35b62000a279062001f64565b6200023d578138620009f4565b62000a4e9250803d106200027a5762000269818362001f8f565b3880620009bb565b509034620002b8576020366003190112620002b85780356001600160a01b038116919082900362000400576001549060ff8216938415948562000b55575b801562000b49575b1562000aef5750508262000ad9575b506bffffffffffffffffffffffff60a01b603454161760345562000acc5780f35b60ff196001541660015580f35b60019060ff191617600155600383553862000aab565b906020608492519162461bcd60e51b8352820152602e60248201527f436f6e747261637420696e7374616e63652068617320616c726561647920626560448201526d195b881a5b9a5d1a585b1a5e995960921b6064820152fd5b50855460031162000a9c565b50303b1562000a94565b919050346200023d5760209081600319360112620002b85762000b8162001f4d565b60345482516333128d5960e01b81526001600160a01b03949185169082818981855afa908115620002ae579162000bc784928a948a916200028c5750881633146200203d565b855163076b7fbb60e51b815292839182905afa918215620002825790859291879262000c67575b50501692833b156200024a5760248592838551968794859363b8c0f74560e01b855216809a8401525af190811562000241575062000c4f575b50807f8bbf35441ac2c607ddecadd3d8ee58636d32f217fad201fb2655581502dd84e391a280f35b62000c5a9062001f64565b6200023d57813862000c27565b62000c819250803d106200027a5762000269818362001f8f565b388062000bee565b919050346200023d5760209081600319360112620002b85762000cab62001f4d565b60345482516333128d5960e01b81526001600160a01b03949185169082818981855afa908115620002ae579162000cf184928a948a916200028c5750881633146200203d565b855163076b7fbb60e51b815292839182905afa918215620002825790859291879262000d91575b50501692833b156200024a57602485928385519687948593632dd75bcd60e21b855216809a8401525af190811562000241575062000d79575b50807f35b80cd8ea3440e9a8454f116fa658b858da1b64c86c48451f4559cefcdfb56c91a280f35b62000d849062001f64565b6200023d57813862000d51565b62000dab9250803d106200027a5762000269818362001f8f565b388062000d18565b919050346200023d5760209081600319360112620002b85762000dd562001f4d565b60345482516333128d5960e01b81526001600160a01b03949185169082818981855afa908115620002ae579162000e1b84928a948a916200028c5750881633146200203d565b855163076b7fbb60e51b815292839182905afa918215620002825790859291879262000ebb575b50501692833b156200024a5760248592838551968794859363a8dc0f4560e01b855216809a8401525af190811562000241575062000ea3575b50807fe9a7e5fd4fc8ea18e602350324bf48e8f05d12434af0ce0be05743e6a5fdcb9e91a280f35b62000eae9062001f64565b6200023d57813862000e7b565b62000ed59250803d106200027a5762000269818362001f8f565b388062000e42565b5034620002b8576080366003190112620002b85762000efb62001f4d565b60345482516333128d5960e01b8152604435936024359360643593919260209289926001600160a01b0392909183169085818c81855afa90811562001056579162000f5587928d9488916200043a5750861633146200203d565b875163076b7fbb60e51b815292839182905afa9081156200104c5790839185916200102a575b501691823b15620004005760848492838851958694859363296f209b60e21b855216809e8401528b60248401528c60448401528a60648401525af18015620010205762000ffc575b5050907fdfe62f53e7707d64f99bca15d2bdf3facc4074bc047e7dec2ea130300e9927449460609493928251948552840152820152a280f35b6200100c90959493929562001f64565b6200101c57909192863862000fc3565b8680fd5b84513d84823e3d90fd5b620010459150863d88116200027a5762000269818362001f8f565b3862000f7b565b86513d86823e3d90fd5b87513d87823e3d90fd5b8382346200023d57816003193601126200023d5760345490516001600160a01b039091168152602090f35b8382346200023d57816003193601126200023d576020905160038152f35b919050346200023d5760209081600319360112620002b857620010cb62001f4d565b60345482516333128d5960e01b81526001600160a01b03949185169082818981855afa908115620002ae57916200111184928a948a916200028c5750881633146200203d565b855163076b7fbb60e51b815292839182905afa9182156200028257908592918792620011b1575b50501692833b156200024a57602485928385519687948593637aca76eb60e01b855216809a8401525af190811562000241575062001199575b50807fda5cdb66c77023db6abe5226a4d4a40c3b8e768012f4ff4e446f62f60127fc5691a280f35b620011a49062001f64565b6200023d57813862001171565b620011cb9250803d106200027a5762000269818362001f8f565b388062001138565b509034620002b85781600319360112620002b857620011f162001f4d565b60345483516333128d5960e01b815260243593869290916001600160a01b039160209190831682828681845afa9081156200045c57620012408492879489916200043a5750861633146200203d565b895163076b7fbb60e51b815292839182905afa918215620004305785926200130b575b505016803b15620002b8578551631c3ee13d60e21b81526001600160a01b03851692810192835260208301869052918391839182908490829060400103925af180156200040457620012f3575b505091516001600160a01b03909216825260208201527fe3ba662f7011e701056a43e8cf832242322eeff01453e7a72d01ec2af36d9aec908060408101620003e2565b620012fe9062001f64565b62000400578338620012b0565b620013259250803d106200027a5762000269818362001f8f565b388062001263565b509034620002b85781600319360112620002b8576200134b62001f4d565b60345483516333128d5960e01b815260243593869290916001600160a01b039160209190831682828681845afa9081156200045c576200139a8492879489916200043a5750861633146200203d565b895163076b7fbb60e51b815292839182905afa9182156200043057859262001465575b505016803b15620002b8578551630cd77b2560e31b81526001600160a01b03851692810192835260208301869052918391839182908490829060400103925af1801562000404576200144d575b505091516001600160a01b03909216825260208201527f2e73b7f1df792712003e6859f940c1e8711c3f1329474771fee71d2ec1163129908060408101620003e2565b620014589062001f64565b620004005783386200140a565b6200147f9250803d106200027a5762000269818362001f8f565b3880620013bd565b5034620002b857602090816003193601126200040057620014a762001f4d565b9260018060a01b0392836034541683516333128d5960e01b815282818581855afa908115620016705791620014eb849286948b916200028c5750881633146200203d565b855163076b7fbb60e51b815292839182905afa908115620016445790859188916200164e575b501693835195630c33cfd960e41b8752169485838201528181602481885afa9081156200164457879162001611575b50620015be575090829185933b15620004005784602485928385519687948593630f9ca91560e21b85528401525af1908115620002415750620015a6575b50807f6f60cf8bd0f218cabe1ea3150bd07b0b758c35c4cfdf7138017a283e65564d5e91a280f35b620015b19062001f64565b6200023d5781386200157e565b608492519162461bcd60e51b8352820152602a60248201527f546865206c6971756964697479206f66207468652072657365727665206e65656044820152690647320746f20626520360b41b6064820152fd5b90508181813d83116200163c575b6200162b818362001f8f565b810103126200101c57513862001540565b503d6200161f565b84513d89823e3d90fd5b620016699150833d85116200027a5762000269818362001f8f565b3862001511565b85513d8a823e3d90fd5b5034620002b85760a0366003190112620002b8576200169862001f4d565b9067ffffffffffffffff6024358181116200185b57620016bc903690860162001fcf565b926044358281116200101c57620016d7903690870162001fcf565b906064359060ff8216809203620018cc576001600160a01b036084358181169490859003620018cc578160345416908751966333128d5960e01b885260209788818d81875afa908d82156200189f57906200173d92620018aa575b50851633146200203d565b885163076b7fbb60e51b815288818d81875afa908d82156200189f579086926200187d575b50169489519361233880860193868510908511176200186957958594928f99989792829795936200215587398352169b8c8b830152878c8301526060820160a0905260a08201620017b3916200212d565b908082039060800152620017c7916200212d565b039085f080156200185f571697813b156200040057608488918580948a519687958694630114cc2960e61b86528501528d602485015260448401528860648401525af18015620004045762001843575b50507f1d9fcd0dc935b4778d5af97f55c4d7b2553257382f1ef25c412114c8eeebd88e9251908152a380f35b6200184e9062001f64565b6200185b57853862001817565b8580fd5b87513d86823e3d90fd5b50634e487b7160e01b8e5260418d5260248efd5b6200189891508a3d8c116200027a5762000269818362001f8f565b3862001762565b8b51903d90823e3d90fd5b620018c591508a3d8c116200027a5762000269818362001f8f565b3862001732565b600080fd5b509034620002b85781600319360112620002b857620018ef62001f4d565b60345483516333128d5960e01b815260243593869290916001600160a01b039160209190831682828681845afa9081156200045c576200193e8492879489916200043a5750861633146200203d565b895163076b7fbb60e51b815292839182905afa9182156200043057859262001a09575b505016803b15620002b8578551633443a14b60e01b81526001600160a01b03851692810192835260208301869052918391839182908490829060400103925af180156200040457620019f1575b505091516001600160a01b03909216825260208201527f437dd3b61b7c7eee7fc70515c8846482dfca92e2e1e02af5d638c5d4878d6714908060408101620003e2565b620019fc9062001f64565b62000400578338620019ae565b62001a239250803d106200027a5762000269818362001f8f565b388062001961565b509034620002b85781600319360112620002b85762001a4962001f4d565b602435916001600160a01b03908184168403620018cc578186926034541686516333128d5960e01b815260209182828681845afa9081156200045c5762001a9f8492879489916200043a5750861633146200203d565b895163076b7fbb60e51b815292839182905afa9182156200043057859262001b6d575b505016803b15620002b8578551631d2118f960e01b81526001600160a01b0380861693820193845286166020840152918391839182908490829060400103925af18015620004045762001b55575b505091516001600160a01b039283168152911660208201527f5644b64ebb0ce18c4032248ca52f58355469092ff072866c3dcd8640e817d6a5908060408101620003e2565b62001b609062001f64565b6200040057833862001b10565b62001b879250803d106200027a5762000269818362001f8f565b388062001ac2565b849391503462000400576060366003190112620004005762001bb062001f4d565b926024359060ff82168092036200185b576001600160a01b039360443585811693919084900362001f49578560345416956333128d5960e01b97888752602096878185818c5afa90811562001f1d5783929162001c1a918d9162001f27575b50831633146200203d565b85516306fdde0360e01b81529116978a8285818c5afa91821562001f1d578b9262001efd575b5062001c8f60368751809475020b0bb329024b73a32b932b9ba103132b0b934b733960551b8c83015262001c7e8c825192839186860191016200209c565b810103601681018552018362001f8f565b85516395d89b4160e01b8152998b8b86818d5afa9a8b1562001ea7578c9b62001ed3575b5062001cee60218851809d606160f81b8d83015262001cdc8d825192839186860191016200209c565b8101038d600182019052018c62001f8f565b865190815288818681855afa90811562001ea7579062001d1b918d9162001eb1575b50841633146200203d565b855163076b7fbb60e51b815288818681855afa90811562001ea7579084918d9162001e85575b501699865192612338928385019385851067ffffffffffffffff86111762001e72579262001d9a8f9897969592938e8e62001da9968998620021558a3986528501528a8c85015260a0606085015260a08401906200212d565b9160808184039101526200212d565b039084f0801562001e68571697803b15620002b85787918360849287519687958694630114cc2960e61b86528501528c602485015260448401528860648401525af1801562001e5e5762001e24575b50519081527f1d9fcd0dc935b4778d5af97f55c4d7b2553257382f1ef25c412114c8eeebd88e9190a380f35b9562001e547f1d9fcd0dc935b4778d5af97f55c4d7b2553257382f1ef25c412114c8eeebd88e9493929762001f64565b9590919262001df8565b82513d89823e3d90fd5b85513d85823e3d90fd5b634e487b7160e01b8f526041885260248ffd5b62001ea091508a3d8c116200027a5762000269818362001f8f565b8d62001d41565b87513d8e823e3d90fd5b62001ecc91508a3d8c116200027a5762000269818362001f8f565b8d62001d10565b62001ef5919b508c3d8091833e62001eec818362001f8f565b810190620020c1565b998c62001cb3565b62001f159192503d808d833e62001eec818362001f8f565b908b62001c40565b86513d8d823e3d90fd5b62001f4291508a3d8c116200027a5762000269818362001f8f565b8d62001c0f565b8780fd5b600435906001600160a01b0382168203620018cc57565b67ffffffffffffffff811162001f7957604052565b634e487b7160e01b600052604160045260246000fd5b90601f8019910116810190811067ffffffffffffffff82111762001f7957604052565b67ffffffffffffffff811162001f7957601f01601f191660200190565b81601f82011215620018cc5780359062001fe98262001fb2565b9262001ff9604051948562001f8f565b82845260208383010111620018cc57816000926020809301838601378301015290565b90816020910312620018cc57516001600160a01b0381168103620018cc5790565b156200204557565b60405162461bcd60e51b815260206004820152602960248201527f5468652063616c6c6572206d7573742062652061206c656e64696e6720706f6f604482015268361036b0b730b3b2b960b91b6064820152608490fd5b60005b838110620020b05750506000910152565b81810151838201526020016200209f565b602081830312620018cc5780519067ffffffffffffffff8211620018cc570181601f82011215620018cc578051620020f98162001fb2565b9262002109604051948562001f8f565b81845260208284010111620018cc576200212a91602080850191016200209c565b90565b9060209162002148815180928185528580860191016200209c565b601f01601f191601019056fe6080604090808252346200027d576200233880380380916200002282856200051f565b833981019060a0818303126200027d5780516001600160a01b038082169390918490036200027d576020936200005a85850162000543565b93868101519260ff841684036200027d5760608201516001600160401b0392908381116200027d57826200009091830162000558565b9160808201518481116200027d57620000aa920162000558565b91815181811162000410576003908154906001948583811c9316801562000514575b8c841014620004fe5781908c601f94858111620004a5575b50508c90848311600114620004325760009262000426575b505060001982851b1c191690851b1782555b8451928311620004105760049485548581811c9116801562000405575b8c821014620003f05780838d9211620003a3575b50508a91841160011462000336579383949184926000956200032a575b50501b92600019911b1c19161781555b600a80546001600160a01b03199081168417909155875163076b7fbb60e51b815290929087818481855afa8015620002d6578691600091620002e1575b501683600b541617600b55875190630261bf8b60e01b825287828481845afa918215620002d6578892879160009162000295575b501684600c541617600c55885192838092632f58b80d60e01b82525afa9586156200028a5760009662000245575b505082600d54941690600554161760055560ff60a01b9060a01b1692169060018060a81b0319161717600d5551611d699081620005cf8239f35b9080929650813d831162000282575b6200026081836200051f565b810103126200027d57620002749062000543565b9338806200020b565b600080fd5b503d62000254565b87513d6000823e3d90fd5b938092508491503d8311620002ce575b620002b181836200051f565b810103126200027d5785620002c7899362000543565b38620001dd565b503d620002a5565b89513d6000823e3d90fd5b9091508881813d831162000322575b620002fc81836200051f565b810103126200031e57519086821682036200031b5750859038620001a9565b80fd5b5080fd5b503d620002f0565b0151935038806200015c565b9190601f1984169286600052848c600020948d6000905b898383106200038a57505050106200036f575b50505050811b0181556200016c565b01519060f884600019921b161c191690553880808062000360565b8686015189559097019694850194889350018e6200034d565b8760005283826000209181880160051c8301938810620003e6575b0160051c019086905b828110620003d957508c91506200013f565b60008155018690620003c7565b92508192620003be565b602287634e487b7160e01b6000525260246000fd5b90607f16906200012b565b634e487b7160e01b600052604160045260246000fd5b015190503880620000fc565b879350908d91601f1984168760005283600020936000905b8282106200048357505084116200046a575b505050811b0182556200010e565b015160001983871b60f8161c191690553880806200045c565b91929395968291958786015181550195019301908f918a96959493926200044a565b909192508560005284826000209181860160051c8301938610620004f4575b918991869594930160051c01915b828110620004e457508e9150620000e4565b60008155859450899101620004d2565b92508192620004c4565b634e487b7160e01b600052602260045260246000fd5b92607f1692620000cc565b601f909101601f19168101906001600160401b038211908210176200041057604052565b51906001600160a01b03821682036200027d57565b919080601f840112156200027d5782516001600160401b0381116200041057602090604051926200059383601f19601f85011601856200051f565b8184528282870101116200027d5760005b818110620005ba57508260009394955001015290565b8581018301518482018401528201620005a456fe6080604052600436101561001257600080fd5b60003560e01c806306fdde0314610177578063095ea7b3146101725780630e49072d1461016d57806312c87c2d1461016857806318160ddd146101635780631d51e7cf1461015e57806323b872dd14610159578063313ce56714610154578063325a9b131461014f5780633edb7cb81461014a578063445e8010146101455780635eae177c1461014057806370a082311461013b57806389d1a0fc1461013657806394362e8b1461013157806395d89b411461012c578063a9059cbb14610127578063c634dfaa14610122578063db006a751461011d578063dd62ed3e14610118578063ee9907a4146101135763f866c3191461010e57600080fd5b610e3c565b610e02565b610daa565b610c23565b610be9565b610ae9565b610a23565b61099e565b610975565b610952565b610921565b6108e6565b610811565b61075b565b610737565b610562565b6104f3565b6104d0565b6103fe565b6103da565b610310565b6101d5565b600091031261018757565b600080fd5b6020808252825181830181905290939260005b8281106101c157505060409293506000838284010152601f8019910116010190565b81810186015184820160400152850161019f565b34610187576000806003193601126102e1576040519080600354906001918060011c92600182169283156102d7575b6020926020861085146102c35785885260208801949081156102a25750600114610249575b6102458761023981890382610f5e565b6040519182918261018c565b0390f35b600360005294509192917fc2575a0e9e593c00f959f8c92f12db2869c3395a3b0502d05e2516446f71f85b5b8386106102915750505091019050610239826102453880610229565b805485870152948201948101610275565b60ff191685525050505090151560051b019050610239826102453880610229565b634e487b7160e01b82526022600452602482fd5b93607f1693610204565b80fd5b600435906001600160a01b038216820361018757565b602435906001600160a01b038216820361018757565b34610187576040366003190112610187576103296102e4565b60243533156103c1576001600160a01b0382169182156103a8573360009081526001602052604090208291610370915b9060018060a01b0316600052602052604060002090565b556040519081527f8c5be1e5ebec7d5bd14f71427d1e84f3dd0314c0f7b2291e5b200ac8c7c3b92560203392a3602060405160018152f35b604051634a1406b160e11b815260006004820152602490fd5b60405163e602df0560e01b815260006004820152602490fd5b34610187576020366003190112610187576103fc6103f66102e4565b33611377565b005b34610187576020366003190112610187576104176102e4565b6001600160a01b03811633811461047d5733600090815260096020526040812080546001600160a01b0319166001600160a01b0390941693909317909255337fc2d6a42a9d5273283f73009a07aacfb043f2f91173a8d9d33b504afe898db08b8380a380f35b60405162461bcd60e51b815260206004820152602560248201527f557365722063616e6e6f74206769766520616c6c6f77616e636520746f20686960448201526436b9b2b63360d91b6064820152608490fd5b346101875760003660031901126101875760206104eb610f9b565b604051908152f35b34610187576020366003190112610187576001600160a01b036105146102e4565b1660005260086020526020604060002054604051908152f35b6060906003190112610187576001600160a01b0390600435828116810361018757916024359081168103610187579060443590565b34610187576105703661052d565b6001600160a01b0380841660008181526001602090815260408083203384529091529020929490939092859054600181016106f4575b506105b46105b991856110c3565b6112ae565b841561069657610671836105ed7f89a178eaa27e0cd201bd795ca8ff716ac0df9618494510ca79771cfc66ffcde89561158b565b9092506105fc8694929461158b565b96925093905061060d8c8683611871565b61062061061a8d86611153565b89611670565b61062b8c8983611c4d565b6106378c6000936110b6565b15610686575b501561068057506000915b604080519a8b5260208b01919091528901526060880152608087015291169390819060a0820190565b0390a360405160018152602090f35b91610648565b6106909150611a4a565b3861063d565b60405162461bcd60e51b815260206004820152603060248201527f5472616e7366657272656420616d6f756e74206e6565647320746f206265206760448201526f726561746572207468616e207a65726f60801b6064820152608490fd5b81811061070f579061070891033385611c13565b84386105a6565b604051637dc7a0d960e11b815233600482015260248101919091526044810191909152606490fd5b3461018757600036600319011261018757602060ff600d5460a01c16604051908152f35b34610187576040366003190112610187576107746102e4565b61077c6102fa565b6001600160a01b038281166000908152600960205260409020541633036107a6576103fc91611377565b60405162461bcd60e51b815260206004820152603a60248201527f43616c6c6572206973206e6f7420616c6c6f77656420746f207265646972656360448201527f742074686520696e746572657374206f662074686520757365720000000000006064820152608490fd5b346101875760403660031901126101875761082a6102e4565b6024359060018060a01b0361084481600c54163314611039565b61084d8261158b565b94925061085b868285611871565b6108658684611972565b60009482878103116108e1577f90e5d3d68ec162d9c7de393037a3ede04dd44f68e051bf2ace4a73c299dbc4db95876108c794146108d2575b156108cc57506000905b6040519485941696846040919493926060820195825260208201520152565b0390a2005b906108a8565b506108dc84611a4a565b61089e565b6110a0565b346101875760203660031901126101875760206001600160a01b038061090a6102e4565b166000526007825260406000205416604051908152f35b3461018757604036600319011261018757602061094861093f6102e4565b602435906110c3565b6040519015158152f35b346101875760203660031901126101875760206104eb6109706102e4565b611160565b34610187576000366003190112610187576005546040516001600160a01b039091168152602090f35b34610187576040366003190112610187576109b76102e4565b6024359060018060a01b036109d181600c54163314611039565b6109da8261158b565b9150939150848401908185116108e1577fbe7799898ca2d813ff902b487c1b434ab45b47edd8f38b77ad5e99aae8341b7a94610a196108c79385611670565b6108a88785611b8a565b34610187576000806003193601126102e1576040519080600454906001918060011c9260018216928315610adf575b6020926020861085146102c35785885260208801949081156102a25750600114610a86576102458761023981890382610f5e565b600460005294509192917f8a35acfbc15ff81a39ae7d344fd709f28e8600b4aa8c65c6b64bfe7fe36bd19b5b838610610ace5750505091019050610239826102453880610229565b805485870152948201948101610ab2565b93607f1693610a52565b3461018757604036600319011261018757610b026102e4565b602435610b126105b482336110c3565b8015610696577f89a178eaa27e0cd201bd795ca8ff716ac0df9618494510ca79771cfc66ffcde8610671610b453361158b565b90969250610b558394929461158b565b939250959050610b66888a33611871565b610b79610b738988611153565b86611670565b610b84888633611c4d565b610b90886000926110b6565b15610bda575b15610bd5575060005b60405194859460018060a01b0316983398869192608093969594919660a084019784526020840152604083015260608201520152565b610b9f565b50610be433611a4a565b610b96565b34610187576020366003190112610187576001600160a01b03610c0a6102e4565b1660005260006020526020604060002054604051908152f35b3461018757602036600319011261018757600435610c428115156111fc565b610c4b3361158b565b919250906000198414610da1575b610c6583851115611247565b610c726105b485336110c3565b610c7d848333611871565b610c878433611972565b6000610c9385856110b6565b15610d92575b600c54610cb6906001600160a01b03165b6001600160a01b031690565b600554909490610cd19087906001600160a01b0316926110b6565b853b1561018757604051631312bc7b60e31b81526001600160a01b03929092166004830152336024830152604482018790526064820152936000908590608490829084905af1938415610d8d577fbd5034ffbd47e4e72a94baa2cdb74c6fad73cb3bcdc13036b72ec8306f5a764694610d74575b5015610d6e57506000905b604080519485526020850191909152830152339180606081016108c7565b90610d50565b80610d81610d8792610f34565b8061017c565b38610d45565b610f8f565b50610d9c33611a4a565b610c99565b92508192610c59565b34610187576040366003190112610187576020610df9610dc86102e4565b610dd06102fa565b6001600160a01b0391821660009081526001855260408082209290931681526020919091522090565b54604051908152f35b34610187576020366003190112610187576001600160a01b03610e236102e4565b1660005260066020526020604060002054604051908152f35b3461018757610e4a3661052d565b9060018060a01b03610e6181600c54163314611039565b8215610696577f89a178eaa27e0cd201bd795ca8ff716ac0df9618494510ca79771cfc66ffcde891610f1a610e958661158b565b925090610ea18561158b565b959250929050610eb28a858d611871565b610ec5610ebf8b85611153565b88611670565b610ed08a888d611c4d565b610edc8a6000926110b6565b15610f25575b15610f1f57506000915b60408051998a5260208a019190915288015260608701526080860152908216949091169290819060a0820190565b0390a3005b91610eec565b50610f2f8a611a4a565b610ee2565b67ffffffffffffffff8111610f4857604052565b634e487b7160e01b600052604160045260246000fd5b90601f8019910116810190811067ffffffffffffffff821117610f4857604052565b90816020910312610187575190565b6040513d6000823e3d90fd5b600254801561103357610fad9061151c565b600b5460055460405163d15e005360e01b81526001600160a01b0391821660048201529160209183916024918391165afa8015610d8d57610fff92610ffa92600092611002575b50611530565b61156c565b90565b61102591925060203d60201161102c575b61101d8183610f5e565b810190610f80565b9038610ff4565b503d611013565b50600090565b1561104057565b60405162461bcd60e51b815260206004820152603260248201527f5468652063616c6c6572206f6620746869732066756e6374696f6e206d7573746044820152710818994818481b195b991a5b99c81c1bdbdb60721b6064820152608490fd5b634e487b7160e01b600052601160045260246000fd5b919082039182116108e157565b600d546005546040516376e9d61560e01b81526001600160a01b03918216600482015292811660248401526044830193909352909160209183916064918391165afa908115610d8d57600091611117575090565b6020813d60201161114b575b8161113060209383610f5e565b8101031261114757519081151582036102e1575090565b5080fd5b3d9150611123565b919082018092116108e157565b60018060a01b038082166000526000602052604060002054916008602052604060002054918315806111f4575b6111eb576001600160a01b038216600090815260076020526040902054166111cb576111c6906111c083610fff95611153565b90611aed565b6110b6565b816111d591611aed565b9081039081116108e15781018091116108e15790565b50505050600090565b50821561118d565b1561120357565b606460405162461bcd60e51b815260206004820152602060248201527f416d6f756e7420746f2072656465656d206e6565647320746f206265203e20306044820152fd5b1561124e57565b60405162461bcd60e51b815260206004820152603260248201527f557365722063616e6e6f742072656465656d206d6f7265207468616e2074686560448201527120617661696c61626c652062616c616e636560701b6064820152608490fd5b156112b557565b60405162461bcd60e51b815260206004820152601b60248201527f5472616e736665722063616e6e6f7420626520616c6c6f7765642e00000000006044820152606490fd5b1561130157565b60405162461bcd60e51b815260206004820152604260248201527f496e7465726573742073747265616d2063616e206f6e6c79206265207265646960448201527f72656374656420696620746865726520697320612076616c69642062616c616e606482015261636560f01b608482015260a490fd5b6001600160a01b0381811660009081526007602052604090205491928082169290919081168381146114c4576113ac8561158b565b9792909491936113bd8515156112fa565b6114b4575b5081169384861461145f579561143d83836114387f5e3cad45b1fe24159d1cb39788d82d0f69cc15770aa96fba1d3d1a734873559498999a61141961145a9760018060a01b03166000526007602052604060002090565b80546001600160a01b0319166001600160a01b03909216919091179055565b611670565b604051938493846040919493926060820195825260208201520152565b0390a3565b506001600160a01b0316600090815260076020526040812080546001600160a01b0319169055949293507f5e3cad45b1fe24159d1cb39788d82d0f69cc15770aa96fba1d3d1a73487355949261145a9061143d565b6114be9083611763565b386113c2565b60405162461bcd60e51b815260206004820152602a60248201527f496e74657265737420697320616c72656164792072656469726563746564207460448201526937903a3432903ab9b2b960b11b6064820152608490fd5b90633b9aca00918281029283040361018757565b816b019d971e4fe8401e74000000190481111582151715610187576b033b2e3c9fd0803ce800000091026b019d971e4fe8401e74000000010490565b90631dcd6500633b9aca008084049306101561158457565b9060010190565b6001600160a01b03811660009081526020819052604090205491906115af81611160565b918383039283116108e157816115c88461160f94611b8a565b600b546020906115e0906001600160a01b0316610caa565b60055460405163d15e005360e01b81526001600160a01b03909116600482015294859190829081906024820190565b03915afa928315610d8d5760009361164d575b506001600160a01b0316600090815260066020526040902082905b556116488385611153565b929190565b61163d935061166a9060203d60201161102c5761101d8183610f5e565b92611622565b6001600160a01b03908116600090815260076020526040902054811691821561175e5761169c8361158b565b6001600160a01b0387166000908152600860205260409020919590935091508054908482018092116108e157556001600160a01b038516600090815260076020526040902054168061172a575b50916080917f70ff8cf632603e2bfd1afb7e4061acce53d95356b1be9726b99fa22ba733b01f936040519283526020830152604082015260006060820152a2565b6001600160a01b03166000908152600860205260409020909290918254938285018095116108e157939092559160806116e9565b505050565b6001600160a01b03908116600090815260076020526040902054811691821561175e5761178f8361158b565b9391509150806108e1576001600160a01b0385166000908152600860205260409020908154948160000386018096116108e1577f70ff8cf632603e2bfd1afb7e4061acce53d95356b1be9726b99fa22ba733b01f9561184293556118156118088860018060a01b03166000526007602052604060002090565b546001600160a01b031690565b908116611847575b5060405193849384606091949392608082019582526020820152600060408201520152565b0390a2565b6001600160a01b03166000908152600860205260409020611869848254611153565b90553861181d565b6001600160a01b0390811660009081526007602052604090205481169290831561196c5761189e8461158b565b9492509290508185038581116108e1576001600160a01b038716600090815260086020526040902080549182018092116108e157556001600160a01b038616600090815260076020526040902054168061193b575b506040805192835260208301939093529181019290925260608201527f70ff8cf632603e2bfd1afb7e4061acce53d95356b1be9726b99fa22ba733b01f908060808101611842565b6001600160a01b03166000908152600860205260409020908154948386018096116108e157949091556118426118f3565b50505050565b91906001600160a01b038316908115611a31576001600160a01b038416600090815260208190526040902054938185106119ff57816020916119ed7fddf252ad1be2c89b69c2b068fc378daa952ba7f163c4a11628f55a4df523b3ef9460009798039160018060a01b03166000526000602052604060002090565b558060025403600255604051908152a3565b60405163391434e360e21b81526001600160a01b03919091166004820152602481018590526044810191909152606490fd5b604051634b637e8f60e11b815260006004820152602490fd5b60018060a01b03811690600082819382526007602052604082206bffffffffffffffffffffffff60a01b81541690557f5e3cad45b1fe24159d1cb39788d82d0f69cc15770aa96fba1d3d1a73487355946060604051848152846020820152846040820152a36001600160a01b038116600090815260086020526040902054611ae9576001600160a01b0316600090815260066020526040902055600190565b5090565b90611af79061151c565b600b5460055460405163d15e005360e01b81526001600160a01b0391821660048201529160209183916024918391165afa8015610d8d57611b5f92611b43926000926110025750611530565b6001600160a01b03909216600090815260066020526040902090565b548060011c6b033b2e3c9fd0803ce800000080821904841183151761018757610fff9302010461156c565b6001600160a01b03811691908215611bfa57600254908282018092116108e1576002919091556001600160a01b0316600090815260208181526040822091927fddf252ad1be2c89b69c2b068fc378daa952ba7f163c4a11628f55a4df523b3ef92818154019055604051908152a3565b60405163ec442f0560e01b815260006004820152602490fd5b906001600160a01b03808316156103c1578116156103a857610359611c4a9260018060a01b03166000526001602052604060002090565b55565b916001600160a01b0380841692908315611a31578116938415611bfa576001600160a01b038116600090815260208190526040902054838110611d045761145a928492611cd37fddf252ad1be2c89b69c2b068fc378daa952ba7f163c4a11628f55a4df523b3ef96611cee94039160018060a01b03166000526000602052604060002090565b556001600160a01b0316600090815260208190526040902090565b8054820190556040519081529081906020820190565b60405163391434e360e21b81526001600160a01b03929092166004830152602482015260448101839052606490fdfea264697066735822122005f633534643e28e9f9530505d51d18982a9a3b450dfa81193099f8cb2396e0864736f6c63430008180033a26469706673582212200d77447c01aa7ab1b8a92e9c8a2d136cafa530d4046fe5b5277b9dbf4d27fd5a64736f6c63430008180033","linkReferences":{}},"methodIdentifiers":{"CONFIGURATOR_REVISION()":"7af635a6","activateReserve(address)":"b75d6f34","deactivateReserve(address)":"3e72a454","disableBorrowingOnReserve(address)":"a8dc0f45","disableReserveAsCollateral(address)":"e8ae2f5b","disableReserveStableBorrowRate(address)":"b8c0f745","enableBorrowingOnReserve(address,bool)":"eede87c1","enableReserveAsCollateral(address,uint256,uint256,uint256)":"a5bc826c","enableReserveStableBorrowRate(address)":"dae4c4e7","freezeReserve(address)":"7aca76eb","initReserve(address,uint8,address)":"071033e4","initReserveWithData(address,string,string,uint8,address)":"36805a62","initialize(address)":"c4d66de8","poolAddressesProvider()":"80e17d87","refreshLendingPoolCoreConfiguration()":"e12dcc6c","removeLastAddedReserve(address)":"d06e2ec1","setReserveBaseLTVasCollateral(address,uint256)":"d466016f","setReserveDecimals(address,uint256)":"66bbd928","setReserveInterestRateStrategyAddress(address,address)":"1d2118f9","setReserveLiquidationBonus(address,uint256)":"70fb84f4","setReserveLiquidationThreshold(address,uint256)":"3443a14b","unfreezeReserve(address)":"ef1f9373"},"id":18}