{
  "contractName": "AddressStorage",
  "abi": [
    {
      "inputs": [
        {
          "internalType": "bytes32",
          "name": "_key",
          "type": "bytes32"
        }
      ],
      "name": "getAddress",
      "outputs": [
        {
          "internalType": "address",
          "name": "",
          "type": "address"
        }
      ],
      "stateMutability": "view",
      "type": "function"
    }
  ],
  "bytecode": "0x60808060405234601457608c90816100198239f35b5f80fdfe60808060405260043610156011575f80fd5b5f3560e01c6321f8a721146023575f80fd5b3460525760203660031901126052576004355f90815260208181526040909120546001600160a01b0316825290f35b5f80fdfea26469706673582212207796a6cc3c715edda6b1251155697fb54bdcebb97020adfe5a3bfb3cb46d18c364736f6c63430008180033",
  "immutableReferences": {},
  "source": "pragma solidity ^0.8.24;\r\n\r\ncontract AddressStorage {\r\n    mapping(bytes32 => address) private addresses;\r\n\r\n    function getAddress(bytes32 _key) public view returns (address) {\r\n        return addresses[_key];\r\n    }\r\n\r\n    function _setAddress(bytes32 _key, address _value) internal {\r\n        addresses[_key] = _value;\r\n    }\r\n\r\n}\r\n",
  "sourcePath": "C:\\Proj\\fork-protocol\\contracts\\configuration\\AddressStorage.sol",
  "compiler": {
    "name": "solc",
    "version": "0.8.24+commit.e11b9ed9.Emscripten.clang"
  },
  "schemaVersion": "3.4.16",
  "updatedAt": "2024-02-11T21:41:58.588Z",
  "devdoc": {
    "kind": "dev",
    "methods": {},
    "version": 1
  },
  "userdoc": {
    "kind": "user",
    "methods": {},
    "version": 1
  }
}