{
  "contractName": "BaseAdminUpgradeabilityProxy",
  "abi": [
    {
      "anonymous": false,
      "inputs": [
        {
          "indexed": false,
          "internalType": "address",
          "name": "previousAdmin",
          "type": "address"
        },
        {
          "indexed": false,
          "internalType": "address",
          "name": "newAdmin",
          "type": "address"
        }
      ],
      "name": "AdminChanged",
      "type": "event"
    },
    {
      "anonymous": false,
      "inputs": [
        {
          "indexed": true,
          "internalType": "address",
          "name": "implementation",
          "type": "address"
        }
      ],
      "name": "Upgraded",
      "type": "event"
    },
    {
      "stateMutability": "payable",
      "type": "fallback"
    },
    {
      "inputs": [],
      "name": "admin",
      "outputs": [
        {
          "internalType": "address",
          "name": "",
          "type": "address"
        }
      ],
      "stateMutability": "nonpayable",
      "type": "function"
    },
    {
      "inputs": [],
      "name": "implementation",
      "outputs": [
        {
          "internalType": "address",
          "name": "",
          "type": "address"
        }
      ],
      "stateMutability": "nonpayable",
      "type": "function"
    },
    {
      "inputs": [
        {
          "internalType": "address",
          "name": "newAdmin",
          "type": "address"
        }
      ],
      "name": "changeAdmin",
      "outputs": [],
      "stateMutability": "nonpayable",
      "type": "function"
    },
    {
      "inputs": [
        {
          "internalType": "address",
          "name": "newImplementation",
          "type": "address"
        }
      ],
      "name": "upgradeTo",
      "outputs": [],
      "stateMutability": "nonpayable",
      "type": "function"
    },
    {
      "inputs": [
        {
          "internalType": "address",
          "name": "newImplementation",
          "type": "address"
        },
        {
          "internalType": "bytes",
          "name": "data",
          "type": "bytes"
        }
      ],
      "name": "upgradeToAndCall",
      "outputs": [],
      "stateMutability": "payable",
      "type": "function"
    }
  ],
  "bytecode": "0x60808060405234610016576104a5908161001b8239f35b5f80fdfe60806040526004361061034c575f3560e01c80633659cfe61461005b5780634f1ef286146100565780635c60da1b146100515780638f2839701461004c5763f851a4400361034c576102f1565b6101fe565b61019f565b6100be565b346100a45760203660031901126100a4576100746100a8565b5f8051602061045083398151915254336001600160a01b039091160361009f5761009d9061038a565b005b61034c565b5f80fd5b600435906001600160a01b03821682036100a457565b60403660031901126100a4576100d26100a8565b67ffffffffffffffff906024358281116100a457366023820112156100a4578060040135918383116100a45736602484840101116100a4575f8051602061045083398151915254336001600160a01b039091160361009f5760245f9392849361013a8461038a565b80604051938493018337810184815203915af43d15610195573d82811161019057601f199060405191603f81601f8401160116820193828510908511176101905761009d9360405281525f60203d92013e610345565b610331565b61009d9150610345565b346100a4575f3660031901126100a4575f80516020610450833981519152546001600160a01b0390339082160361009f577f360894a13ba1a3210667c828492db98dca3e2076cc3735a920a3ca505d382bbc5460405191168152602090f35b346100a45760203660031901126100a4576102176100a8565b5f8051602061045083398151915280546001600160a01b03929190339084160361009f5782821690811561028d5761009d937f7e644d79422f17c01e4894b5f4f588d331ebfa28653d42ae832dc59e38c9798f9260409254918351921682526020820152a15f8051602061045083398151915255565b60405162461bcd60e51b815260206004820152603660248201527f43616e6e6f74206368616e6765207468652061646d696e206f6620612070726f604482015275787920746f20746865207a65726f206164647265737360501b6064820152608490fd5b346100a4575f3660031901126100a4575f8051602061045083398151915280546001600160a01b0390339082160361009f57602091549060405191168152f35b634e487b7160e01b5f52604160045260245ffd5b156100a457565b5f807f360894a13ba1a3210667c828492db98dca3e2076cc3735a920a3ca505d382bbc54368280378136915af43d5f803e15610386573d5ff35b3d5ffd5b803b156103e4577f360894a13ba1a3210667c828492db98dca3e2076cc3735a920a3ca505d382bbc8190556001600160a01b03167fbc7cd75a20ee27fd9adebab32041f755214dbc6bffa90cc0225b39da2e5c2d3b5f80a2565b60405162461bcd60e51b815260206004820152603b60248201527f43616e6e6f742073657420612070726f787920696d706c656d656e746174696f60448201527f6e20746f2061206e6f6e2d636f6e7472616374206164647265737300000000006064820152608490fdfeb53127684a568b3173ae13b9f8a6016e243e63b6e8ee1178d6a717850b5d6103a264697066735822122001175b3a0a2435ce49c25eadd1872bc80490b81c52fc5253aaa42389bd0c34f964736f6c63430008180033",
  "immutableReferences": {},
  "source": "pragma solidity ^0.8.24;\r\n\r\nimport \"./UpgradeabilityProxy.sol\";\r\n\r\n/**\r\n * @title BaseAdminUpgradeabilityProxy\r\n * @dev This contract combines an upgradeability proxy with an authorization\r\n * mechanism for administrative tasks.\r\n * All external functions in this contract must be guarded by the\r\n * `ifAdmin` modifier. See ethereum/solidity#3864 for a Solidity\r\n * feature proposal that would enable this to be done automatically.\r\n */\r\ncontract BaseAdminUpgradeabilityProxy is BaseUpgradeabilityProxy {\r\n    /**\r\n   * @dev Emitted when the administration has been transferred.\r\n   * @param previousAdmin Address of the previous admin.\r\n   * @param newAdmin Address of the new admin.\r\n   */\r\n    event AdminChanged(address previousAdmin, address newAdmin);\r\n\r\n    /**\r\n   * @dev Storage slot with the admin of the contract.\r\n   * This is the keccak-256 hash of \"eip1967.proxy.admin\" subtracted by 1, and is\r\n   * validated in the constructor.\r\n   */\r\n\r\n    bytes32 internal constant ADMIN_SLOT = 0xb53127684a568b3173ae13b9f8a6016e243e63b6e8ee1178d6a717850b5d6103;\r\n\r\n    /**\r\n   * @dev Modifier to check whether the `msg.sender` is the admin.\r\n   * If it is, it will run the function. Otherwise, it will delegate the call\r\n   * to the implementation.\r\n   */\r\n    modifier ifAdmin() {\r\n        if (msg.sender == _admin()) {\r\n            _;\r\n        } else {\r\n            _fallback();\r\n        }\r\n    }\r\n\r\n    /**\r\n   * @return The address of the proxy admin.\r\n   */\r\n    function admin() external ifAdmin returns (address) {\r\n        return _admin();\r\n    }\r\n\r\n    /**\r\n   * @return The address of the implementation.\r\n   */\r\n    function implementation() external ifAdmin returns (address) {\r\n        return _implementation();\r\n    }\r\n\r\n    /**\r\n   * @dev Changes the admin of the proxy.\r\n   * Only the current admin can call this function.\r\n   * @param newAdmin Address to transfer proxy administration to.\r\n   */\r\n    function changeAdmin(address newAdmin) external ifAdmin {\r\n        require(newAdmin != address(0), \"Cannot change the admin of a proxy to the zero address\");\r\n        emit AdminChanged(_admin(), newAdmin);\r\n        _setAdmin(newAdmin);\r\n    }\r\n\r\n    /**\r\n   * @dev Upgrade the backing implementation of the proxy.\r\n   * Only the admin can call this function.\r\n   * @param newImplementation Address of the new implementation.\r\n   */\r\n    function upgradeTo(address newImplementation) external ifAdmin {\r\n        _upgradeTo(newImplementation);\r\n    }\r\n\r\n    /**\r\n   * @dev Upgrade the backing implementation of the proxy and call a function\r\n   * on the new implementation.\r\n   * This is useful to initialize the proxied contract.\r\n   * @param newImplementation Address of the new implementation.\r\n   * @param data Data to send as msg.data in the low level call.\r\n   * It should include the signature and the parameters of the function to be called, as described in\r\n   * https://solidity.readthedocs.io/en/v0.4.24/abi-spec.html#function-selector-and-argument-encoding.\r\n   */\r\n    function upgradeToAndCall(address newImplementation, bytes calldata data) external payable ifAdmin {\r\n        _upgradeTo(newImplementation);\r\n        (bool success, ) = newImplementation.delegatecall(data);\r\n        require(success);\r\n    }\r\n\r\n    /**\r\n   * @return adm The admin slot.\r\n   */\r\n    function _admin() internal view returns (address adm) {\r\n        bytes32 slot = ADMIN_SLOT;\r\n        //solium-disable-next-line\r\n        assembly {\r\n            adm := sload(slot)\r\n        }\r\n    }\r\n\r\n    /**\r\n   * @dev Sets the address of the proxy admin.\r\n   * @param newAdmin Address of the new proxy admin.\r\n   */\r\n    function _setAdmin(address newAdmin) internal {\r\n        bytes32 slot = ADMIN_SLOT;\r\n        //solium-disable-next-line\r\n        assembly {\r\n            sstore(slot, newAdmin)\r\n        }\r\n    }\r\n\r\n    /**\r\n   * @dev Only fall back when the sender is not the admin.\r\n   */\r\n    function _willFallback() internal view {\r\n        require(msg.sender != _admin(), \"Cannot call fallback function from the proxy admin\");\r\n    }\r\n}\r\n",
  "sourcePath": "C:\\Proj\\fork-protocol\\contracts\\libraries\\openzeppelin-upgradeability\\BaseAdminUpgradeabilityProxy.sol",
  "compiler": {
    "name": "solc",
    "version": "0.8.24+commit.e11b9ed9.Emscripten.clang"
  },
  "schemaVersion": "3.4.16",
  "updatedAt": "2024-02-11T21:41:58.776Z",
  "devdoc": {
    "details": "This contract combines an upgradeability proxy with an authorization mechanism for administrative tasks. All external functions in this contract must be guarded by the `ifAdmin` modifier. See ethereum/solidity#3864 for a Solidity feature proposal that would enable this to be done automatically.",
    "events": {
      "AdminChanged(address,address)": {
        "details": "Emitted when the administration has been transferred.",
        "params": {
          "newAdmin": "Address of the new admin.",
          "previousAdmin": "Address of the previous admin."
        }
      },
      "Upgraded(address)": {
        "details": "Emitted when the implementation is upgraded.",
        "params": {
          "implementation": "Address of the new implementation."
        }
      }
    },
    "kind": "dev",
    "methods": {
      "admin()": {
        "returns": {
          "_0": "The address of the proxy admin."
        }
      },
      "changeAdmin(address)": {
        "details": "Changes the admin of the proxy. Only the current admin can call this function.",
        "params": {
          "newAdmin": "Address to transfer proxy administration to."
        }
      },
      "implementation()": {
        "returns": {
          "_0": "The address of the implementation."
        }
      },
      "upgradeTo(address)": {
        "details": "Upgrade the backing implementation of the proxy. Only the admin can call this function.",
        "params": {
          "newImplementation": "Address of the new implementation."
        }
      },
      "upgradeToAndCall(address,bytes)": {
        "details": "Upgrade the backing implementation of the proxy and call a function on the new implementation. This is useful to initialize the proxied contract.",
        "params": {
          "data": "Data to send as msg.data in the low level call. It should include the signature and the parameters of the function to be called, as described in https://solidity.readthedocs.io/en/v0.4.24/abi-spec.html#function-selector-and-argument-encoding.",
          "newImplementation": "Address of the new implementation."
        }
      }
    },
    "stateVariables": {
      "ADMIN_SLOT": {
        "details": "Storage slot with the admin of the contract. This is the keccak-256 hash of \"eip1967.proxy.admin\" subtracted by 1, and is validated in the constructor."
      }
    },
    "title": "BaseAdminUpgradeabilityProxy",
    "version": 1
  },
  "userdoc": {
    "kind": "user",
    "methods": {},
    "version": 1
  }
}