{
  "contractName": "ChainlinkProxyPriceProvider",
  "abi": [
    {
      "inputs": [
        {
          "internalType": "address[]",
          "name": "_assets",
          "type": "address[]"
        },
        {
          "internalType": "address[]",
          "name": "_sources",
          "type": "address[]"
        },
        {
          "internalType": "address",
          "name": "_fallbackOracle",
          "type": "address"
        }
      ],
      "stateMutability": "nonpayable",
      "type": "constructor"
    },
    {
      "inputs": [
        {
          "internalType": "address",
          "name": "owner",
          "type": "address"
        }
      ],
      "name": "OwnableInvalidOwner",
      "type": "error"
    },
    {
      "inputs": [
        {
          "internalType": "address",
          "name": "account",
          "type": "address"
        }
      ],
      "name": "OwnableUnauthorizedAccount",
      "type": "error"
    },
    {
      "anonymous": false,
      "inputs": [
        {
          "indexed": true,
          "internalType": "address",
          "name": "asset",
          "type": "address"
        },
        {
          "indexed": true,
          "internalType": "address",
          "name": "source",
          "type": "address"
        }
      ],
      "name": "AssetSourceUpdated",
      "type": "event"
    },
    {
      "anonymous": false,
      "inputs": [
        {
          "indexed": true,
          "internalType": "address",
          "name": "fallbackOracle",
          "type": "address"
        }
      ],
      "name": "FallbackOracleUpdated",
      "type": "event"
    },
    {
      "anonymous": false,
      "inputs": [
        {
          "indexed": true,
          "internalType": "address",
          "name": "previousOwner",
          "type": "address"
        },
        {
          "indexed": true,
          "internalType": "address",
          "name": "newOwner",
          "type": "address"
        }
      ],
      "name": "OwnershipTransferred",
      "type": "event"
    },
    {
      "inputs": [],
      "name": "owner",
      "outputs": [
        {
          "internalType": "address",
          "name": "",
          "type": "address"
        }
      ],
      "stateMutability": "view",
      "type": "function"
    },
    {
      "inputs": [],
      "name": "renounceOwnership",
      "outputs": [],
      "stateMutability": "nonpayable",
      "type": "function"
    },
    {
      "inputs": [
        {
          "internalType": "address",
          "name": "newOwner",
          "type": "address"
        }
      ],
      "name": "transferOwnership",
      "outputs": [],
      "stateMutability": "nonpayable",
      "type": "function"
    },
    {
      "inputs": [
        {
          "internalType": "address[]",
          "name": "_assets",
          "type": "address[]"
        },
        {
          "internalType": "address[]",
          "name": "_sources",
          "type": "address[]"
        }
      ],
      "name": "setAssetSources",
      "outputs": [],
      "stateMutability": "nonpayable",
      "type": "function"
    },
    {
      "inputs": [
        {
          "internalType": "address",
          "name": "_fallbackOracle",
          "type": "address"
        }
      ],
      "name": "setFallbackOracle",
      "outputs": [],
      "stateMutability": "nonpayable",
      "type": "function"
    },
    {
      "inputs": [
        {
          "internalType": "address",
          "name": "_asset",
          "type": "address"
        }
      ],
      "name": "getAssetPrice",
      "outputs": [
        {
          "internalType": "uint256",
          "name": "",
          "type": "uint256"
        }
      ],
      "stateMutability": "view",
      "type": "function"
    },
    {
      "inputs": [
        {
          "internalType": "address[]",
          "name": "_assets",
          "type": "address[]"
        }
      ],
      "name": "getAssetsPrices",
      "outputs": [
        {
          "internalType": "uint256[]",
          "name": "",
          "type": "uint256[]"
        }
      ],
      "stateMutability": "view",
      "type": "function"
    },
    {
      "inputs": [
        {
          "internalType": "address",
          "name": "_asset",
          "type": "address"
        }
      ],
      "name": "getSourceOfAsset",
      "outputs": [
        {
          "internalType": "address",
          "name": "",
          "type": "address"
        }
      ],
      "stateMutability": "view",
      "type": "function"
    },
    {
      "inputs": [],
      "name": "getFallbackOracle",
      "outputs": [
        {
          "internalType": "address",
          "name": "",
          "type": "address"
        }
      ],
      "stateMutability": "view",
      "type": "function"
    }
  ],
  "bytecode": "0x60406080815234620001fb5762000a7d803803806200001e81620001ff565b928339810190606081830312620001fb5780516001600160401b0390818111620001fb5783620000509184016200024e565b906020936020840151918211620001fb576200007486916200007c9386016200024e565b930162000239565b903315620001e4575f8054336001600160a01b03198083168217845588516001600160a01b039691949093879391908416907f8be0079c531659141344cd1fd0a4f28419497f9722a3daafe3b4186f6b6457e09080a316808360025416176002557fce7a780d33665b1ea097af5f155e3821b809ecbaa839d3b33aa83ba28168cefb5f80a28251855103620001a257505f5b8251811015620001935780846200012860019388620002c1565b511685620001378387620002c1565b51165f52828852885f20908482541617905584620001568286620002c1565b511685620001658389620002c1565b5116907f22c5b7b2d8561d39f7f210b6b326a1aa69f15311163082308ac4877db6339dc15f80a3016200010e565b86516107929081620002eb8239f35b62461bcd60e51b815260206004820152601a60248201527f494e434f4e53495354454e545f504152414d535f4c454e4754480000000000006044820152606490fd5b8451631e4fbdf760e01b81525f6004820152602490fd5b5f80fd5b6040519190601f01601f191682016001600160401b038111838210176200022557604052565b634e487b7160e01b5f52604160045260245ffd5b51906001600160a01b0382168203620001fb57565b81601f82011215620001fb578051916020916001600160401b03841162000225578360051b90838062000283818501620001ff565b809781520192820101928311620001fb578301905b828210620002a7575050505090565b838091620002b58462000239565b81520191019062000298565b8051821015620002d65760209160051b010190565b634e487b7160e01b5f52603260045260245ffdfe604060808152600480361015610013575f80fd5b5f3560e01c8063170aee73146104505780636210308c14610428578063715018a6146103d15780638da5cb5b146103aa57806392bf2be0146103715780639d23d9f214610289578063abfd531014610139578063b3596f071461010d5763f2fde38b1461007e575f80fd5b34610109576020366003190112610109576100976104b6565b906100a0610731565b6001600160a01b039182169283156100f35750505f54826bffffffffffffffffffffffff60a01b8216175f55167f8be0079c531659141344cd1fd0a4f28419497f9722a3daafe3b4186f6b6457e05f80a3005b905f6024925191631e4fbdf760e01b8352820152fd5b5f80fd5b82346101095760203660031901126101095760209061013261012d6104b6565b6105d1565b9051908152f35b503461010957816003193601126101095767ffffffffffffffff9080358281116101095761016a90369083016104cc565b6024939193359182116101095761019c61018a6101a493369086016104cc565b959092610195610731565b3691610573565b933691610573565b90825182510361024657505f5b8251811015610244576001906001600160a01b03806101d0838661054b565b5116816101dd848861054b565b51165f5283602052865f20906bffffffffffffffffffffffff60a01b8254161790558061020a838761054b565b511690610217838661054b565b5116907f22c5b7b2d8561d39f7f210b6b326a1aa69f15311163082308ac4877db6339dc15f80a3016101b1565b005b606490602085519162461bcd60e51b8352820152601a60248201527f494e434f4e53495354454e545f504152414d535f4c454e4754480000000000006044820152fd5b503461010957602090816003193601126101095780359067ffffffffffffffff8211610109576102bd9084923691016104cc565b926102c784610533565b936102d4845195866104fd565b8085526102e081610533565b8583019390601f19013685375f5b8281106103345750505082519384938285019183865251809252840192915f5b82811061031d57505050500390f35b83518552869550938101939281019260010161030e565b94959394600581901b820135906001600160a01b03821682036101095761035c6001926105d1565b610366828861054b565b5201959493956102ee565b8234610109576020366003190112610109576020906001600160a01b03806103976104b6565b165f5260018352815f2054169051908152f35b8234610109575f366003190112610109575f5490516001600160a01b039091168152602090f35b34610109575f366003190112610109576103e9610731565b5f80546001600160a01b0319811682556001600160a01b03167f8be0079c531659141344cd1fd0a4f28419497f9722a3daafe3b4186f6b6457e08280a3005b8234610109575f3660031901126101095760025490516001600160a01b039091168152602090f35b34610109576020366003190112610109576104696104b6565b610471610731565b600280546001600160a01b0319166001600160a01b039290921691821790557fce7a780d33665b1ea097af5f155e3821b809ecbaa839d3b33aa83ba28168cefb5f80a2005b600435906001600160a01b038216820361010957565b9181601f840112156101095782359167ffffffffffffffff8311610109576020808501948460051b01011161010957565b90601f8019910116810190811067ffffffffffffffff82111761051f57604052565b634e487b7160e01b5f52604160045260245ffd5b67ffffffffffffffff811161051f5760051b60200190565b805182101561055f5760209160051b010190565b634e487b7160e01b5f52603260045260245ffd5b929161057e82610533565b9161058c60405193846104fd565b829481845260208094019160051b810192831161010957905b8282106105b25750505050565b81356001600160a01b03811681036101095781529083019083016105a5565b6001600160a01b039081165f818152600160209081526040918290205484169391929173eeeeeeeeeeeeeeeeeeeeeeeeeeeeeeeeeeeeeeee8303610620575050505050670de0b6b3a764000090565b8461068e5781929394506002541692602485518095819363b3596f0760e01b835260048301525afa92831561068557505f9261065b57505090565b90809250813d831161067e575b61067281836104fd565b81010312610109575190565b503d610668565b513d5f823e3d90fd5b816004958551968780926350d25bcd60e01b82525afa948515610727575f956106f8575b505f8513156106c2575050505090565b81929394506002541692602485518095819363b3596f0760e01b835260048301525afa92831561068557505f9261065b57505090565b9094508181813d8311610720575b61071081836104fd565b810103126101095751935f6106b2565b503d610706565b84513d5f823e3d90fd5b5f546001600160a01b0316330361074457565b60405163118cdaa760e01b8152336004820152602490fdfea2646970667358221220826d425adde7f00c6abfbf2519c5d92f270e846804e9b5d03adf51ebd655d66864736f6c63430008180033",
  "immutableReferences": {},
  "source": "pragma solidity ^0.8.24;\r\n\r\nimport \"../../lib/openzeppelin-contracts/contracts/access/Ownable.sol\";\r\n\r\nimport \"../interfaces/IPriceOracleGetter.sol\";\r\nimport \"../interfaces/IChainlinkAggregator.sol\";\r\nimport \"../libraries/EthAddressLib.sol\";\r\n\r\n/// @title ChainlinkProxyPriceProvider\r\n/// @author Aave\r\n/// @notice Proxy smart contract to get the price of an asset from a price source, with Chainlink Aggregator\r\n///         smart contracts as primary option\r\n/// - If the returned price by a Chainlink aggregator is <= 0, the call is forwarded to a fallbackOracle\r\n/// - Owned by the Aave governance system, allowed to add sources for assets, replace them\r\n///   and change the fallbackOracle\r\ncontract ChainlinkProxyPriceProvider is IPriceOracleGetter, Ownable {\r\n\r\n    event AssetSourceUpdated(address indexed asset, address indexed source);\r\n    event FallbackOracleUpdated(address indexed fallbackOracle);\r\n\r\n    mapping(address => IChainlinkAggregator) private assetsSources;\r\n    IPriceOracleGetter private fallbackOracle;\r\n\r\n    /// @notice Constructor\r\n    /// @param _assets The addresses of the assets\r\n    /// @param _sources The address of the source of each asset\r\n    /// @param _fallbackOracle The address of the fallback oracle to use if the data of an\r\n    ///        aggregator is not consistent\r\n    constructor(address[] memory _assets, address[] memory _sources, address _fallbackOracle) Ownable(msg.sender){\r\n        internalSetFallbackOracle(_fallbackOracle);\r\n        internalSetAssetsSources(_assets, _sources);\r\n    }\r\n\r\n    /// @notice External function called by the Aave governance to set or replace sources of assets\r\n    /// @param _assets The addresses of the assets\r\n    /// @param _sources The address of the source of each asset\r\n    function setAssetSources(address[] calldata _assets, address[] calldata _sources) external onlyOwner {\r\n        internalSetAssetsSources(_assets, _sources);\r\n    }\r\n\r\n    /// @notice Sets the fallbackOracle\r\n    /// - Callable only by the Aave governance\r\n    /// @param _fallbackOracle The address of the fallbackOracle\r\n    function setFallbackOracle(address _fallbackOracle) external onlyOwner {\r\n        internalSetFallbackOracle(_fallbackOracle);\r\n    }\r\n\r\n    /// @notice Internal function to set the sources for each asset\r\n    /// @param _assets The addresses of the assets\r\n    /// @param _sources The address of the source of each asset\r\n    function internalSetAssetsSources(address[] memory _assets, address[] memory _sources) internal {\r\n        require(_assets.length == _sources.length, \"INCONSISTENT_PARAMS_LENGTH\");\r\n        for (uint256 i = 0; i < _assets.length; i++) {\r\n            assetsSources[_assets[i]] = IChainlinkAggregator(_sources[i]);\r\n            emit AssetSourceUpdated(_assets[i], _sources[i]);\r\n        }\r\n    }\r\n\r\n    /// @notice Internal function to set the fallbackOracle\r\n    /// @param _fallbackOracle The address of the fallbackOracle\r\n    function internalSetFallbackOracle(address _fallbackOracle) internal {\r\n        fallbackOracle = IPriceOracleGetter(_fallbackOracle);\r\n        emit FallbackOracleUpdated(_fallbackOracle);\r\n    }\r\n\r\n    /// @notice Gets an asset price by address\r\n    /// @param _asset The asset address\r\n    function getAssetPrice(address _asset) public view returns(uint256) {\r\n        IChainlinkAggregator source = assetsSources[_asset];\r\n        if (_asset == EthAddressLib.ethAddress()) {\r\n            return 1 ether;\r\n        } else {\r\n            // If there is no registered source for the asset, call the fallbackOracle\r\n            if (address(source) == address(0)) {\r\n                return IPriceOracleGetter(fallbackOracle).getAssetPrice(_asset);\r\n            } else {\r\n                int256 _price = IChainlinkAggregator(source).latestAnswer();\r\n                if (_price > 0) {\r\n                    return uint256(_price);\r\n                } else {\r\n                    return IPriceOracleGetter(fallbackOracle).getAssetPrice(_asset);\r\n                }\r\n            }\r\n        }\r\n    }\r\n\r\n    /// @notice Gets a list of prices from a list of assets addresses\r\n    /// @param _assets The list of assets addresses\r\n    function getAssetsPrices(address[] calldata _assets) external view returns(uint256[] memory) {\r\n        uint256[] memory prices = new uint256[](_assets.length);\r\n        for (uint256 i = 0; i < _assets.length; i++) {\r\n            prices[i] = getAssetPrice(_assets[i]);\r\n        }\r\n        return prices;\r\n    }\r\n\r\n    /// @notice Gets the address of the source for an asset address\r\n    /// @param _asset The address of the asset\r\n    /// @return address The address of the source\r\n    function getSourceOfAsset(address _asset) external view returns(address) {\r\n        return address(assetsSources[_asset]);\r\n    }\r\n\r\n    /// @notice Gets the address of the fallback oracle\r\n    /// @return address The addres of the fallback oracle\r\n    function getFallbackOracle() external view returns(address) {\r\n        return address(fallbackOracle);\r\n    }\r\n}",
  "sourcePath": "C:\\Proj\\fork-protocol\\contracts\\misc\\ChainlinkProxyPriceProvider.sol",
  "compiler": {
    "name": "solc",
    "version": "0.8.24+commit.e11b9ed9.Emscripten.clang"
  },
  "schemaVersion": "3.4.16",
  "updatedAt": "2024-02-11T21:41:58.801Z",
  "devdoc": {
    "author": "Aave",
    "errors": {
      "OwnableInvalidOwner(address)": [
        {
          "details": "The owner is not a valid owner account. (eg. `address(0)`)"
        }
      ],
      "OwnableUnauthorizedAccount(address)": [
        {
          "details": "The caller account is not authorized to perform an operation."
        }
      ]
    },
    "kind": "dev",
    "methods": {
      "constructor": {
        "params": {
          "_assets": "The addresses of the assets",
          "_fallbackOracle": "The address of the fallback oracle to use if the data of an        aggregator is not consistent",
          "_sources": "The address of the source of each asset"
        }
      },
      "getAssetPrice(address)": {
        "params": {
          "_asset": "The asset address"
        }
      },
      "getAssetsPrices(address[])": {
        "params": {
          "_assets": "The list of assets addresses"
        }
      },
      "getFallbackOracle()": {
        "returns": {
          "_0": "address The addres of the fallback oracle"
        }
      },
      "getSourceOfAsset(address)": {
        "params": {
          "_asset": "The address of the asset"
        },
        "returns": {
          "_0": "address The address of the source"
        }
      },
      "owner()": {
        "details": "Returns the address of the current owner."
      },
      "renounceOwnership()": {
        "details": "Leaves the contract without owner. It will not be possible to call `onlyOwner` functions. Can only be called by the current owner. NOTE: Renouncing ownership will leave the contract without an owner, thereby disabling any functionality that is only available to the owner."
      },
      "setAssetSources(address[],address[])": {
        "params": {
          "_assets": "The addresses of the assets",
          "_sources": "The address of the source of each asset"
        }
      },
      "setFallbackOracle(address)": {
        "params": {
          "_fallbackOracle": "The address of the fallbackOracle"
        }
      },
      "transferOwnership(address)": {
        "details": "Transfers ownership of the contract to a new account (`newOwner`). Can only be called by the current owner."
      }
    },
    "title": "ChainlinkProxyPriceProvider",
    "version": 1
  },
  "userdoc": {
    "kind": "user",
    "methods": {
      "constructor": {
        "notice": "Constructor"
      },
      "getAssetPrice(address)": {
        "notice": "Gets an asset price by address"
      },
      "getAssetsPrices(address[])": {
        "notice": "Gets a list of prices from a list of assets addresses"
      },
      "getFallbackOracle()": {
        "notice": "Gets the address of the fallback oracle"
      },
      "getSourceOfAsset(address)": {
        "notice": "Gets the address of the source for an asset address"
      },
      "setAssetSources(address[],address[])": {
        "notice": "External function called by the Aave governance to set or replace sources of assets"
      },
      "setFallbackOracle(address)": {
        "notice": "Sets the fallbackOracle - Callable only by the Aave governance"
      }
    },
    "notice": "Proxy smart contract to get the price of an asset from a price source, with Chainlink Aggregator         smart contracts as primary option - If the returned price by a Chainlink aggregator is <= 0, the call is forwarded to a fallbackOracle - Owned by the Aave governance system, allowed to add sources for assets, replace them   and change the fallbackOracle",
    "version": 1
  }
}