{
  "contractName": "DefaultReserveInterestRateStrategy",
  "abi": [
    {
      "inputs": [
        {
          "internalType": "address",
          "name": "_reserve",
          "type": "address"
        },
        {
          "internalType": "contract LendingPoolAddressesProvider",
          "name": "_provider",
          "type": "address"
        },
        {
          "internalType": "uint256",
          "name": "_baseVariableBorrowRate",
          "type": "uint256"
        },
        {
          "internalType": "uint256",
          "name": "_variableRateSlope1",
          "type": "uint256"
        },
        {
          "internalType": "uint256",
          "name": "_variableRateSlope2",
          "type": "uint256"
        },
        {
          "internalType": "uint256",
          "name": "_stableRateSlope1",
          "type": "uint256"
        },
        {
          "internalType": "uint256",
          "name": "_stableRateSlope2",
          "type": "uint256"
        }
      ],
      "stateMutability": "nonpayable",
      "type": "constructor"
    },
    {
      "inputs": [],
      "name": "EXCESS_UTILIZATION_RATE",
      "outputs": [
        {
          "internalType": "uint256",
          "name": "",
          "type": "uint256"
        }
      ],
      "stateMutability": "view",
      "type": "function"
    },
    {
      "inputs": [],
      "name": "OPTIMAL_UTILIZATION_RATE",
      "outputs": [
        {
          "internalType": "uint256",
          "name": "",
          "type": "uint256"
        }
      ],
      "stateMutability": "view",
      "type": "function"
    },
    {
      "inputs": [],
      "name": "addressesProvider",
      "outputs": [
        {
          "internalType": "contract LendingPoolAddressesProvider",
          "name": "",
          "type": "address"
        }
      ],
      "stateMutability": "view",
      "type": "function"
    },
    {
      "inputs": [],
      "name": "baseVariableBorrowRate",
      "outputs": [
        {
          "internalType": "uint256",
          "name": "",
          "type": "uint256"
        }
      ],
      "stateMutability": "view",
      "type": "function"
    },
    {
      "inputs": [],
      "name": "reserve",
      "outputs": [
        {
          "internalType": "address",
          "name": "",
          "type": "address"
        }
      ],
      "stateMutability": "view",
      "type": "function"
    },
    {
      "inputs": [],
      "name": "stableRateSlope1",
      "outputs": [
        {
          "internalType": "uint256",
          "name": "",
          "type": "uint256"
        }
      ],
      "stateMutability": "view",
      "type": "function"
    },
    {
      "inputs": [],
      "name": "stableRateSlope2",
      "outputs": [
        {
          "internalType": "uint256",
          "name": "",
          "type": "uint256"
        }
      ],
      "stateMutability": "view",
      "type": "function"
    },
    {
      "inputs": [],
      "name": "variableRateSlope1",
      "outputs": [
        {
          "internalType": "uint256",
          "name": "",
          "type": "uint256"
        }
      ],
      "stateMutability": "view",
      "type": "function"
    },
    {
      "inputs": [],
      "name": "variableRateSlope2",
      "outputs": [
        {
          "internalType": "uint256",
          "name": "",
          "type": "uint256"
        }
      ],
      "stateMutability": "view",
      "type": "function"
    },
    {
      "inputs": [],
      "name": "getBaseVariableBorrowRate",
      "outputs": [
        {
          "internalType": "uint256",
          "name": "",
          "type": "uint256"
        }
      ],
      "stateMutability": "view",
      "type": "function"
    },
    {
      "inputs": [],
      "name": "getVariableRateSlope1",
      "outputs": [
        {
          "internalType": "uint256",
          "name": "",
          "type": "uint256"
        }
      ],
      "stateMutability": "view",
      "type": "function"
    },
    {
      "inputs": [],
      "name": "getVariableRateSlope2",
      "outputs": [
        {
          "internalType": "uint256",
          "name": "",
          "type": "uint256"
        }
      ],
      "stateMutability": "view",
      "type": "function"
    },
    {
      "inputs": [],
      "name": "getStableRateSlope1",
      "outputs": [
        {
          "internalType": "uint256",
          "name": "",
          "type": "uint256"
        }
      ],
      "stateMutability": "view",
      "type": "function"
    },
    {
      "inputs": [],
      "name": "getStableRateSlope2",
      "outputs": [
        {
          "internalType": "uint256",
          "name": "",
          "type": "uint256"
        }
      ],
      "stateMutability": "view",
      "type": "function"
    },
    {
      "inputs": [
        {
          "internalType": "address",
          "name": "_reserve",
          "type": "address"
        },
        {
          "internalType": "uint256",
          "name": "_availableLiquidity",
          "type": "uint256"
        },
        {
          "internalType": "uint256",
          "name": "_totalBorrowsStable",
          "type": "uint256"
        },
        {
          "internalType": "uint256",
          "name": "_totalBorrowsVariable",
          "type": "uint256"
        },
        {
          "internalType": "uint256",
          "name": "_averageStableBorrowRate",
          "type": "uint256"
        }
      ],
      "name": "calculateInterestRates",
      "outputs": [
        {
          "internalType": "uint256",
          "name": "currentLiquidityRate",
          "type": "uint256"
        },
        {
          "internalType": "uint256",
          "name": "currentStableBorrowRate",
          "type": "uint256"
        },
        {
          "internalType": "uint256",
          "name": "currentVariableBorrowRate",
          "type": "uint256"
        }
      ],
      "stateMutability": "view",
      "type": "function"
    }
  ],
  "bytecode": "0x6080346100b657601f61076338819003918201601f19168301916001600160401b038311848410176100ba5780849260e0946040528339810103126100b65780516001600160a01b038082169290918390036100b65760208101519182168092036100b657604081015190606081015160808201519060c060a08401519301519360018060a01b031995865f5416175f55600155600255600355600455600555600654161760065560405161069490816100cf8239f35b5f80fd5b634e487b7160e01b5f52604160045260245ffdfe60806040526004361015610011575f80fd5b5f3560e01c80630b3429a2146100f05780630bdf953f146100c357806314e32da4146100cd57806317319873146100eb57806334762ca5146100d757806357e37af0146100e657806365614f81146100be5780637b832f58146100e1578063a15f30ac146100dc578063b2589544146100d7578063c72c4d10146100d2578063ccab01a3146100cd578063cd3293de146100c8578063d5cd7391146100c35763f4202409146100be575f80fd5b6103d2565b610111565b61043c565b61012e565b610415565b610170565b6103ef565b6100f0565b61019e565b61014b565b3461010d575f36600319011261010d576020600254604051908152f35b5f80fd5b3461010d575f36600319011261010d576020600454604051908152f35b3461010d575f36600319011261010d576020600554604051908152f35b3461010d575f36600319011261010d5760206040516aa56fa5b99019a5c80000008152f35b3461010d575f36600319011261010d576020600154604051908152f35b6001600160a01b0381160361010d57565b3461010d5760a036600319011261010d576004356101bb8161018d565b60243560443591606435916101d08385610478565b8015806103ca575b156103b15750505f905b5f546001600160a01b0316906040518092631b0c55dd60e11b825281600460209586935afa91821561037f576102499284925f91610384575b5060405163bb85c0bb60e01b81526001600160a01b0390921660048301529092839190829081906024820190565b03916001600160a01b03165afa91821561037f575f92610352575b5050806b0295be96e64066972000000083115f1461030a5750816102bb6102b2956102dc6102c06102e8956102bb6102a66102a16103069a6104f2565b610556565b9a8b9260045490610478565b60055490610478565b6105c4565b976102bb6102d360015460025490610478565b60035490610478565b80965b60843592610600565b91604051938493846040919493926060820195825260208201520152565b0390f35b6102e89150916102bb6103356103069461032f6004546103298661050c565b906105c4565b90610478565b9561034b6103428461050c565b600254906105c4565b80966102df565b6103719250803d10610378575b610369818361048a565b8101906104e3565b5f80610264565b503d61035f565b6104d8565b6103a49150833d85116103aa575b61039c818361048a565b8101906104c0565b5f61021b565b503d610392565b6103be816103c493610478565b9061059e565b906101e2565b5081156101d8565b3461010d575f36600319011261010d576020600354604051908152f35b3461010d575f36600319011261010d5760206040516b0295be96e6406697200000008152f35b3461010d575f36600319011261010d575f546040516001600160a01b039091168152602090f35b3461010d575f36600319011261010d576006546040516001600160a01b039091168152602090f35b634e487b7160e01b5f52601160045260245ffd5b9190820180921161048557565b610464565b90601f8019910116810190811067ffffffffffffffff8211176104ac57604052565b634e487b7160e01b5f52604160045260245ffd5b9081602091031261010d57516104d58161018d565b90565b6040513d5f823e3d90fd5b9081602091031261010d575190565b6b0295be96e64066971fffffff1981019190821161048557565b744f3a68dbc8f03f243baf513267aa9a3ee524f8e028811161010d576b014adf4b7320334b900000006b033b2e3c9fd0803ce80000006b0295be96e6406697200000009202010490565b744f3a68dbc8f03f243baf513267aa9a3ee524f8e028811161010d576a52b7d2dcc80cd2e40000006b033b2e3c9fd0803ce80000006aa56fa5b99019a5c80000009202010490565b8160011c906b033b2e3c9fd0803ce80000009081831904811184151761010d5702010490565b816b019d971e4fe8401e7400000019048111158215171561010d576b033b2e3c9fd0803ce800000091026b019d971e4fe8401e74000000010490565b919281830193848411610485578415610641576106266102bb916102bb61062c9561064a565b9361064a565b8101809111610485576103be6104d59261064a565b50505050505f90565b90633b9aca00918281029283040361010d5756fea2646970667358221220ff732303ef9b4d2132539544107784dd22f38ee2974eda380f58672d16adbca564736f6c63430008180033",
  "immutableReferences": {},
  "source": "pragma solidity ^0.8.24;\r\n\r\nimport \"../interfaces/IReserveInterestRateStrategy.sol\";\r\nimport \"../libraries/WadRayMath.sol\";\r\nimport \"../configuration/LendingPoolAddressesProvider.sol\";\r\nimport \"./LendingPoolCore.sol\";\r\nimport \"../interfaces/ILendingRateOracle.sol\";\r\n\r\n/**\r\n* @title DefaultReserveInterestRateStrategy contract\r\n* @notice implements the calculation of the interest rates depending on the reserve parameters.\r\n* @dev if there is need to update the calculation of the interest rates for a specific reserve,\r\n* a new version of this contract will be deployed.\r\n* @author Aave\r\n**/\r\ncontract DefaultReserveInterestRateStrategy is IReserveInterestRateStrategy {\r\n    using WadRayMath for uint256;\r\n\r\n   /**\r\n    * @dev this constant represents the utilization rate at which the pool aims to obtain most competitive borrow rates\r\n    * expressed in ray\r\n    **/\r\n    uint256 public constant OPTIMAL_UTILIZATION_RATE = 0.8 * 1e27;\r\n\r\n   /**\r\n    * @dev this constant represents the excess utilization rate above the optimal. It's always equal to\r\n    * 1-optimal utilization rate. Added as a constant here for gas optimizations\r\n    * expressed in ray\r\n    **/\r\n\r\n    uint256 public constant EXCESS_UTILIZATION_RATE = 0.2 * 1e27;\r\n\r\n    LendingPoolAddressesProvider public addressesProvider;\r\n\r\n\r\n    //base variable borrow rate when Utilization rate = 0. Expressed in ray\r\n    uint256 public baseVariableBorrowRate;\r\n\r\n    //slope of the variable interest curve when utilization rate > 0 and <= OPTIMAL_UTILIZATION_RATE. Expressed in ray\r\n    uint256 public variableRateSlope1;\r\n\r\n    //slope of the variable interest curve when utilization rate > OPTIMAL_UTILIZATION_RATE. Expressed in ray\r\n    uint256 public variableRateSlope2;\r\n\r\n    //slope of the stable interest curve when utilization rate > 0 and <= OPTIMAL_UTILIZATION_RATE. Expressed in ray\r\n    uint256 public stableRateSlope1;\r\n\r\n    //slope of the stable interest curve when utilization rate > OPTIMAL_UTILIZATION_RATE. Expressed in ray\r\n    uint256 public stableRateSlope2;\r\n    address public reserve;\r\n\r\n    constructor(\r\n        address _reserve,\r\n        LendingPoolAddressesProvider _provider,\r\n        uint256 _baseVariableBorrowRate,\r\n        uint256 _variableRateSlope1,\r\n        uint256 _variableRateSlope2,\r\n        uint256 _stableRateSlope1,\r\n        uint256 _stableRateSlope2\r\n    ) {\r\n        addressesProvider = _provider;\r\n        baseVariableBorrowRate = _baseVariableBorrowRate;\r\n        variableRateSlope1 = _variableRateSlope1;\r\n        variableRateSlope2 = _variableRateSlope2;\r\n        stableRateSlope1 = _stableRateSlope1;\r\n        stableRateSlope2 = _stableRateSlope2;\r\n        reserve = _reserve;\r\n    }\r\n\r\n    /**\r\n    @dev accessors\r\n     */\r\n\r\n    function getBaseVariableBorrowRate() external view returns (uint256) {\r\n        return baseVariableBorrowRate;\r\n    }\r\n\r\n    function getVariableRateSlope1() external view returns (uint256) {\r\n        return variableRateSlope1;\r\n    }\r\n\r\n    function getVariableRateSlope2() external view returns (uint256) {\r\n        return variableRateSlope2;\r\n    }\r\n\r\n    function getStableRateSlope1() external view returns (uint256) {\r\n        return stableRateSlope1;\r\n    }\r\n\r\n    function getStableRateSlope2() external view returns (uint256) {\r\n        return stableRateSlope2;\r\n    }\r\n\r\n    /**\r\n    * @dev calculates the interest rates depending on the available liquidity and the total borrowed.\r\n    * @param _reserve the address of the reserve\r\n    * @param _availableLiquidity the liquidity available in the reserve\r\n    * @param _totalBorrowsStable the total borrowed from the reserve a stable rate\r\n    * @param _totalBorrowsVariable the total borrowed from the reserve at a variable rate\r\n    * @param _averageStableBorrowRate the weighted average of all the stable rate borrows\r\n    * @return currentLiquidityRate the liquidity rate,\r\n    * @return currentStableBorrowRate stable borrow rate and \r\n    * @return currentVariableBorrowRate variable borrow rate calculated from the input parameters\r\n    **/\r\n    function calculateInterestRates(\r\n        address _reserve,\r\n        uint256 _availableLiquidity,\r\n        uint256 _totalBorrowsStable,\r\n        uint256 _totalBorrowsVariable,\r\n        uint256 _averageStableBorrowRate\r\n    )\r\n        external\r\n        view\r\n        returns (\r\n            uint256 currentLiquidityRate,\r\n            uint256 currentStableBorrowRate,\r\n            uint256 currentVariableBorrowRate\r\n        )\r\n    {\r\n        uint256 totalBorrows = _totalBorrowsStable + _totalBorrowsVariable;\r\n\r\n        uint256 utilizationRate = (totalBorrows == 0 && _availableLiquidity == 0)\r\n            ? 0\r\n            : totalBorrows.rayDiv(_availableLiquidity + totalBorrows);\r\n\r\n        currentStableBorrowRate = ILendingRateOracle(addressesProvider.getLendingRateOracle())\r\n            .getMarketBorrowRate(_reserve);\r\n\r\n        if (utilizationRate > OPTIMAL_UTILIZATION_RATE) {\r\n            uint256 excessUtilizationRateRatio = (utilizationRate - OPTIMAL_UTILIZATION_RATE)\r\n                .rayDiv(EXCESS_UTILIZATION_RATE);\r\n\r\n            currentStableBorrowRate = (currentStableBorrowRate + stableRateSlope1 +\r\n                stableRateSlope2).rayMul(excessUtilizationRateRatio);\r\n\r\n            currentVariableBorrowRate = (baseVariableBorrowRate + variableRateSlope1 +\r\n                variableRateSlope2).rayMul(excessUtilizationRateRatio);\r\n        } else {\r\n            currentStableBorrowRate += \r\n                stableRateSlope1.rayMul(\r\n                    utilizationRate.rayDiv(\r\n                        OPTIMAL_UTILIZATION_RATE\r\n                    )\r\n            );\r\n            currentVariableBorrowRate += \r\n                utilizationRate.rayDiv(OPTIMAL_UTILIZATION_RATE).rayMul(variableRateSlope1);\r\n        }\r\n\r\n        currentLiquidityRate = getOverallBorrowRateInternal(\r\n            _totalBorrowsStable,\r\n            _totalBorrowsVariable,\r\n            currentVariableBorrowRate,\r\n            _averageStableBorrowRate\r\n        )\r\n            .rayMul(utilizationRate);\r\n\r\n    }\r\n\r\n    /**\r\n    * @dev calculates the overall borrow rate as the weighted average between the total variable borrows and total stable borrows.\r\n    * @param _totalBorrowsStable the total borrowed from the reserve a stable rate\r\n    * @param _totalBorrowsVariable the total borrowed from the reserve at a variable rate\r\n    * @param _currentVariableBorrowRate the current variable borrow rate\r\n    * @param _currentAverageStableBorrowRate the weighted average of all the stable rate borrows\r\n    * @return the weighted averaged borrow rate\r\n    **/\r\n    function getOverallBorrowRateInternal(\r\n        uint256 _totalBorrowsStable,\r\n        uint256 _totalBorrowsVariable,\r\n        uint256 _currentVariableBorrowRate,\r\n        uint256 _currentAverageStableBorrowRate\r\n    ) internal pure returns (uint256) {\r\n        uint256 totalBorrows = _totalBorrowsStable + _totalBorrowsVariable;\r\n\r\n        if (totalBorrows == 0) return 0;\r\n\r\n        uint256 weightedVariableRate = _totalBorrowsVariable.wadToRay().rayMul(\r\n            _currentVariableBorrowRate\r\n        );\r\n\r\n        uint256 weightedStableRate = _totalBorrowsStable.wadToRay().rayMul(\r\n            _currentAverageStableBorrowRate\r\n        );\r\n\r\n        uint256 overallBorrowRate = (weightedVariableRate + weightedStableRate).rayDiv(\r\n            totalBorrows.wadToRay()\r\n        );\r\n\r\n        return overallBorrowRate;\r\n    }\r\n}\r\n",
  "sourcePath": "C:\\Proj\\fork-protocol\\contracts\\lendingpool\\DefaultReserveInterestRateStrategy.sol",
  "compiler": {
    "name": "solc",
    "version": "0.8.24+commit.e11b9ed9.Emscripten.clang"
  },
  "schemaVersion": "3.4.16",
  "updatedAt": "2024-02-11T21:41:58.640Z",
  "devdoc": {
    "author": "Aave*",
    "details": "if there is need to update the calculation of the interest rates for a specific reserve, a new version of this contract will be deployed.",
    "kind": "dev",
    "methods": {
      "calculateInterestRates(address,uint256,uint256,uint256,uint256)": {
        "details": "calculates the interest rates depending on the available liquidity and the total borrowed.",
        "params": {
          "_availableLiquidity": "the liquidity available in the reserve",
          "_averageStableBorrowRate": "the weighted average of all the stable rate borrows",
          "_reserve": "the address of the reserve",
          "_totalBorrowsStable": "the total borrowed from the reserve a stable rate",
          "_totalBorrowsVariable": "the total borrowed from the reserve at a variable rate"
        },
        "returns": {
          "currentLiquidityRate": "the liquidity rate,",
          "currentStableBorrowRate": "stable borrow rate and ",
          "currentVariableBorrowRate": "variable borrow rate calculated from the input parameters*"
        }
      },
      "getBaseVariableBorrowRate()": {
        "details": "accessors"
      }
    },
    "stateVariables": {
      "EXCESS_UTILIZATION_RATE": {
        "details": "this constant represents the excess utilization rate above the optimal. It's always equal to 1-optimal utilization rate. Added as a constant here for gas optimizations expressed in ray*"
      },
      "OPTIMAL_UTILIZATION_RATE": {
        "details": "this constant represents the utilization rate at which the pool aims to obtain most competitive borrow rates expressed in ray*"
      }
    },
    "title": "DefaultReserveInterestRateStrategy contract",
    "version": 1
  },
  "userdoc": {
    "kind": "user",
    "methods": {},
    "notice": "implements the calculation of the interest rates depending on the reserve parameters.",
    "version": 1
  }
}