{
  "contractName": "FeeProvider",
  "abi": [
    {
      "inputs": [],
      "name": "FEE_PROVIDER_REVISION",
      "outputs": [
        {
          "internalType": "uint256",
          "name": "",
          "type": "uint256"
        }
      ],
      "stateMutability": "view",
      "type": "function"
    },
    {
      "inputs": [],
      "name": "originationFeePercentage",
      "outputs": [
        {
          "internalType": "uint256",
          "name": "",
          "type": "uint256"
        }
      ],
      "stateMutability": "view",
      "type": "function"
    },
    {
      "inputs": [
        {
          "internalType": "address",
          "name": "_addressesProvider",
          "type": "address"
        }
      ],
      "name": "initialize",
      "outputs": [],
      "stateMutability": "nonpayable",
      "type": "function"
    },
    {
      "inputs": [
        {
          "internalType": "address",
          "name": "_user",
          "type": "address"
        },
        {
          "internalType": "uint256",
          "name": "_amount",
          "type": "uint256"
        }
      ],
      "name": "calculateLoanOriginationFee",
      "outputs": [
        {
          "internalType": "uint256",
          "name": "",
          "type": "uint256"
        }
      ],
      "stateMutability": "view",
      "type": "function"
    },
    {
      "inputs": [],
      "name": "getLoanOriginationFeePercentage",
      "outputs": [
        {
          "internalType": "uint256",
          "name": "",
          "type": "uint256"
        }
      ],
      "stateMutability": "view",
      "type": "function"
    }
  ],
  "bytecode": "0x60808060405234610019575f805561024c908161001e8239f35b5f80fdfe60806040526004361015610011575f80fd5b5f3560e01c80639403ed3a1461007e578063b0d73d4e1461005f578063c211f9a41461005a578063c4d66de8146100555763e563a7d014610050575f80fd5b6101be565b6100cd565b61009a565b3461007a575f36600319011261007a57602060405160018152f35b5f80fd5b3461007a575f36600319011261007a5760345460805260206080f35b3461007a575f36600319011261007a576020603454604051908152f35b600435906001600160a01b038216820361007a57565b3461007a57602036600319011261007a576100e66100b7565b5060ff60015416801590816101b5575b80156101aa575b1561014e578061012f575b6101186608e1bc9bf04000603455565b61011e57005b61012d60ff1960015416600155565b005b610140600160ff1981541617600155565b61014960015f55565b610108565b60405162461bcd60e51b815260206004820152602e60248201527f436f6e747261637420696e7374616e63652068617320616c726561647920626560448201526d195b881a5b9a5d1a585b1a5e995960921b6064820152608490fd5b505f546001116100fd565b50303b156100f6565b3461007a57604036600319011261007a576101d76100b7565b5060345460243581156706f05b59d3b2000019839004821115171561007a57670de0b6b3a76400006706f05b59d3b20000602093604051930201048152f3fea2646970667358221220c8a4e2cf9ca85314ce612d842cd7aec918598045773794eef43ef80aaca2978464736f6c63430008180033",
  "immutableReferences": {},
  "source": "pragma solidity ^0.8.24;\r\n\r\nimport \"../libraries/openzeppelin-upgradeability/VersionedInitializable.sol\";\r\nimport \"../interfaces/IFeeProvider.sol\";\r\nimport \"../libraries/WadRayMath.sol\";\r\n\r\n\r\n/**\r\n* @title FeeProvider contract\r\n* @notice Implements calculation for the fees applied by the protocol\r\n* @author Aave\r\n**/\r\ncontract FeeProvider is IFeeProvider, VersionedInitializable {\r\n    using WadRayMath for uint256;\r\n\r\n    // percentage of the fee to be calculated on the loan amount\r\n    uint256 public originationFeePercentage;\r\n\r\n\r\n    uint256 constant public FEE_PROVIDER_REVISION = 0x1;\r\n\r\n    function getRevision() internal pure override returns(uint256) {\r\n        return FEE_PROVIDER_REVISION;\r\n    }\r\n    /**\r\n    * @dev initializes the FeeProvider after it's added to the proxy\r\n    * @param _addressesProvider the address of the LendingPoolAddressesProvider\r\n    */\r\n    function initialize(address _addressesProvider) public initializer {\r\n        /// @notice origination fee is set as default as 25 basis points of the loan amount (0.0025%)\r\n        originationFeePercentage = 0.0025 * 1e18;\r\n    }\r\n\r\n    /**\r\n    * @dev calculates the origination fee for every loan executed on the platform.\r\n    * @param _user can be used in the future to apply discount to the origination fee based on the\r\n    * _user account (eg. stake AAVE tokens in the lending pool, or deposit > 1M USD etc.)\r\n    * @param _amount the amount of the loan\r\n    **/\r\n    function calculateLoanOriginationFee(address _user, uint256 _amount) external view returns (uint256) {\r\n        return _amount.wadMul(originationFeePercentage);\r\n    }\r\n\r\n    /**\r\n    * @dev returns the origination fee percentage\r\n    **/\r\n    function getLoanOriginationFeePercentage() external view returns (uint256) {\r\n        return originationFeePercentage;\r\n    }\r\n\r\n}\r\n",
  "sourcePath": "C:\\Proj\\fork-protocol\\contracts\\fees\\FeeProvider.sol",
  "compiler": {
    "name": "solc",
    "version": "0.8.24+commit.e11b9ed9.Emscripten.clang"
  },
  "schemaVersion": "3.4.16",
  "updatedAt": "2024-02-11T21:41:58.607Z",
  "devdoc": {
    "author": "Aave*",
    "kind": "dev",
    "methods": {
      "calculateLoanOriginationFee(address,uint256)": {
        "details": "calculates the origination fee for every loan executed on the platform.",
        "params": {
          "_amount": "the amount of the loan*",
          "_user": "can be used in the future to apply discount to the origination fee based on the _user account (eg. stake AAVE tokens in the lending pool, or deposit > 1M USD etc.)"
        }
      },
      "getLoanOriginationFeePercentage()": {
        "details": "returns the origination fee percentage*"
      },
      "initialize(address)": {
        "details": "initializes the FeeProvider after it's added to the proxy",
        "params": {
          "_addressesProvider": "the address of the LendingPoolAddressesProvider"
        }
      }
    },
    "title": "FeeProvider contract",
    "version": 1
  },
  "userdoc": {
    "kind": "user",
    "methods": {},
    "notice": "Implements calculation for the fees applied by the protocol",
    "version": 1
  }
}