{
  "contractName": "IERC20DetailedBytes",
  "abi": [
    {
      "inputs": [],
      "name": "decimals",
      "outputs": [
        {
          "internalType": "uint256",
          "name": "",
          "type": "uint256"
        }
      ],
      "stateMutability": "view",
      "type": "function"
    },
    {
      "inputs": [],
      "name": "name",
      "outputs": [
        {
          "internalType": "bytes32",
          "name": "",
          "type": "bytes32"
        }
      ],
      "stateMutability": "view",
      "type": "function"
    },
    {
      "inputs": [],
      "name": "symbol",
      "outputs": [
        {
          "internalType": "bytes32",
          "name": "",
          "type": "bytes32"
        }
      ],
      "stateMutability": "view",
      "type": "function"
    }
  ],
  "bytecode": "0x608080604052346100155760c0908161001a8239f35b5f80fdfe60808060405260043610156011575f80fd5b5f3560e01c90816306fdde0314607357508063313ce567146058576395d89b41146039575f80fd5b346054575f3660031901126054576020600154604051908152f35b5f80fd5b346054575f3660031901126054576020600254604051908152f35b346054575f3660031901126054576020905f548152f3fea2646970667358221220b0f6b01959b1d719d3656f5a5b47c4b04d89e829ca3d212eb8dd72c3669f7a1864736f6c63430008180033",
  "immutableReferences": {},
  "source": "pragma solidity ^0.8.24;\r\n\r\ncontract IERC20DetailedBytes {\r\n    bytes32  public  name;\r\n    bytes32  public  symbol;\r\n    uint256  public  decimals;\r\n}\r\n",
  "sourcePath": "C:\\Proj\\fork-protocol\\contracts\\misc\\IERC20DetailedBytes.sol",
  "compiler": {
    "name": "solc",
    "version": "0.8.24+commit.e11b9ed9.Emscripten.clang"
  },
  "schemaVersion": "3.4.16",
  "updatedAt": "2024-02-11T21:41:58.805Z",
  "devdoc": {
    "kind": "dev",
    "methods": {},
    "version": 1
  },
  "userdoc": {
    "kind": "user",
    "methods": {},
    "version": 1
  }
}