{
  "contractName": "LendingPoolParametersProvider",
  "abi": [
    {
      "inputs": [
        {
          "internalType": "address",
          "name": "_addressesProvider",
          "type": "address"
        }
      ],
      "name": "initialize",
      "outputs": [],
      "stateMutability": "nonpayable",
      "type": "function"
    },
    {
      "inputs": [],
      "name": "getMaxStableRateBorrowSizePercent",
      "outputs": [
        {
          "internalType": "uint256",
          "name": "",
          "type": "uint256"
        }
      ],
      "stateMutability": "pure",
      "type": "function"
    },
    {
      "inputs": [],
      "name": "getRebalanceDownRateDelta",
      "outputs": [
        {
          "internalType": "uint256",
          "name": "",
          "type": "uint256"
        }
      ],
      "stateMutability": "pure",
      "type": "function"
    },
    {
      "inputs": [],
      "name": "getFlashLoanFeesInBips",
      "outputs": [
        {
          "internalType": "uint256",
          "name": "",
          "type": "uint256"
        },
        {
          "internalType": "uint256",
          "name": "",
          "type": "uint256"
        }
      ],
      "stateMutability": "pure",
      "type": "function"
    }
  ],
  "bytecode": "0x60808060405234610019575f80556101bd908161001e8239f35b5f80fdfe6080806040526004361015610012575f80fd5b5f3560e01c90816346f4f8d11461016457508063586feb4014610142578063c4d66de8146100675763d6b725ac14610048575f80fd5b34610063575f36600319011261006357602060405160198152f35b5f80fd5b34610063576020366003190112610063576004356001600160a01b03811603610063576001805460ff81169081159182610139575b801561012f575b156100d3578290826100c2575b50506100b857005b805460ff19169055005b60ff1916178255815f5581836100b0565b60405162461bcd60e51b815260206004820152602e60248201527f436f6e747261637420696e7374616e63652068617320616c726561647920626560448201526d195b881a5b9a5d1a585b1a5e995960921b6064820152608490fd5b505f5483116100a3565b50303b1561009c565b34610063575f366003190112610063576040805160238152610bb86020820152f35b34610063575f36600319011261006357806aa56fa5b99019a5c800000060209252f3fea2646970667358221220d3a010e31e032e2d6c2b94478bcc2a716517ac70ecf24592cdc5603662c2422d64736f6c63430008180033",
  "immutableReferences": {},
  "source": "pragma solidity ^0.8.24;\r\n\r\n\r\nimport \"../libraries/openzeppelin-upgradeability/VersionedInitializable.sol\";\r\nimport \"./UintStorage.sol\";\r\n\r\n/**\r\n* @title LendingPoolParametersProvider\r\n* @author Aave\r\n* @notice stores the configuration parameters of the Lending Pool contract\r\n**/\r\n\r\ncontract LendingPoolParametersProvider is VersionedInitializable {\r\n\r\n    uint256 private constant MAX_STABLE_RATE_BORROW_SIZE_PERCENT = 25;\r\n    uint256 private constant REBALANCE_DOWN_RATE_DELTA = (1e27)/5;\r\n    uint256 private constant FLASHLOAN_FEE_TOTAL = 35;\r\n    uint256 private constant FLASHLOAN_FEE_PROTOCOL = 3000;\r\n\r\n    uint256 constant private DATA_PROVIDER_REVISION = 0x1;\r\n\r\n    function getRevision() internal pure override returns(uint256) {\r\n        return DATA_PROVIDER_REVISION;\r\n    }\r\n\r\n    /**\r\n    * @dev initializes the LendingPoolParametersProvider after it's added to the proxy\r\n    * @param _addressesProvider the address of the LendingPoolAddressesProvider\r\n    */\r\n    function initialize(address _addressesProvider) public initializer {\r\n    }\r\n    /**\r\n    * @dev returns the maximum stable rate borrow size, in percentage of the available liquidity.\r\n    **/\r\n    function getMaxStableRateBorrowSizePercent() external pure returns (uint256)  {\r\n        return MAX_STABLE_RATE_BORROW_SIZE_PERCENT;\r\n    }\r\n\r\n    /**\r\n    * @dev returns the delta between the current stable rate and the user stable rate at\r\n    *      which the borrow position of the user will be rebalanced (scaled down)\r\n    **/\r\n    function getRebalanceDownRateDelta() external pure returns (uint256) {\r\n        return REBALANCE_DOWN_RATE_DELTA;\r\n    }\r\n\r\n    /**\r\n    * @dev returns the fee applied to a flashloan and the portion to redirect to the protocol, in basis points.\r\n    **/\r\n    function getFlashLoanFeesInBips() external pure returns (uint256, uint256) {\r\n        return (FLASHLOAN_FEE_TOTAL, FLASHLOAN_FEE_PROTOCOL);\r\n    }\r\n}\r\n",
  "sourcePath": "C:\\Proj\\fork-protocol\\contracts\\configuration\\LendingPoolParametersProvider.sol",
  "compiler": {
    "name": "solc",
    "version": "0.8.24+commit.e11b9ed9.Emscripten.clang"
  },
  "schemaVersion": "3.4.16",
  "updatedAt": "2024-02-11T21:41:58.602Z",
  "devdoc": {
    "author": "Aave",
    "kind": "dev",
    "methods": {
      "getFlashLoanFeesInBips()": {
        "details": "returns the fee applied to a flashloan and the portion to redirect to the protocol, in basis points.*"
      },
      "getMaxStableRateBorrowSizePercent()": {
        "details": "returns the maximum stable rate borrow size, in percentage of the available liquidity.*"
      },
      "getRebalanceDownRateDelta()": {
        "details": "returns the delta between the current stable rate and the user stable rate at      which the borrow position of the user will be rebalanced (scaled down)*"
      },
      "initialize(address)": {
        "details": "initializes the LendingPoolParametersProvider after it's added to the proxy",
        "params": {
          "_addressesProvider": "the address of the LendingPoolAddressesProvider"
        }
      }
    },
    "title": "LendingPoolParametersProvider",
    "version": 1
  },
  "userdoc": {
    "kind": "user",
    "methods": {},
    "notice": "stores the configuration parameters of the Lending Pool contract*",
    "version": 1
  }
}