{
  "contractName": "LendingPoolDataProvider",
  "abi": [
    {
      "inputs": [],
      "name": "DATA_PROVIDER_REVISION",
      "outputs": [
        {
          "internalType": "uint256",
          "name": "",
          "type": "uint256"
        }
      ],
      "stateMutability": "view",
      "type": "function"
    },
    {
      "inputs": [],
      "name": "HEALTH_FACTOR_LIQUIDATION_THRESHOLD",
      "outputs": [
        {
          "internalType": "uint256",
          "name": "",
          "type": "uint256"
        }
      ],
      "stateMutability": "view",
      "type": "function"
    },
    {
      "inputs": [],
      "name": "addressesProvider",
      "outputs": [
        {
          "internalType": "contract LendingPoolAddressesProvider",
          "name": "",
          "type": "address"
        }
      ],
      "stateMutability": "view",
      "type": "function"
    },
    {
      "inputs": [],
      "name": "core",
      "outputs": [
        {
          "internalType": "contract LendingPoolCore",
          "name": "",
          "type": "address"
        }
      ],
      "stateMutability": "view",
      "type": "function"
    },
    {
      "inputs": [
        {
          "internalType": "contract LendingPoolAddressesProvider",
          "name": "_addressesProvider",
          "type": "address"
        }
      ],
      "name": "initialize",
      "outputs": [],
      "stateMutability": "nonpayable",
      "type": "function"
    },
    {
      "inputs": [
        {
          "internalType": "address",
          "name": "_user",
          "type": "address"
        }
      ],
      "name": "calculateUserGlobalData",
      "outputs": [
        {
          "internalType": "uint256",
          "name": "totalLiquidityBalanceETH",
          "type": "uint256"
        },
        {
          "internalType": "uint256",
          "name": "totalCollateralBalanceETH",
          "type": "uint256"
        },
        {
          "internalType": "uint256",
          "name": "totalBorrowBalanceETH",
          "type": "uint256"
        },
        {
          "internalType": "uint256",
          "name": "totalFeesETH",
          "type": "uint256"
        },
        {
          "internalType": "uint256",
          "name": "currentLtv",
          "type": "uint256"
        },
        {
          "internalType": "uint256",
          "name": "currentLiquidationThreshold",
          "type": "uint256"
        },
        {
          "internalType": "uint256",
          "name": "healthFactor",
          "type": "uint256"
        },
        {
          "internalType": "bool",
          "name": "healthFactorBelowThreshold",
          "type": "bool"
        }
      ],
      "stateMutability": "view",
      "type": "function"
    },
    {
      "inputs": [
        {
          "internalType": "address",
          "name": "_reserve",
          "type": "address"
        },
        {
          "internalType": "address",
          "name": "_user",
          "type": "address"
        },
        {
          "internalType": "uint256",
          "name": "_amount",
          "type": "uint256"
        }
      ],
      "name": "balanceDecreaseAllowed",
      "outputs": [
        {
          "internalType": "bool",
          "name": "",
          "type": "bool"
        }
      ],
      "stateMutability": "view",
      "type": "function"
    },
    {
      "inputs": [
        {
          "internalType": "address",
          "name": "_reserve",
          "type": "address"
        },
        {
          "internalType": "uint256",
          "name": "_amount",
          "type": "uint256"
        },
        {
          "internalType": "uint256",
          "name": "_fee",
          "type": "uint256"
        },
        {
          "internalType": "uint256",
          "name": "_userCurrentBorrowBalanceTH",
          "type": "uint256"
        },
        {
          "internalType": "uint256",
          "name": "_userCurrentFeesETH",
          "type": "uint256"
        },
        {
          "internalType": "uint256",
          "name": "_userCurrentLtv",
          "type": "uint256"
        }
      ],
      "name": "calculateCollateralNeededInETH",
      "outputs": [
        {
          "internalType": "uint256",
          "name": "",
          "type": "uint256"
        }
      ],
      "stateMutability": "view",
      "type": "function"
    },
    {
      "inputs": [],
      "name": "getHealthFactorLiquidationThreshold",
      "outputs": [
        {
          "internalType": "uint256",
          "name": "",
          "type": "uint256"
        }
      ],
      "stateMutability": "pure",
      "type": "function"
    },
    {
      "inputs": [
        {
          "internalType": "address",
          "name": "_reserve",
          "type": "address"
        }
      ],
      "name": "getReserveConfigurationData",
      "outputs": [
        {
          "internalType": "uint256",
          "name": "ltv",
          "type": "uint256"
        },
        {
          "internalType": "uint256",
          "name": "liquidationThreshold",
          "type": "uint256"
        },
        {
          "internalType": "uint256",
          "name": "liquidationBonus",
          "type": "uint256"
        },
        {
          "internalType": "address",
          "name": "rateStrategyAddress",
          "type": "address"
        },
        {
          "internalType": "bool",
          "name": "usageAsCollateralEnabled",
          "type": "bool"
        },
        {
          "internalType": "bool",
          "name": "borrowingEnabled",
          "type": "bool"
        },
        {
          "internalType": "bool",
          "name": "stableBorrowRateEnabled",
          "type": "bool"
        },
        {
          "internalType": "bool",
          "name": "isActive",
          "type": "bool"
        }
      ],
      "stateMutability": "view",
      "type": "function"
    },
    {
      "inputs": [
        {
          "internalType": "address",
          "name": "_reserve",
          "type": "address"
        }
      ],
      "name": "getReserveData",
      "outputs": [
        {
          "internalType": "uint256",
          "name": "totalLiquidity",
          "type": "uint256"
        },
        {
          "internalType": "uint256",
          "name": "availableLiquidity",
          "type": "uint256"
        },
        {
          "internalType": "uint256",
          "name": "totalBorrowsStable",
          "type": "uint256"
        },
        {
          "internalType": "uint256",
          "name": "totalBorrowsVariable",
          "type": "uint256"
        },
        {
          "internalType": "uint256",
          "name": "liquidityRate",
          "type": "uint256"
        },
        {
          "internalType": "uint256",
          "name": "variableBorrowRate",
          "type": "uint256"
        },
        {
          "internalType": "uint256",
          "name": "stableBorrowRate",
          "type": "uint256"
        },
        {
          "internalType": "uint256",
          "name": "averageStableBorrowRate",
          "type": "uint256"
        },
        {
          "internalType": "uint256",
          "name": "utilizationRate",
          "type": "uint256"
        },
        {
          "internalType": "uint256",
          "name": "liquidityIndex",
          "type": "uint256"
        },
        {
          "internalType": "uint256",
          "name": "variableBorrowIndex",
          "type": "uint256"
        },
        {
          "internalType": "address",
          "name": "aTokenAddress",
          "type": "address"
        },
        {
          "internalType": "uint40",
          "name": "lastUpdateTimestamp",
          "type": "uint40"
        }
      ],
      "stateMutability": "view",
      "type": "function"
    },
    {
      "inputs": [
        {
          "internalType": "address",
          "name": "_user",
          "type": "address"
        }
      ],
      "name": "getUserAccountData",
      "outputs": [
        {
          "internalType": "uint256",
          "name": "totalLiquidityETH",
          "type": "uint256"
        },
        {
          "internalType": "uint256",
          "name": "totalCollateralETH",
          "type": "uint256"
        },
        {
          "internalType": "uint256",
          "name": "totalBorrowsETH",
          "type": "uint256"
        },
        {
          "internalType": "uint256",
          "name": "totalFeesETH",
          "type": "uint256"
        },
        {
          "internalType": "uint256",
          "name": "availableBorrowsETH",
          "type": "uint256"
        },
        {
          "internalType": "uint256",
          "name": "currentLiquidationThreshold",
          "type": "uint256"
        },
        {
          "internalType": "uint256",
          "name": "ltv",
          "type": "uint256"
        },
        {
          "internalType": "uint256",
          "name": "healthFactor",
          "type": "uint256"
        }
      ],
      "stateMutability": "view",
      "type": "function"
    },
    {
      "inputs": [
        {
          "internalType": "address",
          "name": "_reserve",
          "type": "address"
        },
        {
          "internalType": "address",
          "name": "_user",
          "type": "address"
        }
      ],
      "name": "getUserReserveData",
      "outputs": [
        {
          "internalType": "uint256",
          "name": "currentATokenBalance",
          "type": "uint256"
        },
        {
          "internalType": "uint256",
          "name": "currentBorrowBalance",
          "type": "uint256"
        },
        {
          "internalType": "uint256",
          "name": "principalBorrowBalance",
          "type": "uint256"
        },
        {
          "internalType": "uint256",
          "name": "borrowRateMode",
          "type": "uint256"
        },
        {
          "internalType": "uint256",
          "name": "borrowRate",
          "type": "uint256"
        },
        {
          "internalType": "uint256",
          "name": "liquidityRate",
          "type": "uint256"
        },
        {
          "internalType": "uint256",
          "name": "originationFee",
          "type": "uint256"
        },
        {
          "internalType": "uint256",
          "name": "variableBorrowIndex",
          "type": "uint256"
        },
        {
          "internalType": "uint256",
          "name": "lastUpdateTimestamp",
          "type": "uint256"
        },
        {
          "internalType": "bool",
          "name": "usageAsCollateralEnabled",
          "type": "bool"
        }
      ],
      "stateMutability": "view",
      "type": "function"
    }
  ],
  "bytecode": "0x60808060405234610019575f8055611ec7908161001e8239f35b5f80fdfe60806040526004361015610011575f80fd5b5f3560e01c806312737c33146100df57806328dd2d01146100da5780632c6d0e9b146100d557806335ea6a75146100d05780633e150141146100cb5780633e44bee8146100b757806376e9d615146100c65780638daf609f146100c1578063bf92857c146100bc578063c3525c28146100b7578063c4d66de8146100b2578063c72c4d10146100ad5763f2f4eb26146100a8575f80fd5b6112c6565b61129e565b6111b1565b6110d1565b61114f565b611134565b6110f3565b610df9565b610876565b61081a565b6102e2565b6100f9565b6001600160a01b038116036100f557565b5f80fd5b346100f55760c03660031901126100f557600435610116816100e4565b603454610133906001600160a01b03165b6001600160a01b031690565b60405163288d4ff760e21b81526001600160a01b0383166004820152602092918390829060249082905afa908115610293575f916102c5575b506035546004908490610187906001600160a01b0316610127565b604051631f94a27560e31b815292839182905afa928315610293576101dd9385925f91610298575b5060405163b3596f0760e01b81526001600160a01b0390921660048301529093849190829081906024820190565b03916001600160a01b03165afa92831561029357610248610235610223610262966102529661024d955f92610266575b505061021d60443560243561136f565b90611397565b61022f60a435956113aa565b906113b8565b61024360843560643561136f565b61136f565b611381565b6113b8565b6040519081529081906020820190565b0390f35b6102859250803d1061028c575b61027d8183611302565b810190611329565b5f8061020d565b503d610273565b611338565b6102b89150833d85116102be575b6102b08183611302565b810190611343565b5f6101af565b503d6102a6565b6102dc9150833d851161028c5761027d8183611302565b5f61016c565b346100f5576040806003193601126100f5576004803591610302836100e4565b6024359161030f836100e4565b6034545f9490610327906001600160a01b0316610127565b8351631a59df7760e11b81526001600160a01b038316848201908152909560209590929186908890819083010381855afa968715610293575f976107fb575b5080516370a0823160e01b81526001600160a01b038416868201908152909787918991908290819060200103916001600160a01b03165afa968715610293575f976107dc575b508051631ca19f1960e01b81526001600160a01b0380861687830190815290851660208201528790829081906040010381865afa908115610293575f916107af575b508151639fb8afcd60e01b81526001600160a01b038087168883019081529086166020820152909190606090839081906040010381875afa998a15610293575f925f9b610777575b5061044082611409565b6001820361070557508251631bffeac360e21b81526001600160a01b0380881689830190815290871660208201528990829081906040010381885afa908115610293575f916106e8575b50915b61049682611409565b83516362a00a4760e11b81526001600160a01b0388168982019081529094908a90869081906020010381895afa948515610293575f956106c9575b508051633faacc6b60e21b81526001600160a01b03808a16828c0190815290891660208201528b908290819060400103818a5afa9687156102935788915f986106aa575b508251637b7546bb60e11b81526001600160a01b03808c16828e019081529a1660208b0152988c908a9081906040010381845afa988915610293575f99610689575b5082516366d103f360e01b81526001600160a01b03808c16828e019081529084166020820152909291908d90849081906040010381845afa9a8b15610293576105d79c8e945f9d61066a575b508551639e3c4f3b60e01b81526001600160a01b039283169181019182529190931660208401529b8c928391829160400190565b03915afa988915610293576102629a5f9a61063b575b5050519a8b9a8b9895926101209895929b9a9794919b6101408b019c8b5260208b015260408a01526060890152608088015260a087015260c086015260e08501526101008401521515910152565b61065b929a50803d10610663575b6106538183611302565b810190611434565b975f806105ed565b503d610649565b610682919d50853d871161028c5761027d8183611302565b9b5f6105a3565b829199506106a3908d803d1061028c5761027d8183611302565b9890610557565b6106c29198508c8d3d1061028c5761027d8183611302565b965f610515565b6106e19195508a3d8c1161028c5761027d8183611302565b935f6104d1565b6106ff9150893d8b1161028c5761027d8183611302565b5f61048a565b9161070f82611409565b6002820361048d57835163906c0a4160e01b81526001600160a01b038816898201908152919350908990829081906020010381885afa908115610293575f9161075a575b509161048d565b6107719150893d8b1161028c5761027d8183611302565b5f610753565b909a5061079d91925060603d6060116107a8575b6107958183611302565b8101906113ee565b50919091995f610436565b503d61078b565b6107cf9150873d89116107d5575b6107c78183611302565b8101906113d6565b5f6103ee565b503d6107bd565b6107f4919750863d881161028c5761027d8183611302565b955f6103ac565b610813919750863d88116102be576102b08183611302565b955f610366565b346100f55760203660031901126100f55761010061084260043561083d816100e4565b61157f565b95604095919594929451978852602088015260408701526060860152608085015260a084015260c0830152151560e0820152f35b346100f5576020806003193601126100f5576004803591610896836100e4565b6034546108ab906001600160a01b0316610127565b60408051630c33cfd960e41b81526001600160a01b03861681860190815290949291908490869081906020010381855afa948515610293575f95610dda575b50805163e240301960e01b81526001600160a01b0387168482019081529096908590889081906020010381865afa968715610293575f97610dbb575b508151637f90fec560e01b81526001600160a01b0382168582019081529092908690849081906020010381875afa928315610293575f93610d9c575b5080516398bd473760e01b81526001600160a01b0383168682019081529093908790859081906020010381885afa938415610293575f94610d7d575b5081516362a00a4760e11b81526001600160a01b0384168782019081529094908890869081906020010381895afa948515610293575f95610d5e575b50825163906c0a4160e01b81526001600160a01b03851688820190815289908290819060200103818a5afa908115610293575f91610d41575b508351631100f3b160e31b81526001600160a01b0386168982019081529096908a908890819060200103818b5afa92831561029357610a7e975f94610d22575b5085516308d781e560e31b81526001600160a01b038816818c0190815290988c918a91829160200190565b03818c5afa94851561029357610ac0985f96610d03575b508651632feb2b6160e21b81526001600160a01b038916818d0190815290998d918b91829160200190565b03818d5afa968715610293578c898c8e610b079d5f9c610ce4575b508451635ebfebcd60e11b81526001600160a01b03909316908301908152919c8d928391829160200190565b03915afa988915610293578c9a8e5f9b610cc5575b835163b701d09360e01b81526001600160a01b0384169d81019d8e529c9091508c90819003602001818f5afa9a8b15610293578c8f918f905f9e610c99575b508451631a59df7760e11b81526001600160a01b0385169181019182529392918491829081906020015b03915afa9c8d15610293578f925f9e610c7a575b508351634f14460960e01b81526001600160a01b039092169e82019e8f52909d8e91908290819060200103915afa9b8c15610293576102629d5f9d610c4b575b5050519d8e9d8e9b99979593919d9c9a98969492909d6101a08d019e8d5260208d015260408c015260608b015260808a015260a089015260c088015260e0870152610100860152610120850152610140840152600160a01b600190031661016083015264ffffffffff16906101800152565b610c6b929d50803d10610c73575b610c638183611302565b8101906119be565b9a5f80610bd9565b503d610c59565b610c92919e50833d85116102be576102b08183611302565b9c5f610b99565b84939290610b8595929f50610cba90843d861161028c5761027d8183611302565b9e9150919293610b5b565b610cdc929b50803d1061028c5761027d8183611302565b985f8e610b1c565b610cfc919c50843d861161028c5761027d8183611302565b9a5f610adb565b610d1b9196508c8d3d1061028c5761027d8183611302565b945f610a95565b610d3a9194508b3d8d1161028c5761027d8183611302565b925f610a53565b610d589150893d8b1161028c5761027d8183611302565b5f610a13565b610d76919550883d8a1161028c5761027d8183611302565b935f6109da565b610d95919450873d891161028c5761027d8183611302565b925f61099e565b610db4919350863d881161028c5761027d8183611302565b915f610962565b610dd3919750853d871161028c5761027d8183611302565b955f610926565b610df2919550843d861161028c5761027d8183611302565b935f6108ea565b346100f5576020806003193601126100f5576004803591610e19836100e4565b603454610e2e906001600160a01b0316610127565b60408051635fc526ff60e01b81526001600160a01b0386168582019081529095929190608090879081906020010381855afa8015610293575f955f975f92611095575b5082516313cce90960e31b81526001600160a01b0386168282019081529094908790869081906020010381845afa948515610293575f95611076575b508351632e79732b60e11b81526001600160a01b0387168382019081529094908890869081906020010381855afa948515610293575f95611057575b508051630283aeb760e11b81526001600160a01b0388168482019081529097908990899081906020010381865afa978815610293575f98611038575b5081516331da9b2760e21b81526001600160a01b0382168582019081529091908a90839081906020010381875afa93841561029357610f93958b935f96611019575b508451633570a20b60e11b81526001600160a01b03909316908301908152919586928391829160200190565b03915afa92831561029357610262985f94610ffa575b505051978852602088019890985260408701979097526001600160a01b039096166060860152941515608085015293151560a084015292151560c083015291151560e0820152908190610100820190565b611011929450803d106102be576102b08183611302565b915f80610fa9565b611031919650843d861161028c5761027d8183611302565b945f610f67565b611050919850893d8b11610663576106538183611302565b965f610f25565b61106f919550883d8a11610663576106538183611302565b935f610ee9565b61108e919550873d8911610663576106538183611302565b935f610ead565b915095506110bc91965060803d6080116110ca575b6110b48183611302565b810190611559565b97925095909596905f610e71565b503d6110aa565b346100f5575f3660031901126100f5576020604051670de0b6b3a76400008152f35b346100f55760603660031901126100f557602061112a600435611115816100e4565b602435611121816100e4565b604435916119e8565b6040519015158152f35b346100f5575f3660031901126100f557602060405160018152f35b346100f55760203660031901126100f55761010061117260043561083d816100e4565b5094919361118585858386979597611d9b565b92604051978852602088015260408701526060860152608085015260a084015260c083015260e0820152f35b346100f55760203660031901126100f5576004356111ce816100e4565b60ff600154169081159182611295575b801561128a575b1561122e576111f8908261120f57611cbe565b6111fe57005b61120d60ff1960015416600155565b005b611220600160ff1981541617600155565b61122960015f55565b611cbe565b60405162461bcd60e51b815260206004820152602e60248201527f436f6e747261637420696e7374616e63652068617320616c726561647920626560448201526d195b881a5b9a5d1a585b1a5e995960921b6064820152608490fd5b505f546001116111e5565b50303b156111de565b346100f5575f3660031901126100f5576035546040516001600160a01b039091168152602090f35b346100f5575f3660031901126100f5576034546040516001600160a01b039091168152602090f35b634e487b7160e01b5f52604160045260245ffd5b90601f8019910116810190811067ffffffffffffffff82111761132457604052565b6112ee565b908160209103126100f5575190565b6040513d5f823e3d90fd5b908160209103126100f55751611358816100e4565b90565b634e487b7160e01b5f52601160045260245ffd5b9190820180921161137c57565b61135b565b9060648202918083046064149015171561137c57565b8181029291811591840414171561137c57565b604d811161137c57600a0a90565b81156113c2570490565b634e487b7160e01b5f52601260045260245ffd5b908160209103126100f5575160038110156100f55790565b908160609103126100f5578051916040602083015192015190565b6003111561141357565b634e487b7160e01b5f52602160045260245ffd5b519081151582036100f557565b908160209103126100f55761135890611427565b60405190610160820182811067ffffffffffffffff821117611324576040525f610140838281528260208201528260408201528260608201528260808201528260a08201528260c08201528260e082015282610100820152826101208201520152565b9060209081838203126100f557825167ffffffffffffffff938482116100f5570181601f820112156100f5578051938411611324578360051b90604051946114f585840187611302565b855283808601928201019283116100f5578301905b828210611518575050505090565b8380918351611526816100e4565b81520191019061150a565b80518210156115455760209160051b010190565b634e487b7160e01b5f52603260045260245ffd5b91908260809103126100f557815191602081015191611358606060408401519301611427565b906004915f805f905f925f809160206115a261012760355460018060a01b031690565b604051631f94a27560e31b81529a8b9182905afa988915610293575f9961199d575b506115cd611448565b6034549097906115e5906001600160a01b0316610127565b90604051630240bc6b60e21b81525f81600481865afa908115610293575f9161197b575b505f5b815181101561191d5761168c60808461165c6101408f61164e61163f611632898b611531565b516001600160a01b031690565b6001600160a01b031682840152565b01516001600160a01b031690565b60405163e10076ad60e01b81526001600160a01b0391821660048201529116602482015291829081906044820190565b0381885afa8015610293578c915f905f925f915f916118f2575b5015156101208501525b60e08401528160608401528060408401521590816118e9575b506118e0576101400151604051635fc526ff60e01b81526001600160a01b039091166004820152608081602481885afa8015610293578e61174f6101408f61173d61177b966020965f915f915f915f916118b4575b5015156101008601525b60c085015260a08401528060808401526113aa565b8186015201516001600160a01b031690565b60405163b3596f0760e01b81526001600160a01b03909116600482015292839190829081906024820190565b03916001600160a01b03165afa8015610293578c915f91611895575b5080825260408201518061180b575b50506060810151806117bf575b50506001905b0161160c565b6001929b9a6117e48360206117db6117ea956118019751611397565b910151906113b8565b9061136f565b996117e48d60206117db60e0830151835190611397565b9990508a5f6117b3565b61181b6118269161182d93611397565b6020840151906113b8565b809761136f565b9561183c610100830151151590565b80611887575b61184d575b806117a6565b8060c06118766118676117e49461187f979d969c9e61136f565b9c6117e460a08d015185611397565b99015190611397565b958a5f611847565b506101208201511515611842565b6118ae915060203d60201161028c5761027d8183611302565b5f611797565b91505061172892506118d5915060803d6080116110ca576110b48183611302565b92939192909161171e565b506001906117b9565b9050155f6116c9565b9150506116b09250611913915060803d6080116110ca576110b48183611302565b91939091906116a6565b5050505097509294509490948580151593845f14611974578161193f916113b8565b931561196b5761194e916113b8565b905b61195c82858789611d50565b90670de0b6b3a7640000821090565b50505f90611950565b505f61193f565b61199791503d805f833e61198f8183611302565b8101906114ab565b5f611609565b6119b791995060203d6020116102be576102b08183611302565b975f6115c4565b908160209103126100f5575164ffffffffff811681036100f55790565b9190820391821161137c57565b906119f1611448565b603454909290611a09906001600160a01b0316610127565b604051635fc526ff60e01b81526001600160a01b03831660048201529290608084602481845afa8015610293575f80955f92611c8f575b50611a6d91611a699160a0890197611a5f6101408b0193849015159052565b8852885251151590565b1590565b908115611c28575b50611c1e57611a839061157f565b505096939592989194505060209081880198604089019660608a019660808b01998a5287528188528a5215611c10576035546004908390611acc906001600160a01b0316610127565b604051631f94a27560e31b815292839182905afa93841561029357611b229484925f91611bf3575b5060405163b3596f0760e01b81526001600160a01b0390921660048301529094859190829081906024820190565b03916001600160a01b03165afa801561029357611b5593611b4b935f92611bd6575b5050611397565b61022f87516113aa565b94611b6860c082019680885288516119db565b9160e082019280845215611bca57611bae611bc697611ba8611bb693611b9e6101009a670de0b6b3a76400009d51905190611397565b9251905190611397565b906119db565b8351906113b8565b9485910152519151905191611d50565b1190565b50505050505050505f90565b611bec9250803d1061028c5761027d8183611302565b5f80611b44565b611c0a9150833d85116102be576102b08183611302565b5f611af4565b505050505050505050600190565b5050505050600190565b604051639e3c4f3b60e01b81526001600160a01b038581166004830152841660248201529150602090829060449082905afa908115610293575f91611c70575b50155f611a75565b611c89915060203d602011610663576106538183611302565b5f611c68565b611a699650611a6d9250611cb2915060803d6080116110ca576110b48183611302565b90979093509050611a40565b603580546001600160a01b039283166001600160a01b0319918216811790925560405163076b7fbb60e51b8152909291602090829060049082905afa908115610293575f91611d15575b5016906034541617603455565b90506020813d602011611d48575b81611d3060209383611302565b810103126100f55751611d42816100e4565b5f611d08565b3d9150611d23565b9290928315611d9257606491611d6591611397565b0490820180921161137c578160011c90670de0b6b3a7640000908183190481118415176100f55702010490565b505050505f1990565b611db1919293611daa91611397565b6064900490565b90808210611e8a57611dc692611ba89161136f565b603554611ddb906001600160a01b0316610127565b604051918291633efbbf0f60e21b835282600460209586935afa918215610293575f92611e6b575b50604051630e563a7d60e41b815233600482015260248101829052918390839060449082906001600160a01b03165afa91821561029357611358935f93611e4c575b50506119db565b611e63929350803d1061028c5761027d8183611302565b905f80611e45565b611e83919250833d85116102be576102b08183611302565b905f611e03565b5050505f9056fea264697066735822122039f4f50937538de42d420fee83bdb0d811955ad4beb5564ce2e21d70eeaf9b3964736f6c63430008180033",
  "immutableReferences": {},
  "source": "pragma solidity ^0.8.24;\r\n\r\nimport \"../libraries/openzeppelin-upgradeability/VersionedInitializable.sol\";\r\n\r\nimport \"../libraries/CoreLibrary.sol\";\r\nimport \"../configuration/LendingPoolAddressesProvider.sol\";\r\nimport \"../libraries/WadRayMath.sol\";\r\nimport \"../interfaces/IPriceOracleGetter.sol\";\r\nimport \"../interfaces/IFeeProvider.sol\";\r\nimport \"../tokenization/AToken.sol\";\r\n\r\nimport \"./LendingPoolCore.sol\";\r\n\r\n/**\r\n* @title LendingPoolDataProvider contract\r\n* @author Aave\r\n* @notice Implements functions to fetch data from the core, and aggregate them in order to allow computation\r\n* on the compounded balances and the account balances in ETH\r\n**/\r\ncontract LendingPoolDataProvider is VersionedInitializable {\r\n    using WadRayMath for uint256;\r\n\r\n    LendingPoolCore public core;\r\n    LendingPoolAddressesProvider public addressesProvider;\r\n\r\n    /**\r\n    * @dev specifies the health factor threshold at which the user position is liquidated.\r\n    * 1e18 by default, if the health factor drops below 1e18, the loan can be liquidated.\r\n    **/\r\n    uint256 public constant HEALTH_FACTOR_LIQUIDATION_THRESHOLD = 1e18;\r\n\r\n    uint256 public constant DATA_PROVIDER_REVISION = 0x1;\r\n\r\n    function getRevision() internal pure override returns (uint256) {\r\n        return DATA_PROVIDER_REVISION;\r\n    }\r\n\r\n    function initialize(LendingPoolAddressesProvider _addressesProvider) public initializer {\r\n        addressesProvider = _addressesProvider;\r\n        core = LendingPoolCore(_addressesProvider.getLendingPoolCore());\r\n    }\r\n\r\n    /**\r\n    * @dev struct to hold calculateUserGlobalData() local computations\r\n    **/\r\n    struct UserGlobalDataLocalVars {\r\n        uint256 reserveUnitPrice;\r\n        uint256 tokenUnit;\r\n        uint256 compoundedLiquidityBalance;\r\n        uint256 compoundedBorrowBalance;\r\n        uint256 reserveDecimals;\r\n        uint256 baseLtv;\r\n        uint256 liquidationThreshold;\r\n        uint256 originationFee;\r\n        bool usageAsCollateralEnabled;\r\n        bool userUsesReserveAsCollateral;\r\n        address currentReserve;\r\n    }\r\n\r\n    /**\r\n    * @dev calculates the user data across the reserves.\r\n    * this includes the total liquidity/collateral/borrow balances in ETH,\r\n    * the average Loan To Value, the average Liquidation Ratio, and the Health factor.\r\n    * @param _user the address of the user\r\n    **/\r\n    function calculateUserGlobalData(address _user)\r\n        public\r\n        view\r\n        returns (\r\n            uint256 totalLiquidityBalanceETH,\r\n            uint256 totalCollateralBalanceETH,\r\n            uint256 totalBorrowBalanceETH,\r\n            uint256 totalFeesETH,\r\n            uint256 currentLtv,\r\n            uint256 currentLiquidationThreshold,\r\n            uint256 healthFactor,\r\n            bool healthFactorBelowThreshold\r\n        )\r\n    {\r\n        IPriceOracleGetter oracle = IPriceOracleGetter(addressesProvider.getPriceOracle());\r\n\r\n        // Usage of a memory struct of vars to avoid \"Stack too deep\" errors due to local variables\r\n        UserGlobalDataLocalVars memory vars;\r\n\r\n        address[] memory reserves = core.getReserves();\r\n\r\n        for (uint256 i = 0; i < reserves.length; i++) {\r\n            vars.currentReserve = reserves[i];\r\n\r\n            (\r\n                vars.compoundedLiquidityBalance,\r\n                vars.compoundedBorrowBalance,\r\n                vars.originationFee,\r\n                vars.userUsesReserveAsCollateral\r\n            ) = core.getUserBasicReserveData(vars.currentReserve, _user);\r\n\r\n            if (vars.compoundedLiquidityBalance == 0 && vars.compoundedBorrowBalance == 0) {\r\n                continue;\r\n            }\r\n\r\n            //fetch reserve data\r\n            (\r\n                vars.reserveDecimals,\r\n                vars.baseLtv,\r\n                vars.liquidationThreshold,\r\n                vars.usageAsCollateralEnabled\r\n            ) = core.getReserveConfiguration(vars.currentReserve);\r\n\r\n            vars.tokenUnit = 10 ** vars.reserveDecimals;\r\n            vars.reserveUnitPrice = oracle.getAssetPrice(vars.currentReserve);\r\n\r\n            //liquidity and collateral balance\r\n            if (vars.compoundedLiquidityBalance > 0) {\r\n                uint256 liquidityBalanceETH = vars.reserveUnitPrice * vars.compoundedLiquidityBalance / \r\n                    vars.tokenUnit;\r\n                totalLiquidityBalanceETH += liquidityBalanceETH;\r\n\r\n                if (vars.usageAsCollateralEnabled && vars.userUsesReserveAsCollateral) {\r\n                    totalCollateralBalanceETH += liquidityBalanceETH;\r\n                    currentLtv += liquidityBalanceETH * vars.baseLtv;\r\n                    currentLiquidationThreshold += liquidityBalanceETH * vars.liquidationThreshold;\r\n                }\r\n            }\r\n\r\n            if (vars.compoundedBorrowBalance > 0) {\r\n                totalBorrowBalanceETH += vars.reserveUnitPrice * vars.compoundedBorrowBalance / vars.tokenUnit;\r\n                totalFeesETH += vars.originationFee * vars.reserveUnitPrice / vars.tokenUnit;\r\n            }\r\n        }\r\n\r\n        currentLtv = totalCollateralBalanceETH > 0 ? currentLtv / totalCollateralBalanceETH : 0;\r\n        currentLiquidationThreshold = totalCollateralBalanceETH > 0\r\n            ? currentLiquidationThreshold / totalCollateralBalanceETH\r\n            : 0;\r\n\r\n        healthFactor = calculateHealthFactorFromBalancesInternal(\r\n            totalCollateralBalanceETH,\r\n            totalBorrowBalanceETH,\r\n            totalFeesETH,\r\n            currentLiquidationThreshold\r\n        );\r\n        healthFactorBelowThreshold = healthFactor < HEALTH_FACTOR_LIQUIDATION_THRESHOLD;\r\n\r\n    }\r\n\r\n    struct balanceDecreaseAllowedLocalVars {\r\n        uint256 decimals;\r\n        uint256 collateralBalanceETH;\r\n        uint256 borrowBalanceETH;\r\n        uint256 totalFeesETH;\r\n        uint256 currentLiquidationThreshold;\r\n        uint256 reserveLiquidationThreshold;\r\n        uint256 amountToDecreaseETH;\r\n        uint256 collateralBalancefterDecrease;\r\n        uint256 liquidationThresholdAfterDecrease;\r\n        uint256 healthFactorAfterDecrease;\r\n        bool reserveUsageAsCollateralEnabled;\r\n    }\r\n\r\n    /**\r\n    * @dev check if a specific balance decrease is allowed (i.e. doesn't bring the user borrow position health factor under 1e18)\r\n    * @param _reserve the address of the reserve\r\n    * @param _user the address of the user\r\n    * @param _amount the amount to decrease\r\n    * @return true if the decrease of the balance is allowed\r\n    **/\r\n\r\n    function balanceDecreaseAllowed(address _reserve, address _user, uint256 _amount)\r\n        external\r\n        view\r\n        returns (bool)\r\n    {\r\n        // Usage of a memory struct of vars to avoid \"Stack too deep\" errors due to local variables\r\n        balanceDecreaseAllowedLocalVars memory vars;\r\n\r\n        (\r\n            vars.decimals,\r\n            ,\r\n            vars.reserveLiquidationThreshold,\r\n            vars.reserveUsageAsCollateralEnabled\r\n        ) = core.getReserveConfiguration(_reserve);\r\n\r\n        if (\r\n            !vars.reserveUsageAsCollateralEnabled ||\r\n            !core.isUserUseReserveAsCollateralEnabled(_reserve, _user)\r\n        ) {\r\n            return true; //if reserve is not used as collateral, no reasons to block the transfer\r\n        }\r\n\r\n        (\r\n            ,\r\n            vars.collateralBalanceETH,\r\n            vars.borrowBalanceETH,\r\n            vars.totalFeesETH,\r\n            ,\r\n            vars.currentLiquidationThreshold,\r\n            ,\r\n\r\n        ) = calculateUserGlobalData(_user);\r\n\r\n        if (vars.borrowBalanceETH == 0) {\r\n            return true; //no borrows - no reasons to block the transfer\r\n        }\r\n\r\n        IPriceOracleGetter oracle = IPriceOracleGetter(addressesProvider.getPriceOracle());\r\n\r\n        vars.amountToDecreaseETH = oracle.getAssetPrice(_reserve) * _amount / (10 ** vars.decimals);\r\n\r\n        vars.collateralBalancefterDecrease = vars.collateralBalanceETH - vars.amountToDecreaseETH;\r\n\r\n        //if there is a borrow, there can't be 0 collateral\r\n        if (vars.collateralBalancefterDecrease == 0) {\r\n            return false;\r\n        }\r\n\r\n        vars.liquidationThresholdAfterDecrease = (vars.collateralBalanceETH * vars.currentLiquidationThreshold -\r\n            vars.amountToDecreaseETH * vars.reserveLiquidationThreshold) / vars.collateralBalancefterDecrease;\r\n\r\n        uint256 healthFactorAfterDecrease = calculateHealthFactorFromBalancesInternal(\r\n            vars.collateralBalancefterDecrease,\r\n            vars.borrowBalanceETH,\r\n            vars.totalFeesETH,\r\n            vars.liquidationThresholdAfterDecrease\r\n        );\r\n\r\n        return healthFactorAfterDecrease > HEALTH_FACTOR_LIQUIDATION_THRESHOLD;\r\n\r\n    }\r\n\r\n    /**\r\n   * @notice calculates the amount of collateral needed in ETH to cover a new borrow.\r\n   * @param _reserve the reserve from which the user wants to borrow\r\n   * @param _amount the amount the user wants to borrow\r\n   * @param _fee the fee for the amount that the user needs to cover\r\n   * @param _userCurrentBorrowBalanceTH the current borrow balance of the user (before the borrow)\r\n   * @param _userCurrentLtv the average ltv of the user given his current collateral\r\n   * @return the total amount of collateral in ETH to cover the current borrow balance + the new amount + fee\r\n   **/\r\n    function calculateCollateralNeededInETH(\r\n        address _reserve,\r\n        uint256 _amount,\r\n        uint256 _fee,\r\n        uint256 _userCurrentBorrowBalanceTH,\r\n        uint256 _userCurrentFeesETH,\r\n        uint256 _userCurrentLtv\r\n    ) external view returns (uint256) {\r\n        uint256 reserveDecimals = core.getReserveDecimals(_reserve);\r\n\r\n        IPriceOracleGetter oracle = IPriceOracleGetter(addressesProvider.getPriceOracle());\r\n\r\n        uint256 requestedBorrowAmountETH = oracle.getAssetPrice(_reserve) * (_amount  + _fee) / \r\n            (10 ** reserveDecimals); //price is in ether\r\n\r\n        //add the current already borrowed amount to the amount requested to calculate the total collateral needed.\r\n        uint256 collateralNeededInETH = (_userCurrentBorrowBalanceTH + _userCurrentFeesETH + \r\n            requestedBorrowAmountETH) * 100 / _userCurrentLtv; //LTV is calculated in percentage\r\n\r\n        return collateralNeededInETH;\r\n\r\n    }\r\n\r\n    /**\r\n    * @dev calculates the equivalent amount in ETH that an user can borrow, depending on the available collateral and the\r\n    * average Loan To Value.\r\n    * @param collateralBalanceETH the total collateral balance\r\n    * @param borrowBalanceETH the total borrow balance\r\n    * @param totalFeesETH the total fees\r\n    * @param ltv the average loan to value\r\n    * @return the amount available to borrow in ETH for the user\r\n    **/\r\n\r\n    function calculateAvailableBorrowsETHInternal(\r\n        uint256 collateralBalanceETH,\r\n        uint256 borrowBalanceETH,\r\n        uint256 totalFeesETH,\r\n        uint256 ltv\r\n    ) internal view returns (uint256) {\r\n        uint256 availableBorrowsETH = collateralBalanceETH * ltv / 100; //ltv is in percentage\r\n\r\n        if (availableBorrowsETH < borrowBalanceETH) {\r\n            return 0;\r\n        }\r\n\r\n        availableBorrowsETH = availableBorrowsETH - (borrowBalanceETH + totalFeesETH);\r\n        //calculate fee\r\n        uint256 borrowFee = IFeeProvider(addressesProvider.getFeeProvider())\r\n            .calculateLoanOriginationFee(msg.sender, availableBorrowsETH);\r\n        return availableBorrowsETH - borrowFee;\r\n    }\r\n\r\n    /**\r\n    * @dev calculates the health factor from the corresponding balances\r\n    * @param collateralBalanceETH the total collateral balance in ETH\r\n    * @param borrowBalanceETH the total borrow balance in ETH\r\n    * @param totalFeesETH the total fees in ETH\r\n    * @param liquidationThreshold the avg liquidation threshold\r\n    **/\r\n    function calculateHealthFactorFromBalancesInternal(\r\n        uint256 collateralBalanceETH,\r\n        uint256 borrowBalanceETH,\r\n        uint256 totalFeesETH,\r\n        uint256 liquidationThreshold\r\n    ) internal pure returns (uint256) {\r\n        if (borrowBalanceETH == 0) return type(uint256).max;\r\n\r\n        return\r\n            (collateralBalanceETH * liquidationThreshold / 100).wadDiv(\r\n                borrowBalanceETH + totalFeesETH\r\n            );\r\n    }\r\n\r\n    /**\r\n    * @dev returns the health factor liquidation threshold\r\n    **/\r\n    function getHealthFactorLiquidationThreshold() public pure returns (uint256) {\r\n        return HEALTH_FACTOR_LIQUIDATION_THRESHOLD;\r\n    }\r\n\r\n    /**\r\n    * @dev accessory functions to fetch data from the lendingPoolCore\r\n    **/\r\n    function getReserveConfigurationData(address _reserve)\r\n        external\r\n        view\r\n        returns (\r\n            uint256 ltv,\r\n            uint256 liquidationThreshold,\r\n            uint256 liquidationBonus,\r\n            address rateStrategyAddress,\r\n            bool usageAsCollateralEnabled,\r\n            bool borrowingEnabled,\r\n            bool stableBorrowRateEnabled,\r\n            bool isActive\r\n        )\r\n    {\r\n        (, ltv, liquidationThreshold, usageAsCollateralEnabled) = core.getReserveConfiguration(\r\n            _reserve\r\n        );\r\n        stableBorrowRateEnabled = core.getReserveIsStableBorrowRateEnabled(_reserve);\r\n        borrowingEnabled = core.isReserveBorrowingEnabled(_reserve);\r\n        isActive = core.getReserveIsActive(_reserve);\r\n        liquidationBonus = core.getReserveLiquidationBonus(_reserve);\r\n\r\n        rateStrategyAddress = core.getReserveInterestRateStrategyAddress(_reserve);\r\n    }\r\n\r\n    function getReserveData(address _reserve)\r\n        external\r\n        view\r\n        returns (\r\n            uint256 totalLiquidity,\r\n            uint256 availableLiquidity,\r\n            uint256 totalBorrowsStable,\r\n            uint256 totalBorrowsVariable,\r\n            uint256 liquidityRate,\r\n            uint256 variableBorrowRate,\r\n            uint256 stableBorrowRate,\r\n            uint256 averageStableBorrowRate,\r\n            uint256 utilizationRate,\r\n            uint256 liquidityIndex,\r\n            uint256 variableBorrowIndex,\r\n            address aTokenAddress,\r\n            uint40 lastUpdateTimestamp\r\n        )\r\n    {\r\n        totalLiquidity = core.getReserveTotalLiquidity(_reserve);\r\n        availableLiquidity = core.getReserveAvailableLiquidity(_reserve);\r\n        totalBorrowsStable = core.getReserveTotalBorrowsStable(_reserve);\r\n        totalBorrowsVariable = core.getReserveTotalBorrowsVariable(_reserve);\r\n        liquidityRate = core.getReserveCurrentLiquidityRate(_reserve);\r\n        variableBorrowRate = core.getReserveCurrentVariableBorrowRate(_reserve);\r\n        stableBorrowRate = core.getReserveCurrentStableBorrowRate(_reserve);\r\n        averageStableBorrowRate = core.getReserveCurrentAverageStableBorrowRate(_reserve);\r\n        utilizationRate = core.getReserveUtilizationRate(_reserve);\r\n        liquidityIndex = core.getReserveLiquidityCumulativeIndex(_reserve);\r\n        variableBorrowIndex = core.getReserveVariableBorrowsCumulativeIndex(_reserve);\r\n        aTokenAddress = core.getReserveATokenAddress(_reserve);\r\n        lastUpdateTimestamp = core.getReserveLastUpdate(_reserve);\r\n    }\r\n\r\n    function getUserAccountData(address _user)\r\n        external\r\n        view\r\n        returns (\r\n            uint256 totalLiquidityETH,\r\n            uint256 totalCollateralETH,\r\n            uint256 totalBorrowsETH,\r\n            uint256 totalFeesETH,\r\n            uint256 availableBorrowsETH,\r\n            uint256 currentLiquidationThreshold,\r\n            uint256 ltv,\r\n            uint256 healthFactor\r\n        )\r\n    {\r\n        (\r\n            totalLiquidityETH,\r\n            totalCollateralETH,\r\n            totalBorrowsETH,\r\n            totalFeesETH,\r\n            ltv,\r\n            currentLiquidationThreshold,\r\n            healthFactor,\r\n\r\n        ) = calculateUserGlobalData(_user);\r\n\r\n        availableBorrowsETH = calculateAvailableBorrowsETHInternal(\r\n            totalCollateralETH,\r\n            totalBorrowsETH,\r\n            totalFeesETH,\r\n            ltv\r\n        );\r\n    }\r\n\r\n    function getUserReserveData(address _reserve, address _user)\r\n        external\r\n        view\r\n        returns (\r\n            uint256 currentATokenBalance,\r\n            uint256 currentBorrowBalance,\r\n            uint256 principalBorrowBalance,\r\n            uint256 borrowRateMode,\r\n            uint256 borrowRate,\r\n            uint256 liquidityRate,\r\n            uint256 originationFee,\r\n            uint256 variableBorrowIndex,\r\n            uint256 lastUpdateTimestamp,\r\n            bool usageAsCollateralEnabled\r\n        )\r\n    {\r\n        currentATokenBalance = AToken(core.getReserveATokenAddress(_reserve)).balanceOf(_user);\r\n        CoreLibrary.InterestRateMode mode = core.getUserCurrentBorrowRateMode(_reserve, _user);\r\n        (principalBorrowBalance, currentBorrowBalance, ) = core.getUserBorrowBalances(\r\n            _reserve,\r\n            _user\r\n        );\r\n\r\n        //default is 0, if mode == CoreLibrary.InterestRateMode.NONE\r\n        if (mode == CoreLibrary.InterestRateMode.STABLE) {\r\n            borrowRate = core.getUserCurrentStableBorrowRate(_reserve, _user);\r\n        } else if (mode == CoreLibrary.InterestRateMode.VARIABLE) {\r\n            borrowRate = core.getReserveCurrentVariableBorrowRate(_reserve);\r\n        }\r\n\r\n        borrowRateMode = uint256(mode);\r\n        liquidityRate = core.getReserveCurrentLiquidityRate(_reserve);\r\n        originationFee = core.getUserOriginationFee(_reserve, _user);\r\n        variableBorrowIndex = core.getUserVariableBorrowCumulativeIndex(_reserve, _user);\r\n        lastUpdateTimestamp = core.getUserLastUpdate(_reserve, _user);\r\n        usageAsCollateralEnabled = core.isUserUseReserveAsCollateralEnabled(_reserve, _user);\r\n    }\r\n}\r\n",
  "sourcePath": "C:\\Proj\\fork-protocol\\contracts\\lendingpool\\LendingPoolDataProvider.sol",
  "compiler": {
    "name": "solc",
    "version": "0.8.24+commit.e11b9ed9.Emscripten.clang"
  },
  "schemaVersion": "3.4.16",
  "updatedAt": "2024-02-11T21:41:58.737Z",
  "devdoc": {
    "author": "Aave",
    "kind": "dev",
    "methods": {
      "balanceDecreaseAllowed(address,address,uint256)": {
        "details": "check if a specific balance decrease is allowed (i.e. doesn't bring the user borrow position health factor under 1e18)",
        "params": {
          "_amount": "the amount to decrease",
          "_reserve": "the address of the reserve",
          "_user": "the address of the user"
        },
        "returns": {
          "_0": "true if the decrease of the balance is allowed*"
        }
      },
      "calculateCollateralNeededInETH(address,uint256,uint256,uint256,uint256,uint256)": {
        "params": {
          "_amount": "the amount the user wants to borrow",
          "_fee": "the fee for the amount that the user needs to cover",
          "_reserve": "the reserve from which the user wants to borrow",
          "_userCurrentBorrowBalanceTH": "the current borrow balance of the user (before the borrow)",
          "_userCurrentLtv": "the average ltv of the user given his current collateral"
        },
        "returns": {
          "_0": "the total amount of collateral in ETH to cover the current borrow balance + the new amount + fee*"
        }
      },
      "calculateUserGlobalData(address)": {
        "details": "calculates the user data across the reserves. this includes the total liquidity/collateral/borrow balances in ETH, the average Loan To Value, the average Liquidation Ratio, and the Health factor.",
        "params": {
          "_user": "the address of the user*"
        }
      },
      "getHealthFactorLiquidationThreshold()": {
        "details": "returns the health factor liquidation threshold*"
      },
      "getReserveConfigurationData(address)": {
        "details": "accessory functions to fetch data from the lendingPoolCore*"
      }
    },
    "stateVariables": {
      "HEALTH_FACTOR_LIQUIDATION_THRESHOLD": {
        "details": "specifies the health factor threshold at which the user position is liquidated. 1e18 by default, if the health factor drops below 1e18, the loan can be liquidated.*"
      }
    },
    "title": "LendingPoolDataProvider contract",
    "version": 1
  },
  "userdoc": {
    "kind": "user",
    "methods": {
      "calculateCollateralNeededInETH(address,uint256,uint256,uint256,uint256,uint256)": {
        "notice": "calculates the amount of collateral needed in ETH to cover a new borrow."
      }
    },
    "notice": "Implements functions to fetch data from the core, and aggregate them in order to allow computation on the compounded balances and the account balances in ETH*",
    "version": 1
  }
}