{
  "contractName": "LendingPool",
  "abi": [
    {
      "inputs": [],
      "name": "ReentrancyGuardReentrantCall",
      "type": "error"
    },
    {
      "anonymous": false,
      "inputs": [
        {
          "indexed": true,
          "internalType": "address",
          "name": "_reserve",
          "type": "address"
        },
        {
          "indexed": true,
          "internalType": "address",
          "name": "_user",
          "type": "address"
        },
        {
          "indexed": false,
          "internalType": "uint256",
          "name": "_amount",
          "type": "uint256"
        },
        {
          "indexed": false,
          "internalType": "uint256",
          "name": "_borrowRateMode",
          "type": "uint256"
        },
        {
          "indexed": false,
          "internalType": "uint256",
          "name": "_borrowRate",
          "type": "uint256"
        },
        {
          "indexed": false,
          "internalType": "uint256",
          "name": "_originationFee",
          "type": "uint256"
        },
        {
          "indexed": false,
          "internalType": "uint256",
          "name": "_borrowBalanceIncrease",
          "type": "uint256"
        },
        {
          "indexed": true,
          "internalType": "uint16",
          "name": "_referral",
          "type": "uint16"
        },
        {
          "indexed": false,
          "internalType": "uint256",
          "name": "_timestamp",
          "type": "uint256"
        }
      ],
      "name": "Borrow",
      "type": "event"
    },
    {
      "anonymous": false,
      "inputs": [
        {
          "indexed": true,
          "internalType": "address",
          "name": "_reserve",
          "type": "address"
        },
        {
          "indexed": true,
          "internalType": "address",
          "name": "_user",
          "type": "address"
        },
        {
          "indexed": false,
          "internalType": "uint256",
          "name": "_amount",
          "type": "uint256"
        },
        {
          "indexed": true,
          "internalType": "uint16",
          "name": "_referral",
          "type": "uint16"
        },
        {
          "indexed": false,
          "internalType": "uint256",
          "name": "_timestamp",
          "type": "uint256"
        }
      ],
      "name": "Deposit",
      "type": "event"
    },
    {
      "anonymous": false,
      "inputs": [
        {
          "indexed": true,
          "internalType": "address",
          "name": "_target",
          "type": "address"
        },
        {
          "indexed": true,
          "internalType": "address",
          "name": "_reserve",
          "type": "address"
        },
        {
          "indexed": false,
          "internalType": "uint256",
          "name": "_amount",
          "type": "uint256"
        },
        {
          "indexed": false,
          "internalType": "uint256",
          "name": "_totalFee",
          "type": "uint256"
        },
        {
          "indexed": false,
          "internalType": "uint256",
          "name": "_protocolFee",
          "type": "uint256"
        },
        {
          "indexed": false,
          "internalType": "uint256",
          "name": "_timestamp",
          "type": "uint256"
        }
      ],
      "name": "FlashLoan",
      "type": "event"
    },
    {
      "anonymous": false,
      "inputs": [
        {
          "indexed": true,
          "internalType": "address",
          "name": "_collateral",
          "type": "address"
        },
        {
          "indexed": true,
          "internalType": "address",
          "name": "_reserve",
          "type": "address"
        },
        {
          "indexed": true,
          "internalType": "address",
          "name": "_user",
          "type": "address"
        },
        {
          "indexed": false,
          "internalType": "uint256",
          "name": "_purchaseAmount",
          "type": "uint256"
        },
        {
          "indexed": false,
          "internalType": "uint256",
          "name": "_liquidatedCollateralAmount",
          "type": "uint256"
        },
        {
          "indexed": false,
          "internalType": "uint256",
          "name": "_accruedBorrowInterest",
          "type": "uint256"
        },
        {
          "indexed": false,
          "internalType": "address",
          "name": "_liquidator",
          "type": "address"
        },
        {
          "indexed": false,
          "internalType": "bool",
          "name": "_receiveAToken",
          "type": "bool"
        },
        {
          "indexed": false,
          "internalType": "uint256",
          "name": "_timestamp",
          "type": "uint256"
        }
      ],
      "name": "LiquidationCall",
      "type": "event"
    },
    {
      "anonymous": false,
      "inputs": [
        {
          "indexed": true,
          "internalType": "address",
          "name": "_collateral",
          "type": "address"
        },
        {
          "indexed": true,
          "internalType": "address",
          "name": "_reserve",
          "type": "address"
        },
        {
          "indexed": true,
          "internalType": "address",
          "name": "_user",
          "type": "address"
        },
        {
          "indexed": false,
          "internalType": "uint256",
          "name": "_feeLiquidated",
          "type": "uint256"
        },
        {
          "indexed": false,
          "internalType": "uint256",
          "name": "_liquidatedCollateralForFee",
          "type": "uint256"
        },
        {
          "indexed": false,
          "internalType": "uint256",
          "name": "_timestamp",
          "type": "uint256"
        }
      ],
      "name": "OriginationFeeLiquidated",
      "type": "event"
    },
    {
      "anonymous": false,
      "inputs": [
        {
          "indexed": true,
          "internalType": "address",
          "name": "_reserve",
          "type": "address"
        },
        {
          "indexed": true,
          "internalType": "address",
          "name": "_user",
          "type": "address"
        },
        {
          "indexed": false,
          "internalType": "uint256",
          "name": "_newStableRate",
          "type": "uint256"
        },
        {
          "indexed": false,
          "internalType": "uint256",
          "name": "_borrowBalanceIncrease",
          "type": "uint256"
        },
        {
          "indexed": false,
          "internalType": "uint256",
          "name": "_timestamp",
          "type": "uint256"
        }
      ],
      "name": "RebalanceStableBorrowRate",
      "type": "event"
    },
    {
      "anonymous": false,
      "inputs": [
        {
          "indexed": true,
          "internalType": "address",
          "name": "_reserve",
          "type": "address"
        },
        {
          "indexed": true,
          "internalType": "address",
          "name": "_user",
          "type": "address"
        },
        {
          "indexed": false,
          "internalType": "uint256",
          "name": "_amount",
          "type": "uint256"
        },
        {
          "indexed": false,
          "internalType": "uint256",
          "name": "_timestamp",
          "type": "uint256"
        }
      ],
      "name": "RedeemUnderlying",
      "type": "event"
    },
    {
      "anonymous": false,
      "inputs": [
        {
          "indexed": true,
          "internalType": "address",
          "name": "_reserve",
          "type": "address"
        },
        {
          "indexed": true,
          "internalType": "address",
          "name": "_user",
          "type": "address"
        },
        {
          "indexed": true,
          "internalType": "address",
          "name": "_repayer",
          "type": "address"
        },
        {
          "indexed": false,
          "internalType": "uint256",
          "name": "_amountMinusFees",
          "type": "uint256"
        },
        {
          "indexed": false,
          "internalType": "uint256",
          "name": "_fees",
          "type": "uint256"
        },
        {
          "indexed": false,
          "internalType": "uint256",
          "name": "_borrowBalanceIncrease",
          "type": "uint256"
        },
        {
          "indexed": false,
          "internalType": "uint256",
          "name": "_timestamp",
          "type": "uint256"
        }
      ],
      "name": "Repay",
      "type": "event"
    },
    {
      "anonymous": false,
      "inputs": [
        {
          "indexed": true,
          "internalType": "address",
          "name": "_reserve",
          "type": "address"
        },
        {
          "indexed": true,
          "internalType": "address",
          "name": "_user",
          "type": "address"
        }
      ],
      "name": "ReserveUsedAsCollateralDisabled",
      "type": "event"
    },
    {
      "anonymous": false,
      "inputs": [
        {
          "indexed": true,
          "internalType": "address",
          "name": "_reserve",
          "type": "address"
        },
        {
          "indexed": true,
          "internalType": "address",
          "name": "_user",
          "type": "address"
        }
      ],
      "name": "ReserveUsedAsCollateralEnabled",
      "type": "event"
    },
    {
      "anonymous": false,
      "inputs": [
        {
          "indexed": true,
          "internalType": "address",
          "name": "_reserve",
          "type": "address"
        },
        {
          "indexed": true,
          "internalType": "address",
          "name": "_user",
          "type": "address"
        },
        {
          "indexed": false,
          "internalType": "uint256",
          "name": "_newRateMode",
          "type": "uint256"
        },
        {
          "indexed": false,
          "internalType": "uint256",
          "name": "_newRate",
          "type": "uint256"
        },
        {
          "indexed": false,
          "internalType": "uint256",
          "name": "_borrowBalanceIncrease",
          "type": "uint256"
        },
        {
          "indexed": false,
          "internalType": "uint256",
          "name": "_timestamp",
          "type": "uint256"
        }
      ],
      "name": "Swap",
      "type": "event"
    },
    {
      "inputs": [],
      "name": "LENDINGPOOL_REVISION",
      "outputs": [
        {
          "internalType": "uint256",
          "name": "",
          "type": "uint256"
        }
      ],
      "stateMutability": "view",
      "type": "function"
    },
    {
      "inputs": [],
      "name": "addressesProvider",
      "outputs": [
        {
          "internalType": "contract LendingPoolAddressesProvider",
          "name": "",
          "type": "address"
        }
      ],
      "stateMutability": "view",
      "type": "function"
    },
    {
      "inputs": [],
      "name": "core",
      "outputs": [
        {
          "internalType": "contract LendingPoolCore",
          "name": "",
          "type": "address"
        }
      ],
      "stateMutability": "view",
      "type": "function"
    },
    {
      "inputs": [],
      "name": "dataProvider",
      "outputs": [
        {
          "internalType": "contract LendingPoolDataProvider",
          "name": "",
          "type": "address"
        }
      ],
      "stateMutability": "view",
      "type": "function"
    },
    {
      "inputs": [],
      "name": "parametersProvider",
      "outputs": [
        {
          "internalType": "contract LendingPoolParametersProvider",
          "name": "",
          "type": "address"
        }
      ],
      "stateMutability": "view",
      "type": "function"
    },
    {
      "inputs": [
        {
          "internalType": "contract LendingPoolAddressesProvider",
          "name": "_addressesProvider",
          "type": "address"
        }
      ],
      "name": "initialize",
      "outputs": [],
      "stateMutability": "nonpayable",
      "type": "function"
    },
    {
      "inputs": [
        {
          "internalType": "address",
          "name": "_reserve",
          "type": "address"
        },
        {
          "internalType": "uint256",
          "name": "_amount",
          "type": "uint256"
        },
        {
          "internalType": "uint16",
          "name": "_referralCode",
          "type": "uint16"
        }
      ],
      "name": "deposit",
      "outputs": [],
      "stateMutability": "payable",
      "type": "function"
    },
    {
      "inputs": [
        {
          "internalType": "address",
          "name": "_reserve",
          "type": "address"
        },
        {
          "internalType": "address payable",
          "name": "_user",
          "type": "address"
        },
        {
          "internalType": "uint256",
          "name": "_amount",
          "type": "uint256"
        },
        {
          "internalType": "uint256",
          "name": "_aTokenBalanceAfterRedeem",
          "type": "uint256"
        }
      ],
      "name": "redeemUnderlying",
      "outputs": [],
      "stateMutability": "nonpayable",
      "type": "function"
    },
    {
      "inputs": [
        {
          "internalType": "address",
          "name": "_reserve",
          "type": "address"
        },
        {
          "internalType": "uint256",
          "name": "_amount",
          "type": "uint256"
        },
        {
          "internalType": "uint256",
          "name": "_interestRateMode",
          "type": "uint256"
        },
        {
          "internalType": "uint16",
          "name": "_referralCode",
          "type": "uint16"
        }
      ],
      "name": "borrow",
      "outputs": [],
      "stateMutability": "nonpayable",
      "type": "function"
    },
    {
      "inputs": [
        {
          "internalType": "address",
          "name": "_reserve",
          "type": "address"
        },
        {
          "internalType": "uint256",
          "name": "_amount",
          "type": "uint256"
        },
        {
          "internalType": "address payable",
          "name": "_onBehalfOf",
          "type": "address"
        }
      ],
      "name": "repay",
      "outputs": [],
      "stateMutability": "payable",
      "type": "function"
    },
    {
      "inputs": [
        {
          "internalType": "address",
          "name": "_reserve",
          "type": "address"
        }
      ],
      "name": "swapBorrowRateMode",
      "outputs": [],
      "stateMutability": "nonpayable",
      "type": "function"
    },
    {
      "inputs": [
        {
          "internalType": "address",
          "name": "_reserve",
          "type": "address"
        },
        {
          "internalType": "address",
          "name": "_user",
          "type": "address"
        }
      ],
      "name": "rebalanceStableBorrowRate",
      "outputs": [],
      "stateMutability": "nonpayable",
      "type": "function"
    },
    {
      "inputs": [
        {
          "internalType": "address",
          "name": "_reserve",
          "type": "address"
        },
        {
          "internalType": "bool",
          "name": "_useAsCollateral",
          "type": "bool"
        }
      ],
      "name": "setUserUseReserveAsCollateral",
      "outputs": [],
      "stateMutability": "nonpayable",
      "type": "function"
    },
    {
      "inputs": [
        {
          "internalType": "address",
          "name": "_collateral",
          "type": "address"
        },
        {
          "internalType": "address",
          "name": "_reserve",
          "type": "address"
        },
        {
          "internalType": "address",
          "name": "_user",
          "type": "address"
        },
        {
          "internalType": "uint256",
          "name": "_purchaseAmount",
          "type": "uint256"
        },
        {
          "internalType": "bool",
          "name": "_receiveAToken",
          "type": "bool"
        }
      ],
      "name": "liquidationCall",
      "outputs": [],
      "stateMutability": "payable",
      "type": "function"
    },
    {
      "inputs": [
        {
          "internalType": "address",
          "name": "_receiver",
          "type": "address"
        },
        {
          "internalType": "address",
          "name": "_reserve",
          "type": "address"
        },
        {
          "internalType": "uint256",
          "name": "_amount",
          "type": "uint256"
        },
        {
          "internalType": "bytes",
          "name": "_params",
          "type": "bytes"
        }
      ],
      "name": "flashLoan",
      "outputs": [],
      "stateMutability": "nonpayable",
      "type": "function"
    },
    {
      "inputs": [
        {
          "internalType": "address",
          "name": "_reserve",
          "type": "address"
        }
      ],
      "name": "getReserveConfigurationData",
      "outputs": [
        {
          "internalType": "uint256",
          "name": "ltv",
          "type": "uint256"
        },
        {
          "internalType": "uint256",
          "name": "liquidationThreshold",
          "type": "uint256"
        },
        {
          "internalType": "uint256",
          "name": "liquidationBonus",
          "type": "uint256"
        },
        {
          "internalType": "address",
          "name": "interestRateStrategyAddress",
          "type": "address"
        },
        {
          "internalType": "bool",
          "name": "usageAsCollateralEnabled",
          "type": "bool"
        },
        {
          "internalType": "bool",
          "name": "borrowingEnabled",
          "type": "bool"
        },
        {
          "internalType": "bool",
          "name": "stableBorrowRateEnabled",
          "type": "bool"
        },
        {
          "internalType": "bool",
          "name": "isActive",
          "type": "bool"
        }
      ],
      "stateMutability": "view",
      "type": "function"
    },
    {
      "inputs": [
        {
          "internalType": "address",
          "name": "_reserve",
          "type": "address"
        }
      ],
      "name": "getReserveData",
      "outputs": [
        {
          "internalType": "uint256",
          "name": "totalLiquidity",
          "type": "uint256"
        },
        {
          "internalType": "uint256",
          "name": "availableLiquidity",
          "type": "uint256"
        },
        {
          "internalType": "uint256",
          "name": "totalBorrowsStable",
          "type": "uint256"
        },
        {
          "internalType": "uint256",
          "name": "totalBorrowsVariable",
          "type": "uint256"
        },
        {
          "internalType": "uint256",
          "name": "liquidityRate",
          "type": "uint256"
        },
        {
          "internalType": "uint256",
          "name": "variableBorrowRate",
          "type": "uint256"
        },
        {
          "internalType": "uint256",
          "name": "stableBorrowRate",
          "type": "uint256"
        },
        {
          "internalType": "uint256",
          "name": "averageStableBorrowRate",
          "type": "uint256"
        },
        {
          "internalType": "uint256",
          "name": "utilizationRate",
          "type": "uint256"
        },
        {
          "internalType": "uint256",
          "name": "liquidityIndex",
          "type": "uint256"
        },
        {
          "internalType": "uint256",
          "name": "variableBorrowIndex",
          "type": "uint256"
        },
        {
          "internalType": "address",
          "name": "aTokenAddress",
          "type": "address"
        },
        {
          "internalType": "uint40",
          "name": "lastUpdateTimestamp",
          "type": "uint40"
        }
      ],
      "stateMutability": "view",
      "type": "function"
    },
    {
      "inputs": [
        {
          "internalType": "address",
          "name": "_user",
          "type": "address"
        }
      ],
      "name": "getUserAccountData",
      "outputs": [
        {
          "internalType": "uint256",
          "name": "totalLiquidityETH",
          "type": "uint256"
        },
        {
          "internalType": "uint256",
          "name": "totalCollateralETH",
          "type": "uint256"
        },
        {
          "internalType": "uint256",
          "name": "totalBorrowsETH",
          "type": "uint256"
        },
        {
          "internalType": "uint256",
          "name": "totalFeesETH",
          "type": "uint256"
        },
        {
          "internalType": "uint256",
          "name": "availableBorrowsETH",
          "type": "uint256"
        },
        {
          "internalType": "uint256",
          "name": "currentLiquidationThreshold",
          "type": "uint256"
        },
        {
          "internalType": "uint256",
          "name": "ltv",
          "type": "uint256"
        },
        {
          "internalType": "uint256",
          "name": "healthFactor",
          "type": "uint256"
        }
      ],
      "stateMutability": "view",
      "type": "function"
    },
    {
      "inputs": [
        {
          "internalType": "address",
          "name": "_reserve",
          "type": "address"
        },
        {
          "internalType": "address",
          "name": "_user",
          "type": "address"
        }
      ],
      "name": "getUserReserveData",
      "outputs": [
        {
          "internalType": "uint256",
          "name": "currentATokenBalance",
          "type": "uint256"
        },
        {
          "internalType": "uint256",
          "name": "currentBorrowBalance",
          "type": "uint256"
        },
        {
          "internalType": "uint256",
          "name": "principalBorrowBalance",
          "type": "uint256"
        },
        {
          "internalType": "uint256",
          "name": "borrowRateMode",
          "type": "uint256"
        },
        {
          "internalType": "uint256",
          "name": "borrowRate",
          "type": "uint256"
        },
        {
          "internalType": "uint256",
          "name": "liquidityRate",
          "type": "uint256"
        },
        {
          "internalType": "uint256",
          "name": "originationFee",
          "type": "uint256"
        },
        {
          "internalType": "uint256",
          "name": "variableBorrowIndex",
          "type": "uint256"
        },
        {
          "internalType": "uint256",
          "name": "lastUpdateTimestamp",
          "type": "uint256"
        },
        {
          "internalType": "bool",
          "name": "usageAsCollateralEnabled",
          "type": "bool"
        }
      ],
      "stateMutability": "view",
      "type": "function"
    },
    {
      "inputs": [],
      "name": "getReserves",
      "outputs": [
        {
          "internalType": "address[]",
          "name": "",
          "type": "address[]"
        }
      ],
      "stateMutability": "view",
      "type": "function"
    }
  ],
  "bytecode": "0x6080806040523461001e5760015f555f600155613cf790816100238239f35b5f80fdfe60806040526004361015610011575f80fd5b5f3560e01c8062a718a9146101535780630902f1ac1461014e57806328dd2d011461014957806335ea6a75146101445780633e1501411461013f57806348ca13001461013a57806358707e06146101355780635a3b74b9146101305780635ceae9c41461012b5780635cffe9de146101265780638afaff02146101215780639895e3d81461011c578063b334ed8614610117578063bf92857c14610112578063c4d66de81461010d578063c72c4d1014610108578063c858f5f914610103578063cd112382146100fe578063d2d0e066146100f95763f2f4eb26146100f4575f80fd5b611b7f565b6118eb565b6118c3565b6112a5565b61125b565b61116d565b61105a565b611032565b610f86565b610f6b565b610edb565b610e04565b610bd4565b610bac565b6108d4565b610788565b6105f4565b6104b7565b610396565b610177565b6001600160a01b0381160361016957565b5f80fd5b8015150361016957565b60a03660031901126101695760043561018f81610158565b60243561019b81610158565b6044356101a781610158565b6084356101b38161016d565b6101bb613ab3565b6101c483613ad4565b6101cd84613ad4565b6035546101ea906001600160a01b03165b6001600160a01b031690565b604051938491632c1a75cd60e11b835282600460209788935afa9081156103435761029a945f9485948594610310575b5060405162a718a960e01b8982019081526001600160a01b039a8b166024830152938a166044820152989091166064808a0191909152356084890152151560a48801528660c481015b0396610277601f1998898101835282610e7c565b51915af461028c610286611bc7565b91611bf6565b828082518301019101611c63565b906102aa576102a860015f55565b005b61030c926102e2926102e86102f49360405195869384016014907302634b8bab4b230ba34b7b7103330b4b632b21d160651b81520190565b90611cca565b03908101835282610e7c565b60405162461bcd60e51b815291829160048301611d06565b0390fd5b61026391945061033590893d8b1161033c575b61032d8183610e7c565b810190611ba7565b939061021a565b503d610323565b611bbc565b5f91031261016957565b60209060206040818301928281528551809452019301915f5b828110610379575050505090565b83516001600160a01b03168552938101939281019260010161036b565b34610169575f36600319011261016957603654604051630240bc6b60e21b8152905f90829060049082906001600160a01b03165afa8015610343575f906103ec575b6103e89060405191829182610352565b0390f35b503d805f833e6103fc8183610e7c565b810190602091828282031261016957815167ffffffffffffffff92838211610169570181601f8201121561016957805192831161048a578260051b906040519361044886840186610e7c565b84528480850192820101928311610169578401905b828210610471575050506103e891506103d8565b848091835161047f81610158565b81520191019061045d565b610e54565b6040906003190112610169576004356104a781610158565b906024356104b481610158565b90565b34610169576104c53661048f565b6037546040516328dd2d0160e01b81526001600160a01b0393841660048201529183166024830152909161014091829184916044918391165afa8015610343575f905f925f805f805f925f945f965f98610570575b506103e898999a506040519a8b9a8b9895926101209895929b9a9794919b6101408b019c8b5260208b015260408a01526060890152608088015260a087015260c086015260e08501526101008401521515910152565b995050505050505050505081813d83116105ed575b61058f8183610e7c565b81010312610169578051906103e8602082015191604081015193606082015191608081015160a082015160c08301519060e084015192610120610100860151950151956105db8761016d565b989996909192939495968a999861051a565b503d610585565b346101695760203660031901126101695760043561061181610158565b6037546040516335ea6a7560e01b81526001600160a01b039283166004820152916101a091829184916024918391165afa8015610343575f905f925f805f805f80915f935f955f975f995f9b6106dc575b506103e89b9c9d506040519d8e9d8e9b99979593919d9c9a98969492909d6101a08d019e8d5260208d015260408c015260608b015260808a015260a089015260c088015260e0870152610100860152610120850152610140840152600160a01b600190031661016083015264ffffffffff16906101800152565b9c5050505050505050505050505081813d8311610781575b6106fe8183610e7c565b8101031261016957805160208201519060408301519260608101519060808101519060a081015160c082015160e08301516101008401519061012085015192610140860151946101806101608801519761075789610158565b01519764ffffffffff89168903610169576103e89a9b9c99909192939495969798998d9c9b610662565b503d6106f4565b34610169576020366003190112610169576004356107a581610158565b603754604051633e15014160e01b81526001600160a01b0392831660048201529161010091829184916024918391165afa8015610343575f905f925f805f905f925f945f9661083d575b50604080519788526020880198909852968601969096526001600160a01b039095166060850152931515608084015292151560a083015291151560c082015290151560e08201526101009150f35b97505050505050505081813d83116108cd575b61085a8183610e7c565b81010312610169578051906103e860208201519160408101519360608201519161088383610158565b60808101516108918161016d565b60a0820151906108a08261016d565b60e060c0840151936108b18561016d565b0151936108bd8561016d565b96979490919293948897966107ef565b503d610850565b346101695760208060031936011261016957600435906108f382610158565b6108fb613ab3565b61090482613ad4565b61090d82613b86565b603654610922906001600160a01b03166101de565b60408051639fb8afcd60e01b81526001600160a01b03851660048201523360248201529092909190606083604481855afa928315610343575f925f915f95610b74575b50610971821515611d32565b8551631ca19f1960e01b81526001600160a01b0388166004820152336024820152938385604481855afa94851561034357869588958a925f92610b45575b506109b982611dc5565b60028214610ab9575b50906109e75f9287519889978896879563f614831160e01b8752339060048801611e87565b03925af1918215610343575f915f93610a63575b50610a577fb3e2773606abfd36b5bd91394b3a54d1398336c65005baf7bf7a05efeffaf75b9394610a2b84611dc5565b519283526020830194909452604082015242606082015233936001600160a01b03169281906080820190565b0390a36102a860015f55565b7fb3e2773606abfd36b5bd91394b3a54d1398336c65005baf7bf7a05efeffaf75b9350610a579250610aaa90853d8711610ab2575b610aa28183610e7c565b810190611e5d565b9350916109fb565b503d610a98565b955163710ba6c360e11b81526001600160a01b038b1660048201523360248201526044810186905296509490508086606481865afa8015610343576109e78996610b108c938b9a5f968792610b18575b5050611df8565b9192506109c2565b610b379250803d10610b3e575b610b2f8183610e7c565b810190611de3565b5f80610b09565b503d610b25565b81610b669293503d8411610b6d575b610b5e8183610e7c565b810190611db1565b905f6109af565b503d610b54565b91509350610b9b91925060603d606011610ba5575b610b938183610e7c565b810190611d17565b939192915f610965565b503d610b89565b34610169575f366003190112610169576038546040516001600160a01b039091168152602090f35b3461016957604036600319011261016957600435610bf181610158565b602435610bfd8161016d565b610c05613ab3565b610c0e82613ad4565b610c1782613b86565b603654610c2c906001600160a01b03166101de565b604051630c526de560e11b81526001600160a01b03841660048201523360248201526020908181604481865afa90811561034357610cc89183915f91610dd7575b50610c79811515611ed0565b603754610c8e906001600160a01b03166101de565b6040516376e9d61560e01b81526001600160a01b038916600482015233602482015260448101929092529092839190829081906064820190565b03915afa90811561034357610ce5925f92610dba575b5050611f2f565b803b1561016957604051633e94615360e21b81526001600160a01b03841660048201523360248201528215156044820152905f908290606490829084905af1801561034357610da1575b5015610d6d5733906001600160a01b03167e058a56ea94653cdf4f152d227ace22d4c00ad99e2a43f58cb7d9e3feb295f25f80a35b6102a860015f55565b33906001600160a01b03167f44c58d81365b66dd4b1a7f36c25aa97b8c71c361ee4937adc1a00000227db5dd5f80a3610d64565b80610dae610db492610e68565b80610348565b5f610d2f565b610dd09250803d10610b3e57610b2f8183610e7c565b5f80610cde565b610df79150823d8411610dfd575b610def8183610e7c565b810190611ec1565b5f610c6d565b503d610de5565b606036600319011261016957610e4e600435610e1f81610158565b60243560443591610e2f83610158565b610e37613ab3565b610e4081613ad4565b610e4982613c39565b612168565b60015f55005b634e487b7160e01b5f52604160045260245ffd5b67ffffffffffffffff811161048a57604052565b90601f8019910116810190811067ffffffffffffffff82111761048a57604052565b60405190610200820182811067ffffffffffffffff82111761048a57604052565b67ffffffffffffffff811161048a57601f01601f191660200190565b3461016957608036600319011261016957600435610ef881610158565b602435610f0481610158565b6064359167ffffffffffffffff8311610169573660238401121561016957826004013591610f3183610ebf565b92610f3f6040519485610e7c565b8084523660248287010111610169576020815f9260246102a898018388013785010152604435916127a4565b34610169575f36600319011261016957602060405160038152f35b3461016957608036600319011261016957600435610fa381610158565b602435610faf81610158565b610fb7613ab3565b603654604051631a59df7760e11b81526001600160a01b03848116600483015293916020908290602490829088165afa93841561034357610d6494611006925f91611013575b50163314612d1a565b6064359160443591612da0565b61102c915060203d60201161033c5761032d8183610e7c565b5f610ffd565b34610169575f366003190112610169576037546040516001600160a01b039091168152602090f35b346101695760203660031901126101695760043561107781610158565b603754604051632fe4a15f60e21b81526001600160a01b0392831660048201529161010091829184916024918391165afa8015610343575f905f925f805f905f925f945f96611107575b506103e8969798506040519889988994919260e0969399989794919961010087019a8752602087015260408601526060850152608084015260a083015260c08201520152565b97505050505050505081813d8311611166575b6111248183610e7c565b81010312610169578051602082015160408301516060840151608085015160a086015160c087015160e0909701519496879695949093919291906103e86110c1565b503d61111a565b346101695760203660031901126101695760043561118a81610158565b60ff600254169081159182611252575b8015611246575b156111ea576111b490826111c957612fb3565b6111ba57005b6102a860ff1960025416600255565b6111db600160ff196002541617600255565b6111e56003600155565b612fb3565b60405162461bcd60e51b815260206004820152602e60248201527f436f6e747261637420696e7374616e63652068617320616c726561647920626560448201526d195b881a5b9a5d1a585b1a5e995960921b6064820152608490fd5b506001546003116111a1565b50303b1561119a565b34610169575f366003190112610169576035546040516001600160a01b039091168152602090f35b6064359061ffff8216820361016957565b6044359061ffff8216820361016957565b34610169576080366003190112610169576112c1600435610158565b6112c9611283565b6112d1613ab3565b6112dc600435613ad4565b6112e7600435613b86565b6112f2602435613c39565b6112fa6131b5565b603654909190611312906001600160a01b03166101de565b604051632e79732b60e11b8152600480356001600160a01b031690820152602081602481855afa801561034357611350915f916118a4575b50613225565b6044356002148015611898575b6113669061327d565b611371604435611dc5565b6113816044356101c085016132d5565b60405163e240301960e01b8152600480356001600160a01b031690820152602081602481855afa8015610343576113cb915f91611879575b508061016086015260243511156132e1565b6037546113e0906001600160a01b03166101de565b604051632c6d0e9b60e01b8152336004820152610100908181602481865afa9081156103435761145661145a9161145f935f805f808d5f8096611831575b9515156101e082019081529650611450956020919060408201520152888d015260e08c01528060c08c0152151561338d565b51151590565b1590565b6133d9565b603954611474906001600160a01b03166101de565b604051630e563a7d60e41b815233600482015260248035908201529190602090839060449082905afa918215610343576020926114c0915f91611814575b50806060890152151561344b565b606086015160e087015191870151838801516040516312737c3360e01b8152600480356001600160a01b031690820152602480359082015260448101939093526064830193909352608482015260a4810191909152918290818060c4810103915afa801561034357611546915f916117f5575b508060a086015260c085015110156134a1565b60016101c084015161155781611dc5565b61156081611dc5565b146116f5575b60608301516101c08401516115a49260409261158183611dc5565b5f8451809681958294630deb1bf960e21b845260243533600435600487016135ee565b03925af1908115610343575f905f926116c3575b5061012084019182526101a084019081526036546115de906001600160a01b03166101de565b803b156101695760405163fa93b2a560e01b8152600480356001600160a01b03169082015233602480830191909152356044820152905f9082908183816064810103925af18015610343577f1e77446728e5558aa1b7e81e0cdab9cc1b075ba893b740600c76a315c2caa5539261ffff926060926116b0575b50519501519251604080516024358152604435602082015290810196909652606086019390935260808501929092524260a085015291169133916004356001600160a01b0316918060c081015b0390a46102a860015f55565b80610dae6116bd92610e68565b5f611657565b90506116e7915060403d6040116116ee575b6116df8183610e7c565b810190612bf8565b905f6115b8565b503d6116d5565b60405163710ba6c360e11b8152600480356001600160a01b0316908201523360248083019190915235604482015290602082606481845afa91821561034357600492611748915f916117d6575b5061350a565b603854602090611760906001600160a01b03166101de565b6040516335adc96b60e21b815293849182905afa908115610343576117af6117a561179e6040946115a4965f916117b7575b50610160890151612c0e565b6064900490565b602435111561357c565b915050611566565b6117d0915060203d602011610dfd57610def8183610e7c565b5f611792565b6117ef915060203d602011610b3e57610b2f8183610e7c565b5f611742565b61180e915060203d602011610dfd57610def8183610e7c565b5f611533565b61182b9150843d8611610dfd57610def8183610e7c565b5f6114b2565b509350505050611450915061185d602093883d8a11611872575b6118558183610e7c565b81019061334c565b9199509097509395929450909250908661141e565b503d61184b565b611892915060203d602011610dfd57610def8183610e7c565b5f6113b9565b5060016044351461135d565b6118bd915060203d602011610b3e57610b2f8183610e7c565b5f61134a565b3461016957610e4e6118d43661048f565b906118dd613ab3565b6118e681613ad4565b6136f1565b6060366003190112610169576004803561190481610158565b60243561190f611294565b611917613ab3565b61192083613ad4565b61192983613b86565b61193282613c39565b603654611947906001600160a01b03166101de565b60408051631a59df7760e11b81526001600160a01b0386168188019081529096919391929060209081908990819083010381855afa978815610343575f98611b60575b5084516370a0823160e01b8152338582019081526001600160a01b03998a169391908390829081906020010381875afa928315610343575f93611b41575b5050803b15610169578551632f35bfe960e21b81526001600160a01b0389168187019081523360208201526040810189905292156060840152915f91839182908490829060800103925af1801561034357611b2e575b50803b156101695783516394362e8b60e01b8152338482019081526020810187905290915f9183919082908490829060400103925af1801561034357611b1b575b50603654611a75906001600160a01b03166101de565b803b156101695783516328fcf4d360e01b81526001600160a01b03871693810193845233602085015260408401869052925f91849182908190606001039134905af18015610343577fc12c57b1c73a2c3a2ea4613e9476abb3d8d146857aab7329e24243fb59710c829361ffff936116a492611b08575b5051948552426020860152911694339416929081906040820190565b80610dae611b1592610e68565b5f611aec565b80610dae611b2892610e68565b5f611a5f565b80610dae611b3b92610e68565b5f611a1e565b611b58929350803d10610dfd57610def8183610e7c565b905f806119c8565b81611b789299503d8a1161033c5761032d8183610e7c565b965f61198a565b34610169575f366003190112610169576036546040516001600160a01b039091168152602090f35b9081602091031261016957516104b481610158565b6040513d5f823e3d90fd5b3d15611bf1573d90611bd882610ebf565b91611be66040519384610e7c565b82523d5f602084013e565b606090565b15611bfd57565b60405162461bcd60e51b815260206004820152601760248201527f4c69717569646174696f6e2063616c6c206661696c65640000000000000000006044820152606490fd5b5f5b838110611c535750505f910152565b8181015183820152602001611c44565b91906040838203126101695782519260208101519067ffffffffffffffff8211610169570181601f82011215610169578051611c9e81610ebf565b92611cac6040519485610e7c565b81845260208284010111610169576104b49160208085019101611c42565b90611cdd60209282815194859201611c42565b0190565b90602091611cfa81518092818552858086019101611c42565b601f01601f1916010190565b9060206104b4928181520190611ce1565b90816060910312610169578051916040602083015192015190565b15611d3957565b60405162461bcd60e51b815260206004820152603760248201527f5573657220646f6573206e6f742068617665206120626f72726f7720696e207060448201527f726f6772657373206f6e207468697320726573657276650000000000000000006064820152608490fd5b5190600382101561016957565b90816020910312610169576104b490611da4565b60031115611dcf57565b634e487b7160e01b5f52602160045260245ffd5b9081602091031261016957516104b48161016d565b15611dff57565b60405162461bcd60e51b815260206004820152603060248201527f557365722063616e6e6f7420626f72726f77207468652073656c65637465642060448201526f616d6f756e7420617420737461626c6560801b6064820152608490fd5b9190826040910312610169576020611e7483611da4565b92015190565b906003821015611dcf5752565b9196959360a093611ebf969260c0850199600180881b0380921686521660208501526040840152606083015260808201520190611e7a565b565b90816020910312610169575190565b15611ed757565b60405162461bcd60e51b815260206004820152602a60248201527f5573657220646f6573206e6f74206861766520616e79206c69717569646974796044820152690819195c1bdcda5d195960b21b6064820152608490fd5b15611f3657565b60405162461bcd60e51b815260206004820152603060248201527f55736572206465706f73697420697320616c7265616479206265696e6720757360448201526f195908185cc818dbdb1b185d195c985b60821b6064820152608490fd5b60405190610100820182811067ffffffffffffffff82111761048a576040525f60e0838281528260208201528260408201528260608201528260808201528260a08201528260c08201520152565b15611fe957565b60405162461bcd60e51b815260206004820152602960248201527f546865207573657220646f6573206e6f74206861766520616e7920626f72726f604482015268772070656e64696e6760b81b6064820152608490fd5b1561204757565b60a460405162461bcd60e51b815260206004820152604460248201527f546f207265706179206f6e20626568616c66206f6620616e207573657220616e60448201527f206578706c6963697420616d6f756e7420746f207265706179206973206e65656064820152633232b21760e11b6084820152fd5b634e487b7160e01b5f52601160045260245ffd5b906b033b2e3c9fd0803ce80000009182018092116120ec57565b6120be565b919082018092116120ec57565b1561210557565b60405162461bcd60e51b815260206004820152602860248201527f496e76616c6964206d73672e76616c75652073656e7420666f72207468652072604482015267195c185e5b595b9d60c21b6064820152608490fd5b919082039182116120ec57565b612170611f94565b603654909190612188906001600160a01b03166101de565b60408051639fb8afcd60e01b81526001600160a01b0384811660048301528716602482015291939091606081604481885afa958615610343575f905f925f9861277d575b5083850197885260208085019384529184528451633faacc6b60e21b81526001600160a01b0387811660048301528a1660248201529180836044818b5afa928315610343575f9361275e575b5060e0850192835273eeeeeeeeeeeeeeeeeeeeeeeeeeeeeeeeeeeeeeee6001600160a01b03888116918214606088019081529199909691938c919061225f88511515611fe2565b6122795f198214938a8515918296612750575b5050612040565b61228688518851906120f1565b92608085019380855281612746575b5061273e575b506122a96114568651151590565b8015612733575b6122b9906120fe565b8151865181111561256d5750506122d560a0915186519061215b565b91018181526036549095906122f2906001600160a01b03166101de565b91855192818d51935114813b15610169575f8f916123598e9183978f51998a988997889663da12d96f60e01b885260048801949196959260a0949160c0870198600180881b0380921688521660208701526040860152606085015260808401521515910152565b03925af180156103435761255a575b5082519081612465575b50506036546123949061238d906001600160a01b03166101de565b9151151590565b1561245e576123a482513461215b565b905b835190803b156101695786516328fcf4d360e01b81526001600160a01b0398909816600489015233602489015260448801919091525f91879160649183915af1918215610343577fb718f0b14f03d8c3adf35b15e3da52421b042ac879e5a689011a8b1e0036773d956124469361244b575b5051905196519351938493339916974292859094939260609260808301968352602083015260408201520152565b0390a4565b80610dae61245892610e68565b5f612418565b5f906123a6565b60365461247a906001600160a01b03166101de565b906124858451151590565b156125535782915b60355460049083906124a7906001600160a01b03166101de565b8b51637744894b60e11b815292839182905afa928315610343575f93612534575b5050803b1561016957885163c7d1423760e01b81526001600160a01b038b811660048301523360248301526044820195909552919093166064820152915f91839160849183915af1801561034357612521575b80612372565b80610dae61252e92610e68565b5f61251b565b61254b929350803d1061033c5761032d8183610e7c565b905f806124c8565b5f9161248d565b80610dae61256792610e68565b5f612368565b92509298939450945089969951823b15610169578a5163da12d96f60e01b81526001600160a01b0385811660048301528d1660248201525f604482018190526064820193909352608481019190915260a4810182905291829060c490829084905af1801561034357612720575b506036546125fb906125f4906001600160a01b03166101de565b9251151590565b15612719578251915b83519160048861261e6101de60355460018060a01b031690565b8c51637744894b60e11b815292839182905afa988915610343575f996126fa575b5050813b1561016957895163c7d1423760e01b81526001600160a01b0391821660048201528b821660248201526044810193909352969096166064820152945f91869160849183915af1908115610343577fb718f0b14f03d8c3adf35b15e3da52421b042ac879e5a689011a8b1e0036773d94612446926126e7575b5051925195519283923398169642918460609194939260808201955f8352602083015260408201520152565b80610dae6126f492610e68565b5f6126bb565b612711929950803d1061033c5761032d8183610e7c565b965f8061263f565b5f91612604565b80610dae61272d92610e68565b5f6125da565b5081513410156122b0565b82525f61229b565b905081105f612295565b9091501633148f8b90612272565b816127769294503d8511610dfd57610def8183610e7c565b915f612218565b9150965061279a915060603d606011610ba557610b938183610e7c565b919091965f6121cc565b9092916127af613ab3565b6127b884613ad4565b6127c181613c39565b6001600160a01b038481169473eeeeeeeeeeeeeeeeeeeeeeeeeeeeeeeeeeeeeeee8614929091908315612b115760365460049390612807906001600160a01b03166101de565b31945b61281683871015612b92565b60385461282b906001600160a01b03166101de565b9360408095815197888092630161bfad60e61b82525afa958615610343575f905f97612ae0575b5061286661286e6128666128759388612c0e565b612710900490565b9788612c0e565b9786151580612ad7575b61288890612c21565b603654911698906128a1906001600160a01b03166101de565b803b1561016957855163fa93b2a560e01b81526001600160a01b0385811660048301528b16602482015260448101869052905f908290606490829084905af1801561034357612ac4575b50883b15610169575f61291491865180938192631dd0e4ab60e31b83528a898960048601612c88565b0381838d5af1801561034357612ab1575b5015612a325760365461295690612944906001600160a01b03166101de565b315b61295086886120f1565b14612cb3565b60365461296b906001600160a01b03166101de565b612975878661215b565b90803b156101695784516309ac295360e01b81526001600160a01b03939093166004840152602483019690965260448201526064810186905294935f908690608490829084905af1918215610343577f5b8f46461c1dd69fb968f1a003acee221ea3e19540e350233b612ddb43433b5595612a1393612a1f575b50519384934292859094939260609260808301968352602083015260408201520152565b0390a3611ebf60015f55565b80610dae612a2c92610e68565b5f6129ef565b603654612a7690602090612a4e906001600160a01b03166101de565b85516370a0823160e01b81526001600160a01b03909116600482015291829081906024820190565b03818c5afa801561034357612956915f91612a92575b50612946565b612aab915060203d602011610dfd57610def8183610e7c565b5f612a8c565b80610dae612abe92610e68565b5f612925565b80610dae612ad192610e68565b5f6128eb565b5088151561287f565b6128669750612875915061286e612b0661286692893d8b116116ee576116df8183610e7c565b999093505050612852565b603654612b579390602090612b2e906001600160a01b03166101de565b6040516370a0823160e01b81526001600160a01b03909116600482015294859081906024820190565b03818b5afa8015610343576004945f91612b73575b509461280a565b612b8c915060203d602011610dfd57610def8183610e7c565b5f612b6c565b15612b9957565b60405162461bcd60e51b815260206004820152603160248201527f5468657265206973206e6f7420656e6f756768206c697175696469747920617660448201527061696c61626c6520746f20626f72726f7760781b6064820152608490fd5b9190826040910312610169576020825192015190565b818102929181159184041417156120ec57565b15612c2857565b60405162461bcd60e51b815260206004820152603260248201527f5468652072657175657374656420616d6f756e7420697320746f6f20736d616c60448201527136103337b9103090333630b9b42637b0b71760711b6064820152608490fd5b90926080926104b4959460018060a01b03168352602083015260408201528160608201520190611ce1565b15612cba57565b60405162461bcd60e51b815260206004820152603260248201527f5468652061637475616c2062616c616e6365206f66207468652070726f746f636044820152711bdb081a5cc81a5b98dbdb9cda5cdd195b9d60721b6064820152608490fd5b15612d2157565b60405162461bcd60e51b815260206004820152604b60248201527f5468652063616c6c6572206f6620746869732066756e6374696f6e2063616e2060448201527f6f6e6c79206265207468652061546f6b656e20636f6e7472616374206f66207460648201526a686973207265736572766560a81b608482015260a490fd5b92612daa84613ad4565b612db383613c39565b603654612dc8906001600160a01b03166101de565b60405163e240301960e01b81526001600160a01b0386166004820152602081602481855afa90811561034357612e099186915f91612f2e575b501015612f4d565b803b156101695760405163afcdbea360e01b81526001600160a01b0386811660048301528416602482015260448101859052911560648301525f908290608490829084905af1801561034357612f1b575b50603654612e70906001600160a01b03166101de565b90813b156101695760405163fa93b2a560e01b81526001600160a01b0385811660048301528216602482015260448101849052915f908390606490829084905af1918215610343577f9c4ed599cd8555b9c1e8cd7643240d7d71eb76b792948c49fcb4d411f7b6b3c692612f08575b50604080519384524260208501526001600160a01b03918216949091169290819081015b0390a3565b80610dae612f1592610e68565b5f612edf565b80610dae612f2892610e68565b5f612e5a565b612f47915060203d602011610dfd57610def8183610e7c565b5f612e01565b15612f5457565b60405162461bcd60e51b815260206004820152603160248201527f5468657265206973206e6f7420656e6f756768206c697175696469747920617660448201527061696c61626c6520746f2072656465656d60781b6064820152608490fd5b603580546001600160a01b0319166001600160a01b03929092169182179055612fdb906101de565b604051809163076b7fbb60e51b825281600460209485935afa908115610343575f91613198575b50603680546001600160a01b0319166001600160a01b039283161790556035546004908390613039906001600160a01b03166101de565b604051632f58b80d60e01b815292839182905afa908115610343576130809183915f9161317b575b501660018060a01b03166001600160601b0360a01b6037541617603755565b603554600490839061309a906001600160a01b03166101de565b6040516302030ec760e11b815292839182905afa908115610343576130e19183915f9161315e575b501660018060a01b03166001600160601b0360a01b6038541617603855565b60355460049083906130fb906001600160a01b03166101de565b604051633efbbf0f60e21b815292839182905afa90811561034357611ebf935f92613141575b50501660018060a01b03166001600160601b0360a01b6039541617603955565b6131579250803d1061033c5761032d8183610e7c565b5f80613121565b6131759150853d871161033c5761032d8183610e7c565b5f6130c2565b6131929150853d871161033c5761032d8183610e7c565b5f613061565b6131af9150823d841161033c5761032d8183610e7c565b5f613002565b6131bd610e9e565b905f82525f60208301525f60408301525f60608301525f60808301525f60a08301525f60c08301525f60e08301525f6101008301525f6101208301525f6101408301525f6101608301525f6101808301525f6101a08301525f6101c08301525f6101e0830152565b1561322c57565b60405162461bcd60e51b8152602060048201526024808201527f52657365727665206973206e6f7420656e61626c656420666f7220626f72726f60448201526377696e6760e01b6064820152608490fd5b1561328457565b60405162461bcd60e51b815260206004820152602360248201527f496e76616c696420696e7465726573742072617465206d6f64652073656c65636044820152621d195960ea1b6064820152608490fd5b6003821015611dcf5752565b156132e857565b60405162461bcd60e51b815260206004820152603660248201527f5468657265206973206e6f7420656e6f756768206c697175696469747920617660448201527561696c61626c6520696e20746865207265736572766560501b6064820152608490fd5b9190826101009103126101695781519160208101519160408201519160608101519160808201519160a08101519160e060c08301519201516104b48161016d565b1561339457565b60405162461bcd60e51b815260206004820152601b60248201527f54686520636f6c6c61746572616c2062616c616e6365206973203000000000006044820152606490fd5b156133e057565b60405162461bcd60e51b815260206004820152603f60248201527f54686520626f72726f7765722063616e20616c7265616479206265206c69717560448201527f69646174656420736f2068652063616e6e6f7420626f72726f77206d6f7265006064820152608490fd5b1561345257565b60405162461bcd60e51b815260206004820152602160248201527f54686520616d6f756e7420746f20626f72726f7720697320746f6f20736d616c6044820152601b60fa1b6064820152608490fd5b156134a857565b60405162461bcd60e51b815260206004820152603460248201527f5468657265206973206e6f7420656e6f75676820636f6c6c61746572616c20746044820152736f20636f7665722061206e657720626f72726f7760601b6064820152608490fd5b1561351157565b60405162461bcd60e51b815260206004820152603960248201527f557365722063616e6e6f7420626f72726f77207468652073656c65637465642060448201527f616d6f756e742077697468206120737461626c652072617465000000000000006064820152608490fd5b1561358357565b60405162461bcd60e51b815260206004820152603c60248201527f5573657220697320747279696e6720746f20626f72726f7720746f6f206d756360448201527f68206c6971756964697479206174206120737461626c652072617465000000006064820152608490fd5b6001600160a01b039182168152911660208201526040810191909152606081019190915260a081019291611ebf9160800190611e7a565b1561362c57565b60405162461bcd60e51b815260206004820152602e60248201527f5573657220646f6573206e6f74206861766520616e7920626f72726f7720666f60448201526d722074686973207265736572766560901b6064820152608490fd5b1561368f57565b60405162461bcd60e51b815260206004820152603460248201527f546865207573657220626f72726f77206973207661726961626c6520616e642060448201527318d85b9b9bdd081899481c9958985b185b98d95960621b6064820152608490fd5b603654909190613709906001600160a01b03166101de565b60408051639fb8afcd60e01b81526001600160a01b0385811660048084019190915290851660248301529491939192909190606083604481845afa928315610343575f905f94613a8c575b50613760901515613625565b8451631ca19f1960e01b81526001600160a01b038086168883019081529084166020828101919091529291908390829081906040010381855afa908115610343576137bf916001915f91613a6f575b506137b981611dc5565b14613688565b8551631bffeac360e21b81526001600160a01b0380871689830190815290851660208201528390829081906040010381855afa908115610343575f91613a52575b5086516362a00a4760e11b81526001600160a01b0387168982019081528490829081906020010381865afa908115610343575f91613a35575b508751631100f3b160e31b81526001600160a01b038816818b019081528590829081906020010381875afa8015610343578a915f91613a18575b50603854869061388b906001600160a01b03166101de565b8b516346f4f8d160e01b815293849182905afa918215610343576138c0926138ba915f916139fb575b506120d2565b90613c85565b9082109182156139f1575b505061393457855162461bcd60e51b81526020818901818152602f918101919091527f496e746572657374207261746520726562616c616e636520636f6e646974696f60408201526e1b9cc81dd95c99481b9bdd081b595d608a1b606082015281906080010390fd5b855163af825b0760e01b81526001600160a01b03808716988201988952841660208901526040880185905294969395938291869182905f90829060600103925af18015610343577f5050ad184862424ee0852d1838d355ad65bed1e5e6da67ac9a2dac1922677f6094612f03925f926139d4575b5050925192835260208301949094524260408301526001600160a01b0390811694169281906060820190565b6139ea9250803d10610dfd57610def8183610e7c565b5f806139a8565b1190505f806138cb565b613a129150883d8a11610dfd57610def8183610e7c565b5f6138b4565b613a2f9150863d8811610dfd57610def8183610e7c565b5f613873565b613a4c9150843d8611610dfd57610def8183610e7c565b5f613839565b613a699150833d8511610dfd57610def8183610e7c565b5f613800565b613a869150853d8711610b6d57610b5e8183610e7c565b5f6137af565b6137609450613aaa915060603d606011610ba557610b938183610e7c565b94915090613754565b60025f5414613ac25760025f55565b604051633ee5aeb560e01b8152600490fd5b603654604051630283aeb760e11b81526001600160a01b0392831660048201529160209183916024918391165afa908115610343575f91613b67575b5015613b1857565b60405162461bcd60e51b815260206004820152602160248201527f416374696f6e20726571756972657320616e20616374697665207265736572766044820152606560f81b6064820152608490fd5b613b80915060203d602011610b3e57610b2f8183610e7c565b5f613b10565b603654604051634a08accb60e01b81526001600160a01b0392831660048201529160209183916024918391165afa908115610343575f91613c1a575b50613bc957565b60405162461bcd60e51b8152602060048201526024808201527f416374696f6e20726571756972657320616e20756e667265657a6564207265736044820152636572766560e01b6064820152608490fd5b613c33915060203d602011610b3e57610b2f8183610e7c565b5f613bc2565b15613c4057565b60405162461bcd60e51b815260206004820152601d60248201527f416d6f756e74206d7573742062652067726561746572207468616e20300000006044820152606490fd5b816b019d971e4fe8401e74000000190481111582151715610169576b033b2e3c9fd0803ce800000091026b019d971e4fe8401e7400000001049056fea26469706673582212209d967c5acf3180a838357788d3f9667aec635af0cfeb639d6d0fe4c3579d07d564736f6c63430008180033",
  "immutableReferences": {},
  "source": "pragma solidity ^0.8.24;\r\n\r\nimport \"../../lib/openzeppelin-contracts/contracts/utils/ReentrancyGuard.sol\";\r\nimport \"../../lib/openzeppelin-contracts/contracts/utils/Address.sol\";\r\nimport \"../../lib/openzeppelin-contracts/contracts/token/ERC20/IERC20.sol\";\r\nimport \"../libraries/openzeppelin-upgradeability/VersionedInitializable.sol\";\r\n\r\nimport \"../configuration/LendingPoolAddressesProvider.sol\";\r\nimport \"../configuration/LendingPoolParametersProvider.sol\";\r\nimport \"../tokenization/AToken.sol\";\r\nimport \"../libraries/CoreLibrary.sol\";\r\nimport \"../libraries/WadRayMath.sol\";\r\nimport \"../interfaces/IFeeProvider.sol\";\r\nimport \"../flashloan/interfaces/IFlashLoanReceiver.sol\";\r\nimport \"./LendingPoolCore.sol\";\r\nimport \"./LendingPoolDataProvider.sol\";\r\nimport \"./LendingPoolLiquidationManager.sol\";\r\nimport \"../libraries/EthAddressLib.sol\";\r\n\r\n/**\r\n* @title LendingPool contract\r\n* @notice Implements the actions of the LendingPool, and exposes accessory methods to fetch the users and reserve data\r\n* @author Aave\r\n **/\r\n\r\ncontract LendingPool is ReentrancyGuard, VersionedInitializable {\r\n    using WadRayMath for uint256;\r\n    using Address for address;\r\n\r\n    LendingPoolAddressesProvider public addressesProvider;\r\n    LendingPoolCore public core;\r\n    LendingPoolDataProvider public dataProvider;\r\n    LendingPoolParametersProvider public parametersProvider;\r\n    IFeeProvider feeProvider;\r\n\r\n    /**\r\n    * @dev emitted on deposit\r\n    * @param _reserve the address of the reserve\r\n    * @param _user the address of the user\r\n    * @param _amount the amount to be deposited\r\n    * @param _referral the referral number of the action\r\n    * @param _timestamp the timestamp of the action\r\n    **/\r\n    event Deposit(\r\n        address indexed _reserve,\r\n        address indexed _user,\r\n        uint256 _amount,\r\n        uint16 indexed _referral,\r\n        uint256 _timestamp\r\n    );\r\n\r\n    /**\r\n    * @dev emitted during a redeem action.\r\n    * @param _reserve the address of the reserve\r\n    * @param _user the address of the user\r\n    * @param _amount the amount to be deposited\r\n    * @param _timestamp the timestamp of the action\r\n    **/\r\n    event RedeemUnderlying(\r\n        address indexed _reserve,\r\n        address indexed _user,\r\n        uint256 _amount,\r\n        uint256 _timestamp\r\n    );\r\n\r\n    /**\r\n    * @dev emitted on borrow\r\n    * @param _reserve the address of the reserve\r\n    * @param _user the address of the user\r\n    * @param _amount the amount to be deposited\r\n    * @param _borrowRateMode the rate mode, can be either 1-stable or 2-variable\r\n    * @param _borrowRate the rate at which the user has borrowed\r\n    * @param _originationFee the origination fee to be paid by the user\r\n    * @param _borrowBalanceIncrease the balance increase since the last borrow, 0 if it's the first time borrowing\r\n    * @param _referral the referral number of the action\r\n    * @param _timestamp the timestamp of the action\r\n    **/\r\n    event Borrow(\r\n        address indexed _reserve,\r\n        address indexed _user,\r\n        uint256 _amount,\r\n        uint256 _borrowRateMode,\r\n        uint256 _borrowRate,\r\n        uint256 _originationFee,\r\n        uint256 _borrowBalanceIncrease,\r\n        uint16 indexed _referral,\r\n        uint256 _timestamp\r\n    );\r\n\r\n    /**\r\n    * @dev emitted on repay\r\n    * @param _reserve the address of the reserve\r\n    * @param _user the address of the user for which the repay has been executed\r\n    * @param _repayer the address of the user that has performed the repay action\r\n    * @param _amountMinusFees the amount repaid minus fees\r\n    * @param _fees the fees repaid\r\n    * @param _borrowBalanceIncrease the balance increase since the last action\r\n    * @param _timestamp the timestamp of the action\r\n    **/\r\n    event Repay(\r\n        address indexed _reserve,\r\n        address indexed _user,\r\n        address indexed _repayer,\r\n        uint256 _amountMinusFees,\r\n        uint256 _fees,\r\n        uint256 _borrowBalanceIncrease,\r\n        uint256 _timestamp\r\n    );\r\n\r\n    /**\r\n    * @dev emitted when a user performs a rate swap\r\n    * @param _reserve the address of the reserve\r\n    * @param _user the address of the user executing the swap\r\n    * @param _newRateMode the new interest rate mode\r\n    * @param _newRate the new borrow rate\r\n    * @param _borrowBalanceIncrease the balance increase since the last action\r\n    * @param _timestamp the timestamp of the action\r\n    **/\r\n    event Swap(\r\n        address indexed _reserve,\r\n        address indexed _user,\r\n        uint256 _newRateMode,\r\n        uint256 _newRate,\r\n        uint256 _borrowBalanceIncrease,\r\n        uint256 _timestamp\r\n    );\r\n\r\n    /**\r\n    * @dev emitted when a user enables a reserve as collateral\r\n    * @param _reserve the address of the reserve\r\n    * @param _user the address of the user\r\n    **/\r\n    event ReserveUsedAsCollateralEnabled(address indexed _reserve, address indexed _user);\r\n\r\n    /**\r\n    * @dev emitted when a user disables a reserve as collateral\r\n    * @param _reserve the address of the reserve\r\n    * @param _user the address of the user\r\n    **/\r\n    event ReserveUsedAsCollateralDisabled(address indexed _reserve, address indexed _user);\r\n\r\n    /**\r\n    * @dev emitted when the stable rate of a user gets rebalanced\r\n    * @param _reserve the address of the reserve\r\n    * @param _user the address of the user for which the rebalance has been executed\r\n    * @param _newStableRate the new stable borrow rate after the rebalance\r\n    * @param _borrowBalanceIncrease the balance increase since the last action\r\n    * @param _timestamp the timestamp of the action\r\n    **/\r\n    event RebalanceStableBorrowRate(\r\n        address indexed _reserve,\r\n        address indexed _user,\r\n        uint256 _newStableRate,\r\n        uint256 _borrowBalanceIncrease,\r\n        uint256 _timestamp\r\n    );\r\n\r\n    /**\r\n    * @dev emitted when a flashloan is executed\r\n    * @param _target the address of the flashLoanReceiver\r\n    * @param _reserve the address of the reserve\r\n    * @param _amount the amount requested\r\n    * @param _totalFee the total fee on the amount\r\n    * @param _protocolFee the part of the fee for the protocol\r\n    * @param _timestamp the timestamp of the action\r\n    **/\r\n    event FlashLoan(\r\n        address indexed _target,\r\n        address indexed _reserve,\r\n        uint256 _amount,\r\n        uint256 _totalFee,\r\n        uint256 _protocolFee,\r\n        uint256 _timestamp\r\n    );\r\n\r\n    /**\r\n    * @dev these events are not emitted directly by the LendingPool\r\n    * but they are declared here as the LendingPoolLiquidationManager\r\n    * is executed using a delegateCall().\r\n    * This allows to have the events in the generated ABI for LendingPool.\r\n    **/\r\n\r\n    /**\r\n    * @dev emitted when a borrow fee is liquidated\r\n    * @param _collateral the address of the collateral being liquidated\r\n    * @param _reserve the address of the reserve\r\n    * @param _user the address of the user being liquidated\r\n    * @param _feeLiquidated the total fee liquidated\r\n    * @param _liquidatedCollateralForFee the amount of collateral received by the protocol in exchange for the fee\r\n    * @param _timestamp the timestamp of the action\r\n    **/\r\n    event OriginationFeeLiquidated(\r\n        address indexed _collateral,\r\n        address indexed _reserve,\r\n        address indexed _user,\r\n        uint256 _feeLiquidated,\r\n        uint256 _liquidatedCollateralForFee,\r\n        uint256 _timestamp\r\n    );\r\n\r\n    /**\r\n    * @dev emitted when a borrower is liquidated\r\n    * @param _collateral the address of the collateral being liquidated\r\n    * @param _reserve the address of the reserve\r\n    * @param _user the address of the user being liquidated\r\n    * @param _purchaseAmount the total amount liquidated\r\n    * @param _liquidatedCollateralAmount the amount of collateral being liquidated\r\n    * @param _accruedBorrowInterest the amount of interest accrued by the borrower since the last action\r\n    * @param _liquidator the address of the liquidator\r\n    * @param _receiveAToken true if the liquidator wants to receive aTokens, false otherwise\r\n    * @param _timestamp the timestamp of the action\r\n    **/\r\n    event LiquidationCall(\r\n        address indexed _collateral,\r\n        address indexed _reserve,\r\n        address indexed _user,\r\n        uint256 _purchaseAmount,\r\n        uint256 _liquidatedCollateralAmount,\r\n        uint256 _accruedBorrowInterest,\r\n        address _liquidator,\r\n        bool _receiveAToken,\r\n        uint256 _timestamp\r\n    );\r\n\r\n    /**\r\n    * @dev functions affected by this modifier can only be invoked by the\r\n    * aToken.sol contract\r\n    * @param _reserve the address of the reserve\r\n    **/\r\n    modifier onlyOverlyingAToken(address _reserve) {\r\n        require(\r\n            msg.sender == core.getReserveATokenAddress(_reserve),\r\n            \"The caller of this function can only be the aToken contract of this reserve\"\r\n        );\r\n        _;\r\n    }\r\n\r\n    /**\r\n    * @dev functions affected by this modifier can only be invoked if the reserve is active\r\n    * @param _reserve the address of the reserve\r\n    **/\r\n    modifier onlyActiveReserve(address _reserve) {\r\n        requireReserveActiveInternal(_reserve);\r\n        _;\r\n    }\r\n\r\n    /**\r\n    * @dev functions affected by this modifier can only be invoked if the reserve is not freezed.\r\n    * A freezed reserve only allows redeems, repays, rebalances and liquidations.\r\n    * @param _reserve the address of the reserve\r\n    **/\r\n    modifier onlyUnfreezedReserve(address _reserve) {\r\n        requireReserveNotFreezedInternal(_reserve);\r\n        _;\r\n    }\r\n\r\n    /**\r\n    * @dev functions affected by this modifier can only be invoked if the provided _amount input parameter\r\n    * is not zero.\r\n    * @param _amount the amount provided\r\n    **/\r\n    modifier onlyAmountGreaterThanZero(uint256 _amount) {\r\n        requireAmountGreaterThanZeroInternal(_amount);\r\n        _;\r\n    }\r\n\r\n    uint256 public constant LENDINGPOOL_REVISION = 0x3;\r\n\r\n    function getRevision() internal pure override returns (uint256) {\r\n        return LENDINGPOOL_REVISION;\r\n    }\r\n\r\n    /**\r\n    * @dev this function is invoked by the proxy contract when the LendingPool contract is added to the\r\n    * AddressesProvider.\r\n    * @param _addressesProvider the address of the LendingPoolAddressesProvider registry\r\n    **/\r\n    function initialize(LendingPoolAddressesProvider _addressesProvider) public initializer {\r\n        addressesProvider = _addressesProvider;\r\n        core = LendingPoolCore(addressesProvider.getLendingPoolCore());\r\n        dataProvider = LendingPoolDataProvider(addressesProvider.getLendingPoolDataProvider());\r\n        parametersProvider = LendingPoolParametersProvider(\r\n            addressesProvider.getLendingPoolParametersProvider()\r\n        );\r\n        feeProvider = IFeeProvider(addressesProvider.getFeeProvider());\r\n    }\r\n\r\n    /**\r\n    * @dev deposits The underlying asset into the reserve. A corresponding amount of the overlying asset (aTokens)\r\n    * is minted.\r\n    * @param _reserve the address of the reserve\r\n    * @param _amount the amount to be deposited\r\n    * @param _referralCode integrators are assigned a referral code and can potentially receive rewards.\r\n    **/\r\n    function deposit(address _reserve, uint256 _amount, uint16 _referralCode)\r\n        external\r\n        payable\r\n        nonReentrant\r\n        onlyActiveReserve(_reserve)\r\n        onlyUnfreezedReserve(_reserve)\r\n        onlyAmountGreaterThanZero(_amount)\r\n    {\r\n        AToken aToken = AToken(core.getReserveATokenAddress(_reserve));\r\n\r\n        bool isFirstDeposit = aToken.balanceOf(msg.sender) == 0;\r\n\r\n        core.updateStateOnDeposit(_reserve, msg.sender, _amount, isFirstDeposit);\r\n\r\n        //minting AToken to user 1:1 with the specific exchange rate\r\n        aToken.mintOnDeposit(msg.sender, _amount);\r\n\r\n        //transfer to the core contract\r\n        core.transferToReserve{value: msg.value}(_reserve, payable(msg.sender), _amount);\r\n\r\n        //solium-disable-next-line\r\n        emit Deposit(_reserve, msg.sender, _amount, _referralCode, block.timestamp);\r\n\r\n    }\r\n\r\n    /**\r\n    * @dev Redeems the underlying amount of assets requested by _user.\r\n    * This function is executed by the overlying aToken contract in response to a redeem action.\r\n    * @param _reserve the address of the reserve\r\n    * @param _user the address of the user performing the action\r\n    * @param _amount the underlying amount to be redeemed\r\n    **/\r\n    function redeemUnderlying(\r\n        address _reserve,\r\n        address payable _user,\r\n        uint256 _amount,\r\n        uint256 _aTokenBalanceAfterRedeem\r\n    )\r\n        external\r\n        nonReentrant\r\n        onlyOverlyingAToken(_reserve)\r\n        onlyActiveReserve(_reserve)\r\n        onlyAmountGreaterThanZero(_amount)\r\n    {\r\n        uint256 currentAvailableLiquidity = core.getReserveAvailableLiquidity(_reserve);\r\n        require(\r\n            currentAvailableLiquidity >= _amount,\r\n            \"There is not enough liquidity available to redeem\"\r\n        );\r\n\r\n        core.updateStateOnRedeem(_reserve, _user, _amount, _aTokenBalanceAfterRedeem == 0);\r\n\r\n        core.transferToUser(_reserve, _user, _amount);\r\n\r\n        //solium-disable-next-line\r\n        emit RedeemUnderlying(_reserve, _user, _amount, block.timestamp);\r\n\r\n    }\r\n\r\n    /**\r\n    * @dev data structures for local computations in the borrow() method.\r\n    */\r\n\r\n    struct BorrowLocalVars {\r\n        uint256 principalBorrowBalance;\r\n        uint256 currentLtv;\r\n        uint256 currentLiquidationThreshold;\r\n        uint256 borrowFee;\r\n        uint256 requestedBorrowAmountETH;\r\n        uint256 amountOfCollateralNeededETH;\r\n        uint256 userCollateralBalanceETH;\r\n        uint256 userBorrowBalanceETH;\r\n        uint256 userTotalFeesETH;\r\n        uint256 borrowBalanceIncrease;\r\n        uint256 currentReserveStableRate;\r\n        uint256 availableLiquidity;\r\n        uint256 reserveDecimals;\r\n        uint256 finalUserBorrowRate;\r\n        CoreLibrary.InterestRateMode rateMode;\r\n        bool healthFactorBelowThreshold;\r\n    }\r\n\r\n    /**\r\n    * @dev Allows users to borrow a specific amount of the reserve currency, provided that the borrower\r\n    * already deposited enough collateral.\r\n    * @param _reserve the address of the reserve\r\n    * @param _amount the amount to be borrowed\r\n    * @param _interestRateMode the interest rate mode at which the user wants to borrow. Can be 0 (STABLE) or 1 (VARIABLE)\r\n    **/\r\n    function borrow(\r\n        address _reserve,\r\n        uint256 _amount,\r\n        uint256 _interestRateMode,\r\n        uint16 _referralCode\r\n    )\r\n        external\r\n        nonReentrant\r\n        onlyActiveReserve(_reserve)\r\n        onlyUnfreezedReserve(_reserve)\r\n        onlyAmountGreaterThanZero(_amount)\r\n    {\r\n        // Usage of a memory struct of vars to avoid \"Stack too deep\" errors due to local variables\r\n        BorrowLocalVars memory vars;\r\n\r\n        //check that the reserve is enabled for borrowing\r\n        require(core.isReserveBorrowingEnabled(_reserve), \"Reserve is not enabled for borrowing\");\r\n        //validate interest rate mode\r\n        require(\r\n            uint256(CoreLibrary.InterestRateMode.VARIABLE) == _interestRateMode ||\r\n                uint256(CoreLibrary.InterestRateMode.STABLE) == _interestRateMode,\r\n            \"Invalid interest rate mode selected\"\r\n        );\r\n\r\n        //cast the rateMode to coreLibrary.interestRateMode\r\n        vars.rateMode = CoreLibrary.InterestRateMode(_interestRateMode);\r\n\r\n        //check that the amount is available in the reserve\r\n        vars.availableLiquidity = core.getReserveAvailableLiquidity(_reserve);\r\n\r\n        require(\r\n            vars.availableLiquidity >= _amount,\r\n            \"There is not enough liquidity available in the reserve\"\r\n        );\r\n\r\n        (\r\n            ,\r\n            vars.userCollateralBalanceETH,\r\n            vars.userBorrowBalanceETH,\r\n            vars.userTotalFeesETH,\r\n            vars.currentLtv,\r\n            vars.currentLiquidationThreshold,\r\n            ,\r\n            vars.healthFactorBelowThreshold\r\n        ) = dataProvider.calculateUserGlobalData(msg.sender);\r\n\r\n        require(vars.userCollateralBalanceETH > 0, \"The collateral balance is 0\");\r\n\r\n        require(\r\n            !vars.healthFactorBelowThreshold,\r\n            \"The borrower can already be liquidated so he cannot borrow more\"\r\n        );\r\n\r\n        //calculating fees\r\n        vars.borrowFee = feeProvider.calculateLoanOriginationFee(msg.sender, _amount);\r\n\r\n        require(vars.borrowFee > 0, \"The amount to borrow is too small\");\r\n\r\n        vars.amountOfCollateralNeededETH = dataProvider.calculateCollateralNeededInETH(\r\n            _reserve,\r\n            _amount,\r\n            vars.borrowFee,\r\n            vars.userBorrowBalanceETH,\r\n            vars.userTotalFeesETH,\r\n            vars.currentLtv\r\n        );\r\n\r\n        require(\r\n            vars.amountOfCollateralNeededETH <= vars.userCollateralBalanceETH,\r\n            \"There is not enough collateral to cover a new borrow\"\r\n        );\r\n\r\n        /**\r\n        * Following conditions need to be met if the user is borrowing at a stable rate:\r\n        * 1. Reserve must be enabled for stable rate borrowing\r\n        * 2. Users cannot borrow from the reserve if their collateral is (mostly) the same currency\r\n        *    they are borrowing, to prevent abuses.\r\n        * 3. Users will be able to borrow only a relatively small, configurable amount of the total\r\n        *    liquidity\r\n        **/\r\n\r\n        if (vars.rateMode == CoreLibrary.InterestRateMode.STABLE) {\r\n            //check if the borrow mode is stable and if stable rate borrowing is enabled on this reserve\r\n            require(\r\n                core.isUserAllowedToBorrowAtStable(_reserve, msg.sender, _amount),\r\n                \"User cannot borrow the selected amount with a stable rate\"\r\n            );\r\n\r\n            //calculate the max available loan size in stable rate mode as a percentage of the\r\n            //available liquidity\r\n            uint256 maxLoanPercent = parametersProvider.getMaxStableRateBorrowSizePercent();\r\n            uint256 maxLoanSizeStable = vars.availableLiquidity * maxLoanPercent / 100;\r\n\r\n            require(\r\n                _amount <= maxLoanSizeStable,\r\n                \"User is trying to borrow too much liquidity at a stable rate\"\r\n            );\r\n        }\r\n\r\n        //all conditions passed - borrow is accepted\r\n        (vars.finalUserBorrowRate, vars.borrowBalanceIncrease) = core.updateStateOnBorrow(\r\n            _reserve,\r\n            msg.sender,\r\n            _amount,\r\n            vars.borrowFee,\r\n            vars.rateMode\r\n        );\r\n\r\n        //if we reached this point, we can transfer\r\n        core.transferToUser(_reserve, payable(msg.sender), _amount);\r\n\r\n        emit Borrow(\r\n            _reserve,\r\n            msg.sender,\r\n            _amount,\r\n            _interestRateMode,\r\n            vars.finalUserBorrowRate,\r\n            vars.borrowFee,\r\n            vars.borrowBalanceIncrease,\r\n            _referralCode,\r\n            //solium-disable-next-line\r\n            block.timestamp\r\n        );\r\n    }\r\n\r\n    /**\r\n    * @notice repays a borrow on the specific reserve, for the specified amount (or for the whole amount, if uint256(-1) is specified).\r\n    * @dev the target user is defined by _onBehalfOf. If there is no repayment on behalf of another account,\r\n    * _onBehalfOf must be equal to msg.sender.\r\n    * @param _reserve the address of the reserve on which the user borrowed\r\n    * @param _amount the amount to repay, or uint256(-1) if the user wants to repay everything\r\n    * @param _onBehalfOf the address for which msg.sender is repaying.\r\n    **/\r\n\r\n    struct RepayLocalVars {\r\n        uint256 principalBorrowBalance;\r\n        uint256 compoundedBorrowBalance;\r\n        uint256 borrowBalanceIncrease;\r\n        bool isETH;\r\n        uint256 paybackAmount;\r\n        uint256 paybackAmountMinusFees;\r\n        uint256 currentStableRate;\r\n        uint256 originationFee;\r\n    }\r\n\r\n    function repay(address _reserve, uint256 _amount, address payable _onBehalfOf)\r\n        external\r\n        payable\r\n        nonReentrant\r\n        onlyActiveReserve(_reserve)\r\n        onlyAmountGreaterThanZero(_amount)\r\n    {\r\n        // Usage of a memory struct of vars to avoid \"Stack too deep\" errors due to local variables\r\n        RepayLocalVars memory vars;\r\n\r\n        (\r\n            vars.principalBorrowBalance,\r\n            vars.compoundedBorrowBalance,\r\n            vars.borrowBalanceIncrease\r\n        ) = core.getUserBorrowBalances(_reserve, _onBehalfOf);\r\n\r\n        vars.originationFee = core.getUserOriginationFee(_reserve, _onBehalfOf);\r\n        vars.isETH = EthAddressLib.ethAddress() == _reserve;\r\n\r\n        require(vars.compoundedBorrowBalance > 0, \"The user does not have any borrow pending\");\r\n\r\n        require(\r\n            _amount != type(uint256).max || msg.sender == _onBehalfOf,\r\n            \"To repay on behalf of an user an explicit amount to repay is needed.\"\r\n        );\r\n\r\n        //default to max amount\r\n        vars.paybackAmount = vars.compoundedBorrowBalance + vars.originationFee;\r\n\r\n        if (_amount != type(uint256).max && _amount < vars.paybackAmount) {\r\n            vars.paybackAmount = _amount;\r\n        }\r\n\r\n        require(\r\n            !vars.isETH || msg.value >= vars.paybackAmount,\r\n            \"Invalid msg.value sent for the repayment\"\r\n        );\r\n\r\n        //if the amount is smaller than the origination fee, just transfer the amount to the fee destination address\r\n        if (vars.paybackAmount <= vars.originationFee) {\r\n            core.updateStateOnRepay(\r\n                _reserve,\r\n                _onBehalfOf,\r\n                0,\r\n                vars.paybackAmount,\r\n                vars.borrowBalanceIncrease,\r\n                false\r\n            );\r\n\r\n            core.transferToFeeCollectionAddress{value: (vars.isETH ? vars.paybackAmount : 0)}(\r\n                _reserve,\r\n                _onBehalfOf,\r\n                vars.paybackAmount,\r\n                addressesProvider.getTokenDistributor()\r\n            );\r\n\r\n            emit Repay(\r\n                _reserve,\r\n                _onBehalfOf,\r\n                msg.sender,\r\n                0,\r\n                vars.paybackAmount,\r\n                vars.borrowBalanceIncrease,\r\n                //solium-disable-next-line\r\n                block.timestamp\r\n            );\r\n            return;\r\n        }\r\n\r\n        vars.paybackAmountMinusFees = vars.paybackAmount - vars.originationFee;\r\n\r\n        core.updateStateOnRepay(\r\n            _reserve,\r\n            _onBehalfOf,\r\n            vars.paybackAmountMinusFees,\r\n            vars.originationFee,\r\n            vars.borrowBalanceIncrease,\r\n            vars.compoundedBorrowBalance == vars.paybackAmountMinusFees\r\n        );\r\n\r\n        //if the user didn't repay the origination fee, transfer the fee to the fee collection address\r\n        if(vars.originationFee > 0) {\r\n            core.transferToFeeCollectionAddress{value: (vars.isETH ? vars.originationFee : 0)}(\r\n                _reserve,\r\n                msg.sender,\r\n                vars.originationFee,\r\n                addressesProvider.getTokenDistributor()\r\n            );\r\n        }\r\n        \r\n        //sending the total msg.value if the transfer is ETH.\r\n        //the transferToReserve() function will take care of sending the\r\n        //excess ETH back to the caller\r\n        core.transferToReserve{value : (vars.isETH ? msg.value - vars.originationFee : 0)}(\r\n            _reserve,\r\n            payable(msg.sender),\r\n            vars.paybackAmountMinusFees\r\n        );\r\n\r\n        emit Repay(\r\n            _reserve,\r\n            _onBehalfOf,\r\n            msg.sender,\r\n            vars.paybackAmountMinusFees,\r\n            vars.originationFee,\r\n            vars.borrowBalanceIncrease,\r\n            //solium-disable-next-line\r\n            block.timestamp\r\n        );\r\n    }\r\n\r\n    /**\r\n    * @dev borrowers can user this function to swap between stable and variable borrow rate modes.\r\n    * @param _reserve the address of the reserve on which the user borrowed\r\n    **/\r\n    function swapBorrowRateMode(address _reserve)\r\n        external\r\n        nonReentrant\r\n        onlyActiveReserve(_reserve)\r\n        onlyUnfreezedReserve(_reserve)\r\n    {\r\n        (uint256 principalBorrowBalance, uint256 compoundedBorrowBalance, uint256 borrowBalanceIncrease) = core\r\n            .getUserBorrowBalances(_reserve, msg.sender);\r\n\r\n        require(\r\n            compoundedBorrowBalance > 0,\r\n            \"User does not have a borrow in progress on this reserve\"\r\n        );\r\n\r\n        CoreLibrary.InterestRateMode currentRateMode = core.getUserCurrentBorrowRateMode(\r\n            _reserve,\r\n            msg.sender\r\n        );\r\n\r\n        if (currentRateMode == CoreLibrary.InterestRateMode.VARIABLE) {\r\n            /**\r\n            * user wants to swap to stable, before swapping we need to ensure that\r\n            * 1. stable borrow rate is enabled on the reserve\r\n            * 2. user is not trying to abuse the reserve by depositing\r\n            * more collateral than he is borrowing, artificially lowering\r\n            * the interest rate, borrowing at variable, and switching to stable\r\n            **/\r\n            require(\r\n                core.isUserAllowedToBorrowAtStable(_reserve, msg.sender, compoundedBorrowBalance),\r\n                \"User cannot borrow the selected amount at stable\"\r\n            );\r\n        }\r\n\r\n        (CoreLibrary.InterestRateMode newRateMode, uint256 newBorrowRate) = core\r\n            .updateStateOnSwapRate(\r\n            _reserve,\r\n            msg.sender,\r\n            principalBorrowBalance,\r\n            compoundedBorrowBalance,\r\n            borrowBalanceIncrease,\r\n            currentRateMode\r\n        );\r\n\r\n        emit Swap(\r\n            _reserve,\r\n            msg.sender,\r\n            uint256(newRateMode),\r\n            newBorrowRate,\r\n            borrowBalanceIncrease,\r\n            //solium-disable-next-line\r\n            block.timestamp\r\n        );\r\n    }\r\n\r\n    /**\r\n    * @dev rebalances the stable interest rate of a user if current liquidity rate > user stable rate.\r\n    * this is regulated by Aave to ensure that the protocol is not abused, and the user is paying a fair\r\n    * rate. Anyone can call this function though.\r\n    * @param _reserve the address of the reserve\r\n    * @param _user the address of the user to be rebalanced\r\n    **/\r\n    function rebalanceStableBorrowRate(address _reserve, address _user)\r\n        external\r\n        nonReentrant\r\n        onlyActiveReserve(_reserve)\r\n    {\r\n        (, uint256 compoundedBalance, uint256 borrowBalanceIncrease) = core.getUserBorrowBalances(\r\n            _reserve,\r\n            _user\r\n        );\r\n\r\n        //step 1: user must be borrowing on _reserve at a stable rate\r\n        require(compoundedBalance > 0, \"User does not have any borrow for this reserve\");\r\n\r\n        require(\r\n            core.getUserCurrentBorrowRateMode(_reserve, _user) ==\r\n                CoreLibrary.InterestRateMode.STABLE,\r\n            \"The user borrow is variable and cannot be rebalanced\"\r\n        );\r\n\r\n        uint256 userCurrentStableRate = core.getUserCurrentStableBorrowRate(_reserve, _user);\r\n        uint256 liquidityRate = core.getReserveCurrentLiquidityRate(_reserve);\r\n        uint256 reserveCurrentStableRate = core.getReserveCurrentStableBorrowRate(_reserve);\r\n        uint256 rebalanceDownRateThreshold = reserveCurrentStableRate.rayMul(\r\n            WadRayMath.ray() + parametersProvider.getRebalanceDownRateDelta()\r\n        );\r\n\r\n        //step 2: we have two possible situations to rebalance:\r\n\r\n        //1. user stable borrow rate is below the current liquidity rate. The loan needs to be rebalanced,\r\n        //as this situation can be abused (user putting back the borrowed liquidity in the same reserve to earn on it)\r\n        //2. user stable rate is above the market avg borrow rate of a certain delta, and utilization rate is low.\r\n        //In this case, the user is paying an interest that is too high, and needs to be rescaled down.\r\n        if (\r\n            userCurrentStableRate < liquidityRate ||\r\n            userCurrentStableRate > rebalanceDownRateThreshold\r\n        ) {\r\n            uint256 newStableRate = core.updateStateOnRebalance(\r\n                _reserve,\r\n                _user,\r\n                borrowBalanceIncrease\r\n            );\r\n\r\n            emit RebalanceStableBorrowRate(\r\n                _reserve,\r\n                _user,\r\n                newStableRate,\r\n                borrowBalanceIncrease,\r\n                //solium-disable-next-line\r\n                block.timestamp\r\n            );\r\n\r\n            return;\r\n\r\n        }\r\n\r\n        revert(\"Interest rate rebalance conditions were not met\");\r\n    }\r\n\r\n    /**\r\n    * @dev allows depositors to enable or disable a specific deposit as collateral.\r\n    * @param _reserve the address of the reserve\r\n    * @param _useAsCollateral true if the user wants to user the deposit as collateral, false otherwise.\r\n    **/\r\n    function setUserUseReserveAsCollateral(address _reserve, bool _useAsCollateral)\r\n        external\r\n        nonReentrant\r\n        onlyActiveReserve(_reserve)\r\n        onlyUnfreezedReserve(_reserve)\r\n    {\r\n        uint256 underlyingBalance = core.getUserUnderlyingAssetBalance(_reserve, msg.sender);\r\n\r\n        require(underlyingBalance > 0, \"User does not have any liquidity deposited\");\r\n\r\n        require(\r\n            dataProvider.balanceDecreaseAllowed(_reserve, msg.sender, underlyingBalance),\r\n            \"User deposit is already being used as collateral\"\r\n        );\r\n\r\n        core.setUserUseReserveAsCollateral(_reserve, msg.sender, _useAsCollateral);\r\n\r\n        if (_useAsCollateral) {\r\n            emit ReserveUsedAsCollateralEnabled(_reserve, msg.sender);\r\n        } else {\r\n            emit ReserveUsedAsCollateralDisabled(_reserve, msg.sender);\r\n        }\r\n    }\r\n\r\n    /**\r\n    * @dev users can invoke this function to liquidate an undercollateralized position.\r\n    * @param _reserve the address of the collateral to liquidated\r\n    * @param _reserve the address of the principal reserve\r\n    * @param _user the address of the borrower\r\n    * @param _purchaseAmount the amount of principal that the liquidator wants to repay\r\n    * @param _receiveAToken true if the liquidators wants to receive the aTokens, false if\r\n    * he wants to receive the underlying asset directly\r\n    **/\r\n    function liquidationCall(\r\n        address _collateral,\r\n        address _reserve,\r\n        address _user,\r\n        uint256 _purchaseAmount,\r\n        bool _receiveAToken\r\n    ) external payable nonReentrant onlyActiveReserve(_reserve) onlyActiveReserve(_collateral) {\r\n        address liquidationManager = addressesProvider.getLendingPoolLiquidationManager();\r\n\r\n        //solium-disable-next-line\r\n        (bool success, bytes memory result) = liquidationManager.delegatecall(\r\n            abi.encodeWithSignature(\r\n                \"liquidationCall(address,address,address,uint256,bool)\",\r\n                _collateral,\r\n                _reserve,\r\n                _user,\r\n                _purchaseAmount,\r\n                _receiveAToken\r\n            )\r\n        );\r\n        require(success, \"Liquidation call failed\");\r\n\r\n        (uint256 returnCode, string memory returnMessage) = abi.decode(result, (uint256, string));\r\n\r\n        if (returnCode != 0) {\r\n            //error found\r\n            revert(string(abi.encodePacked(\"Liquidation failed: \", returnMessage)));\r\n        }\r\n    }\r\n\r\n    /**\r\n    * @dev allows smartcontracts to access the liquidity of the pool within one transaction,\r\n    * as long as the amount taken plus a fee is returned. NOTE There are security concerns for developers of flashloan receiver contracts\r\n    * that must be kept into consideration. For further details please visit https://developers.aave.com\r\n    * @param _receiver The address of the contract receiving the funds. The receiver should implement the IFlashLoanReceiver interface.\r\n    * @param _reserve the address of the principal reserve\r\n    * @param _amount the amount requested for this flashloan\r\n    **/\r\n    function flashLoan(address _receiver, address _reserve, uint256 _amount, bytes memory _params)\r\n        public\r\n        nonReentrant\r\n        onlyActiveReserve(_reserve)\r\n        onlyAmountGreaterThanZero(_amount)\r\n    {\r\n        //check that the reserve has enough available liquidity\r\n        //we avoid using the getAvailableLiquidity() function in LendingPoolCore to save gas\r\n        uint256 availableLiquidityBefore = _reserve == EthAddressLib.ethAddress()\r\n            ? address(core).balance\r\n            : IERC20(_reserve).balanceOf(address(core));\r\n\r\n        require(\r\n            availableLiquidityBefore >= _amount,\r\n            \"There is not enough liquidity available to borrow\"\r\n        );\r\n\r\n        (uint256 totalFeeBips, uint256 protocolFeeBips) = parametersProvider\r\n            .getFlashLoanFeesInBips();\r\n        //calculate amount fee\r\n        uint256 amountFee = _amount * totalFeeBips / 10000;\r\n\r\n        //protocol fee is the part of the amountFee reserved for the protocol - the rest goes to depositors\r\n        uint256 protocolFee = amountFee * protocolFeeBips / 10000;\r\n        require(\r\n            amountFee > 0 && protocolFee > 0,\r\n            \"The requested amount is too small for a flashLoan.\"\r\n        );\r\n\r\n        //get the FlashLoanReceiver instance\r\n        IFlashLoanReceiver receiver = IFlashLoanReceiver(_receiver);\r\n\r\n        address payable userPayable = payable(_receiver);\r\n\r\n        //transfer funds to the receiver\r\n        core.transferToUser(_reserve, userPayable, _amount);\r\n\r\n        //execute action of the receiver\r\n        receiver.executeOperation(_reserve, _amount, amountFee, _params);\r\n\r\n        //check that the actual balance of the core contract includes the returned amount\r\n        uint256 availableLiquidityAfter = _reserve == EthAddressLib.ethAddress()\r\n            ? address(core).balance\r\n            : IERC20(_reserve).balanceOf(address(core));\r\n\r\n        require(\r\n            availableLiquidityAfter == availableLiquidityBefore + amountFee,\r\n            \"The actual balance of the protocol is inconsistent\"\r\n        );\r\n\r\n        core.updateStateOnFlashLoan(\r\n            _reserve,\r\n            availableLiquidityBefore,\r\n            amountFee - protocolFee,\r\n            protocolFee\r\n        );\r\n\r\n        //solium-disable-next-line\r\n        emit FlashLoan(_receiver, _reserve, _amount, amountFee, protocolFee, block.timestamp);\r\n    }\r\n\r\n    /**\r\n    * @dev accessory functions to fetch data from the core contract\r\n    **/\r\n\r\n    function getReserveConfigurationData(address _reserve)\r\n        external\r\n        view\r\n        returns (\r\n            uint256 ltv,\r\n            uint256 liquidationThreshold,\r\n            uint256 liquidationBonus,\r\n            address interestRateStrategyAddress,\r\n            bool usageAsCollateralEnabled,\r\n            bool borrowingEnabled,\r\n            bool stableBorrowRateEnabled,\r\n            bool isActive\r\n        )\r\n    {\r\n        return dataProvider.getReserveConfigurationData(_reserve);\r\n    }\r\n\r\n    function getReserveData(address _reserve)\r\n        external\r\n        view\r\n        returns (\r\n            uint256 totalLiquidity,\r\n            uint256 availableLiquidity,\r\n            uint256 totalBorrowsStable,\r\n            uint256 totalBorrowsVariable,\r\n            uint256 liquidityRate,\r\n            uint256 variableBorrowRate,\r\n            uint256 stableBorrowRate,\r\n            uint256 averageStableBorrowRate,\r\n            uint256 utilizationRate,\r\n            uint256 liquidityIndex,\r\n            uint256 variableBorrowIndex,\r\n            address aTokenAddress,\r\n            uint40 lastUpdateTimestamp\r\n        )\r\n    {\r\n        return dataProvider.getReserveData(_reserve);\r\n    }\r\n\r\n    function getUserAccountData(address _user)\r\n        external\r\n        view\r\n        returns (\r\n            uint256 totalLiquidityETH,\r\n            uint256 totalCollateralETH,\r\n            uint256 totalBorrowsETH,\r\n            uint256 totalFeesETH,\r\n            uint256 availableBorrowsETH,\r\n            uint256 currentLiquidationThreshold,\r\n            uint256 ltv,\r\n            uint256 healthFactor\r\n        )\r\n    {\r\n        return dataProvider.getUserAccountData(_user);\r\n    }\r\n\r\n    function getUserReserveData(address _reserve, address _user)\r\n        external\r\n        view\r\n        returns (\r\n            uint256 currentATokenBalance,\r\n            uint256 currentBorrowBalance,\r\n            uint256 principalBorrowBalance,\r\n            uint256 borrowRateMode,\r\n            uint256 borrowRate,\r\n            uint256 liquidityRate,\r\n            uint256 originationFee,\r\n            uint256 variableBorrowIndex,\r\n            uint256 lastUpdateTimestamp,\r\n            bool usageAsCollateralEnabled\r\n        )\r\n    {\r\n        return dataProvider.getUserReserveData(_reserve, _user);\r\n    }\r\n\r\n    function getReserves() external view returns (address[] memory) {\r\n        return core.getReserves();\r\n    }\r\n\r\n    /**\r\n    * @dev internal function to save on code size for the onlyActiveReserve modifier\r\n    **/\r\n    function requireReserveActiveInternal(address _reserve) internal view {\r\n        require(core.getReserveIsActive(_reserve), \"Action requires an active reserve\");\r\n    }\r\n\r\n    /**\r\n    * @notice internal function to save on code size for the onlyUnfreezedReserve modifier\r\n    **/\r\n    function requireReserveNotFreezedInternal(address _reserve) internal view {\r\n        require(!core.getReserveIsFreezed(_reserve), \"Action requires an unfreezed reserve\");\r\n    }\r\n\r\n    /**\r\n    * @notice internal function to save on code size for the onlyAmountGreaterThanZero modifier\r\n    **/\r\n    function requireAmountGreaterThanZeroInternal(uint256 _amount) internal pure {\r\n        require(_amount > 0, \"Amount must be greater than 0\");\r\n    }\r\n}\r\n",
  "sourcePath": "C:\\Proj\\fork-protocol\\contracts\\lendingpool\\LendingPool.sol",
  "compiler": {
    "name": "solc",
    "version": "0.8.24+commit.e11b9ed9.Emscripten.clang"
  },
  "schemaVersion": "3.4.16",
  "updatedAt": "2024-02-11T21:41:58.660Z",
  "devdoc": {
    "author": "Aave*",
    "errors": {
      "ReentrancyGuardReentrantCall()": [
        {
          "details": "Unauthorized reentrant call."
        }
      ]
    },
    "events": {
      "Borrow(address,address,uint256,uint256,uint256,uint256,uint256,uint16,uint256)": {
        "details": "emitted on borrow",
        "params": {
          "_amount": "the amount to be deposited",
          "_borrowBalanceIncrease": "the balance increase since the last borrow, 0 if it's the first time borrowing",
          "_borrowRate": "the rate at which the user has borrowed",
          "_borrowRateMode": "the rate mode, can be either 1-stable or 2-variable",
          "_originationFee": "the origination fee to be paid by the user",
          "_referral": "the referral number of the action",
          "_reserve": "the address of the reserve",
          "_timestamp": "the timestamp of the action*",
          "_user": "the address of the user"
        }
      },
      "Deposit(address,address,uint256,uint16,uint256)": {
        "details": "emitted on deposit",
        "params": {
          "_amount": "the amount to be deposited",
          "_referral": "the referral number of the action",
          "_reserve": "the address of the reserve",
          "_timestamp": "the timestamp of the action*",
          "_user": "the address of the user"
        }
      },
      "FlashLoan(address,address,uint256,uint256,uint256,uint256)": {
        "details": "emitted when a flashloan is executed",
        "params": {
          "_amount": "the amount requested",
          "_protocolFee": "the part of the fee for the protocol",
          "_reserve": "the address of the reserve",
          "_target": "the address of the flashLoanReceiver",
          "_timestamp": "the timestamp of the action*",
          "_totalFee": "the total fee on the amount"
        }
      },
      "LiquidationCall(address,address,address,uint256,uint256,uint256,address,bool,uint256)": {
        "details": "emitted when a borrower is liquidated",
        "params": {
          "_accruedBorrowInterest": "the amount of interest accrued by the borrower since the last action",
          "_collateral": "the address of the collateral being liquidated",
          "_liquidatedCollateralAmount": "the amount of collateral being liquidated",
          "_liquidator": "the address of the liquidator",
          "_purchaseAmount": "the total amount liquidated",
          "_receiveAToken": "true if the liquidator wants to receive aTokens, false otherwise",
          "_reserve": "the address of the reserve",
          "_timestamp": "the timestamp of the action*",
          "_user": "the address of the user being liquidated"
        }
      },
      "OriginationFeeLiquidated(address,address,address,uint256,uint256,uint256)": {
        "details": "emitted when a borrow fee is liquidated",
        "params": {
          "_collateral": "the address of the collateral being liquidated",
          "_feeLiquidated": "the total fee liquidated",
          "_liquidatedCollateralForFee": "the amount of collateral received by the protocol in exchange for the fee",
          "_reserve": "the address of the reserve",
          "_timestamp": "the timestamp of the action*",
          "_user": "the address of the user being liquidated"
        }
      },
      "RebalanceStableBorrowRate(address,address,uint256,uint256,uint256)": {
        "details": "emitted when the stable rate of a user gets rebalanced",
        "params": {
          "_borrowBalanceIncrease": "the balance increase since the last action",
          "_newStableRate": "the new stable borrow rate after the rebalance",
          "_reserve": "the address of the reserve",
          "_timestamp": "the timestamp of the action*",
          "_user": "the address of the user for which the rebalance has been executed"
        }
      },
      "RedeemUnderlying(address,address,uint256,uint256)": {
        "details": "emitted during a redeem action.",
        "params": {
          "_amount": "the amount to be deposited",
          "_reserve": "the address of the reserve",
          "_timestamp": "the timestamp of the action*",
          "_user": "the address of the user"
        }
      },
      "Repay(address,address,address,uint256,uint256,uint256,uint256)": {
        "details": "emitted on repay",
        "params": {
          "_amountMinusFees": "the amount repaid minus fees",
          "_borrowBalanceIncrease": "the balance increase since the last action",
          "_fees": "the fees repaid",
          "_repayer": "the address of the user that has performed the repay action",
          "_reserve": "the address of the reserve",
          "_timestamp": "the timestamp of the action*",
          "_user": "the address of the user for which the repay has been executed"
        }
      },
      "ReserveUsedAsCollateralDisabled(address,address)": {
        "details": "emitted when a user disables a reserve as collateral",
        "params": {
          "_reserve": "the address of the reserve",
          "_user": "the address of the user*"
        }
      },
      "ReserveUsedAsCollateralEnabled(address,address)": {
        "details": "emitted when a user enables a reserve as collateral",
        "params": {
          "_reserve": "the address of the reserve",
          "_user": "the address of the user*"
        }
      },
      "Swap(address,address,uint256,uint256,uint256,uint256)": {
        "details": "emitted when a user performs a rate swap",
        "params": {
          "_borrowBalanceIncrease": "the balance increase since the last action",
          "_newRate": "the new borrow rate",
          "_newRateMode": "the new interest rate mode",
          "_reserve": "the address of the reserve",
          "_timestamp": "the timestamp of the action*",
          "_user": "the address of the user executing the swap"
        }
      }
    },
    "kind": "dev",
    "methods": {
      "borrow(address,uint256,uint256,uint16)": {
        "details": "Allows users to borrow a specific amount of the reserve currency, provided that the borrower already deposited enough collateral.",
        "params": {
          "_amount": "the amount to be borrowed",
          "_interestRateMode": "the interest rate mode at which the user wants to borrow. Can be 0 (STABLE) or 1 (VARIABLE)*",
          "_reserve": "the address of the reserve"
        }
      },
      "deposit(address,uint256,uint16)": {
        "details": "deposits The underlying asset into the reserve. A corresponding amount of the overlying asset (aTokens) is minted.",
        "params": {
          "_amount": "the amount to be deposited",
          "_referralCode": "integrators are assigned a referral code and can potentially receive rewards.*",
          "_reserve": "the address of the reserve"
        }
      },
      "flashLoan(address,address,uint256,bytes)": {
        "details": "allows smartcontracts to access the liquidity of the pool within one transaction, as long as the amount taken plus a fee is returned. NOTE There are security concerns for developers of flashloan receiver contracts that must be kept into consideration. For further details please visit https://developers.aave.com",
        "params": {
          "_amount": "the amount requested for this flashloan*",
          "_receiver": "The address of the contract receiving the funds. The receiver should implement the IFlashLoanReceiver interface.",
          "_reserve": "the address of the principal reserve"
        }
      },
      "getReserveConfigurationData(address)": {
        "details": "accessory functions to fetch data from the core contract*"
      },
      "initialize(address)": {
        "details": "this function is invoked by the proxy contract when the LendingPool contract is added to the AddressesProvider.",
        "params": {
          "_addressesProvider": "the address of the LendingPoolAddressesProvider registry*"
        }
      },
      "liquidationCall(address,address,address,uint256,bool)": {
        "details": "users can invoke this function to liquidate an undercollateralized position.",
        "params": {
          "_purchaseAmount": "the amount of principal that the liquidator wants to repay",
          "_receiveAToken": "true if the liquidators wants to receive the aTokens, false if he wants to receive the underlying asset directly*",
          "_reserve": "the address of the principal reserve",
          "_user": "the address of the borrower"
        }
      },
      "rebalanceStableBorrowRate(address,address)": {
        "details": "rebalances the stable interest rate of a user if current liquidity rate > user stable rate. this is regulated by Aave to ensure that the protocol is not abused, and the user is paying a fair rate. Anyone can call this function though.",
        "params": {
          "_reserve": "the address of the reserve",
          "_user": "the address of the user to be rebalanced*"
        }
      },
      "redeemUnderlying(address,address,uint256,uint256)": {
        "details": "Redeems the underlying amount of assets requested by _user. This function is executed by the overlying aToken contract in response to a redeem action.",
        "params": {
          "_amount": "the underlying amount to be redeemed*",
          "_reserve": "the address of the reserve",
          "_user": "the address of the user performing the action"
        }
      },
      "setUserUseReserveAsCollateral(address,bool)": {
        "details": "allows depositors to enable or disable a specific deposit as collateral.",
        "params": {
          "_reserve": "the address of the reserve",
          "_useAsCollateral": "true if the user wants to user the deposit as collateral, false otherwise.*"
        }
      },
      "swapBorrowRateMode(address)": {
        "details": "borrowers can user this function to swap between stable and variable borrow rate modes.",
        "params": {
          "_reserve": "the address of the reserve on which the user borrowed*"
        }
      }
    },
    "title": "LendingPool contract",
    "version": 1
  },
  "userdoc": {
    "kind": "user",
    "methods": {},
    "notice": "Implements the actions of the LendingPool, and exposes accessory methods to fetch the users and reserve data",
    "version": 1
  }
}