{
  "contractName": "LendingRateOracle",
  "abi": [
    {
      "inputs": [
        {
          "internalType": "address",
          "name": "_asset",
          "type": "address"
        }
      ],
      "name": "getMarketBorrowRate",
      "outputs": [
        {
          "internalType": "uint256",
          "name": "",
          "type": "uint256"
        }
      ],
      "stateMutability": "view",
      "type": "function"
    },
    {
      "inputs": [
        {
          "internalType": "address",
          "name": "_asset",
          "type": "address"
        },
        {
          "internalType": "uint256",
          "name": "_rate",
          "type": "uint256"
        }
      ],
      "name": "setMarketBorrowRate",
      "outputs": [],
      "stateMutability": "nonpayable",
      "type": "function"
    },
    {
      "inputs": [
        {
          "internalType": "address",
          "name": "_asset",
          "type": "address"
        }
      ],
      "name": "getMarketLiquidityRate",
      "outputs": [
        {
          "internalType": "uint256",
          "name": "",
          "type": "uint256"
        }
      ],
      "stateMutability": "view",
      "type": "function"
    },
    {
      "inputs": [
        {
          "internalType": "address",
          "name": "_asset",
          "type": "address"
        },
        {
          "internalType": "uint256",
          "name": "_rate",
          "type": "uint256"
        }
      ],
      "name": "setMarketLiquidityRate",
      "outputs": [],
      "stateMutability": "nonpayable",
      "type": "function"
    }
  ],
  "bytecode": "0x6080806040523461001657610168908161001b8239f35b5f80fdfe6040608081526004361015610012575f80fd5b5f3560e01c806372eb293d146100e95780639f86a0ee146100b6578063bb85c0bb146100805763fbe5ba1e14610046575f80fd5b3461007c57602036600319011261007c576020906001600160a01b0361006a61011c565b165f5260018252805f20549051908152f35b5f80fd5b503461007c57602036600319011261007c576020906001600160a01b036100a561011c565b165f525f8252805f20549051908152f35b503461007c578060031936011261007c576001600160a01b036100d761011c565b165f9081526001602052206024359055005b503461007c578060031936011261007c576001600160a01b0361010a61011c565b165f525f602052602435905f20555f80f35b600435906001600160a01b038216820361007c5756fea26469706673582212209a369cc6c30d67682c68a34c2f048634462957873fa972697ef873f6a015864164736f6c63430008180033",
  "immutableReferences": {},
  "source": "pragma solidity ^0.8.24;\r\n\r\nimport \"../../interfaces/ILendingRateOracle.sol\";\r\n\r\n\r\ncontract LendingRateOracle is ILendingRateOracle {\r\n\r\n    mapping(address => uint256) borrowRates;\r\n    mapping(address => uint256) liquidityRates;\r\n\r\n\r\n    function getMarketBorrowRate(address _asset) external view returns(uint256) {\r\n        return borrowRates[_asset];\r\n    }\r\n\r\n    function setMarketBorrowRate(address _asset, uint256 _rate) external {\r\n        borrowRates[_asset] = _rate;\r\n    }\r\n\r\n    function getMarketLiquidityRate(address _asset) external view returns(uint256) {\r\n        return liquidityRates[_asset];\r\n    }\r\n\r\n    function setMarketLiquidityRate(address _asset, uint256 _rate) external {\r\n        liquidityRates[_asset] = _rate;\r\n    }\r\n}",
  "sourcePath": "C:\\Proj\\fork-protocol\\contracts\\mocks\\oracle\\LendingRateOracle.sol",
  "compiler": {
    "name": "solc",
    "version": "0.8.24+commit.e11b9ed9.Emscripten.clang"
  },
  "schemaVersion": "3.4.16",
  "updatedAt": "2024-02-11T21:41:58.848Z",
  "devdoc": {
    "kind": "dev",
    "methods": {
      "getMarketBorrowRate(address)": {
        "details": "returns the market borrow rate in ray*"
      },
      "setMarketBorrowRate(address,uint256)": {
        "details": "sets the market borrow rate. Rate value must be in ray*"
      }
    },
    "version": 1
  },
  "userdoc": {
    "kind": "user",
    "methods": {},
    "version": 1
  }
}