{
  "contractName": "LendingPoolConfigurator",
  "abi": [
    {
      "anonymous": false,
      "inputs": [
        {
          "indexed": true,
          "internalType": "address",
          "name": "_reserve",
          "type": "address"
        }
      ],
      "name": "BorrowingDisabledOnReserve",
      "type": "event"
    },
    {
      "anonymous": false,
      "inputs": [
        {
          "indexed": false,
          "internalType": "address",
          "name": "_reserve",
          "type": "address"
        },
        {
          "indexed": false,
          "internalType": "bool",
          "name": "_stableRateEnabled",
          "type": "bool"
        }
      ],
      "name": "BorrowingEnabledOnReserve",
      "type": "event"
    },
    {
      "anonymous": false,
      "inputs": [
        {
          "indexed": true,
          "internalType": "address",
          "name": "_reserve",
          "type": "address"
        }
      ],
      "name": "ReserveActivated",
      "type": "event"
    },
    {
      "anonymous": false,
      "inputs": [
        {
          "indexed": false,
          "internalType": "address",
          "name": "_reserve",
          "type": "address"
        },
        {
          "indexed": false,
          "internalType": "uint256",
          "name": "_ltv",
          "type": "uint256"
        }
      ],
      "name": "ReserveBaseLtvChanged",
      "type": "event"
    },
    {
      "anonymous": false,
      "inputs": [
        {
          "indexed": true,
          "internalType": "address",
          "name": "_reserve",
          "type": "address"
        }
      ],
      "name": "ReserveDeactivated",
      "type": "event"
    },
    {
      "anonymous": false,
      "inputs": [
        {
          "indexed": false,
          "internalType": "address",
          "name": "_reserve",
          "type": "address"
        },
        {
          "indexed": false,
          "internalType": "uint256",
          "name": "_decimals",
          "type": "uint256"
        }
      ],
      "name": "ReserveDecimalsChanged",
      "type": "event"
    },
    {
      "anonymous": false,
      "inputs": [
        {
          "indexed": true,
          "internalType": "address",
          "name": "_reserve",
          "type": "address"
        }
      ],
      "name": "ReserveDisabledAsCollateral",
      "type": "event"
    },
    {
      "anonymous": false,
      "inputs": [
        {
          "indexed": true,
          "internalType": "address",
          "name": "_reserve",
          "type": "address"
        },
        {
          "indexed": false,
          "internalType": "uint256",
          "name": "_ltv",
          "type": "uint256"
        },
        {
          "indexed": false,
          "internalType": "uint256",
          "name": "_liquidationThreshold",
          "type": "uint256"
        },
        {
          "indexed": false,
          "internalType": "uint256",
          "name": "_liquidationBonus",
          "type": "uint256"
        }
      ],
      "name": "ReserveEnabledAsCollateral",
      "type": "event"
    },
    {
      "anonymous": false,
      "inputs": [
        {
          "indexed": true,
          "internalType": "address",
          "name": "_reserve",
          "type": "address"
        }
      ],
      "name": "ReserveFreezed",
      "type": "event"
    },
    {
      "anonymous": false,
      "inputs": [
        {
          "indexed": true,
          "internalType": "address",
          "name": "_reserve",
          "type": "address"
        },
        {
          "indexed": true,
          "internalType": "address",
          "name": "_aToken",
          "type": "address"
        },
        {
          "indexed": false,
          "internalType": "address",
          "name": "_interestRateStrategyAddress",
          "type": "address"
        }
      ],
      "name": "ReserveInitialized",
      "type": "event"
    },
    {
      "anonymous": false,
      "inputs": [
        {
          "indexed": false,
          "internalType": "address",
          "name": "_reserve",
          "type": "address"
        },
        {
          "indexed": false,
          "internalType": "address",
          "name": "_strategy",
          "type": "address"
        }
      ],
      "name": "ReserveInterestRateStrategyChanged",
      "type": "event"
    },
    {
      "anonymous": false,
      "inputs": [
        {
          "indexed": false,
          "internalType": "address",
          "name": "_reserve",
          "type": "address"
        },
        {
          "indexed": false,
          "internalType": "uint256",
          "name": "_bonus",
          "type": "uint256"
        }
      ],
      "name": "ReserveLiquidationBonusChanged",
      "type": "event"
    },
    {
      "anonymous": false,
      "inputs": [
        {
          "indexed": false,
          "internalType": "address",
          "name": "_reserve",
          "type": "address"
        },
        {
          "indexed": false,
          "internalType": "uint256",
          "name": "_threshold",
          "type": "uint256"
        }
      ],
      "name": "ReserveLiquidationThresholdChanged",
      "type": "event"
    },
    {
      "anonymous": false,
      "inputs": [
        {
          "indexed": true,
          "internalType": "address",
          "name": "_reserve",
          "type": "address"
        }
      ],
      "name": "ReserveRemoved",
      "type": "event"
    },
    {
      "anonymous": false,
      "inputs": [
        {
          "indexed": true,
          "internalType": "address",
          "name": "_reserve",
          "type": "address"
        }
      ],
      "name": "ReserveUnfreezed",
      "type": "event"
    },
    {
      "anonymous": false,
      "inputs": [
        {
          "indexed": true,
          "internalType": "address",
          "name": "_reserve",
          "type": "address"
        }
      ],
      "name": "StableRateDisabledOnReserve",
      "type": "event"
    },
    {
      "anonymous": false,
      "inputs": [
        {
          "indexed": true,
          "internalType": "address",
          "name": "_reserve",
          "type": "address"
        }
      ],
      "name": "StableRateEnabledOnReserve",
      "type": "event"
    },
    {
      "inputs": [],
      "name": "CONFIGURATOR_REVISION",
      "outputs": [
        {
          "internalType": "uint256",
          "name": "",
          "type": "uint256"
        }
      ],
      "stateMutability": "view",
      "type": "function"
    },
    {
      "inputs": [],
      "name": "poolAddressesProvider",
      "outputs": [
        {
          "internalType": "contract LendingPoolAddressesProvider",
          "name": "",
          "type": "address"
        }
      ],
      "stateMutability": "view",
      "type": "function"
    },
    {
      "inputs": [
        {
          "internalType": "contract LendingPoolAddressesProvider",
          "name": "_poolAddressesProvider",
          "type": "address"
        }
      ],
      "name": "initialize",
      "outputs": [],
      "stateMutability": "nonpayable",
      "type": "function"
    },
    {
      "inputs": [
        {
          "internalType": "address",
          "name": "_reserve",
          "type": "address"
        },
        {
          "internalType": "uint8",
          "name": "_underlyingAssetDecimals",
          "type": "uint8"
        },
        {
          "internalType": "address",
          "name": "_interestRateStrategyAddress",
          "type": "address"
        }
      ],
      "name": "initReserve",
      "outputs": [],
      "stateMutability": "nonpayable",
      "type": "function"
    },
    {
      "inputs": [
        {
          "internalType": "address",
          "name": "_reserve",
          "type": "address"
        },
        {
          "internalType": "string",
          "name": "_aTokenName",
          "type": "string"
        },
        {
          "internalType": "string",
          "name": "_aTokenSymbol",
          "type": "string"
        },
        {
          "internalType": "uint8",
          "name": "_underlyingAssetDecimals",
          "type": "uint8"
        },
        {
          "internalType": "address",
          "name": "_interestRateStrategyAddress",
          "type": "address"
        }
      ],
      "name": "initReserveWithData",
      "outputs": [],
      "stateMutability": "nonpayable",
      "type": "function"
    },
    {
      "inputs": [
        {
          "internalType": "address",
          "name": "_reserveToRemove",
          "type": "address"
        }
      ],
      "name": "removeLastAddedReserve",
      "outputs": [],
      "stateMutability": "nonpayable",
      "type": "function"
    },
    {
      "inputs": [
        {
          "internalType": "address",
          "name": "_reserve",
          "type": "address"
        },
        {
          "internalType": "bool",
          "name": "_stableBorrowRateEnabled",
          "type": "bool"
        }
      ],
      "name": "enableBorrowingOnReserve",
      "outputs": [],
      "stateMutability": "nonpayable",
      "type": "function"
    },
    {
      "inputs": [
        {
          "internalType": "address",
          "name": "_reserve",
          "type": "address"
        }
      ],
      "name": "disableBorrowingOnReserve",
      "outputs": [],
      "stateMutability": "nonpayable",
      "type": "function"
    },
    {
      "inputs": [
        {
          "internalType": "address",
          "name": "_reserve",
          "type": "address"
        },
        {
          "internalType": "uint256",
          "name": "_baseLTVasCollateral",
          "type": "uint256"
        },
        {
          "internalType": "uint256",
          "name": "_liquidationThreshold",
          "type": "uint256"
        },
        {
          "internalType": "uint256",
          "name": "_liquidationBonus",
          "type": "uint256"
        }
      ],
      "name": "enableReserveAsCollateral",
      "outputs": [],
      "stateMutability": "nonpayable",
      "type": "function"
    },
    {
      "inputs": [
        {
          "internalType": "address",
          "name": "_reserve",
          "type": "address"
        }
      ],
      "name": "disableReserveAsCollateral",
      "outputs": [],
      "stateMutability": "nonpayable",
      "type": "function"
    },
    {
      "inputs": [
        {
          "internalType": "address",
          "name": "_reserve",
          "type": "address"
        }
      ],
      "name": "enableReserveStableBorrowRate",
      "outputs": [],
      "stateMutability": "nonpayable",
      "type": "function"
    },
    {
      "inputs": [
        {
          "internalType": "address",
          "name": "_reserve",
          "type": "address"
        }
      ],
      "name": "disableReserveStableBorrowRate",
      "outputs": [],
      "stateMutability": "nonpayable",
      "type": "function"
    },
    {
      "inputs": [
        {
          "internalType": "address",
          "name": "_reserve",
          "type": "address"
        }
      ],
      "name": "activateReserve",
      "outputs": [],
      "stateMutability": "nonpayable",
      "type": "function"
    },
    {
      "inputs": [
        {
          "internalType": "address",
          "name": "_reserve",
          "type": "address"
        }
      ],
      "name": "deactivateReserve",
      "outputs": [],
      "stateMutability": "nonpayable",
      "type": "function"
    },
    {
      "inputs": [
        {
          "internalType": "address",
          "name": "_reserve",
          "type": "address"
        }
      ],
      "name": "freezeReserve",
      "outputs": [],
      "stateMutability": "nonpayable",
      "type": "function"
    },
    {
      "inputs": [
        {
          "internalType": "address",
          "name": "_reserve",
          "type": "address"
        }
      ],
      "name": "unfreezeReserve",
      "outputs": [],
      "stateMutability": "nonpayable",
      "type": "function"
    },
    {
      "inputs": [
        {
          "internalType": "address",
          "name": "_reserve",
          "type": "address"
        },
        {
          "internalType": "uint256",
          "name": "_ltv",
          "type": "uint256"
        }
      ],
      "name": "setReserveBaseLTVasCollateral",
      "outputs": [],
      "stateMutability": "nonpayable",
      "type": "function"
    },
    {
      "inputs": [
        {
          "internalType": "address",
          "name": "_reserve",
          "type": "address"
        },
        {
          "internalType": "uint256",
          "name": "_threshold",
          "type": "uint256"
        }
      ],
      "name": "setReserveLiquidationThreshold",
      "outputs": [],
      "stateMutability": "nonpayable",
      "type": "function"
    },
    {
      "inputs": [
        {
          "internalType": "address",
          "name": "_reserve",
          "type": "address"
        },
        {
          "internalType": "uint256",
          "name": "_bonus",
          "type": "uint256"
        }
      ],
      "name": "setReserveLiquidationBonus",
      "outputs": [],
      "stateMutability": "nonpayable",
      "type": "function"
    },
    {
      "inputs": [
        {
          "internalType": "address",
          "name": "_reserve",
          "type": "address"
        },
        {
          "internalType": "uint256",
          "name": "_decimals",
          "type": "uint256"
        }
      ],
      "name": "setReserveDecimals",
      "outputs": [],
      "stateMutability": "nonpayable",
      "type": "function"
    },
    {
      "inputs": [
        {
          "internalType": "address",
          "name": "_reserve",
          "type": "address"
        },
        {
          "internalType": "address",
          "name": "_rateStrategyAddress",
          "type": "address"
        }
      ],
      "name": "setReserveInterestRateStrategyAddress",
      "outputs": [],
      "stateMutability": "nonpayable",
      "type": "function"
    },
    {
      "inputs": [],
      "name": "refreshLendingPoolCoreConfiguration",
      "outputs": [],
      "stateMutability": "nonpayable",
      "type": "function"
    }
  ],
  "bytecode": "0x60808060405234610019575f80556136d5908161001e8239f35b5f80fdfe608060408181526004908136101562000016575f80fd5b5f925f3560e01c908163071033e41462001b8b575080631d2118f91462001a275780633443a14b14620018cd57806336805a6214620016775780633e72a454146200148457806366bbd928146200132a57806370fb84f414620011d0578381637aca76eb14620010a6575080637af635a6146200108857806380e17d87146200105d578063a5bc826c1462000eda57838163a8dc0f451462000db0578163b75d6f341462000c86578163b8c0f7451462000b5c57508063c4d66de81462000a5357838163d06e2ec1146200092957508063d466016f14620007cf57838163dae4c4e714620006a5578163e12dcc6c146200058d578163e8ae2f5b146200046357508063eede87c114620002b95763ef1f93731462000132575f80fd5b8290346200023a5760209081600319360112620002b5576200015362001f3f565b60345482516333128d5960e01b81526001600160a01b03949185169082818981855afa908115620002ab57916200019a84928a948a9162000289575b50881633146200202c565b855163076b7fbb60e51b815292839182905afa9182156200027f579085929187926200024b575b50501692833b15620002475760248592838551968794859363ef1f937360e01b855216809a8401525af19081156200023e575062000222575b50807f995959c2ceab6ce20e8cd89c904e449fd3e21918a0f420c9ec9340595585526b91a280f35b6200022d9062001f56565b6200023a57815f620001fa565b5080fd5b513d84823e3d90fd5b8480fd5b6200026f9250803d1062000277575b62000266818362001f7f565b8101906200200b565b5f80620001c1565b503d6200025a565b84513d88823e3d90fd5b620002a49150843d8611620002775762000266818362001f7f565b5f6200018f565b85513d89823e3d90fd5b8280fd5b509034620002b55781600319360112620002b557620002d762001f3f565b836024359283151584036200023a5760345485516333128d5960e01b81526001600160a01b039160209190831682828681845afa90811562000459576200032e84928794899162000437575b50861633146200202c565b895163076b7fbb60e51b815292839182905afa9182156200042d5785926200040b575b505016803b15620002b557855163eede87c160e01b81526001600160a01b0385169281019283528515156020840152918391839182908490829060400103925af180156200040157620003e5575b505091516001600160a01b039092168252151560208201527fab2f7f9e5ca2772fafa94f355c1842a80ae6b9e41f83083098d81f67d7a0b5089080604081015b0390a180f35b620003f09062001f56565b620003fd57835f6200039f565b8380fd5b85513d84823e3d90fd5b620004259250803d10620002775762000266818362001f7f565b5f8062000351565b88513d87823e3d90fd5b620004529150843d8611620002775762000266818362001f7f565b5f62000323565b89513d88823e3d90fd5b919050346200023a5760209081600319360112620002b5576200048562001f3f565b60345482516333128d5960e01b81526001600160a01b03949185169082818981855afa908115620002ab5791620004cb84928a948a91620002895750881633146200202c565b855163076b7fbb60e51b815292839182905afa9182156200027f579085929187926200056b575b50501692833b15620002475760248592838551968794859363e8ae2f5b60e01b855216809a8401525af19081156200023e575062000553575b50807f9cc75e4cafc9a556a369bc53468649075680eb554d225d5918f199453824796d91a280f35b6200055e9062001f56565b6200023a57815f6200052b565b620005859250803d10620002775762000266818362001f7f565b5f80620004f2565b80848434620006a15782600319360112620006a15760345481516333128d5960e01b81526001600160a01b03916020919083169082818781855afa908115620002ab5791620005eb849288948a916200067f5750861633146200202c565b855163076b7fbb60e51b815292839182905afa9182156200027f5786926200065d575b50501691823b1562000658578151636468108360e01b81529284918491829084905af19081156200023e5750620006425750f35b6200064d9062001f56565b620006555780f35b80fd5b505050fd5b620006779250803d10620002775762000266818362001f7f565b86806200060e565b6200069a9150843d8611620002775762000266818362001f7f565b8b62000323565b5050fd5b919050346200023a5760209081600319360112620002b557620006c762001f3f565b60345482516333128d5960e01b81526001600160a01b03949185169082818981855afa908115620002ab57916200070d84928a948a91620002895750881633146200202c565b855163076b7fbb60e51b815292839182905afa9182156200027f57908592918792620007ad575b50501692833b15620002475760248592838551968794859363dae4c4e760e01b855216809a8401525af19081156200023e575062000795575b50807f8dee2b2f3e98319ae6347eda521788f73f4086c9be9a594942b370b137fb8cb191a280f35b620007a09062001f56565b6200023a57815f6200076d565b620007c79250803d10620002775762000266818362001f7f565b5f8062000734565b509034620002b55781600319360112620002b557620007ed62001f3f565b60345483516333128d5960e01b815260243593869290916001600160a01b039160209190831682828681845afa90811562000459576200083c849287948991620004375750861633146200202c565b895163076b7fbb60e51b815292839182905afa9182156200042d57859262000907575b505016803b15620002b557855163d466016f60e01b81526001600160a01b03851692810192835260208301869052918391839182908490829060400103925af180156200040157620008ef575b505091516001600160a01b03909216825260208201527fda47540c7f7fd5a68c3285f3bb708f322424f948f41df6f51622fa24b3968664908060408101620003df565b620008fa9062001f56565b620003fd57835f620008ac565b620009219250803d10620002775762000266818362001f7f565b5f806200085f565b919050346200023a5760209081600319360112620002b5576200094b62001f3f565b60345482516333128d5960e01b81526001600160a01b03949185169082818981855afa908115620002ab57916200099184928a948a91620002895750881633146200202c565b855163076b7fbb60e51b815292839182905afa9182156200027f5790859291879262000a31575b50501692833b15620002475760248592838551968794859363d06e2ec160e01b855216809a8401525af19081156200023e575062000a19575b50807f19dbf059e4d3a0cb998d4328b7b991bbe312827eeb053d8ff63edf33158e01db91a280f35b62000a249062001f56565b6200023a57815f620009f1565b62000a4b9250803d10620002775762000266818362001f7f565b5f80620009b8565b509034620002b5576020366003190112620002b55780356001600160a01b0381169190829003620003fd576001549060ff8216938415948562000b52575b801562000b46575b1562000aec5750508262000ad6575b506bffffffffffffffffffffffff60a01b603454161760345562000ac95780f35b60ff196001541660015580f35b60019060ff191617600155600383555f62000aa8565b906020608492519162461bcd60e51b8352820152602e60248201527f436f6e747261637420696e7374616e63652068617320616c726561647920626560448201526d195b881a5b9a5d1a585b1a5e995960921b6064820152fd5b50855460031162000a99565b50303b1562000a91565b919050346200023a5760209081600319360112620002b55762000b7e62001f3f565b60345482516333128d5960e01b81526001600160a01b03949185169082818981855afa908115620002ab579162000bc484928a948a91620002895750881633146200202c565b855163076b7fbb60e51b815292839182905afa9182156200027f5790859291879262000c64575b50501692833b15620002475760248592838551968794859363b8c0f74560e01b855216809a8401525af19081156200023e575062000c4c575b50807f8bbf35441ac2c607ddecadd3d8ee58636d32f217fad201fb2655581502dd84e391a280f35b62000c579062001f56565b6200023a57815f62000c24565b62000c7e9250803d10620002775762000266818362001f7f565b5f8062000beb565b919050346200023a5760209081600319360112620002b55762000ca862001f3f565b60345482516333128d5960e01b81526001600160a01b03949185169082818981855afa908115620002ab579162000cee84928a948a91620002895750881633146200202c565b855163076b7fbb60e51b815292839182905afa9182156200027f5790859291879262000d8e575b50501692833b156200024757602485928385519687948593632dd75bcd60e21b855216809a8401525af19081156200023e575062000d76575b50807f35b80cd8ea3440e9a8454f116fa658b858da1b64c86c48451f4559cefcdfb56c91a280f35b62000d819062001f56565b6200023a57815f62000d4e565b62000da89250803d10620002775762000266818362001f7f565b5f8062000d15565b919050346200023a5760209081600319360112620002b55762000dd262001f3f565b60345482516333128d5960e01b81526001600160a01b03949185169082818981855afa908115620002ab579162000e1884928a948a91620002895750881633146200202c565b855163076b7fbb60e51b815292839182905afa9182156200027f5790859291879262000eb8575b50501692833b15620002475760248592838551968794859363a8dc0f4560e01b855216809a8401525af19081156200023e575062000ea0575b50807fe9a7e5fd4fc8ea18e602350324bf48e8f05d12434af0ce0be05743e6a5fdcb9e91a280f35b62000eab9062001f56565b6200023a57815f62000e78565b62000ed29250803d10620002775762000266818362001f7f565b5f8062000e3f565b5034620002b5576080366003190112620002b55762000ef862001f3f565b60345482516333128d5960e01b8152604435936024359360643593919260209289926001600160a01b0392909183169085818c81855afa90811562001053579162000f5287928d948891620004375750861633146200202c565b875163076b7fbb60e51b815292839182905afa9081156200104957908391859162001027575b501691823b15620003fd5760848492838851958694859363296f209b60e21b855216809e8401528b60248401528c60448401528a60648401525af180156200101d5762000ff9575b5050907fdfe62f53e7707d64f99bca15d2bdf3facc4074bc047e7dec2ea130300e9927449460609493928251948552840152820152a280f35b6200100990959493929562001f56565b6200101957909192865f62000fc0565b8680fd5b84513d84823e3d90fd5b620010429150863d8811620002775762000266818362001f7f565b5f62000f78565b86513d86823e3d90fd5b87513d87823e3d90fd5b8382346200023a57816003193601126200023a5760345490516001600160a01b039091168152602090f35b8382346200023a57816003193601126200023a576020905160038152f35b919050346200023a5760209081600319360112620002b557620010c862001f3f565b60345482516333128d5960e01b81526001600160a01b03949185169082818981855afa908115620002ab57916200110e84928a948a91620002895750881633146200202c565b855163076b7fbb60e51b815292839182905afa9182156200027f57908592918792620011ae575b50501692833b156200024757602485928385519687948593637aca76eb60e01b855216809a8401525af19081156200023e575062001196575b50807fda5cdb66c77023db6abe5226a4d4a40c3b8e768012f4ff4e446f62f60127fc5691a280f35b620011a19062001f56565b6200023a57815f6200116e565b620011c89250803d10620002775762000266818362001f7f565b5f8062001135565b509034620002b55781600319360112620002b557620011ee62001f3f565b60345483516333128d5960e01b815260243593869290916001600160a01b039160209190831682828681845afa90811562000459576200123d849287948991620004375750861633146200202c565b895163076b7fbb60e51b815292839182905afa9182156200042d57859262001308575b505016803b15620002b5578551631c3ee13d60e21b81526001600160a01b03851692810192835260208301869052918391839182908490829060400103925af180156200040157620012f0575b505091516001600160a01b03909216825260208201527fe3ba662f7011e701056a43e8cf832242322eeff01453e7a72d01ec2af36d9aec908060408101620003df565b620012fb9062001f56565b620003fd57835f620012ad565b620013229250803d10620002775762000266818362001f7f565b5f8062001260565b509034620002b55781600319360112620002b5576200134862001f3f565b60345483516333128d5960e01b815260243593869290916001600160a01b039160209190831682828681845afa908115620004595762001397849287948991620004375750861633146200202c565b895163076b7fbb60e51b815292839182905afa9182156200042d57859262001462575b505016803b15620002b5578551630cd77b2560e31b81526001600160a01b03851692810192835260208301869052918391839182908490829060400103925af1801562000401576200144a575b505091516001600160a01b03909216825260208201527f2e73b7f1df792712003e6859f940c1e8711c3f1329474771fee71d2ec1163129908060408101620003df565b620014559062001f56565b620003fd57835f62001407565b6200147c9250803d10620002775762000266818362001f7f565b5f80620013ba565b5034620002b55760209081600319360112620003fd57620014a462001f3f565b9260018060a01b0392836034541683516333128d5960e01b815282818581855afa9081156200166d5791620014e8849286948b91620002895750881633146200202c565b855163076b7fbb60e51b815292839182905afa908115620016415790859188916200164b575b501693835195630c33cfd960e41b8752169485838201528181602481885afa908115620016415787916200160e575b50620015bb575090829185933b15620003fd5784602485928385519687948593630f9ca91560e21b85528401525af19081156200023e5750620015a3575b50807f6f60cf8bd0f218cabe1ea3150bd07b0b758c35c4cfdf7138017a283e65564d5e91a280f35b620015ae9062001f56565b6200023a57815f6200157b565b608492519162461bcd60e51b8352820152602a60248201527f546865206c6971756964697479206f66207468652072657365727665206e65656044820152690647320746f20626520360b41b6064820152fd5b90508181813d831162001639575b62001628818362001f7f565b810103126200101957515f6200153d565b503d6200161c565b84513d89823e3d90fd5b620016669150833d8511620002775762000266818362001f7f565b5f6200150e565b85513d8a823e3d90fd5b5034620002b55760a0366003190112620002b5576200169562001f3f565b9067ffffffffffffffff6024358181116200185857620016b9903690860162001fbf565b926044358281116200101957620016d4903690870162001fbf565b906064359060ff8216809203620018c9576001600160a01b036084358181169490859003620018c9578160345416908751966333128d5960e01b885260209788818d81875afa908d82156200189c57906200173a92620018a7575b50851633146200202c565b885163076b7fbb60e51b815288818d81875afa908d82156200189c579086926200187a575b50169489519361155e80860193868510908511176200186657958594928f99989792829795936200214287398352169b8c8b830152878c8301526060820160a0905260a08201620017b0916200211a565b908082039060800152620017c4916200211a565b039085f080156200185c571697813b15620003fd57608488918580948a519687958694630114cc2960e61b86528501528d602485015260448401528860648401525af18015620004015762001840575b50507f1d9fcd0dc935b4778d5af97f55c4d7b2553257382f1ef25c412114c8eeebd88e9251908152a380f35b6200184b9062001f56565b6200185857855f62001814565b8580fd5b87513d86823e3d90fd5b50634e487b7160e01b8e5260418d5260248efd5b6200189591508a3d8c11620002775762000266818362001f7f565b5f6200175f565b8b51903d90823e3d90fd5b620018c291508a3d8c11620002775762000266818362001f7f565b5f6200172f565b5f80fd5b509034620002b55781600319360112620002b557620018eb62001f3f565b60345483516333128d5960e01b815260243593869290916001600160a01b039160209190831682828681845afa90811562000459576200193a849287948991620004375750861633146200202c565b895163076b7fbb60e51b815292839182905afa9182156200042d57859262001a05575b505016803b15620002b5578551633443a14b60e01b81526001600160a01b03851692810192835260208301869052918391839182908490829060400103925af180156200040157620019ed575b505091516001600160a01b03909216825260208201527f437dd3b61b7c7eee7fc70515c8846482dfca92e2e1e02af5d638c5d4878d6714908060408101620003df565b620019f89062001f56565b620003fd57835f620019aa565b62001a1f9250803d10620002775762000266818362001f7f565b5f806200195d565b509034620002b55781600319360112620002b55762001a4562001f3f565b602435916001600160a01b03908184168403620018c9578186926034541686516333128d5960e01b815260209182828681845afa908115620004595762001a9b849287948991620004375750861633146200202c565b895163076b7fbb60e51b815292839182905afa9182156200042d57859262001b69575b505016803b15620002b5578551631d2118f960e01b81526001600160a01b0380861693820193845286166020840152918391839182908490829060400103925af18015620004015762001b51575b505091516001600160a01b039283168152911660208201527f5644b64ebb0ce18c4032248ca52f58355469092ff072866c3dcd8640e817d6a5908060408101620003df565b62001b5c9062001f56565b620003fd57835f62001b0c565b62001b839250803d10620002775762000266818362001f7f565b5f8062001abe565b905034620018c9576060366003190112620018c95762001baa62001f3f565b916024359060ff8216809203620018c9576001600160a01b0393604435858116939190849003620018c9578560345416956333128d5960e01b9182875260209687818b818c5afa90811562001f135783929162001c14915f9162001f1d575b50831633146200202c565b85516306fdde0360e01b81529116975f828b818c5afa91821562001f13575f9262001ef3575b5062001c8960368751809475020b0bb329024b73a32b932b9ba103132b0b934b733960551b8c83015262001c788c825192839186860191016200208b565b810103601681018552018362001f7f565b85516395d89b4160e01b8152935f858c818d5afa94851562001e9e575f9562001eca575b5062001ce7602188518097606160f81b8d83015262001cd68d825192839186860191016200208b565b810103600181018852018662001f7f565b865190815288818c81855afa90811562001e9e579062001d14915f9162001ea8575b50841633146200202c565b855163076b7fbb60e51b815288818c81855afa90811562001e9e579084915f9162001e7c575b50169386519261155e928385019385851067ffffffffffffffff86111762001e695785949262001d9d949262001d8e9262002142883984528d8d850152898b85015260a0606085015260a08401906200211a565b9160808184039101526200211a565b03905ff0801562001e5f571696813b15620018c957608487915f809487519687958694630114cc2960e61b86528501528c602485015260448401528860648401525af1801562001e555762001e19575b50519081527f1d9fcd0dc935b4778d5af97f55c4d7b2553257382f1ef25c412114c8eeebd88e9190a380f35b7f1d9fcd0dc935b4778d5af97f55c4d7b2553257382f1ef25c412114c8eeebd88e939291965062001e4a9062001f56565b5f9590919262001ded565b82513d5f823e3d90fd5b84513d5f823e3d90fd5b60418e634e487b7160e01b5f525260245ffd5b62001e9791508a3d8c11620002775762000266818362001f7f565b5f62001d3a565b87513d5f823e3d90fd5b62001ec391508a3d8c11620002775762000266818362001f7f565b5f62001d09565b62001eeb9195503d805f833e62001ee2818362001f7f565b810190620020ae565b935f62001cad565b62001f0b9192503d805f833e62001ee2818362001f7f565b905f62001c3a565b86513d5f823e3d90fd5b62001f3891508a3d8c11620002775762000266818362001f7f565b5f62001c09565b600435906001600160a01b0382168203620018c957565b67ffffffffffffffff811162001f6b57604052565b634e487b7160e01b5f52604160045260245ffd5b90601f8019910116810190811067ffffffffffffffff82111762001f6b57604052565b67ffffffffffffffff811162001f6b57601f01601f191660200190565b81601f82011215620018c95780359062001fd98262001fa2565b9262001fe9604051948562001f7f565b82845260208383010111620018c957815f926020809301838601378301015290565b90816020910312620018c957516001600160a01b0381168103620018c95790565b156200203457565b60405162461bcd60e51b815260206004820152602960248201527f5468652063616c6c6572206d7573742062652061206c656e64696e6720706f6f604482015268361036b0b730b3b2b960b91b6064820152608490fd5b5f5b8381106200209d5750505f910152565b81810151838201526020016200208d565b602081830312620018c95780519067ffffffffffffffff8211620018c9570181601f82011215620018c9578051620020e68162001fa2565b92620020f6604051948562001f7f565b81845260208284010111620018c9576200211791602080850191016200208b565b90565b9060209162002135815180928185528580860191016200208b565b601f01601f191601019056fe60806040908082523462000276576200155e8038038091620000228285620004f9565b833981019060a081830312620002765780516001600160a01b0380821693909184900362000276576020936200005a8585016200051d565b93868101519260ff84168403620002765760608201516001600160401b0392908381116200027657826200009091830162000532565b9160808201518481116200027657620000aa920162000532565b918151818111620003f5576003908154906001948583811c93168015620004ee575b8c841014620004da5781908c601f9485811162000484575b50508c9084831160011462000415575f9262000409575b50505f1982851b1c191690851b1782555b8451928311620003f55760049485548581811c91168015620003ea575b8c821014620003d75780838d92116200038d575b50508a91841160011462000324579383949184925f9562000318575b50501b925f19911b1c19161781555b600a80546001600160a01b03199081168417909155875163076b7fbb60e51b815290929087818481855afa8015620002cd5786915f91620002d7575b501683600b541617600b55875190630261bf8b60e01b825287828481845afa918215620002cd57889287915f916200028c575b501684600c541617600c55885192838092632f58b80d60e01b82525afa95861562000282575f966200023e575b505082600d54941690600554161760055560ff60a01b9060a01b1692169060018060a81b0319161717600d5551610fb79081620005a78239f35b9080929650813d83116200027a575b620002598183620004f9565b8101031262000276576200026d906200051d565b935f8062000204565b5f80fd5b503d6200024d565b87513d5f823e3d90fd5b938092508491503d8311620002c5575b620002a88183620004f9565b81010312620002765785620002be89936200051d565b5f620001d7565b503d6200029c565b89513d5f823e3d90fd5b809250898092503d831162000310575b620002f38183620004f9565b810103126200027657518581168103620002765785905f620001a4565b503d620002e7565b015193505f8062000159565b9190601f19841692865f52848c5f20948d5f905b898383106200037457505050106200035a575b50505050811b01815562000168565b01519060f8845f19921b161c191690555f8080806200034b565b8686015189559097019694850194889350018e62000338565b875f5283825f209181880160051c8301938810620003cd575b0160051c019086905b828110620003c157508c91506200013d565b5f8155018690620003af565b92508192620003a6565b602287634e487b7160e01b5f525260245ffd5b90607f169062000129565b634e487b7160e01b5f52604160045260245ffd5b015190505f80620000fb565b879350908d91601f198416875f52835f20935f905b8282106200046257505084116200044a575b505050811b0182556200010c565b01515f1983871b60f8161c191690555f80806200043c565b91929395968291958786015181550195019301908f918a96959493926200042a565b90919250855f5284825f209181860160051c8301938610620004d0575b918991869594930160051c01915b828110620004c157508e9150620000e4565b5f8155859450899101620004af565b92508192620004a1565b634e487b7160e01b5f52602260045260245ffd5b92607f1692620000cc565b601f909101601f19168101906001600160401b03821190821017620003f557604052565b51906001600160a01b03821682036200027657565b919080601f84011215620002765782516001600160401b038111620003f557602090604051926200056d83601f19601f8501160185620004f9565b81845282828701011162000276575f5b818110620005925750825f9394955001015290565b85810183015184820184015282016200057d56fe60806040526004361015610011575f80fd5b5f3560e01c806306fdde031461016f578063095ea7b31461016a5780630e49072d1461016557806312c87c2d1461016057806318160ddd1461015b5780631d51e7cf1461015657806323b872dd14610151578063313ce5671461014c578063325a9b13146101475780633edb7cb81461012e578063445e8010146101425780635eae177c1461013d57806370a082311461013857806389d1a0fc1461013357806394362e8b1461012e57806395d89b4114610129578063a9059cbb14610124578063c634dfaa1461011f578063db006a751461011a578063dd62ed3e14610115578063ee9907a4146101105763f866c3191461010b575f80fd5b61099a565b610962565b61090b565b6108a8565b610871565b61084e565b61078d565b6106a5565b610765565b610742565b610711565b6106d8565b6105fa565b6105d7565b610533565b6104c6565b6104a4565b6103d4565b6103b5565b6102f0565b6101bb565b602080825282518183018190529093925f5b8281106101a757505060409293505f838284010152601f8019910116010190565b818101860151848201604001528501610186565b346102c0575f3660031901126102c0576040515f60035460018160011c91600181169182156102b6575b6020916020851084146102a2578487526020870193908115610283575060011461022a575b6102268661021a81880382610a6e565b60405191829182610174565b0390f35b60035f90815294509192917fc2575a0e9e593c00f959f8c92f12db2869c3395a3b0502d05e2516446f71f85b5b838610610272575050509101905061021a826102265f61020a565b805485870152948201948101610257565b60ff1916845250505090151560051b01905061021a826102265f61020a565b634e487b7160e01b5f52602260045260245ffd5b92607f16926101e5565b5f80fd5b600435906001600160a01b03821682036102c057565b602435906001600160a01b03821682036102c057565b346102c05760403660031901126102c0576103096102c4565b602435331561039d576001600160a01b03821691821561038557335f908152600160205260409020829161034d915b9060018060a01b03165f5260205260405f2090565b556040519081527f8c5be1e5ebec7d5bd14f71427d1e84f3dd0314c0f7b2291e5b200ac8c7c3b92560203392a3602060405160018152f35b604051634a1406b160e11b81525f6004820152602490fd5b60405163e602df0560e01b81525f6004820152602490fd5b346102c05760203660031901126102c0576103ce6102c4565b33610d07565b346102c05760203660031901126102c0576103ed6102c4565b6001600160a01b0381169033821461045157335f90815260096020526040902080546001600160a01b0319166001600160a01b03909216919091179055337fc2d6a42a9d5273283f73009a07aacfb043f2f91173a8d9d33b504afe898db08b5f80a3005b60405162461bcd60e51b815260206004820152602560248201527f557365722063616e6e6f74206769766520616c6c6f77616e636520746f20686960448201526436b9b2b63360d91b6064820152608490fd5b346102c0575f3660031901126102c05760206104be610abe565b604051908152f35b346102c05760203660031901126102c0576001600160a01b036104e76102c4565b165f526008602052602060405f2054604051908152f35b60609060031901126102c0576001600160a01b039060043582811681036102c0579160243590811681036102c0579060443590565b346102c057610541366104fe565b6001600160a01b0383165f8181526001602090815260408083203384529091529020919391549060018201610578575b5050610dee565b8482106105b3571561039d573315610385578390036105ab336103388460018060a01b03165f52600160205260405f2090565b555f80610571565b6064828660405191637dc7a0d960e11b835233600484015260248301526044820152fd5b346102c0575f3660031901126102c057602060ff600d5460a01c16604051908152f35b346102c05760403660031901126102c0576106136102c4565b61061b6102da565b9060018060a01b038082165f52600960205260405f205416330315610d075760405162461bcd60e51b815260206004820152603a60248201527f43616c6c6572206973206e6f7420616c6c6f77656420746f207265646972656360448201527f742074686520696e746572657374206f662074686520757365720000000000006064820152608490fd5b346102c05760403660031901126102c0576106be6102c4565b6106d360018060a01b03600c54163314610b5f565b610e72565b346102c05760203660031901126102c05760206001600160a01b03806106fc6102c4565b165f526007825260405f205416604051908152f35b346102c05760403660031901126102c057602061073861072f6102c4565b60243590610be7565b6040519015158152f35b346102c05760203660031901126102c05760206104be6107606102c4565b610c7f565b346102c0575f3660031901126102c0576005546040516001600160a01b039091168152602090f35b346102c0575f3660031901126102c0576040515f60045460018160011c9160018116918215610844575b6020916020851084146102a257848752602087019390811561028357506001146107eb576102268661021a81880382610a6e565b60045f90815294509192917f8a35acfbc15ff81a39ae7d344fd709f28e8600b4aa8c65c6b64bfe7fe36bd19b5b838610610833575050509101905061021a826102265f61020a565b805485870152948201948101610818565b92607f16926107b7565b346102c05760403660031901126102c0576108676102c4565b6024359033610dee565b346102c05760203660031901126102c0576001600160a01b036108926102c4565b165f525f602052602060405f2054604051908152f35b346102c05760203660031901126102c057600435156108c75733610e72565b606460405162461bcd60e51b815260206004820152602060248201527f416d6f756e7420746f2072656465656d206e6565647320746f206265203e20306044820152fd5b346102c05760403660031901126102c05760206109596109296102c4565b6109316102da565b6001600160a01b039182165f9081526001855260408082209290931681526020919091522090565b54604051908152f35b346102c05760203660031901126102c0576001600160a01b036109836102c4565b165f526006602052602060405f2054604051908152f35b346102c0576109a8366104fe565b600c546001600160a01b0392506109c29083163314610b5f565b15610a10578116805f525f6020526109de60405f205492610c7f565b918203918211610a0b57156109f3575f610f4a565b60405163ec442f0560e01b81525f6004820152602490fd5b610bc6565b60405162461bcd60e51b815260206004820152603060248201527f5472616e7366657272656420616d6f756e74206e6565647320746f206265206760448201526f726561746572207468616e207a65726f60801b6064820152608490fd5b90601f8019910116810190811067ffffffffffffffff821117610a9057604052565b634e487b7160e01b5f52604160045260245ffd5b908160209103126102c0575190565b6040513d5f823e3d90fd5b6002548015610b5a57610ad090610d7f565b600b5460055460405163d15e005360e01b81526001600160a01b0391821660048201529160209183916024918391165afa8015610b5557610b2192610b1c925f92610b24575b50610d93565b610dcf565b90565b610b4791925060203d602011610b4e575b610b3f8183610a6e565b810190610aa4565b905f610b16565b503d610b35565b610ab3565b505f90565b15610b6657565b60405162461bcd60e51b815260206004820152603260248201527f5468652063616c6c6572206f6620746869732066756e6374696f6e206d7573746044820152710818994818481b195b991a5b99c81c1bdbdb60721b6064820152608490fd5b634e487b7160e01b5f52601160045260245ffd5b91908203918211610a0b57565b600d546005546040516376e9d61560e01b81526001600160a01b03918216600482015292811660248401526044830193909352909160209183916064918391165afa908115610b55575f91610c3a575090565b90506020813d602011610c6a575b81610c5560209383610a6e565b810103126102c0575180151581036102c05790565b3d9150610c48565b91908201809211610a0b57565b60018060a01b038082165f525f60205260405f205491600860205260405f205491831580610cff575b610cf757600760205260405f205416610cd757610cd290610ccc83610b2195610c72565b90610e94565b610bda565b81610ce191610e94565b908103908111610a0b578101809111610a0b5790565b505050505f90565b508215610ca8565b9060018060a01b038083165f5260076020528060405f205416911603610e725760405162461bcd60e51b815260206004820152602a60248201527f496e74657265737420697320616c72656164792072656469726563746564207460448201526937903a3432903ab9b2b960b11b6064820152608490fd5b90633b9aca0091828102928304036102c057565b816b019d971e4fe8401e740000001904811115821517156102c0576b033b2e3c9fd0803ce800000091026b019d971e4fe8401e74000000010490565b90631dcd6500633b9aca0080840493061015610de757565b9060010190565b906001600160a01b039081831615610e5a5716156109f357610e108282610be7565b610f22575b60405162461bcd60e51b815260206004820152601b60248201527f5472616e736665722063616e6e6f7420626520616c6c6f7765642e00000000006044820152606490fd5b604051634b637e8f60e11b81525f6004820152602490fd5b6001600160a01b0381165f81815260208190526040902054916109de90610c7f565b90610e9e90610d7f565b600b5460055460405163d15e005360e01b81526001600160a01b039182166004820152909290916020908390602490829087165afa908115610b5557610eea925f92610b245750610d93565b91165f52600660205260405f20548060011c6b033b2e3c9fd0803ce80000008082190484118315176102c057610b2193020104610dcf565b9015610a10576001600160a01b0381165f81815260208190526040902054916109de90610c7f565b90610f558183610be7565b15610e155715610a10576001600160a01b0381165f81815260208190526040902054916109de90610c7f56fea2646970667358221220ea330820e990fcdab62270dec8f535854ce898adcac7c88e78cb93816488061a64736f6c63430008180033a26469706673582212209d9402218d8c03187035bc59849418f4342125b35893de0e6b73fa9ed2e1d5f464736f6c63430008180033",
  "immutableReferences": {},
  "source": "pragma solidity ^0.8.24;\r\n\r\nimport \"../../lib/openzeppelin-contracts/contracts/token/ERC20/ERC20.sol\";\r\nimport \"../libraries/openzeppelin-upgradeability/VersionedInitializable.sol\";\r\nimport \"../configuration/LendingPoolAddressesProvider.sol\";\r\nimport \"./LendingPoolCore.sol\";\r\nimport \"../tokenization/AToken.sol\";\r\n\r\n/**\r\n* @title LendingPoolConfigurator contract\r\n* @author Aave\r\n* @notice Executes configuration methods on the LendingPoolCore contract. Allows to enable/disable reserves,\r\n* and set different protocol parameters.\r\n**/\r\n\r\ncontract LendingPoolConfigurator is VersionedInitializable {\r\n\r\n    /**\r\n    * @dev emitted when a reserve is initialized.\r\n    * @param _reserve the address of the reserve\r\n    * @param _aToken the address of the overlying aToken contract\r\n    * @param _interestRateStrategyAddress the address of the interest rate strategy for the reserve\r\n    **/\r\n    event ReserveInitialized(\r\n        address indexed _reserve,\r\n        address indexed _aToken,\r\n        address _interestRateStrategyAddress\r\n    );\r\n\r\n    /**\r\n    * @dev emitted when a reserve is removed.\r\n    * @param _reserve the address of the reserve\r\n    **/\r\n    event ReserveRemoved(\r\n        address indexed _reserve\r\n    );\r\n\r\n    /**\r\n    * @dev emitted when borrowing is enabled on a reserve\r\n    * @param _reserve the address of the reserve\r\n    * @param _stableRateEnabled true if stable rate borrowing is enabled, false otherwise\r\n    **/\r\n    event BorrowingEnabledOnReserve(address _reserve, bool _stableRateEnabled);\r\n\r\n    /**\r\n    * @dev emitted when borrowing is disabled on a reserve\r\n    * @param _reserve the address of the reserve\r\n    **/\r\n    event BorrowingDisabledOnReserve(address indexed _reserve);\r\n\r\n    /**\r\n    * @dev emitted when a reserve is enabled as collateral.\r\n    * @param _reserve the address of the reserve\r\n    * @param _ltv the loan to value of the asset when used as collateral\r\n    * @param _liquidationThreshold the threshold at which loans using this asset as collateral will be considered undercollateralized\r\n    * @param _liquidationBonus the bonus liquidators receive to liquidate this asset\r\n    **/\r\n    event ReserveEnabledAsCollateral(\r\n        address indexed _reserve,\r\n        uint256 _ltv,\r\n        uint256 _liquidationThreshold,\r\n        uint256 _liquidationBonus\r\n    );\r\n\r\n    /**\r\n    * @dev emitted when a reserve is disabled as collateral\r\n    * @param _reserve the address of the reserve\r\n    **/\r\n    event ReserveDisabledAsCollateral(address indexed _reserve);\r\n\r\n    /**\r\n    * @dev emitted when stable rate borrowing is enabled on a reserve\r\n    * @param _reserve the address of the reserve\r\n    **/\r\n    event StableRateEnabledOnReserve(address indexed _reserve);\r\n\r\n    /**\r\n    * @dev emitted when stable rate borrowing is disabled on a reserve\r\n    * @param _reserve the address of the reserve\r\n    **/\r\n    event StableRateDisabledOnReserve(address indexed _reserve);\r\n\r\n    /**\r\n    * @dev emitted when a reserve is activated\r\n    * @param _reserve the address of the reserve\r\n    **/\r\n    event ReserveActivated(address indexed _reserve);\r\n\r\n    /**\r\n    * @dev emitted when a reserve is deactivated\r\n    * @param _reserve the address of the reserve\r\n    **/\r\n    event ReserveDeactivated(address indexed _reserve);\r\n\r\n    /**\r\n    * @dev emitted when a reserve is freezed\r\n    * @param _reserve the address of the reserve\r\n    **/\r\n    event ReserveFreezed(address indexed _reserve);\r\n\r\n    /**\r\n    * @dev emitted when a reserve is unfreezed\r\n    * @param _reserve the address of the reserve\r\n    **/\r\n    event ReserveUnfreezed(address indexed _reserve);\r\n\r\n    /**\r\n    * @dev emitted when a reserve loan to value is updated\r\n    * @param _reserve the address of the reserve\r\n    * @param _ltv the new value for the loan to value\r\n    **/\r\n    event ReserveBaseLtvChanged(address _reserve, uint256 _ltv);\r\n\r\n    /**\r\n    * @dev emitted when a reserve liquidation threshold is updated\r\n    * @param _reserve the address of the reserve\r\n    * @param _threshold the new value for the liquidation threshold\r\n    **/\r\n    event ReserveLiquidationThresholdChanged(address _reserve, uint256 _threshold);\r\n\r\n    /**\r\n    * @dev emitted when a reserve liquidation bonus is updated\r\n    * @param _reserve the address of the reserve\r\n    * @param _bonus the new value for the liquidation bonus\r\n    **/\r\n    event ReserveLiquidationBonusChanged(address _reserve, uint256 _bonus);\r\n\r\n    /**\r\n    * @dev emitted when the reserve decimals are updated\r\n    * @param _reserve the address of the reserve\r\n    * @param _decimals the new decimals\r\n    **/\r\n    event ReserveDecimalsChanged(address _reserve, uint256 _decimals);\r\n\r\n\r\n    /**\r\n    * @dev emitted when a reserve interest strategy contract is updated\r\n    * @param _reserve the address of the reserve\r\n    * @param _strategy the new address of the interest strategy contract\r\n    **/\r\n    event ReserveInterestRateStrategyChanged(address _reserve, address _strategy);\r\n\r\n    LendingPoolAddressesProvider public poolAddressesProvider;\r\n    /**\r\n    * @dev only the lending pool manager can call functions affected by this modifier\r\n    **/\r\n    modifier onlyLendingPoolManager {\r\n        require(\r\n            poolAddressesProvider.getLendingPoolManager() == msg.sender,\r\n            \"The caller must be a lending pool manager\"\r\n        );\r\n        _;\r\n    }\r\n\r\n    uint256 public constant CONFIGURATOR_REVISION = 0x3;\r\n\r\n    function getRevision() internal pure override returns (uint256) {\r\n        return CONFIGURATOR_REVISION;\r\n    }\r\n\r\n    function initialize(LendingPoolAddressesProvider _poolAddressesProvider) public initializer {\r\n        poolAddressesProvider = _poolAddressesProvider;\r\n    }\r\n\r\n    /**\r\n    * @dev initializes a reserve\r\n    * @param _reserve the address of the reserve to be initialized\r\n    * @param _underlyingAssetDecimals the decimals of the reserve underlying asset\r\n    * @param _interestRateStrategyAddress the address of the interest rate strategy contract for this reserve\r\n    **/\r\n    function initReserve(\r\n        address _reserve,\r\n        uint8 _underlyingAssetDecimals,\r\n        address _interestRateStrategyAddress\r\n    ) external onlyLendingPoolManager {\r\n        ERC20 asset = ERC20(_reserve);\r\n\r\n        string memory aTokenName = string(abi.encodePacked(\"Aave Interest bearing \", asset.name()));\r\n        string memory aTokenSymbol = string(abi.encodePacked(\"a\", asset.symbol()));\r\n\r\n        initReserveWithData(\r\n            _reserve,\r\n            aTokenName,\r\n            aTokenSymbol,\r\n            _underlyingAssetDecimals,\r\n            _interestRateStrategyAddress\r\n        );\r\n\r\n    }\r\n\r\n    /**\r\n    * @dev initializes a reserve using aTokenData provided externally (useful if the underlying ERC20 contract doesn't expose name or decimals)\r\n    * @param _reserve the address of the reserve to be initialized\r\n    * @param _aTokenName the name of the aToken contract\r\n    * @param _aTokenSymbol the symbol of the aToken contract\r\n    * @param _underlyingAssetDecimals the decimals of the reserve underlying asset\r\n    * @param _interestRateStrategyAddress the address of the interest rate strategy contract for this reserve\r\n    **/\r\n    function initReserveWithData(\r\n        address _reserve,\r\n        string memory _aTokenName,\r\n        string memory _aTokenSymbol,\r\n        uint8 _underlyingAssetDecimals,\r\n        address _interestRateStrategyAddress\r\n    ) public onlyLendingPoolManager {\r\n        LendingPoolCore core = LendingPoolCore(poolAddressesProvider.getLendingPoolCore());\r\n\r\n        AToken aTokenInstance = new AToken(\r\n            poolAddressesProvider,\r\n            _reserve,\r\n            _underlyingAssetDecimals,\r\n            _aTokenName,\r\n            _aTokenSymbol\r\n        );\r\n        core.initReserve(\r\n            _reserve,\r\n            address(aTokenInstance),\r\n            _underlyingAssetDecimals,\r\n            _interestRateStrategyAddress\r\n        );\r\n\r\n        emit ReserveInitialized(\r\n            _reserve,\r\n            address(aTokenInstance),\r\n            _interestRateStrategyAddress\r\n        );\r\n    }\r\n\r\n    /**\r\n    * @dev removes the last added reserve in the list of the reserves\r\n    * @param _reserveToRemove the address of the reserve\r\n    **/\r\n    function removeLastAddedReserve( address _reserveToRemove) external onlyLendingPoolManager {\r\n        LendingPoolCore core = LendingPoolCore(poolAddressesProvider.getLendingPoolCore());\r\n        core.removeLastAddedReserve(_reserveToRemove);\r\n        emit ReserveRemoved(_reserveToRemove);\r\n    }\r\n\r\n    /**\r\n    * @dev enables borrowing on a reserve\r\n    * @param _reserve the address of the reserve\r\n    * @param _stableBorrowRateEnabled true if stable borrow rate needs to be enabled by default on this reserve\r\n    **/\r\n    function enableBorrowingOnReserve(address _reserve, bool _stableBorrowRateEnabled)\r\n        external\r\n        onlyLendingPoolManager\r\n    {\r\n        LendingPoolCore core = LendingPoolCore(poolAddressesProvider.getLendingPoolCore());\r\n        core.enableBorrowingOnReserve(_reserve, _stableBorrowRateEnabled);\r\n        emit BorrowingEnabledOnReserve(_reserve, _stableBorrowRateEnabled);\r\n    }\r\n\r\n    /**\r\n    * @dev disables borrowing on a reserve\r\n    * @param _reserve the address of the reserve\r\n    **/\r\n    function disableBorrowingOnReserve(address _reserve) external onlyLendingPoolManager {\r\n        LendingPoolCore core = LendingPoolCore(poolAddressesProvider.getLendingPoolCore());\r\n        core.disableBorrowingOnReserve(_reserve);\r\n\r\n        emit BorrowingDisabledOnReserve(_reserve);\r\n    }\r\n\r\n    /**\r\n    * @dev enables a reserve to be used as collateral\r\n    * @param _reserve the address of the reserve\r\n    * @param _baseLTVasCollateral the loan to value of the asset when used as collateral\r\n    * @param _liquidationThreshold the threshold at which loans using this asset as collateral will be considered undercollateralized\r\n    * @param _liquidationBonus the bonus liquidators receive to liquidate this asset\r\n    **/\r\n    function enableReserveAsCollateral(\r\n        address _reserve,\r\n        uint256 _baseLTVasCollateral,\r\n        uint256 _liquidationThreshold,\r\n        uint256 _liquidationBonus\r\n    ) external onlyLendingPoolManager {\r\n        LendingPoolCore core = LendingPoolCore(poolAddressesProvider.getLendingPoolCore());\r\n        core.enableReserveAsCollateral(\r\n            _reserve,\r\n            _baseLTVasCollateral,\r\n            _liquidationThreshold,\r\n            _liquidationBonus\r\n        );\r\n        emit ReserveEnabledAsCollateral(\r\n            _reserve,\r\n            _baseLTVasCollateral,\r\n            _liquidationThreshold,\r\n            _liquidationBonus\r\n        );\r\n    }\r\n\r\n    /**\r\n    * @dev disables a reserve as collateral\r\n    * @param _reserve the address of the reserve\r\n    **/\r\n    function disableReserveAsCollateral(address _reserve) external onlyLendingPoolManager {\r\n        LendingPoolCore core = LendingPoolCore(poolAddressesProvider.getLendingPoolCore());\r\n        core.disableReserveAsCollateral(_reserve);\r\n\r\n        emit ReserveDisabledAsCollateral(_reserve);\r\n    }\r\n\r\n    /**\r\n    * @dev enable stable rate borrowing on a reserve\r\n    * @param _reserve the address of the reserve\r\n    **/\r\n    function enableReserveStableBorrowRate(address _reserve) external onlyLendingPoolManager {\r\n        LendingPoolCore core = LendingPoolCore(poolAddressesProvider.getLendingPoolCore());\r\n        core.enableReserveStableBorrowRate(_reserve);\r\n\r\n        emit StableRateEnabledOnReserve(_reserve);\r\n    }\r\n\r\n    /**\r\n    * @dev disable stable rate borrowing on a reserve\r\n    * @param _reserve the address of the reserve\r\n    **/\r\n    function disableReserveStableBorrowRate(address _reserve) external onlyLendingPoolManager {\r\n        LendingPoolCore core = LendingPoolCore(poolAddressesProvider.getLendingPoolCore());\r\n        core.disableReserveStableBorrowRate(_reserve);\r\n\r\n        emit StableRateDisabledOnReserve(_reserve);\r\n    }\r\n\r\n    /**\r\n    * @dev activates a reserve\r\n    * @param _reserve the address of the reserve\r\n    **/\r\n    function activateReserve(address _reserve) external onlyLendingPoolManager {\r\n        LendingPoolCore core = LendingPoolCore(poolAddressesProvider.getLendingPoolCore());\r\n        core.activateReserve(_reserve);\r\n\r\n        emit ReserveActivated(_reserve);\r\n    }\r\n\r\n    /**\r\n    * @dev deactivates a reserve\r\n    * @param _reserve the address of the reserve\r\n    **/\r\n    function deactivateReserve(address _reserve) external onlyLendingPoolManager {\r\n        LendingPoolCore core = LendingPoolCore(poolAddressesProvider.getLendingPoolCore());\r\n        require(core.getReserveTotalLiquidity(_reserve) == 0, \"The liquidity of the reserve needs to be 0\");\r\n        core.deactivateReserve(_reserve);\r\n\r\n        emit ReserveDeactivated(_reserve);\r\n    }\r\n\r\n    /**\r\n    * @dev freezes a reserve. A freezed reserve doesn't accept any new deposit, borrow or rate swap, but can accept repayments, liquidations, rate rebalances and redeems\r\n    * @param _reserve the address of the reserve\r\n    **/\r\n    function freezeReserve(address _reserve) external onlyLendingPoolManager {\r\n        LendingPoolCore core = LendingPoolCore(poolAddressesProvider.getLendingPoolCore());\r\n        core.freezeReserve(_reserve);\r\n\r\n        emit ReserveFreezed(_reserve);\r\n    }\r\n\r\n    /**\r\n    * @dev unfreezes a reserve\r\n    * @param _reserve the address of the reserve\r\n    **/\r\n    function unfreezeReserve(address _reserve) external onlyLendingPoolManager {\r\n        LendingPoolCore core = LendingPoolCore(poolAddressesProvider.getLendingPoolCore());\r\n        core.unfreezeReserve(_reserve);\r\n\r\n        emit ReserveUnfreezed(_reserve);\r\n    }\r\n\r\n    /**\r\n    * @dev emitted when a reserve loan to value is updated\r\n    * @param _reserve the address of the reserve\r\n    * @param _ltv the new value for the loan to value\r\n    **/\r\n    function setReserveBaseLTVasCollateral(address _reserve, uint256 _ltv)\r\n        external\r\n        onlyLendingPoolManager\r\n    {\r\n        LendingPoolCore core = LendingPoolCore(poolAddressesProvider.getLendingPoolCore());\r\n        core.setReserveBaseLTVasCollateral(_reserve, _ltv);\r\n        emit ReserveBaseLtvChanged(_reserve, _ltv);\r\n    }\r\n\r\n    /**\r\n    * @dev updates the liquidation threshold of a reserve.\r\n    * @param _reserve the address of the reserve\r\n    * @param _threshold the new value for the liquidation threshold\r\n    **/\r\n    function setReserveLiquidationThreshold(address _reserve, uint256 _threshold)\r\n        external\r\n        onlyLendingPoolManager\r\n    {\r\n        LendingPoolCore core = LendingPoolCore(poolAddressesProvider.getLendingPoolCore());\r\n        core.setReserveLiquidationThreshold(_reserve, _threshold);\r\n        emit ReserveLiquidationThresholdChanged(_reserve, _threshold);\r\n    }\r\n\r\n    /**\r\n    * @dev updates the liquidation bonus of a reserve\r\n    * @param _reserve the address of the reserve\r\n    * @param _bonus the new value for the liquidation bonus\r\n    **/\r\n    function setReserveLiquidationBonus(address _reserve, uint256 _bonus)\r\n        external\r\n        onlyLendingPoolManager\r\n    {\r\n        LendingPoolCore core = LendingPoolCore(poolAddressesProvider.getLendingPoolCore());\r\n        core.setReserveLiquidationBonus(_reserve, _bonus);\r\n        emit ReserveLiquidationBonusChanged(_reserve, _bonus);\r\n    }\r\n\r\n    /**\r\n    * @dev updates the reserve decimals\r\n    * @param _reserve the address of the reserve\r\n    * @param _decimals the new number of decimals\r\n    **/\r\n    function setReserveDecimals(address _reserve, uint256 _decimals)\r\n        external\r\n        onlyLendingPoolManager\r\n    {\r\n        LendingPoolCore core = LendingPoolCore(poolAddressesProvider.getLendingPoolCore());\r\n        core.setReserveDecimals(_reserve, _decimals);\r\n        emit ReserveDecimalsChanged(_reserve, _decimals);\r\n    }\r\n\r\n    /**\r\n    * @dev sets the interest rate strategy of a reserve\r\n    * @param _reserve the address of the reserve\r\n    * @param _rateStrategyAddress the new address of the interest strategy contract\r\n    **/\r\n    function setReserveInterestRateStrategyAddress(address _reserve, address _rateStrategyAddress)\r\n        external\r\n        onlyLendingPoolManager\r\n    {\r\n        LendingPoolCore core = LendingPoolCore(poolAddressesProvider.getLendingPoolCore());\r\n        core.setReserveInterestRateStrategyAddress(_reserve, _rateStrategyAddress);\r\n        emit ReserveInterestRateStrategyChanged(_reserve, _rateStrategyAddress);\r\n    }\r\n\r\n    /**\r\n    * @dev refreshes the lending pool core configuration to update the cached address\r\n    **/\r\n    function refreshLendingPoolCoreConfiguration() external onlyLendingPoolManager {\r\n        LendingPoolCore core = LendingPoolCore(poolAddressesProvider.getLendingPoolCore());\r\n        core.refreshConfiguration();\r\n    }\r\n}\r\n",
  "sourcePath": "C:\\Proj\\fork-protocol\\contracts\\lendingpool\\LendingPoolConfigurator.sol",
  "compiler": {
    "name": "solc",
    "version": "0.8.24+commit.e11b9ed9.Emscripten.clang"
  },
  "schemaVersion": "3.4.16",
  "updatedAt": "2024-02-11T21:41:58.677Z",
  "devdoc": {
    "author": "Aave",
    "events": {
      "BorrowingDisabledOnReserve(address)": {
        "details": "emitted when borrowing is disabled on a reserve",
        "params": {
          "_reserve": "the address of the reserve*"
        }
      },
      "BorrowingEnabledOnReserve(address,bool)": {
        "details": "emitted when borrowing is enabled on a reserve",
        "params": {
          "_reserve": "the address of the reserve",
          "_stableRateEnabled": "true if stable rate borrowing is enabled, false otherwise*"
        }
      },
      "ReserveActivated(address)": {
        "details": "emitted when a reserve is activated",
        "params": {
          "_reserve": "the address of the reserve*"
        }
      },
      "ReserveBaseLtvChanged(address,uint256)": {
        "details": "emitted when a reserve loan to value is updated",
        "params": {
          "_ltv": "the new value for the loan to value*",
          "_reserve": "the address of the reserve"
        }
      },
      "ReserveDeactivated(address)": {
        "details": "emitted when a reserve is deactivated",
        "params": {
          "_reserve": "the address of the reserve*"
        }
      },
      "ReserveDecimalsChanged(address,uint256)": {
        "details": "emitted when the reserve decimals are updated",
        "params": {
          "_decimals": "the new decimals*",
          "_reserve": "the address of the reserve"
        }
      },
      "ReserveDisabledAsCollateral(address)": {
        "details": "emitted when a reserve is disabled as collateral",
        "params": {
          "_reserve": "the address of the reserve*"
        }
      },
      "ReserveEnabledAsCollateral(address,uint256,uint256,uint256)": {
        "details": "emitted when a reserve is enabled as collateral.",
        "params": {
          "_liquidationBonus": "the bonus liquidators receive to liquidate this asset*",
          "_liquidationThreshold": "the threshold at which loans using this asset as collateral will be considered undercollateralized",
          "_ltv": "the loan to value of the asset when used as collateral",
          "_reserve": "the address of the reserve"
        }
      },
      "ReserveFreezed(address)": {
        "details": "emitted when a reserve is freezed",
        "params": {
          "_reserve": "the address of the reserve*"
        }
      },
      "ReserveInitialized(address,address,address)": {
        "details": "emitted when a reserve is initialized.",
        "params": {
          "_aToken": "the address of the overlying aToken contract",
          "_interestRateStrategyAddress": "the address of the interest rate strategy for the reserve*",
          "_reserve": "the address of the reserve"
        }
      },
      "ReserveInterestRateStrategyChanged(address,address)": {
        "details": "emitted when a reserve interest strategy contract is updated",
        "params": {
          "_reserve": "the address of the reserve",
          "_strategy": "the new address of the interest strategy contract*"
        }
      },
      "ReserveLiquidationBonusChanged(address,uint256)": {
        "details": "emitted when a reserve liquidation bonus is updated",
        "params": {
          "_bonus": "the new value for the liquidation bonus*",
          "_reserve": "the address of the reserve"
        }
      },
      "ReserveLiquidationThresholdChanged(address,uint256)": {
        "details": "emitted when a reserve liquidation threshold is updated",
        "params": {
          "_reserve": "the address of the reserve",
          "_threshold": "the new value for the liquidation threshold*"
        }
      },
      "ReserveRemoved(address)": {
        "details": "emitted when a reserve is removed.",
        "params": {
          "_reserve": "the address of the reserve*"
        }
      },
      "ReserveUnfreezed(address)": {
        "details": "emitted when a reserve is unfreezed",
        "params": {
          "_reserve": "the address of the reserve*"
        }
      },
      "StableRateDisabledOnReserve(address)": {
        "details": "emitted when stable rate borrowing is disabled on a reserve",
        "params": {
          "_reserve": "the address of the reserve*"
        }
      },
      "StableRateEnabledOnReserve(address)": {
        "details": "emitted when stable rate borrowing is enabled on a reserve",
        "params": {
          "_reserve": "the address of the reserve*"
        }
      }
    },
    "kind": "dev",
    "methods": {
      "activateReserve(address)": {
        "details": "activates a reserve",
        "params": {
          "_reserve": "the address of the reserve*"
        }
      },
      "deactivateReserve(address)": {
        "details": "deactivates a reserve",
        "params": {
          "_reserve": "the address of the reserve*"
        }
      },
      "disableBorrowingOnReserve(address)": {
        "details": "disables borrowing on a reserve",
        "params": {
          "_reserve": "the address of the reserve*"
        }
      },
      "disableReserveAsCollateral(address)": {
        "details": "disables a reserve as collateral",
        "params": {
          "_reserve": "the address of the reserve*"
        }
      },
      "disableReserveStableBorrowRate(address)": {
        "details": "disable stable rate borrowing on a reserve",
        "params": {
          "_reserve": "the address of the reserve*"
        }
      },
      "enableBorrowingOnReserve(address,bool)": {
        "details": "enables borrowing on a reserve",
        "params": {
          "_reserve": "the address of the reserve",
          "_stableBorrowRateEnabled": "true if stable borrow rate needs to be enabled by default on this reserve*"
        }
      },
      "enableReserveAsCollateral(address,uint256,uint256,uint256)": {
        "details": "enables a reserve to be used as collateral",
        "params": {
          "_baseLTVasCollateral": "the loan to value of the asset when used as collateral",
          "_liquidationBonus": "the bonus liquidators receive to liquidate this asset*",
          "_liquidationThreshold": "the threshold at which loans using this asset as collateral will be considered undercollateralized",
          "_reserve": "the address of the reserve"
        }
      },
      "enableReserveStableBorrowRate(address)": {
        "details": "enable stable rate borrowing on a reserve",
        "params": {
          "_reserve": "the address of the reserve*"
        }
      },
      "freezeReserve(address)": {
        "details": "freezes a reserve. A freezed reserve doesn't accept any new deposit, borrow or rate swap, but can accept repayments, liquidations, rate rebalances and redeems",
        "params": {
          "_reserve": "the address of the reserve*"
        }
      },
      "initReserve(address,uint8,address)": {
        "details": "initializes a reserve",
        "params": {
          "_interestRateStrategyAddress": "the address of the interest rate strategy contract for this reserve*",
          "_reserve": "the address of the reserve to be initialized",
          "_underlyingAssetDecimals": "the decimals of the reserve underlying asset"
        }
      },
      "initReserveWithData(address,string,string,uint8,address)": {
        "details": "initializes a reserve using aTokenData provided externally (useful if the underlying ERC20 contract doesn't expose name or decimals)",
        "params": {
          "_aTokenName": "the name of the aToken contract",
          "_aTokenSymbol": "the symbol of the aToken contract",
          "_interestRateStrategyAddress": "the address of the interest rate strategy contract for this reserve*",
          "_reserve": "the address of the reserve to be initialized",
          "_underlyingAssetDecimals": "the decimals of the reserve underlying asset"
        }
      },
      "refreshLendingPoolCoreConfiguration()": {
        "details": "refreshes the lending pool core configuration to update the cached address*"
      },
      "removeLastAddedReserve(address)": {
        "details": "removes the last added reserve in the list of the reserves",
        "params": {
          "_reserveToRemove": "the address of the reserve*"
        }
      },
      "setReserveBaseLTVasCollateral(address,uint256)": {
        "details": "emitted when a reserve loan to value is updated",
        "params": {
          "_ltv": "the new value for the loan to value*",
          "_reserve": "the address of the reserve"
        }
      },
      "setReserveDecimals(address,uint256)": {
        "details": "updates the reserve decimals",
        "params": {
          "_decimals": "the new number of decimals*",
          "_reserve": "the address of the reserve"
        }
      },
      "setReserveInterestRateStrategyAddress(address,address)": {
        "details": "sets the interest rate strategy of a reserve",
        "params": {
          "_rateStrategyAddress": "the new address of the interest strategy contract*",
          "_reserve": "the address of the reserve"
        }
      },
      "setReserveLiquidationBonus(address,uint256)": {
        "details": "updates the liquidation bonus of a reserve",
        "params": {
          "_bonus": "the new value for the liquidation bonus*",
          "_reserve": "the address of the reserve"
        }
      },
      "setReserveLiquidationThreshold(address,uint256)": {
        "details": "updates the liquidation threshold of a reserve.",
        "params": {
          "_reserve": "the address of the reserve",
          "_threshold": "the new value for the liquidation threshold*"
        }
      },
      "unfreezeReserve(address)": {
        "details": "unfreezes a reserve",
        "params": {
          "_reserve": "the address of the reserve*"
        }
      }
    },
    "title": "LendingPoolConfigurator contract",
    "version": 1
  },
  "userdoc": {
    "kind": "user",
    "methods": {},
    "notice": "Executes configuration methods on the LendingPoolCore contract. Allows to enable/disable reserves, and set different protocol parameters.*",
    "version": 1
  }
}