{
  "contractName": "LendingPoolLiquidationManager",
  "abi": [
    {
      "inputs": [],
      "name": "ReentrancyGuardReentrantCall",
      "type": "error"
    },
    {
      "anonymous": false,
      "inputs": [
        {
          "indexed": true,
          "internalType": "address",
          "name": "_collateral",
          "type": "address"
        },
        {
          "indexed": true,
          "internalType": "address",
          "name": "_reserve",
          "type": "address"
        },
        {
          "indexed": true,
          "internalType": "address",
          "name": "_user",
          "type": "address"
        },
        {
          "indexed": false,
          "internalType": "uint256",
          "name": "_purchaseAmount",
          "type": "uint256"
        },
        {
          "indexed": false,
          "internalType": "uint256",
          "name": "_liquidatedCollateralAmount",
          "type": "uint256"
        },
        {
          "indexed": false,
          "internalType": "uint256",
          "name": "_accruedBorrowInterest",
          "type": "uint256"
        },
        {
          "indexed": false,
          "internalType": "address",
          "name": "_liquidator",
          "type": "address"
        },
        {
          "indexed": false,
          "internalType": "bool",
          "name": "_receiveAToken",
          "type": "bool"
        },
        {
          "indexed": false,
          "internalType": "uint256",
          "name": "_timestamp",
          "type": "uint256"
        }
      ],
      "name": "LiquidationCall",
      "type": "event"
    },
    {
      "anonymous": false,
      "inputs": [
        {
          "indexed": true,
          "internalType": "address",
          "name": "_collateral",
          "type": "address"
        },
        {
          "indexed": true,
          "internalType": "address",
          "name": "_reserve",
          "type": "address"
        },
        {
          "indexed": true,
          "internalType": "address",
          "name": "_user",
          "type": "address"
        },
        {
          "indexed": false,
          "internalType": "uint256",
          "name": "_feeLiquidated",
          "type": "uint256"
        },
        {
          "indexed": false,
          "internalType": "uint256",
          "name": "_liquidatedCollateralForFee",
          "type": "uint256"
        },
        {
          "indexed": false,
          "internalType": "uint256",
          "name": "_timestamp",
          "type": "uint256"
        }
      ],
      "name": "OriginationFeeLiquidated",
      "type": "event"
    },
    {
      "inputs": [],
      "name": "addressesProvider",
      "outputs": [
        {
          "internalType": "contract LendingPoolAddressesProvider",
          "name": "",
          "type": "address"
        }
      ],
      "stateMutability": "view",
      "type": "function"
    },
    {
      "inputs": [
        {
          "internalType": "address",
          "name": "_collateral",
          "type": "address"
        },
        {
          "internalType": "address",
          "name": "_reserve",
          "type": "address"
        },
        {
          "internalType": "address",
          "name": "_user",
          "type": "address"
        },
        {
          "internalType": "uint256",
          "name": "_purchaseAmount",
          "type": "uint256"
        },
        {
          "internalType": "bool",
          "name": "_receiveAToken",
          "type": "bool"
        }
      ],
      "name": "liquidationCall",
      "outputs": [
        {
          "internalType": "uint256",
          "name": "",
          "type": "uint256"
        },
        {
          "internalType": "string",
          "name": "",
          "type": "string"
        }
      ],
      "stateMutability": "payable",
      "type": "function"
    }
  ],
  "bytecode": "0x6080806040523461001e5760015f555f60015561104790816100238239f35b5f80fdfe60806040526004361015610011575f80fd5b5f3560e01c8062a718a91461005a5763c72c4d101461002e575f80fd5b34610056575f366003190112610056576035546040516001600160a01b039091168152602090f35b5f80fd5b60a0366003190112610056576004356001600160a01b0380821682036100565760243591818316830361005657604435918216820361005657608435918215158303610056576100ad93606435926101f7565b604051918252816020604060208301528251908160408401525f935b8285106100eb575050606092505f838284010152601f80199101168101030190f35b84810182015186860160600152938101938593506100c9565b67ffffffffffffffff811161011857604052565b634e487b7160e01b5f52604160045260245ffd5b6060810190811067ffffffffffffffff82111761011857604052565b6040810190811067ffffffffffffffff82111761011857604052565b90601f8019910116810190811067ffffffffffffffff82111761011857604052565b5190811515820361005657565b818102929181159184041417156101a657565b634e487b7160e01b5f52601160045260245ffd5b81156101c4570490565b634e487b7160e01b5f52601260045260245ffd5b9081602091031261005657516001600160a01b03811681036100565790565b91939092935f9460405192610200840184811067ffffffffffffffff821117610118576040525f84525f60208501525f60408501525f60608501525f60808501525f60a08501525f60c08501525f60e08501525f6101008501525f6101208501525f6101408501525f6101608501525f6101808501525f6101a08501525f6101c08501525f6101e0850152602461010060018060a01b036037541660405192838092632c6d0e9b60e01b825260018060a01b03891660048301525afa9081156109bb575f91610d71575b501580156101e0860152610d1d57603654604051630c526de560e11b81526001600160a01b03878116600483015285811660248301529091169290602081604481875afa9081156109bb575f91610ceb575b5080865215610ca757604051630c7cddd760e11b81526001600160a01b0387166004820152602081602481875afa9081156109bb575f91610c6d575b5080610bf1575b1580156101c0870152610b9a57604051639fb8afcd60e01b81526001600160a01b03888116600483015285166024820152606081604481875afa80156109bb575f915f91610b5e575b50604087015280602087015215610b0757602085015190816032810204603214821517156101a657606460326103f3930204908160608801528181115f14610b0057505b8060808701528551908888610db1565b604051633faacc6b60e21b81526001600160a01b03898116600483015286166024820152919291602081604481885afa9081156109bb575f91610ace575b508061012088015280610aa2575b5060808601518110610a97575b50801592836109c6575b608086015190610140870151610160880151604089015191833b156100565760405163345f5a6b60e11b81526001600160a01b03808e166004830152808d1660248301528a16604482015260648101959095526084850187905260a485015260c484015260e483015284156101048301525f90829061012490829084905af180156109bb576109a7575b50603654604051631a59df7760e11b81526001600160a01b03888116600483015290929160209184916024918391165afa918215610887578992610986575b50156108a6576001600160a01b0381163b156108835760405163f866c31960e01b81526001600160a01b03858116600483015233602483015260448201849052899082906064908290849087165af1801561088757908991610892575b50505b6036546080860151906001600160a01b0316803b15610817576040516328fcf4d360e01b81526001600160a01b038a166004820152336024820152604481019290925289908290606490829034905af180156108875790899161086f575b505061014085015161067a575b5060808481015160409586015186519182526020820193909352948501919091523360608501529015908301524260a08301526001600160a01b039081169381169216907f56864757fd5b1fc9f38f5f3a981cd8ae512ce41b902cf73fc506ee369c6bc2379060c090a49060405161066181610148565b60098152684e6f206572726f727360b81b602082015290565b6101608501516001600160a01b0382163b1561086b576040516307db6f9760e31b81526001600160a01b0386811660048301526024820192909252918991839160449183918591165af1801561080c57908891610857575b5050603654610160850151603554604051637744894b60e11b81526001600160a01b039384169390929160209184916004918391165afa91821561084c578a9261081b575b50823b156108175760405163479c2e1160e11b81526001600160a01b03808a1660048301526024820192909252911660448201529088908290606490829084905af1801561080c579088916107f4575b505061014084015161016085015160408051928352602083019190915242908201527f56864757fd5b1fc9f38f5f3a981cd8ae512ce41b902cf73fc506ee369c6bc2379360c093909290916001600160a01b03808516918a8216918a16907f36ca8b16d61dc13b1062adff83e3778ab92d14f9e35bfe9fd1283e02b13fb0a190606090a4919350916105ea565b6107fd90610104565b61080857865f610767565b8680fd5b6040513d8a823e3d90fd5b8980fd5b61083e91925060203d602011610845575b6108368183610164565b8101906101d8565b905f610717565b503d61082c565b6040513d8c823e3d90fd5b61086090610104565b61080857865f6106d2565b8880fd5b61087890610104565b61088357875f6105dd565b8780fd5b6040513d8b823e3d90fd5b61089b90610104565b61088357875f61057c565b6001600160a01b0381163b15610883576040516307db6f9760e31b81526001600160a01b038516600482015260248101839052888180604481010381836001600160a01b0387165af1801561088757908991610972575b50506036546001600160a01b0316803b1561086b5760405163fa93b2a560e01b81526001600160a01b0388166004820152336024820152604481018490529089908290606490829084905af180156108875790899161095e575b505061057f565b61096790610104565b61088357875f610957565b61097b90610104565b61088357875f6108fd565b6109a091925060203d602011610845576108368183610164565b905f61051f565b6109b2919850610104565b5f9660246104e0565b6040513d5f823e3d90fd5b60405163e240301960e01b81526001600160a01b0388166004820152602081602481855afa80156109bb5784915f91610a62575b50101561045657505050505050505050600590604051610a198161012c565b603381527f54686572652069736e277420656e6f756768206c697175696469747920617661602082015272696c61626c6520746f206c697175696461746560681b604082015290565b9150506020813d602011610a8f575b81610a7e60209383610164565b81010312610056578390515f6109fa565b3d9150610a71565b60808601525f61044c565b86519081858103116101a65784610abc9203908a8a610db1565b6101408801526101608701525f61043f565b90506020813d602011610af8575b81610ae960209383610164565b8101031261005657515f610431565b3d9150610adc565b90506103e3565b5050505050505050600390604051610b1e8161012c565b602a81527f5573657220646964206e6f7420626f72726f7720746865207370656369666965602082015269642063757272656e637960b01b604082015290565b9150506060813d606011610b92575b81610b7a60609383610164565b8101031261005657604060208201519101515f61039f565b3d9150610b6d565b5050505050505050600290604051610bb18161012c565b602a81527f54686520636f6c6c61746572616c2063686f73656e2063616e6e6f74206265206020820152691b1a5c5d5a59185d195960b21b604082015290565b50604051639e3c4f3b60e01b81526001600160a01b03878116600483015285166024820152602081604481875afa9081156109bb575f91610c33575b50610356565b90506020813d602011610c65575b81610c4e60209383610164565b8101031261005657610c5f90610186565b5f610c2d565b3d9150610c41565b90506020813d602011610c9f575b81610c8860209383610164565b8101031261005657610c9990610186565b5f61034f565b3d9150610c7b565b5050505050505050600190604051610cbe81610148565b601f81527f496e76616c696420636f6c6c61746572616c20746f206c697175696461746500602082015290565b90506020813d602011610d15575b81610d0660209383610164565b8101031261005657515f610313565b3d9150610cf9565b50505050505050600490604051610d338161012c565b602881527f4865616c746820666163746f72206973206e6f742062656c6f772074686520746020820152671a1c995cda1bdb1960c21b604082015290565b9050610100813d61010011610da9575b81610d8f6101009383610164565b810103126100565760e0610da39101610186565b5f6102c1565b3d9150610d81565b90939260018060a01b0392836035541692604080518095631f94a27560e31b825281600460209889935afa908115611007579087915f91610fea575b501681519560a0870187811067ffffffffffffffff8211176101185783525f8752808701975f89528388019a5f8c52608060608a01995f8b5201955f87528551948363b3596f0760e01b9283885216958660048201528581602481855afa908115610fe057918f918794928796945f92610fa5575b50906024939291528951958694859384521660048301525afa908115610f9b57908392915f91610f6c575b508952603654169260248551809581936331da9b2760e21b835260048301525afa928315610f6357505f92610f35575b505085526064610ee4610edc610ed4858851610193565b8a51906101ba565b875190610193565b048091528281115f14610f2c57505090610f0382610f0b939651610193565b9051906101ba565b6064810290808204606414901517156101a657610f299151906101ba565b90565b95509392505050565b90809250813d8311610f5c575b610f4c8183610164565b8101031261005657515f80610ebd565b503d610f42565b513d5f823e3d90fd5b83819492503d8311610f94575b610f838183610164565b81010312610056578291515f610e8d565b503d610f79565b85513d5f823e3d90fd5b93965050509281813d8311610fd9575b610fbf8183610164565b810103126100565784938f93879460249351919293610e62565b503d610fb5565b88513d5f823e3d90fd5b6110019150873d8911610845576108368183610164565b5f610ded565b82513d5f823e3d90fdfea26469706673582212205bf4b1f10a86aa13ae249bf71b771d0f0ece0614b7a375b065659b3bb5d8d05464736f6c63430008180033",
  "immutableReferences": {},
  "source": "pragma solidity ^0.8.24;\r\n\r\nimport \"../../lib/openzeppelin-contracts/contracts/utils/ReentrancyGuard.sol\";\r\nimport \"../../lib/openzeppelin-contracts/contracts/utils/Address.sol\";\r\nimport \"../../lib/openzeppelin-contracts/contracts/utils/ReentrancyGuard.sol\";\r\nimport \"../libraries/openzeppelin-upgradeability/VersionedInitializable.sol\";\r\n\r\nimport \"../configuration/LendingPoolAddressesProvider.sol\";\r\nimport \"../configuration/LendingPoolParametersProvider.sol\";\r\nimport \"../tokenization/AToken.sol\";\r\nimport \"../libraries/CoreLibrary.sol\";\r\nimport \"../libraries/WadRayMath.sol\";\r\nimport \"./LendingPoolCore.sol\";\r\nimport \"./LendingPoolDataProvider.sol\";\r\nimport \"../interfaces/IPriceOracleGetter.sol\";\r\n\r\n/**\r\n* @title LendingPoolLiquidationManager contract\r\n* @author Aave\r\n* @notice Implements the liquidation function.\r\n**/\r\ncontract LendingPoolLiquidationManager is ReentrancyGuard, VersionedInitializable {\r\n    using WadRayMath for uint256;\r\n    using Address for address;\r\n\r\n    LendingPoolAddressesProvider public addressesProvider;\r\n    LendingPoolCore core;\r\n    LendingPoolDataProvider dataProvider;\r\n    LendingPoolParametersProvider parametersProvider;\r\n    IFeeProvider feeProvider;\r\n    address ethereumAddress;\r\n\r\n    uint256 constant LIQUIDATION_CLOSE_FACTOR_PERCENT = 50;\r\n\r\n    /**\r\n    * @dev emitted when a borrow fee is liquidated\r\n    * @param _collateral the address of the collateral being liquidated\r\n    * @param _reserve the address of the reserve\r\n    * @param _user the address of the user being liquidated\r\n    * @param _feeLiquidated the total fee liquidated\r\n    * @param _liquidatedCollateralForFee the amount of collateral received by the protocol in exchange for the fee\r\n    * @param _timestamp the timestamp of the action\r\n    **/\r\n    event OriginationFeeLiquidated(\r\n        address indexed _collateral,\r\n        address indexed _reserve,\r\n        address indexed _user,\r\n        uint256 _feeLiquidated,\r\n        uint256 _liquidatedCollateralForFee,\r\n        uint256 _timestamp\r\n    );\r\n\r\n    /**\r\n    * @dev emitted when a borrower is liquidated\r\n    * @param _collateral the address of the collateral being liquidated\r\n    * @param _reserve the address of the reserve\r\n    * @param _user the address of the user being liquidated\r\n    * @param _purchaseAmount the total amount liquidated\r\n    * @param _liquidatedCollateralAmount the amount of collateral being liquidated\r\n    * @param _accruedBorrowInterest the amount of interest accrued by the borrower since the last action\r\n    * @param _liquidator the address of the liquidator\r\n    * @param _receiveAToken true if the liquidator wants to receive aTokens, false otherwise\r\n    * @param _timestamp the timestamp of the action\r\n    **/\r\n    event LiquidationCall(\r\n        address indexed _collateral,\r\n        address indexed _reserve,\r\n        address indexed _user,\r\n        uint256 _purchaseAmount,\r\n        uint256 _liquidatedCollateralAmount,\r\n        uint256 _accruedBorrowInterest,\r\n        address _liquidator,\r\n        bool _receiveAToken,\r\n        uint256 _timestamp\r\n    );\r\n\r\n    enum LiquidationErrors {\r\n        NO_ERROR,\r\n        NO_COLLATERAL_AVAILABLE,\r\n        COLLATERAL_CANNOT_BE_LIQUIDATED,\r\n        CURRRENCY_NOT_BORROWED,\r\n        HEALTH_FACTOR_ABOVE_THRESHOLD,\r\n        NOT_ENOUGH_LIQUIDITY\r\n    }\r\n\r\n    struct LiquidationCallLocalVars {\r\n        uint256 userCollateralBalance;\r\n        uint256 userCompoundedBorrowBalance;\r\n        uint256 borrowBalanceIncrease;\r\n        uint256 maxPrincipalAmountToLiquidate;\r\n        uint256 actualAmountToLiquidate;\r\n        uint256 liquidationRatio;\r\n        uint256 collateralPrice;\r\n        uint256 principalCurrencyPrice;\r\n        uint256 maxAmountCollateralToLiquidate;\r\n        uint256 originationFee;\r\n        uint256 feeLiquidated;\r\n        uint256 liquidatedCollateralForFee;\r\n        CoreLibrary.InterestRateMode borrowRateMode;\r\n        uint256 userStableRate;\r\n        bool isCollateralEnabled;\r\n        bool healthFactorBelowThreshold;\r\n    }\r\n\r\n    /**\r\n    * @dev as the contract extends the VersionedInitializable contract to match the state\r\n    * of the LendingPool contract, the getRevision() function is needed.\r\n    */\r\n    function getRevision() internal pure override returns (uint256) {\r\n        return 0;\r\n    }\r\n\r\n    /**\r\n    * @dev users can invoke this function to liquidate an undercollateralized position.\r\n    * @param _reserve the address of the collateral to liquidated\r\n    * @param _reserve the address of the principal reserve\r\n    * @param _user the address of the borrower\r\n    * @param _purchaseAmount the amount of principal that the liquidator wants to repay\r\n    * @param _receiveAToken true if the liquidators wants to receive the aTokens, false if\r\n    * he wants to receive the underlying asset directly\r\n    **/\r\n    function liquidationCall(\r\n        address _collateral,\r\n        address _reserve,\r\n        address _user,\r\n        uint256 _purchaseAmount,\r\n        bool _receiveAToken\r\n    ) external payable returns (uint256, string memory) {\r\n        // Usage of a memory struct of vars to avoid \"Stack too deep\" errors due to local variables\r\n        LiquidationCallLocalVars memory vars;\r\n\r\n        (, , , , , , , vars.healthFactorBelowThreshold) = dataProvider.calculateUserGlobalData(\r\n            _user\r\n        );\r\n\r\n        if (!vars.healthFactorBelowThreshold) {\r\n            return (\r\n                uint256(LiquidationErrors.HEALTH_FACTOR_ABOVE_THRESHOLD),\r\n                \"Health factor is not below the threshold\"\r\n            );\r\n        }\r\n\r\n        vars.userCollateralBalance = core.getUserUnderlyingAssetBalance(_collateral, _user);\r\n\r\n        //if _user hasn't deposited this specific collateral, nothing can be liquidated\r\n        if (vars.userCollateralBalance == 0) {\r\n            return (\r\n                uint256(LiquidationErrors.NO_COLLATERAL_AVAILABLE),\r\n                \"Invalid collateral to liquidate\"\r\n            );\r\n        }\r\n\r\n        vars.isCollateralEnabled =\r\n            core.isReserveUsageAsCollateralEnabled(_collateral) &&\r\n            core.isUserUseReserveAsCollateralEnabled(_collateral, _user);\r\n\r\n        //if _collateral isn't enabled as collateral by _user, it cannot be liquidated\r\n        if (!vars.isCollateralEnabled) {\r\n            return (\r\n                uint256(LiquidationErrors.COLLATERAL_CANNOT_BE_LIQUIDATED),\r\n                \"The collateral chosen cannot be liquidated\"\r\n            );\r\n        }\r\n\r\n        //if the user hasn't borrowed the specific currency defined by _reserve, it cannot be liquidated\r\n        (, vars.userCompoundedBorrowBalance, vars.borrowBalanceIncrease) = core\r\n            .getUserBorrowBalances(_reserve, _user);\r\n\r\n        if (vars.userCompoundedBorrowBalance == 0) {\r\n            return (\r\n                uint256(LiquidationErrors.CURRRENCY_NOT_BORROWED),\r\n                \"User did not borrow the specified currency\"\r\n            );\r\n        }\r\n\r\n        //all clear - calculate the max principal amount that can be liquidated\r\n        vars.maxPrincipalAmountToLiquidate = vars.userCompoundedBorrowBalance * \r\n            LIQUIDATION_CLOSE_FACTOR_PERCENT / 100;\r\n\r\n        vars.actualAmountToLiquidate = _purchaseAmount > vars.maxPrincipalAmountToLiquidate\r\n            ? vars.maxPrincipalAmountToLiquidate\r\n            : _purchaseAmount;\r\n\r\n        (uint256 maxCollateralToLiquidate, uint256 principalAmountNeeded) = calculateAvailableCollateralToLiquidate(\r\n            _collateral,\r\n            _reserve,\r\n            vars.actualAmountToLiquidate,\r\n            vars.userCollateralBalance\r\n        );\r\n\r\n        vars.originationFee = core.getUserOriginationFee(_reserve, _user);\r\n\r\n        //if there is a fee to liquidate, calculate the maximum amount of fee that can be liquidated\r\n        if (vars.originationFee > 0) {\r\n            (\r\n                vars.liquidatedCollateralForFee,\r\n                vars.feeLiquidated\r\n            ) = calculateAvailableCollateralToLiquidate(\r\n                _collateral,\r\n                _reserve,\r\n                vars.originationFee,\r\n                vars.userCollateralBalance - maxCollateralToLiquidate\r\n            );\r\n        }\r\n\r\n        //if principalAmountNeeded < vars.ActualAmountToLiquidate, there isn't enough\r\n        //of _collateral to cover the actual amount that is being liquidated, hence we liquidate\r\n        //a smaller amount\r\n\r\n        if (principalAmountNeeded < vars.actualAmountToLiquidate) {\r\n            vars.actualAmountToLiquidate = principalAmountNeeded;\r\n        }\r\n\r\n        //if liquidator reclaims the underlying asset, we make sure there is enough available collateral in the reserve\r\n        if (!_receiveAToken) {\r\n            uint256 currentAvailableCollateral = core.getReserveAvailableLiquidity(_collateral);\r\n            if (currentAvailableCollateral < maxCollateralToLiquidate) {\r\n                return (\r\n                    uint256(LiquidationErrors.NOT_ENOUGH_LIQUIDITY),\r\n                    \"There isn't enough liquidity available to liquidate\"\r\n                );\r\n            }\r\n        }\r\n\r\n        core.updateStateOnLiquidation(\r\n            _reserve,\r\n            _collateral,\r\n            _user,\r\n            vars.actualAmountToLiquidate,\r\n            maxCollateralToLiquidate,\r\n            vars.feeLiquidated,\r\n            vars.liquidatedCollateralForFee,\r\n            vars.borrowBalanceIncrease,\r\n            _receiveAToken\r\n        );\r\n\r\n        AToken collateralAtoken = AToken(core.getReserveATokenAddress(_collateral));\r\n\r\n        //if liquidator reclaims the aToken, he receives the equivalent atoken amount\r\n        if (_receiveAToken) {\r\n            collateralAtoken.transferOnLiquidation(_user, msg.sender, maxCollateralToLiquidate);\r\n        } else {\r\n            //otherwise receives the underlying asset\r\n            //burn the equivalent amount of atoken\r\n            collateralAtoken.burnOnLiquidation(_user, maxCollateralToLiquidate);\r\n            core.transferToUser(_collateral, payable(msg.sender), maxCollateralToLiquidate);\r\n        }\r\n\r\n        //transfers the principal currency to the pool\r\n        core.transferToReserve{value: msg.value}(_reserve, payable(msg.sender), vars.actualAmountToLiquidate);\r\n\r\n        if (vars.feeLiquidated > 0) {\r\n            //if there is enough collateral to liquidate the fee, first transfer burn an equivalent amount of\r\n            //aTokens of the user\r\n            collateralAtoken.burnOnLiquidation(_user, vars.liquidatedCollateralForFee);\r\n\r\n            //then liquidate the fee by transferring it to the fee collection address\r\n            core.liquidateFee(\r\n                _collateral,\r\n                vars.liquidatedCollateralForFee,\r\n                addressesProvider.getTokenDistributor()\r\n            );\r\n\r\n            emit OriginationFeeLiquidated(\r\n                _collateral,\r\n                _reserve,\r\n                _user,\r\n                vars.feeLiquidated,\r\n                vars.liquidatedCollateralForFee,\r\n                //solium-disable-next-line\r\n                block.timestamp\r\n            );\r\n\r\n        }\r\n        emit LiquidationCall(\r\n            _collateral,\r\n            _reserve,\r\n            _user,\r\n            vars.actualAmountToLiquidate,\r\n            maxCollateralToLiquidate,\r\n            vars.borrowBalanceIncrease,\r\n            msg.sender,\r\n            _receiveAToken,\r\n            //solium-disable-next-line\r\n            block.timestamp\r\n        );\r\n\r\n        return (uint256(LiquidationErrors.NO_ERROR), \"No errors\");\r\n    }\r\n\r\n    struct AvailableCollateralToLiquidateLocalVars {\r\n        uint256 userCompoundedBorrowBalance;\r\n        uint256 liquidationBonus;\r\n        uint256 collateralPrice;\r\n        uint256 principalCurrencyPrice;\r\n        uint256 maxAmountCollateralToLiquidate;\r\n    }\r\n\r\n    /**\r\n    * @dev calculates how much of a specific collateral can be liquidated, given\r\n    * a certain amount of principal currency. This function needs to be called after\r\n    * all the checks to validate the liquidation have been performed, otherwise it might fail.\r\n    * @param _collateral the collateral to be liquidated\r\n    * @param _principal the principal currency to be liquidated\r\n    * @param _purchaseAmount the amount of principal being liquidated\r\n    * @param _userCollateralBalance the collatera balance for the specific _collateral asset of the user being liquidated\r\n    **/\r\n    function calculateAvailableCollateralToLiquidate(\r\n        address _collateral,\r\n        address _principal,\r\n        uint256 _purchaseAmount,\r\n        uint256 _userCollateralBalance\r\n    ) internal view returns (uint256 collateralAmount, uint256 principalAmountNeeded) {\r\n        collateralAmount = 0;\r\n        principalAmountNeeded = 0;\r\n        IPriceOracleGetter oracle = IPriceOracleGetter(addressesProvider.getPriceOracle());\r\n\r\n        // Usage of a memory struct of vars to avoid \"Stack too deep\" errors due to local variables\r\n        AvailableCollateralToLiquidateLocalVars memory vars;\r\n\r\n        vars.collateralPrice = oracle.getAssetPrice(_collateral);\r\n        vars.principalCurrencyPrice = oracle.getAssetPrice(_principal);\r\n        vars.liquidationBonus = core.getReserveLiquidationBonus(_collateral);\r\n\r\n        //this is the maximum possible amount of the selected collateral that can be liquidated, given the\r\n        //max amount of principal currency that is available for liquidation.\r\n        vars.maxAmountCollateralToLiquidate = vars.principalCurrencyPrice * _purchaseAmount / \r\n            vars.collateralPrice * vars.liquidationBonus / 100;\r\n\r\n        if (vars.maxAmountCollateralToLiquidate > _userCollateralBalance) {\r\n            collateralAmount = _userCollateralBalance;\r\n            principalAmountNeeded = vars.collateralPrice * collateralAmount / vars.principalCurrencyPrice * \r\n                100 / vars.liquidationBonus;\r\n        } else {\r\n            collateralAmount = vars.maxAmountCollateralToLiquidate;\r\n            principalAmountNeeded = _purchaseAmount;\r\n        }\r\n\r\n        return (collateralAmount, principalAmountNeeded);\r\n    }\r\n}\r\n",
  "sourcePath": "C:\\Proj\\fork-protocol\\contracts\\lendingpool\\LendingPoolLiquidationManager.sol",
  "compiler": {
    "name": "solc",
    "version": "0.8.24+commit.e11b9ed9.Emscripten.clang"
  },
  "schemaVersion": "3.4.16",
  "updatedAt": "2024-02-11T21:41:58.749Z",
  "devdoc": {
    "author": "Aave",
    "errors": {
      "ReentrancyGuardReentrantCall()": [
        {
          "details": "Unauthorized reentrant call."
        }
      ]
    },
    "events": {
      "LiquidationCall(address,address,address,uint256,uint256,uint256,address,bool,uint256)": {
        "details": "emitted when a borrower is liquidated",
        "params": {
          "_accruedBorrowInterest": "the amount of interest accrued by the borrower since the last action",
          "_collateral": "the address of the collateral being liquidated",
          "_liquidatedCollateralAmount": "the amount of collateral being liquidated",
          "_liquidator": "the address of the liquidator",
          "_purchaseAmount": "the total amount liquidated",
          "_receiveAToken": "true if the liquidator wants to receive aTokens, false otherwise",
          "_reserve": "the address of the reserve",
          "_timestamp": "the timestamp of the action*",
          "_user": "the address of the user being liquidated"
        }
      },
      "OriginationFeeLiquidated(address,address,address,uint256,uint256,uint256)": {
        "details": "emitted when a borrow fee is liquidated",
        "params": {
          "_collateral": "the address of the collateral being liquidated",
          "_feeLiquidated": "the total fee liquidated",
          "_liquidatedCollateralForFee": "the amount of collateral received by the protocol in exchange for the fee",
          "_reserve": "the address of the reserve",
          "_timestamp": "the timestamp of the action*",
          "_user": "the address of the user being liquidated"
        }
      }
    },
    "kind": "dev",
    "methods": {
      "liquidationCall(address,address,address,uint256,bool)": {
        "details": "users can invoke this function to liquidate an undercollateralized position.",
        "params": {
          "_purchaseAmount": "the amount of principal that the liquidator wants to repay",
          "_receiveAToken": "true if the liquidators wants to receive the aTokens, false if he wants to receive the underlying asset directly*",
          "_reserve": "the address of the principal reserve",
          "_user": "the address of the borrower"
        }
      }
    },
    "title": "LendingPoolLiquidationManager contract",
    "version": 1
  },
  "userdoc": {
    "kind": "user",
    "methods": {},
    "notice": "Implements the liquidation function.*",
    "version": 1
  }
}