{
  "contractName": "MockFlashLoanReceiver",
  "abi": [
    {
      "inputs": [
        {
          "internalType": "contract ILendingPoolAddressesProvider",
          "name": "_provider",
          "type": "address"
        }
      ],
      "stateMutability": "nonpayable",
      "type": "constructor"
    },
    {
      "inputs": [
        {
          "internalType": "address",
          "name": "target",
          "type": "address"
        }
      ],
      "name": "AddressEmptyCode",
      "type": "error"
    },
    {
      "inputs": [
        {
          "internalType": "address",
          "name": "account",
          "type": "address"
        }
      ],
      "name": "AddressInsufficientBalance",
      "type": "error"
    },
    {
      "inputs": [],
      "name": "FailedInnerCall",
      "type": "error"
    },
    {
      "inputs": [
        {
          "internalType": "address",
          "name": "token",
          "type": "address"
        }
      ],
      "name": "SafeERC20FailedOperation",
      "type": "error"
    },
    {
      "anonymous": false,
      "inputs": [
        {
          "indexed": false,
          "internalType": "address",
          "name": "_reserve",
          "type": "address"
        },
        {
          "indexed": false,
          "internalType": "uint256",
          "name": "_amount",
          "type": "uint256"
        },
        {
          "indexed": false,
          "internalType": "uint256",
          "name": "_fee",
          "type": "uint256"
        }
      ],
      "name": "ExecutedWithFail",
      "type": "event"
    },
    {
      "anonymous": false,
      "inputs": [
        {
          "indexed": false,
          "internalType": "address",
          "name": "_reserve",
          "type": "address"
        },
        {
          "indexed": false,
          "internalType": "uint256",
          "name": "_amount",
          "type": "uint256"
        },
        {
          "indexed": false,
          "internalType": "uint256",
          "name": "_fee",
          "type": "uint256"
        }
      ],
      "name": "ExecutedWithSuccess",
      "type": "event"
    },
    {
      "stateMutability": "payable",
      "type": "fallback"
    },
    {
      "inputs": [],
      "name": "addressesProvider",
      "outputs": [
        {
          "internalType": "contract ILendingPoolAddressesProvider",
          "name": "",
          "type": "address"
        }
      ],
      "stateMutability": "view",
      "type": "function"
    },
    {
      "inputs": [
        {
          "internalType": "bool",
          "name": "_fail",
          "type": "bool"
        }
      ],
      "name": "setFailExecutionTransfer",
      "outputs": [],
      "stateMutability": "nonpayable",
      "type": "function"
    },
    {
      "inputs": [
        {
          "internalType": "address",
          "name": "_reserve",
          "type": "address"
        },
        {
          "internalType": "uint256",
          "name": "_amount",
          "type": "uint256"
        },
        {
          "internalType": "uint256",
          "name": "_fee",
          "type": "uint256"
        },
        {
          "internalType": "bytes",
          "name": "",
          "type": "bytes"
        }
      ],
      "name": "executeOperation",
      "outputs": [],
      "stateMutability": "nonpayable",
      "type": "function"
    }
  ],
  "bytecode": "0x60803461007357601f61067e38819003918201601f19168301916001600160401b038311848410176100775780849260209460405283398101031261007357516001600160a01b03811690819003610073575f80546001600160a81b0319169190911790556040516105f2908161008c8239f35b5f80fd5b634e487b7160e01b5f52604160045260245ffdfe608080604052600436101561001057005b5f3560e01c908163388f70f1146100f0578163c72c4d10146100ce575063ee8725581461003957005b346100ca5760803660031901126100ca576004356001600160a01b03811681036100ca576064359067ffffffffffffffff82116100ca57366023830112156100ca5781600401359161008a83610162565b90610098604051928361012c565b83825236602485830101116100ca57835f926100c895602460209401848301370101526044359060243590610196565b005b5f80fd5b346100ca575f3660031901126100ca575f546001600160a01b03168152602090f35b346100ca5760203660031901126100ca576004358015158091036100ca575f805460ff60a01b191660a09290921b60ff60a01b16919091179055005b90601f8019910116810190811067ffffffffffffffff82111761014e57604052565b634e487b7160e01b5f52604160045260245ffd5b67ffffffffffffffff811161014e57601f01601f191660200190565b908160209103126100ca575180151581036100ca5790565b6001600160a01b038181166101ab83306103b8565b84116103745760ff5f5460a01c166103265773eeeeeeeeeeeeeeeeeeeeeeeeeeeeeeeeeeeeeeee81036102cd575b50838301908184116102b9578060206004925f54166040519384809263076b7fbb60e51b82525afa9182156102ae575f9261026b575b50509361024161026692847f7d94e9d0c906b8d7b2b52a581b9e9ba728aa6f8cd8532bd87243d193f47401be97610475565b60405193849384604091949392606082019560018060a01b0316825260208201520152565b0390a1565b909591506020813d6020116102a6575b816102886020938361012c565b810103126100ca575194851685036100ca579361024161026661020f565b3d915061027b565b6040513d5f823e3d90fd5b634e487b7160e01b5f52601160045260245ffd5b60205f9160246040518094819363140e25ad60e31b83528a60048401525af180156102ae57156101d9576103189060203d60201161031f575b610310818361012c565b81019061017e565b505f6101d9565b503d610306565b5050604080516001600160a01b0390921682526020820192909252908101919091527f816f6a6bc084e1996be1a831afa1af30763d0501b6b43b9e1922a11f347366d7908060608101610266565b606460405162461bcd60e51b815260206004820152602060248201527f496e76616c69642062616c616e636520666f722074686520636f6e74726163746044820152fd5b906001600160a01b039081169073eeeeeeeeeeeeeeeeeeeeeeeeeeeeeeeeeeeeeeee8214610440576040516370a0823160e01b815292166004830152602090829060249082905afa9081156102ae575f91610411575090565b90506020813d602011610438575b8161042c6020938361012c565b810103126100ca575190565b3d915061041f565b50503190565b3d15610470573d9061045782610162565b91610465604051938461012c565b82523d5f602084013e565b606090565b6001600160a01b039182169290919073eeeeeeeeeeeeeeeeeeeeeeeeeeeeeeeeeeeeeeee84146105405760405191602083019363a9059cbb60e01b85521660248301526044820152604481526080810181811067ffffffffffffffff82111761014e57604052516104f7915f91829182865af16104f0610446565b9083610559565b8051908115159182610525575b505061050d5750565b60249060405190635274afe760e01b82526004820152fd5b610538925060208091830101910161017e565b155f80610504565b5f935083929083928392165af150610556610446565b50565b90610580575080511561056e57805190602001fd5b604051630a12f52160e11b8152600490fd5b815115806105b3575b610591575090565b604051639996b31560e01b81526001600160a01b039091166004820152602490fd5b50803b1561058956fea264697066735822122016d0ba02556160d157d0734e6a609fbcdc3b7003ed7f7b94fa864137213bd16164736f6c63430008180033",
  "immutableReferences": {},
  "source": "pragma solidity ^0.8.24;\r\n\r\nimport \"../../flashloan/base/FlashLoanReceiverBase.sol\";\r\nimport \"../tokens/MintableERC20.sol\";\r\n\r\ncontract MockFlashLoanReceiver is FlashLoanReceiverBase {\r\n\r\n    event ExecutedWithFail(address _reserve, uint256 _amount, uint256 _fee);\r\n    event ExecutedWithSuccess(address _reserve, uint256 _amount, uint256 _fee);\r\n\r\n\r\n    bool failExecution = false;\r\n\r\n    constructor(ILendingPoolAddressesProvider _provider) FlashLoanReceiverBase(_provider) {\r\n    }\r\n\r\n    function setFailExecutionTransfer(bool _fail) public {\r\n        failExecution = _fail;\r\n    }\r\n\r\n    function executeOperation(\r\n        address _reserve,\r\n        uint256 _amount,\r\n        uint256 _fee,\r\n        bytes memory /*_params*/) public {\r\n        //mint to this contract the specific amount\r\n        MintableERC20 token = MintableERC20(_reserve);\r\n\r\n\r\n        //check the contract has the specified balance\r\n        require(_amount <= getBalanceInternal(address(this), _reserve), \"Invalid balance for the contract\");\r\n\r\n        if(failExecution) {\r\n            emit ExecutedWithFail(_reserve, _amount, _fee);\r\n            return;\r\n        }\r\n\r\n        //execution does not fail - mint tokens and return them to the _destination\r\n        //note: if the reserve is eth, the mock contract must receive at least _fee ETH before calling executeOperation\r\n\r\n        if(_reserve != EthAddressLib.ethAddress()) {\r\n            token.mint(_fee);\r\n        }\r\n        //returning amount + fee to the destination\r\n        transferFundsBackToPoolInternal(_reserve, _amount + _fee);\r\n        emit ExecutedWithSuccess(_reserve, _amount, _fee);\r\n    }\r\n}",
  "sourcePath": "C:\\Proj\\fork-protocol\\contracts\\mocks\\flashloan\\MockFlashLoanReceiver.sol",
  "compiler": {
    "name": "solc",
    "version": "0.8.24+commit.e11b9ed9.Emscripten.clang"
  },
  "schemaVersion": "3.4.16",
  "updatedAt": "2024-02-11T21:41:58.811Z",
  "devdoc": {
    "errors": {
      "AddressEmptyCode(address)": [
        {
          "details": "There's no code at `target` (it is not a contract)."
        }
      ],
      "AddressInsufficientBalance(address)": [
        {
          "details": "The ETH balance of the account is not enough to perform the operation."
        }
      ],
      "FailedInnerCall()": [
        {
          "details": "A call to an address target failed. The target may have reverted."
        }
      ],
      "SafeERC20FailedOperation(address)": [
        {
          "details": "An operation with an ERC20 token failed."
        }
      ]
    },
    "kind": "dev",
    "methods": {},
    "version": 1
  },
  "userdoc": {
    "kind": "user",
    "methods": {},
    "version": 1
  }
}