{
  "contractName": "MockAggregatorTUSD",
  "abi": [
    {
      "inputs": [
        {
          "internalType": "int256",
          "name": "_initialAnswer",
          "type": "int256"
        }
      ],
      "stateMutability": "nonpayable",
      "type": "constructor"
    },
    {
      "anonymous": false,
      "inputs": [
        {
          "indexed": true,
          "internalType": "int256",
          "name": "current",
          "type": "int256"
        },
        {
          "indexed": true,
          "internalType": "uint256",
          "name": "roundId",
          "type": "uint256"
        },
        {
          "indexed": false,
          "internalType": "uint256",
          "name": "timestamp",
          "type": "uint256"
        }
      ],
      "name": "AnswerUpdated",
      "type": "event"
    },
    {
      "inputs": [],
      "name": "latestAnswer",
      "outputs": [
        {
          "internalType": "int256",
          "name": "",
          "type": "int256"
        }
      ],
      "stateMutability": "view",
      "type": "function"
    }
  ],
  "bytecode": "0x60803461007c57601f61010938819003918201601f19168301916001600160401b038311848410176100805780849260209460405283398101031261007c575f90518082557f0559884fd3a460db3073b7fc896cc77986f16e378210ded43186175bf646fc5f6020604051428152a3604051607490816100958239f35b5f80fd5b634e487b7160e01b5f52604160045260245ffdfe60808060405260043610156011575f80fd5b5f3560e01c6350d25bcd146023575f80fd5b34603a575f366003190112603a576020905f548152f35b5f80fdfea26469706673582212201443f050d436fefe6a585ccf7c15608f9abc0061df0ae056e6ad19a4f203682264736f6c63430008180033",
  "immutableReferences": {},
  "source": "pragma solidity ^0.8.24;\r\n\r\nimport \"./MockAggregatorBase.sol\";\r\n\r\ncontract MockAggregatorTUSD is MockAggregatorBase {\r\n    constructor (int256 _initialAnswer) MockAggregatorBase(_initialAnswer) {}\r\n}",
  "sourcePath": "C:\\Proj\\fork-protocol\\contracts\\mocks\\oracle\\CLAggregators\\MockAggregatorTUSD.sol",
  "compiler": {
    "name": "solc",
    "version": "0.8.24+commit.e11b9ed9.Emscripten.clang"
  },
  "schemaVersion": "3.4.16",
  "updatedAt": "2024-02-11T21:41:58.837Z",
  "devdoc": {
    "kind": "dev",
    "methods": {},
    "version": 1
  },
  "userdoc": {
    "kind": "user",
    "methods": {},
    "version": 1
  }
}