{
  "contractName": "PriceOracle",
  "abi": [
    {
      "anonymous": false,
      "inputs": [
        {
          "indexed": false,
          "internalType": "address",
          "name": "_asset",
          "type": "address"
        },
        {
          "indexed": false,
          "internalType": "uint256",
          "name": "_price",
          "type": "uint256"
        },
        {
          "indexed": false,
          "internalType": "uint256",
          "name": "timestamp",
          "type": "uint256"
        }
      ],
      "name": "AssetPriceUpdated",
      "type": "event"
    },
    {
      "anonymous": false,
      "inputs": [
        {
          "indexed": false,
          "internalType": "uint256",
          "name": "_price",
          "type": "uint256"
        },
        {
          "indexed": false,
          "internalType": "uint256",
          "name": "timestamp",
          "type": "uint256"
        }
      ],
      "name": "EthPriceUpdated",
      "type": "event"
    },
    {
      "inputs": [
        {
          "internalType": "address",
          "name": "_asset",
          "type": "address"
        }
      ],
      "name": "getAssetPrice",
      "outputs": [
        {
          "internalType": "uint256",
          "name": "",
          "type": "uint256"
        }
      ],
      "stateMutability": "view",
      "type": "function"
    },
    {
      "inputs": [
        {
          "internalType": "address",
          "name": "_asset",
          "type": "address"
        },
        {
          "internalType": "uint256",
          "name": "_price",
          "type": "uint256"
        }
      ],
      "name": "setAssetPrice",
      "outputs": [],
      "stateMutability": "nonpayable",
      "type": "function"
    },
    {
      "inputs": [],
      "name": "getEthUsdPrice",
      "outputs": [
        {
          "internalType": "uint256",
          "name": "",
          "type": "uint256"
        }
      ],
      "stateMutability": "view",
      "type": "function"
    },
    {
      "inputs": [
        {
          "internalType": "uint256",
          "name": "_price",
          "type": "uint256"
        }
      ],
      "name": "setEthUsdPrice",
      "outputs": [],
      "stateMutability": "nonpayable",
      "type": "function"
    }
  ],
  "bytecode": "0x608080604052346100165761019b908161001b8239f35b5f80fdfe60806040908082526004361015610014575f80fd5b5f3560e01c90816351323f72146100ea57508063a0a8045e146100cc578063b3596f07146100965763b951883a1461004a575f80fd5b34610092576020366003190112610092577fb4f35977939fa8b5ffe552d517a8ff5223046b1fdd3ee0068ae38d1e2b8d001690600435806001558151908152426020820152a1005b5f80fd5b5034610092576020366003190112610092576020906001600160a01b036100bb61014f565b165f525f8252805f20549051908152f35b5034610092575f366003190112610092576020906001549051908152f35b82346100925780600319360112610092577fce6e0b57367bae95ca7198e1172f653ea64a645c16ab586b4cefa9237bfc2d929160609161012861014f565b6024359060018060a01b0316805f525f60205281835f2055835260208301524290820152a1005b600435906001600160a01b03821682036100925756fea26469706673582212200af6935116cdd0bb822848d32013c871f0a758577289ea144deb90f0ead4fced64736f6c63430008180033",
  "immutableReferences": {},
  "source": "pragma solidity ^0.8.24;\r\n\r\nimport \"../../interfaces/IPriceOracle.sol\";\r\n\r\n\r\ncontract PriceOracle is IPriceOracle {\r\n\r\n    mapping(address => uint256) prices;\r\n    uint256 ethPriceUsd;\r\n\r\n    event AssetPriceUpdated(address _asset, uint256 _price, uint256 timestamp);\r\n    event EthPriceUpdated(uint256 _price, uint256 timestamp);\r\n\r\n    function getAssetPrice(address _asset) external view returns(uint256) {\r\n        return prices[_asset];\r\n    }\r\n\r\n    function setAssetPrice(address _asset, uint256 _price) external {\r\n        prices[_asset] = _price;\r\n        emit AssetPriceUpdated(_asset, _price, block.timestamp);\r\n    }\r\n\r\n    function getEthUsdPrice() external view returns(uint256) {\r\n        return ethPriceUsd;\r\n    }\r\n\r\n    function setEthUsdPrice(uint256 _price) external {\r\n        ethPriceUsd = _price;\r\n        emit EthPriceUpdated(_price, block.timestamp);\r\n    }\r\n}",
  "sourcePath": "C:\\Proj\\fork-protocol\\contracts\\mocks\\oracle\\PriceOracle.sol",
  "compiler": {
    "name": "solc",
    "version": "0.8.24+commit.e11b9ed9.Emscripten.clang"
  },
  "schemaVersion": "3.4.16",
  "updatedAt": "2024-02-11T21:41:58.850Z",
  "devdoc": {
    "kind": "dev",
    "methods": {},
    "version": 1
  },
  "userdoc": {
    "kind": "user",
    "methods": {},
    "version": 1
  }
}