{
  "contractName": "TokenDistributor",
  "abi": [
    {
      "inputs": [
        {
          "internalType": "address",
          "name": "target",
          "type": "address"
        }
      ],
      "name": "AddressEmptyCode",
      "type": "error"
    },
    {
      "inputs": [
        {
          "internalType": "address",
          "name": "account",
          "type": "address"
        }
      ],
      "name": "AddressInsufficientBalance",
      "type": "error"
    },
    {
      "inputs": [],
      "name": "FailedInnerCall",
      "type": "error"
    },
    {
      "inputs": [],
      "name": "ReentrancyGuardReentrantCall",
      "type": "error"
    },
    {
      "inputs": [
        {
          "internalType": "address",
          "name": "token",
          "type": "address"
        }
      ],
      "name": "SafeERC20FailedOperation",
      "type": "error"
    },
    {
      "anonymous": false,
      "inputs": [
        {
          "indexed": false,
          "internalType": "address",
          "name": "receiver",
          "type": "address"
        },
        {
          "indexed": false,
          "internalType": "uint256",
          "name": "percentage",
          "type": "uint256"
        },
        {
          "indexed": false,
          "internalType": "uint256",
          "name": "amount",
          "type": "uint256"
        }
      ],
      "name": "Distributed",
      "type": "event"
    },
    {
      "anonymous": false,
      "inputs": [
        {
          "indexed": false,
          "internalType": "address[]",
          "name": "receivers",
          "type": "address[]"
        },
        {
          "indexed": false,
          "internalType": "uint256[]",
          "name": "percentages",
          "type": "uint256[]"
        }
      ],
      "name": "DistributionUpdated",
      "type": "event"
    },
    {
      "stateMutability": "payable",
      "type": "fallback"
    },
    {
      "inputs": [],
      "name": "DISTRIBUTION_BASE",
      "outputs": [
        {
          "internalType": "uint256",
          "name": "",
          "type": "uint256"
        }
      ],
      "stateMutability": "view",
      "type": "function"
    },
    {
      "inputs": [],
      "name": "IMPLEMENTATION_REVISION",
      "outputs": [
        {
          "internalType": "uint256",
          "name": "",
          "type": "uint256"
        }
      ],
      "stateMutability": "view",
      "type": "function"
    },
    {
      "inputs": [],
      "name": "KYBER_ETH_MOCK_ADDRESS",
      "outputs": [
        {
          "internalType": "address",
          "name": "",
          "type": "address"
        }
      ],
      "stateMutability": "view",
      "type": "function"
    },
    {
      "inputs": [],
      "name": "MAX_UINT",
      "outputs": [
        {
          "internalType": "uint256",
          "name": "",
          "type": "uint256"
        }
      ],
      "stateMutability": "view",
      "type": "function"
    },
    {
      "inputs": [],
      "name": "MAX_UINT_MINUS_ONE",
      "outputs": [
        {
          "internalType": "uint256",
          "name": "",
          "type": "uint256"
        }
      ],
      "stateMutability": "view",
      "type": "function"
    },
    {
      "inputs": [],
      "name": "MIN_CONVERSION_RATE",
      "outputs": [
        {
          "internalType": "uint256",
          "name": "",
          "type": "uint256"
        }
      ],
      "stateMutability": "view",
      "type": "function"
    },
    {
      "inputs": [],
      "name": "kyberProxy",
      "outputs": [
        {
          "internalType": "contract IKyberNetworkProxyInterface",
          "name": "",
          "type": "address"
        }
      ],
      "stateMutability": "view",
      "type": "function"
    },
    {
      "inputs": [],
      "name": "recipientBurn",
      "outputs": [
        {
          "internalType": "address",
          "name": "",
          "type": "address"
        }
      ],
      "stateMutability": "view",
      "type": "function"
    },
    {
      "inputs": [],
      "name": "tokenToBurn",
      "outputs": [
        {
          "internalType": "address",
          "name": "",
          "type": "address"
        }
      ],
      "stateMutability": "view",
      "type": "function"
    },
    {
      "inputs": [
        {
          "internalType": "address[]",
          "name": "_receivers",
          "type": "address[]"
        },
        {
          "internalType": "uint256[]",
          "name": "_percentages",
          "type": "uint256[]"
        }
      ],
      "name": "initialize",
      "outputs": [],
      "stateMutability": "nonpayable",
      "type": "function"
    },
    {
      "inputs": [
        {
          "internalType": "contract IERC20[]",
          "name": "_tokens",
          "type": "address[]"
        }
      ],
      "name": "distribute",
      "outputs": [],
      "stateMutability": "nonpayable",
      "type": "function"
    },
    {
      "inputs": [
        {
          "internalType": "contract IERC20[]",
          "name": "_tokens",
          "type": "address[]"
        },
        {
          "internalType": "uint256[]",
          "name": "_amounts",
          "type": "uint256[]"
        }
      ],
      "name": "distributeWithAmounts",
      "outputs": [],
      "stateMutability": "nonpayable",
      "type": "function"
    },
    {
      "inputs": [
        {
          "internalType": "contract IERC20[]",
          "name": "_tokens",
          "type": "address[]"
        },
        {
          "internalType": "uint256[]",
          "name": "_percentages",
          "type": "uint256[]"
        }
      ],
      "name": "distributeWithPercentages",
      "outputs": [],
      "stateMutability": "nonpayable",
      "type": "function"
    },
    {
      "inputs": [],
      "name": "getDistribution",
      "outputs": [
        {
          "internalType": "address[]",
          "name": "receivers",
          "type": "address[]"
        },
        {
          "internalType": "uint256[]",
          "name": "percentages",
          "type": "uint256[]"
        }
      ],
      "stateMutability": "view",
      "type": "function"
    }
  ],
  "bytecode": "0x6080806040523461001e5760015f555f600155610e9f90816100238239f35b5f80fdfe608060409080825260048036101561001357005b5f3560e01c918263043c41d41461083e5750816313520658146108225781631cced51b14610798578163217ab8061461077057816323879bb11461075557816340d58a4a1461073a5781634f1b86eb146107125781636138889b146106065781637fbbe46f146102965781638c0c9a2514610268578163cc8cc9d81461021d578163e5b5019a14610202578163eed64c30146100e1575063f0eeed81146100b657005b346100dd575f3660031901126100dd5760375490516001600160a01b039091168152602090f35b5f80fd5b82346100dd576100f036610a0b565b925f5b8251811015610200576001600160a01b039073eeeeeeeeeeeeeeeeeeeeeeeeeeeeeeeeeeeeeeee826101258387610ac0565b5116146101e757816101378286610ac0565b511691855180936370a0823160e01b8252308683015281602460209687935afa9384156101dd575f946101aa575b50506064610180600194610179858b610ac0565b5190610ae8565b045b80156101a35761019d916101968488610ac0565b5116610b4e565b016100f3565b505061019d565b90809450813d83116101d6575b6101c18183610901565b810103126100dd579151916064610180610165565b503d6101b7565b87513d5f823e3d90fd5b60019160646101fa47610179858b610ac0565b04610182565b005b82346100dd575f3660031901126100dd57515f198152602090f35b346100dd5761022b36610a0b565b905f5b8151811015610200576001906102626001600160a01b0361024f8386610ac0565b511661025b8387610ac0565b5190610b4e565b0161022e565b82346100dd575f3660031901126100dd576020905173eeeeeeeeeeeeeeeeeeeeeeeeeeeeeeeeeeeeeeee8152f35b82346100dd57806003193601126100dd57813567ffffffffffffffff8082116100dd57366023830112156100dd5781840135906024926102d583610923565b926102e286519485610901565b80845260209182850186819360051b830101913683116100dd578701905b8282106105e75750505084358381116100dd5761032090369089016109ab565b946002549760ff8916988915998a6105de575b80156105d3575b1561057b5789610566575b5085518751036105265783885161035b816108d1565b87815201878152865186811161051457680100000000000000009485821161050257603554826035558083106104df575b5060355f525f5b8281106104b757505050519283519586116104a557851161049457505081906036548460365580851061045e575b50019060365f525f5b83811061042c57505050506104178351937fdc9f439f707945ade720b0154668dd64af0689fb88b40abdb0f0289156d23e9d858061040a8787859a610858565b0390a15192839283610858565b0390a161042057005b6002805460ff19169055005b82517f4a11f94e20a93c79f6ec743a1954ec4fc2c08429ae2122118bf234b2185c81b8820155918101916001016103ca565b61048e90857f4a11f94e20a93c79f6ec743a1954ec4fc2c08429ae2122118bf234b2185c81b89182019101610dd0565b886103c1565b604190634e487b7160e01b5f52525ffd5b50604190634e487b7160e01b5f52525ffd5b81516001600160a01b03165f80516020610e4a83398151915282015590870190600101610393565b6104fc90835f80516020610e4a8339815191529182019101610dd0565b8c61038c565b84604185634e487b7160e01b5f52525ffd5b83604184634e487b7160e01b5f52525ffd5b601d606492858a519362461bcd60e51b85528401528201527f4172726179206c656e677468732073686f756c6420626520657175616c0000006044820152fd5b60019060ff1916176002558060015589610345565b50602e608492858a519362461bcd60e51b85528401528201527f436f6e747261637420696e7374616e63652068617320616c726561647920626560448201526d195b881a5b9a5d1a585b1a5e995960921b6064820152fd5b50600154821161033a565b50303b15610333565b81356001600160a01b03811681036100dd578152908401908401610300565b9050346100dd5760209160206003193601126100dd57813567ffffffffffffffff81116100dd5761063a903690840161093b565b905f5b8251811015610200576001600160a01b039073eeeeeeeeeeeeeeeeeeeeeeeeeeeeeeeeeeeeeeee8261066f8387610ac0565b5116146107095781866024936106858488610ac0565b51168551948580926370a0823160e01b8252308b8301525afa80156106ff575f906106d1575b600193505b80156106ca576106c4916101968488610ac0565b0161063d565b50506106c4565b508683813d83116106f8575b6106e78183610901565b810103126100dd57600192516106ab565b503d6106dd565b84513d5f823e3d90fd5b600191476106b0565b82346100dd575f3660031901126100dd5760385490516001600160a01b039091168152602090f35b82346100dd575f3660031901126100dd576020905160018152f35b9050346100dd575f3660031901126100dd5760209151908152f35b82346100dd575f3660031901126100dd5760395490516001600160a01b039091168152602090f35b82346100dd575f3660031901126100dd578051808160355480835260208093019060355f525f80516020610e4a833981519152935f905b8282106107ff575050506107e592500382610901565b6107fb6107f0610a52565b925192839283610858565b0390f35b85546001600160a01b0316845260019586019587955093810193909101906107cf565b82346100dd575f3660031901126100dd57602090516127108152f35b346100dd575f3660031901126100dd576001198152602090f35b604081019060408152825180925260608101916020809401905f5b8181106108b457505050828183039101528180845192838152019301915f5b8281106108a0575050505090565b835185529381019392810192600101610892565b82516001600160a01b031685529385019391850191600101610873565b6040810190811067ffffffffffffffff8211176108ed57604052565b634e487b7160e01b5f52604160045260245ffd5b90601f8019910116810190811067ffffffffffffffff8211176108ed57604052565b67ffffffffffffffff81116108ed5760051b60200190565b9080601f830112156100dd57602090823561095581610923565b936109636040519586610901565b81855260208086019260051b8201019283116100dd57602001905b82821061098c575050505090565b81356001600160a01b03811681036100dd57815290830190830161097e565b9080601f830112156100dd5760209082356109c581610923565b936109d36040519586610901565b81855260208086019260051b8201019283116100dd57602001905b8282106109fc575050505090565b813581529083019083016109ee565b9060406003198301126100dd5767ffffffffffffffff6004358181116100dd5783610a389160040161093b565b926024359182116100dd57610a4f916004016109ab565b90565b6040519060365480835282602091602082019060365f527f4a11f94e20a93c79f6ec743a1954ec4fc2c08429ae2122118bf234b2185c81b8935f905b828210610aa657505050610aa492500383610901565b565b855484526001958601958895509381019390910190610a8e565b8051821015610ad45760209160051b010190565b634e487b7160e01b5f52603260045260245ffd5b81810292918115918404141715610afb57565b634e487b7160e01b5f52601160045260245ffd5b3d15610b49573d9067ffffffffffffffff82116108ed5760405191610b3e601f8201601f191660200184610901565b82523d5f602084013e565b606090565b604080516001600160a01b03928316949392610b69826108d1565b8251918260355480855260208095019060355f525f80516020610e4a833981519152905f5b818110610dba5750505081610ba4910382610901565b8152610bae610a52565b8184019081529673eeeeeeeeeeeeeeeeeeeeeeeeeeeeeeeeeeeeeeee811415955f5b835151811015610dae57612710610bf2610beb838d51610ac0565b5184610ae8565b048015610da5578815610d195785610c0b838751610ac0565b511688518881019063a9059cbb60e01b8252602492838201526044848183015281526080810181811067ffffffffffffffff821117610d06578b5251610c62915f918291828a5af1610c5b610b0f565b9087610de6565b8051898115159182610ce5575b50509050610cd05750907f60ce3cc2d133631eac66a476f14997a9fa682bd05a60dd993cf02285822d78d860608c6001945b610cba858b610cb1828d51610ac0565b51169351610ac0565b518c519283528b8301528b820152a15b01610bd0565b8851635274afe760e01b815260048101869052fd5b83809293500103126100dd578801518015908115036100dd5780895f610c6f565b83634e487b7160e01b5f5260416004525ffd5b5f808080848a610d2a888c51610ac0565b51165af1610d36610b0f565b5015610d6957907f60ce3cc2d133631eac66a476f14997a9fa682bd05a60dd993cf02285822d78d860608c600194610ca1565b875162461bcd60e51b81526004810188905260156024820152742932bb32b93a32b21022aa24103a3930b739b332b960591b6044820152606490fd5b50600190610cca565b50505050505050509050565b8254871684529287019260019283019201610b8e565b818110610ddb575050565b5f8155600101610dd0565b90610e0d5750805115610dfb57805190602001fd5b604051630a12f52160e11b8152600490fd5b81511580610e40575b610e1e575090565b604051639996b31560e01b81526001600160a01b039091166004820152602490fd5b50803b15610e1656fecfa4bec1d3298408bb5afcfcd9c430549c5b31f8aa5c5848151c0a55f473c34da26469706673582212202b8e79d4a6e6ad54d403e5085a6d47eb66196a8376a963187304d830e0f4762d64736f6c63430008180033",
  "immutableReferences": {},
  "source": "pragma solidity ^0.8.24;\r\n\r\nimport \"../../lib/openzeppelin-contracts/contracts/utils/ReentrancyGuard.sol\";\r\nimport \"../../lib/openzeppelin-contracts/contracts/token/ERC20/utils/SafeERC20.sol\";\r\nimport \"../libraries/openzeppelin-upgradeability/VersionedInitializable.sol\";\r\nimport \"../libraries/EthAddressLib.sol\";\r\nimport \"../interfaces/IKyberNetworkProxyInterface.sol\";\r\n\r\n\r\n/// @title TokenDistributor\r\n/// @author Aave\r\n/// @notice Receives tokens and manages the distribution amongst receivers\r\n///  The usage is as follows:\r\n///  - The distribution addresses and percentages are set up on construction\r\n///  - The Kyber Proxy is approved for a list of tokens in construction, which will be later burnt\r\n///  - At any moment, anyone can call distribute() with a list of token addresses in order to distribute\r\n///    the accumulated token amounts and/or ETH in this contract to all the receivers with percentages\r\n///  - If the address(0) is used as receiver, this contract will trade in Kyber to tokenToBurn (LEND)\r\n///    and burn it (sending to address(0) the tokenToBurn)\r\ncontract TokenDistributor is ReentrancyGuard, VersionedInitializable {\r\n    using SafeERC20 for IERC20;\r\n\r\n    struct Distribution {\r\n        address[] receivers;\r\n        uint256[] percentages;\r\n    }\r\n\r\n    event DistributionUpdated(address[] receivers, uint256[] percentages);\r\n    event Distributed(address receiver, uint256 percentage, uint256 amount);\r\n\r\n    uint256 public constant IMPLEMENTATION_REVISION = 0x4;\r\n\r\n    /// @notice DEPRECATED\r\n    uint256 public constant MAX_UINT = 2**256 - 1;\r\n\r\n    /// @notice DEPRECATED\r\n    uint256 public constant MAX_UINT_MINUS_ONE = (2**256 - 1) - 1;\r\n\r\n    /// @notice DEPRECATED\r\n    uint256 public constant MIN_CONVERSION_RATE = 1;\r\n\r\n    /// @notice DEPRECATED\r\n    address public constant KYBER_ETH_MOCK_ADDRESS = address(0x00eeeeeeeeeeeeeeeeeeeeeeeeeeeeeeeeeeeeeeee);\r\n\r\n    /// @notice Defines how tokens and ETH are distributed on each call to .distribute()\r\n    Distribution private distribution;\r\n\r\n    /// @notice Instead of using 100 for percentages, higher base to have more precision in the distribution\r\n    uint256 public constant DISTRIBUTION_BASE = 10000;\r\n\r\n   /// @notice DEPRECATED\r\n    IKyberNetworkProxyInterface public kyberProxy;\r\n\r\n    /// @notice The address of the token to burn (LEND token)\r\n    address public tokenToBurn;\r\n\r\n    /// @notice DEPRECATED\r\n    address public recipientBurn;\r\n\r\n    /// @notice DEPRECATED\r\n    //IExchangeAdapter public exchangeAdapter;\r\n\r\n    /// @notice Called by the proxy when setting this contract as implementation\r\n    function initialize(\r\n        address[] memory _receivers,\r\n        uint256[] memory _percentages\r\n    ) public initializer {\r\n        internalSetTokenDistribution(_receivers, _percentages);\r\n        emit DistributionUpdated(_receivers, _percentages);    \r\n        \r\n    }\r\n\r\n    /// @notice In order to receive ETH transfers\r\n    fallback() external payable {}\r\n\r\n\r\n    /// @notice Distributes the whole balance of a list of _tokens balances in this contract\r\n    /// @param _tokens list of ERC20 tokens to distribute\r\n    function distribute(IERC20[] memory _tokens) public {\r\n        for (uint256 i = 0; i < _tokens.length; i++) {\r\n            uint256 _balanceToDistribute = (address(_tokens[i]) != EthAddressLib.ethAddress())\r\n                ? _tokens[i].balanceOf(address(this))\r\n                : address(this).balance;\r\n            if (_balanceToDistribute <= 0) {\r\n                continue;\r\n            }\r\n\r\n            internalDistributeTokenWithAmount(_tokens[i], _balanceToDistribute);\r\n        }\r\n    }\r\n\r\n    /// @notice Distributes specific amounts of a list of _tokens\r\n    /// @param _tokens list of ERC20 tokens to distribute\r\n    /// @param _amounts list of amounts to distribute per token\r\n    function distributeWithAmounts(IERC20[] memory _tokens, uint256[] memory _amounts) public {\r\n        for (uint256 i = 0; i < _tokens.length; i++) {\r\n            internalDistributeTokenWithAmount(_tokens[i], _amounts[i]);\r\n        }\r\n    }\r\n\r\n    /// @notice Distributes specific total balance's percentages of a list of _tokens\r\n    /// @param _tokens list of ERC20 tokens to distribute\r\n    /// @param _percentages list of percentages to distribute per token\r\n    function distributeWithPercentages(IERC20[] memory _tokens, uint256[] memory _percentages) public {\r\n        for (uint256 i = 0; i < _tokens.length; i++) {\r\n            uint256 _amountToDistribute = (address(_tokens[i]) != EthAddressLib.ethAddress())\r\n                ? _tokens[i].balanceOf(address(this)) * _percentages[i] / 100\r\n                : address(this).balance * _percentages[i] / 100;\r\n            if (_amountToDistribute <= 0) {\r\n                continue;\r\n            }\r\n\r\n            internalDistributeTokenWithAmount(_tokens[i], _amountToDistribute);\r\n        }\r\n    }\r\n\r\n    /// @notice Sets _receivers addresses with _percentages for each one\r\n    /// @param _receivers Array of addresses receiving a percentage of the distribution, both user addresses\r\n    ///   or contracts\r\n    /// @param _percentages Array of percentages each _receivers member will get\r\n    function internalSetTokenDistribution(address[] memory _receivers, uint256[] memory _percentages) internal {\r\n        require(_receivers.length == _percentages.length, \"Array lengths should be equal\");\r\n\r\n        distribution = Distribution({receivers: _receivers, percentages: _percentages});\r\n        emit DistributionUpdated(_receivers, _percentages);\r\n    }\r\n\r\n    /// @notice Distributes a specific amount of a token owned by this contract\r\n    /// @param _token The ERC20 token to distribute\r\n    /// @param _amountToDistribute The specific amount to distribute\r\n    function internalDistributeTokenWithAmount(IERC20 _token, uint256 _amountToDistribute) internal {\r\n        address _tokenAddress = address(_token);\r\n        Distribution memory _distribution = distribution;\r\n        for (uint256 j = 0; j < _distribution.receivers.length; j++) {\r\n            uint256 _amount = _amountToDistribute * _distribution.percentages[j] / DISTRIBUTION_BASE;\r\n\r\n            //avoid transfers/burns of 0 tokens\r\n            if(_amount == 0){\r\n                continue;\r\n            }\r\n\r\n            if (_tokenAddress != EthAddressLib.ethAddress()) {\r\n                _token.safeTransfer(_distribution.receivers[j], _amount);\r\n            } else {\r\n                //solium-disable-next-line\r\n                (bool _success,) = _distribution.receivers[j].call{value: _amount}(\"\");\r\n                require(_success, \"Reverted ETH transfer\");\r\n            }\r\n            emit Distributed(_distribution.receivers[j], _distribution.percentages[j], _amount);\r\n            \r\n        }\r\n    }\r\n\r\n    /// @notice Returns the receivers and percentages of the contract Distribution\r\n    /// @return receivers array of addresses and percentages array on uints\r\n    function getDistribution() public view returns(address[] memory receivers, uint256[] memory percentages) {\r\n        receivers = distribution.receivers;\r\n        percentages = distribution.percentages;\r\n    }\r\n\r\n    /// @notice Gets the revision number of the contract\r\n    /// @return The revision numeric reference\r\n    function getRevision() internal pure override returns (uint256) {\r\n        return IMPLEMENTATION_REVISION;\r\n    }\r\n\r\n}",
  "sourcePath": "C:\\Proj\\fork-protocol\\contracts\\fees\\TokenDistributor.sol",
  "compiler": {
    "name": "solc",
    "version": "0.8.24+commit.e11b9ed9.Emscripten.clang"
  },
  "schemaVersion": "3.4.16",
  "updatedAt": "2024-02-11T21:41:58.612Z",
  "devdoc": {
    "author": "Aave",
    "errors": {
      "AddressEmptyCode(address)": [
        {
          "details": "There's no code at `target` (it is not a contract)."
        }
      ],
      "AddressInsufficientBalance(address)": [
        {
          "details": "The ETH balance of the account is not enough to perform the operation."
        }
      ],
      "FailedInnerCall()": [
        {
          "details": "A call to an address target failed. The target may have reverted."
        }
      ],
      "ReentrancyGuardReentrantCall()": [
        {
          "details": "Unauthorized reentrant call."
        }
      ],
      "SafeERC20FailedOperation(address)": [
        {
          "details": "An operation with an ERC20 token failed."
        }
      ]
    },
    "kind": "dev",
    "methods": {
      "distribute(address[])": {
        "params": {
          "_tokens": "list of ERC20 tokens to distribute"
        }
      },
      "distributeWithAmounts(address[],uint256[])": {
        "params": {
          "_amounts": "list of amounts to distribute per token",
          "_tokens": "list of ERC20 tokens to distribute"
        }
      },
      "distributeWithPercentages(address[],uint256[])": {
        "params": {
          "_percentages": "list of percentages to distribute per token",
          "_tokens": "list of ERC20 tokens to distribute"
        }
      },
      "getDistribution()": {
        "returns": {
          "receivers": "array of addresses and percentages array on uints"
        }
      }
    },
    "title": "TokenDistributor",
    "version": 1
  },
  "userdoc": {
    "kind": "user",
    "methods": {
      "DISTRIBUTION_BASE()": {
        "notice": "Instead of using 100 for percentages, higher base to have more precision in the distribution"
      },
      "KYBER_ETH_MOCK_ADDRESS()": {
        "notice": "DEPRECATED"
      },
      "MAX_UINT()": {
        "notice": "DEPRECATED"
      },
      "MAX_UINT_MINUS_ONE()": {
        "notice": "DEPRECATED"
      },
      "MIN_CONVERSION_RATE()": {
        "notice": "DEPRECATED"
      },
      "distribute(address[])": {
        "notice": "Distributes the whole balance of a list of _tokens balances in this contract"
      },
      "distributeWithAmounts(address[],uint256[])": {
        "notice": "Distributes specific amounts of a list of _tokens"
      },
      "distributeWithPercentages(address[],uint256[])": {
        "notice": "Distributes specific total balance's percentages of a list of _tokens"
      },
      "getDistribution()": {
        "notice": "Returns the receivers and percentages of the contract Distribution"
      },
      "initialize(address[],uint256[])": {
        "notice": "Called by the proxy when setting this contract as implementation"
      },
      "kyberProxy()": {
        "notice": "DEPRECATED"
      },
      "recipientBurn()": {
        "notice": "DEPRECATED"
      },
      "tokenToBurn()": {
        "notice": "The address of the token to burn (LEND token)"
      }
    },
    "notice": "Receives tokens and manages the distribution amongst receivers  The usage is as follows:  - The distribution addresses and percentages are set up on construction  - The Kyber Proxy is approved for a list of tokens in construction, which will be later burnt  - At any moment, anyone can call distribute() with a list of token addresses in order to distribute    the accumulated token amounts and/or ETH in this contract to all the receivers with percentages  - If the address(0) is used as receiver, this contract will trade in Kyber to tokenToBurn (LEND)    and burn it (sending to address(0) the tokenToBurn)",
    "version": 1
  }
}