{
  "contractName": "UintStorage",
  "abi": [
    {
      "inputs": [
        {
          "internalType": "bytes32",
          "name": "_key",
          "type": "bytes32"
        }
      ],
      "name": "getUint",
      "outputs": [
        {
          "internalType": "uint256",
          "name": "",
          "type": "uint256"
        }
      ],
      "stateMutability": "view",
      "type": "function"
    }
  ],
  "bytecode": "0x60808060405234601457608090816100198239f35b5f80fdfe60808060405260043610156011575f80fd5b5f3560e01c63bd02d0f5146023575f80fd5b3460465760203660031901126046576020906004355f525f825260405f20548152f35b5f80fdfea26469706673582212209f0f9853f1c724151dc6fbe263184db8ab363a45bceaee5e16c4f4793dfdb47964736f6c63430008180033",
  "immutableReferences": {},
  "source": "pragma solidity ^0.8.24;\r\n\r\ncontract UintStorage {\r\n    mapping(bytes32 => uint256) private uints;\r\n\r\n    function getUint(bytes32 _key) public view returns (uint256) {\r\n        return uints[_key];\r\n    }\r\n\r\n    function _setUint(bytes32 _key, uint256 _value) internal {\r\n        uints[_key] = _value;\r\n    }\r\n\r\n}\r\n",
  "sourcePath": "C:\\Proj\\fork-protocol\\contracts\\configuration\\UintStorage.sol",
  "compiler": {
    "name": "solc",
    "version": "0.8.24+commit.e11b9ed9.Emscripten.clang"
  },
  "schemaVersion": "3.4.16",
  "updatedAt": "2024-02-11T21:41:58.605Z",
  "devdoc": {
    "kind": "dev",
    "methods": {},
    "version": 1
  },
  "userdoc": {
    "kind": "user",
    "methods": {},
    "version": 1
  }
}