{
  "contractName": "WalletBalanceProvider",
  "abi": [
    {
      "inputs": [
        {
          "internalType": "contract LendingPoolAddressesProvider",
          "name": "_provider",
          "type": "address"
        }
      ],
      "stateMutability": "nonpayable",
      "type": "constructor"
    },
    {
      "stateMutability": "payable",
      "type": "fallback"
    },
    {
      "inputs": [
        {
          "internalType": "address",
          "name": "_user",
          "type": "address"
        },
        {
          "internalType": "address",
          "name": "_token",
          "type": "address"
        }
      ],
      "name": "balanceOf",
      "outputs": [
        {
          "internalType": "uint256",
          "name": "",
          "type": "uint256"
        }
      ],
      "stateMutability": "view",
      "type": "function"
    },
    {
      "inputs": [
        {
          "internalType": "address",
          "name": "_user",
          "type": "address"
        }
      ],
      "name": "getUserWalletBalances",
      "outputs": [
        {
          "internalType": "address[]",
          "name": "",
          "type": "address[]"
        },
        {
          "internalType": "uint256[]",
          "name": "",
          "type": "uint256[]"
        }
      ],
      "stateMutability": "view",
      "type": "function"
    }
  ],
  "bytecode": "0x60803461007357601f6105a638819003918201601f19168301916001600160401b038311848410176100775780849260209460405283398101031261007357516001600160a01b03811690819003610073575f80546001600160a01b03191691909117905560405161051a908161008c8239f35b5f80fd5b634e487b7160e01b5f52604160045260245ffdfe608060409080825260048036101561006d575b825162461bcd60e51b815260206004820152602e60248201527f57616c6c657442616c616e636550726f766964657220646f6573206e6f74206160448201526d6363657074207061796d656e747360901b6064820152608490fd5b5f3560e01c9182639e3c9309146100d557505063f7888aec14610091575f80610012565b346100d157806003193601126100d1576100a96103d5565b60243591906001600160a01b03831683036100d1576020926100ca91610461565b9051908152f35b5f80fd5b909150346100d157602090816003193601126100d1576100f36103d5565b5f5463076b7fbb60e51b835290916001600160a01b039184908290600490829086165afa801561026f5782915f9161039b575b508651630240bc6b60e21b81529691165f87600481845afa968715610391575f976102fa575b5086519461017161015c87610421565b96610169855198896103eb565b808852610421565b8682019790601f19013689375f5b89518110156102795785610193828c610439565b518651630283aeb760e11b8152911683820152908382602481885afa801561026f575f90610236575b600192501561022b5780878c73eeeeeeeeeeeeeeeeeeeeeeeeeeeeeeeeeeeeeeee826101e88584610439565b51161461021657610204926101fc91610439565b511689610461565b61020e828b610439565b525b0161017f565b5050508731610225828b610439565b52610210565b5f610225828b610439565b50908381813d8311610268575b61024d81836103eb565b810103126100d157519081151582036100d1576001916101bc565b503d610243565b86513d5f823e3d90fd5b85858a858d8c8451958587968701908752835180915284606088019401915f905b8282106102dd5750505050848203858401525180825290820192915f5b8281106102c657505050500390f35b8351855286955093810193928101926001016102b7565b83518116865289985094860194928601926001919091019061029a565b9096503d805f833e61030c81836103eb565b81019085818303126100d15780519067ffffffffffffffff82116100d157019080601f830112156100d157815161034281610421565b9261034f855194856103eb565b818452878085019260051b8201019283116100d1578701905b82821061037957505050955f61014c565b815186811681036100d1578152908701908701610368565b82513d5f823e3d90fd5b809250858092503d83116103ce575b6103b481836103eb565b810103126100d1575181811681036100d15781905f610126565b503d6103aa565b600435906001600160a01b03821682036100d157565b90601f8019910116810190811067ffffffffffffffff82111761040d57604052565b634e487b7160e01b5f52604160045260245ffd5b67ffffffffffffffff811161040d5760051b60200190565b805182101561044d5760209160051b010190565b634e487b7160e01b5f52603260045260245ffd5b813b156104de576040516370a0823160e01b81526001600160a01b0391821660048201529160209183916024918391165afa9081156104d3575f916104a4575090565b90506020813d6020116104cb575b816104bf602093836103eb565b810103126100d1575190565b3d91506104b2565b6040513d5f823e3d90fd5b50505f9056fea2646970667358221220cc6cb062675c22dd569ba4155e9b258790fa25ba47eab76402145e55c753d4c564736f6c63430008180033",
  "immutableReferences": {},
  "source": "pragma solidity ^0.8.24;\r\n\r\nimport \"../../lib/openzeppelin-contracts/contracts/utils/Address.sol\";\r\nimport \"../../lib/openzeppelin-contracts/contracts/token/ERC20/IERC20.sol\";\r\n\r\nimport \"../configuration/LendingPoolAddressesProvider.sol\";\r\nimport \"../lendingpool/LendingPoolCore.sol\";\r\nimport \"../libraries/EthAddressLib.sol\";\r\n\r\n\r\n/**\r\n* @title WalletBalanceProvider contract\r\n* @author Aave, influenced by https://github.com/wbobeirne/eth-balance-checker/blob/master/contracts/BalanceChecker.sol\r\n* @notice Implements a logic of getting multiple tokens balance for one user address\r\n* @dev NOTE: THIS CONTRACT IS NOT USED WITHIN THE AAVE PROTOCOL. It's an accessory contract used to reduce the number of calls\r\n* towards the blockchain from the Aave backend.\r\n**/\r\ncontract WalletBalanceProvider {\r\n\r\n    using Address for address;\r\n\r\n    LendingPoolAddressesProvider provider;\r\n\r\n    constructor(LendingPoolAddressesProvider _provider) {\r\n\r\n        provider = _provider;\r\n\r\n    }\r\n    /**\r\n    @dev Fallback function, don't accept any ETH\r\n    **/\r\n    fallback() external payable {\r\n        revert(\"WalletBalanceProvider does not accept payments\");\r\n    }\r\n\r\n    /**\r\n    @dev Check the token balance of a wallet in a token contract\r\n\r\n    Returns the balance of the token for user. Avoids possible errors:\r\n      - return 0 on non-contract address\r\n    **/\r\n    function balanceOf(address _user, address _token) public view returns (uint256) {\r\n        // check if token is actually a contract\r\n        if (_token.code.length > 0) {\r\n            return IERC20(_token).balanceOf(_user);\r\n        } else {\r\n            return 0;\r\n        }\r\n    }\r\n\r\n\r\n    /**\r\n    @dev provides balances of user wallet for all reserves available on the pool\r\n    */\r\n    function getUserWalletBalances(address _user) public view returns (address[] memory, uint256[] memory) {\r\n\r\n        LendingPoolCore core = LendingPoolCore(provider.getLendingPoolCore());\r\n\r\n        address[] memory reserves = core.getReserves();\r\n\r\n        uint256[] memory balances = new uint256[](reserves.length);\r\n\r\n        for (uint256 j = 0; j < reserves.length; j++) {\r\n            if(!core.getReserveIsActive(reserves[j])){\r\n                balances[j] = 0;\r\n                continue;\r\n            }\r\n            if (reserves[j] != EthAddressLib.ethAddress()) {\r\n                balances[j] = balanceOf(_user, reserves[j]);\r\n            } else {\r\n                balances[j] = _user.balance; // ETH balance\r\n            }\r\n        }\r\n\r\n        return (reserves, balances);\r\n    }\r\n}",
  "sourcePath": "C:\\Proj\\fork-protocol\\contracts\\misc\\WalletBalanceProvider.sol",
  "compiler": {
    "name": "solc",
    "version": "0.8.24+commit.e11b9ed9.Emscripten.clang"
  },
  "schemaVersion": "3.4.16",
  "updatedAt": "2024-02-11T21:41:58.808Z",
  "devdoc": {
    "author": "Aave, influenced by https://github.com/wbobeirne/eth-balance-checker/blob/master/contracts/BalanceChecker.sol",
    "details": "NOTE: THIS CONTRACT IS NOT USED WITHIN THE AAVE PROTOCOL. It's an accessory contract used to reduce the number of calls towards the blockchain from the Aave backend.*",
    "kind": "dev",
    "methods": {
      "balanceOf(address,address)": {
        "details": "Check the token balance of a wallet in a token contract Returns the balance of the token for user. Avoids possible errors: - return 0 on non-contract address*"
      },
      "getUserWalletBalances(address)": {
        "details": "provides balances of user wallet for all reserves available on the pool"
      }
    },
    "title": "WalletBalanceProvider contract",
    "version": 1
  },
  "userdoc": {
    "kind": "user",
    "methods": {},
    "notice": "Implements a logic of getting multiple tokens balance for one user address",
    "version": 1
  }
}